:020000040800F2
:1000000000000220E5470008833700088937000810
:100010008F370008953700089B3700080000000064
:10002000000000000000000000000000A1370008F0
:10003000AF37000800000000BD370008CB370008CC
:10004000354800083548000835480008354800089C
:10005000354800083548000835480008354800088C
:10006000354800083548000835480008354800087C
:10007000354800083548000835480008354800086C
:10008000354800083548000835480008354800085C
:10009000354800083548000835480008354800084C
:1000A000354800083548000835480008354800083C
:1000B000354800083548000835480008354800082C
:1000C000354800083548000835480008354800081C
:1000D000354800083548000835480008354800080C
:1000E00035480008354800083548000835480008FC
:1000F00035480008354800083548000835480008EC
:100100003548000835480008D93700083548000848
:1001100035480008354800083548000835480008CB
:10012000FD37000835480008354800083548000804
:1001300035480008000000000000000035480008B5
:10014000354800083548000835480008354800089B
:10015000354800083548000835480008354800088B
:10016000354800083548000835480008354800087B
:100170003548000835480008000000000000000075
:0801800035480008354800086D
:1001900010B5054C237833B9044B13B10448AFF3C1
:1001A00000800123237010BDD40100200000000056
:1001B000C488000808B5034B1BB103490348AFF3DB
:1001C000008008BD00000000D8010020C48800089D
:1001D000034613F8012B002AFBD1181A0138704787
:1001E00001F0FF01102A2BDB10F0070F08D010F8E8
:1001F000013B013A8B422DD010F0070F42B3F6D1EC
:10020000F0B441EA012141EA014122F007047FF004
:1002100000070023F0E80256083C85EA010586EA5B
:10022000010685FA47F5A3FA87F586FA47F6A5FA97
:1002300087F68EB9EED1F0BC01F0FF0102F00702A3
:1002400032B110F8013B013A83EA010313B1F8D14E
:100250000020704701387047002D06BF354603382F
:10026000073815F0010F07D1013015F4807F02BF68
:10027000013015F4C03F0130F0BC0138704700BFB9
:1002800081F0004102E000BF83F0004330B54FEA47
:1002900041044FEA430594EA050F08BF90EA020FB4
:1002A0001FBF54EA000C55EA020C7FEA645C7FEA47
:1002B000655C00F0E2804FEA5454D4EB5555B8BF6A
:1002C0006D420CDD2C4480EA020281EA030382EADB
:1002D000000083EA010180EA020281EA0303362D6D
:1002E00088BF30BD11F0004F4FEA01314FF4801C40
:1002F0004CEA113102D0404261EB410113F0004F52
:100300004FEA03334CEA133302D0524263EB430308
:1003100094EA050F00F0A780A4F10104D5F1200EA6
:100320000DDB02FA0EFC22FA05F2801841F1000101
:1003300003FA0EF2801843FA05F359410EE0A5F1D5
:1003400020050EF1200E012A03FA0EFC28BF4CF006
:10035000020C43FA05F3C01851EBE37101F00045BC
:1003600007D54FF0000EDCF1000C7EEB00006EEBC9
:100370000101B1F5801F1BD3B1F5001F0CD3490853
:100380005FEA30004FEA3C0C04F101044FEA4452AA
:1003900012F5800F80F09A80BCF1004F08BF5FEA31
:1003A000500C50F1000041EB045141EA050130BD11
:1003B0005FEA4C0C404141EB0101013C28BFB1F523
:1003C000801FE9D291F0000F04BF01460020B1FA6E
:1003D00081F308BF2033A3F10B03B3F120020CDA41
:1003E0000C3208DD02F1140CC2F10C0201FA0CF01F
:1003F00021FA02F10CE002F11402D8BFC2F1200C84
:1004000001FA02F120FA0CFCDCBF41EA0C01904039
:10041000E41AA2BF01EB0451294330BD6FEA040482
:100420001F3C1CDA0C340EDC04F11404C4F120026D
:1004300020FA04F001FA02F340EA030021FA04F37F
:1004400045EA030130BDC4F10C04C4F1200220FAD6
:1004500002F001FA04F340EA0300294630BD21FA14
:1004600004F0294630BD94F0000F83F4801306BFDA
:1004700081F480110134013D4EE77FEA645C18BFCE
:100480007FEA655C29D094EA050F08BF90EA020F65
:1004900005D054EA000C04BF1946104630BD91EA5D
:1004A000030F1EBF0021002030BD5FEA545C05D160
:1004B0004000494128BF41F0004130BD14F580049F
:1004C0003CBF01F5801130BD01F0004545F0FE4113
:1004D00041F470014FF0000030BD7FEA645C1ABF48
:1004E000194610467FEA655C1CBF0B46024650EA7F
:1004F000013406BF52EA033591EA030F41F40021AB
:1005000030BD00BF90F0000F04BF0021704730B530
:100510004FF4806404F132044FF000054FF0000105
:1005200050E700BF90F0000F04BF0021704730B5C6
:100530004FF4806404F1320410F0004548BF40429B
:100540004FF000013EE700BF42004FEAE2014FEAF0
:1005500031014FEA02701FBF12F07F4393F07F4FCB
:1005600081F06051704732F07F4208BF704793F0CE
:100570007F4F04BF41F40021704730B54FF46074E1
:1005800001F0004521F000411CE700BF50EA0102E4
:1005900008BF704730B54FF000050AE050EA01028D
:1005A00008BF704730B511F0004502D5404261EBFD
:1005B00041014FF4806404F132045FEA915C3FF43E
:1005C000D8AE4FF003025FEADC0C18BF03325FEADB
:1005D000DC0C18BF033202EBDC02C2F1200300FA8C
:1005E00003FC20FA02F001FA03FE40EA0E0021FAB1
:1005F00002F11444BDE600BF70B54FF0FF0C4CF49F
:10060000E06C1CEA11541DBF1CEA135594EA0C0F50
:1006100095EA0C0F00F0DEF82C4481EA030621EA8B
:100620004C5123EA4C5350EA013518BF52EA0335C6
:1006300041F4801143F4801338D0A0FB02CE4FF078
:100640000005E1FB02E506F00042E0FB03E54FF0A8
:100650000006E1FB03569CF0000F18BF4EF0010EA0
:10066000A4F1FF04B6F5007F64F5407404D25FEA9C
:100670004E0E6D4146EB060642EAC62141EA55514F
:100680004FEAC52040EA5E504FEACE2EB4F1FD0C91
:1006900088BFBCF5E06F1ED8BEF1004F08BF5FEA0F
:1006A000500E50F1000041EB045170BD06F00046C1
:1006B00046EA010140EA020081EA0301B4EB5C046E
:1006C000C2BFD4EB0C0541EA045170BD41F4801166
:1006D0004FF0000E013C00F3AB8014F1360FDEBF8B
:1006E000002001F0004170BDC4F10004203C35DA67
:1006F0000C341BDC04F11404C4F1200500FA05F3EA
:1007000020FA04F001FA05F240EA020001F000428A
:1007100021F0004110EBD37021FA04F642EB060100
:100720005EEA430E08BF20EAD37070BDC4F10C042A
:10073000C4F1200500FA04F320FA05F001FA04F2EE
:1007400040EA020001F0004110EBD37041F10001DA
:100750005EEA430E08BF20EAD37070BDC4F12005E5
:1007600000FA05F24EEA020E20FA04F301FA05F24D
:1007700043EA020321FA04F001F0004121FA04F2F5
:1007800020EA020000EBD3705EEA430E08BF20EAC5
:10079000D37070BD94F0000F0FD101F000464000FF
:1007A00041EB010111F4801F08BF013CF7D041EA81
:1007B000060195F0000F18BF704703F00046520085
:1007C00043EB030313F4801F08BF013DF7D043EA56
:1007D0000603704794EA0C0F0CEA135518BF95EA0C
:1007E0000C0F0CD050EA410618BF52EA4306D1D193
:1007F00081EA030101F000414FF0000070BD50EAB2
:10080000410606BF1046194652EA430619D094EA3B
:100810000C0F02D150EA013613D195EA0C0F05D125
:1008200052EA03361CBF104619460AD181EA030179
:1008300001F0004141F0FE4141F470014FF0000031
:1008400070BD41F0FE4141F4780170BD70B54FF0CC
:10085000FF0C4CF4E06C1CEA11541DBF1CEA13554C
:1008600094EA0C0F95EA0C0F00F0A7F8A4EB05042E
:1008700081EA030E52EA03354FEA013100F0888025
:100880004FEA03334FF0805545EA131343EA1263EE
:100890004FEA022245EA111545EA10654FEA0026A3
:1008A0000EF000419D4208BF964244F1FD0404F55C
:1008B000407402D25B084FEA3202B61A65EB0305B8
:1008C0005B084FEA32024FF480104FF4002CB6EB75
:1008D000020E75EB030E22BFB61A754640EA0C00F5
:1008E0005B084FEA3202B6EB020E75EB030E22BF35
:1008F000B61A754640EA5C005B084FEA3202B6EB76
:10090000020E75EB030E22BFB61A754640EA9C0034
:100910005B084FEA3202B6EB020E75EB030E22BF04
:10092000B61A754640EADC0055EA060E18D04FEAC2
:10093000051545EA16754FEA06164FEAC30343EA62
:1009400052734FEAC2025FEA1C1CC0D111F4801F2F
:100950000BD141EA00014FF000004FF0004CB6E728
:1009600011F4801F04BF01430020B4F1FD0C88BFC7
:10097000BCF5E06F3FF6AFAEB5EB030C04BFB6EBD2
:10098000020C5FEA500C50F1000041EB045170BDC5
:100990000EF0004E4EEA113114EB5C04C2BFD4EBF2
:1009A0000C0541EA045170BD41F480114FF0000E76
:1009B000013C90E645EA060E8DE60CEA135594EAF2
:1009C0000C0F08BF95EA0C0F3FF43BAF94EA0C0FF5
:1009D0000AD150EA01347FF434AF95EA0C0F7FF46A
:1009E00025AF104619462CE795EA0C0F06D152EABE
:1009F00003353FF4FDAE1046194622E750EA4106A2
:100A000018BF52EA43067FF4C5AE50EA41047FF4B2
:100A10000DAF52EA43057FF4EBAE12E74FF0FF3C17
:100A200006E000BF4FF0010C02E000BF4FF0010CE8
:100A30004DF804CD4FEA410C7FEA6C5C4FEA430C61
:100A400018BF7FEA6C5C1BD001B050EA410C0CBFB0
:100A500052EA430C91EA030F02BF90EA020F002012
:100A6000704710F1000F91EA030F58BF994208BF79
:100A700090422CBFD8176FEAE37040F00100704736
:100A80004FEA410C7FEA6C5C02D150EA013C07D18D
:100A90004FEA430C7FEA6C5CD6D152EA033CD3D0D8
:100AA0005DF8040B704700BF8446104662468C46D2
:100AB0001946634600E000BF01B5FFF7B7FF002805
:100AC00048BF10F1000F01BD4DF808EDFFF7F4FF2E
:100AD0000CBF012000205DF808FB00BF4DF808EDB9
:100AE000FFF7EAFF34BF012000205DF808FB00BFDC
:100AF0004DF808EDFFF7E0FF94BF012000205DF8FE
:100B000008FB00BF4DF808EDFFF7CEFF94BF0120B2
:100B100000205DF808FB00BF4DF808EDFFF7C4FFAB
:100B200034BF012000205DF808FB00BF4FEA410CF4
:100B30007FEA6C5C02D150EA013C0AD14FEA430CD7
:100B40007FEA6C5C02D152EA033C02D14FF0000014
:100B500070474FF0010070474FEA410212F5001252
:100B600015D211D56FF47873B3EB625212D94FEAF4
:100B7000C12343F0004343EA505311F0004F23FADE
:100B800002F018BF404270474FF00000704750EA33
:100B9000013005D111F0004008BF6FF000407047F0
:100BA0004FF00000704700BF53B94AB9002908BF91
:100BB00000281CBF4FF0FF314FF0FF3000F06EB93E
:100BC000ADF1080C6DE904CE00F006F8DDF804E0A4
:100BD000DDE9022304B070472DE9F047089D044683
:100BE0008C46002B40F083808A42174647D9B2FAE0
:100BF00082F242B1C2F1200024FA00F09140974005
:100C000040EA010C94404FEA1748230CBCFBF8F66D
:100C10001FFA87FE08FB16C143EA014306FB0EF1EB
:100C2000994209D9FB1806F1FF3080F019819942E9
:100C300040F21681023E3B445B1AA4B2B3FBF8F0CB
:100C400008FB103344EA034400FB0EFEA64509D915
:100C50003C1900F1FF3380F00581A64540F2028186
:100C600002383C4440EA0640A4EB0E0400261DB1C5
:100C7000D4400023C5E900433146BDE8F08702B9FE
:100C8000FFDEB2FA82F2002A50D1CB1B4FEA174E98
:100C90001FFA87F80126B3FBFEFC210C0EFB1C3368
:100CA00041EA034108FB0CF38B4207D979180CF198
:100CB000FF3002D28B4200F2E9808446C91AA3B207
:100CC000B1FBFEF00EFB101143EA014408FB00F8F3
:100CD000A04507D93C1900F1FF3302D2A04500F22C
:100CE000D9801846A4EB080440EA0C40BFE78B42C9
:100CF00009D9002D00F0B1800026C5E90001304679
:100D00003146BDE8F087B3FA83F6002E4AD18B4214
:100D100002D3824200F2B880841A61EB0301012001
:100D20008C46002DA8D0C5E9004CA5E7C2F12003F0
:100D300020FA03F6974001FA02F04FEA174ED94025
:100D40003043030CB1FBFEF61FFA87F80EFB1611B9
:100D500043EA014306FB08F1994204FA02F409D977
:100D6000FB1806F1FF3C80F08D80994240F28A80AA
:100D7000023E3B445B1A81B2B3FBFEF00EFB103324
:100D800041EA034100FB08F38B4207D9791800F1CF
:100D9000FF3C73D28B4271D902383944CB1A40EAF6
:100DA000064678E7C6F1200C03FA06F422FA0CF3A3
:100DB0001C4320FA0CF701FA06F34FEA144E21FA0D
:100DC0000CF11F433B0CB1FBFEF91FFA84F80EFB3C
:100DD000191143EA014109FB08FA8A4502FA06F2B1
:100DE00000FA06F308D9611809F1FF3048D28A45A4
:100DF00046D9A9F102092144A1EB0A01BFB2B1FB16
:100E0000FEF00EFB101147EA014700FB08F8B84559
:100E100007D9E71900F1FF312ED2B8452CD9023895
:100E2000274440EA0940A7EB0807A0FB02894F4589
:100E3000C64649461AD317D05DB1B3EB0E0267EB35
:100E4000010707FA0CFCF2404CEA0202F740C5E940
:100E5000002700263146BDE8F0872E4628460BE7DE
:100E60000646E9E61846FDE64345E5D2B8EB020E34
:100E700069EB04010138DFE70846D2E760468DE7F9
:100E80008146B9E7664675E730464AE7ACF1020CA1
:100E9000394413E702383C4424E700BF704700BFE1
:100EA00080B483B000AF78607B681B6843F0400279
:100EB0007B681A6000BF0C37BD465DF8047B704745
:100EC00080B483B000AF78607B681B6803F0400398
:100ED000402B01D1012300E0002318460C37BD460A
:100EE0005DF8047B704780B483B000AF78607B68A6
:100EF0009B6803F00103012B01D1012300E00023D3
:100F000018460C37BD465DF8047B704780B483B04B
:100F100000AF78607B689B6803F00203022B01D16D
:100F2000012300E0002318460C37BD465DF8047B22
:100F3000704780B483B000AF78607B68DB68DBB259
:100F400018460C37BD465DF8047B704780B485B009
:100F500000AF78600B46FB707B680C33FB60FB686E
:100F6000FA781A7000BF1437BD465DF8047B7047ED
:100F700080B483B000AF786039607B683A689A616A
:100F800000BF0C37BD465DF8047B704780B483B06A
:100F900000AF786039603B681A047B689A6100BFD3
:100FA0000C37BD465DF8047B7047000090B587B0F4
:100FB00000AFF860B9607A60FB70FB78FB750421C4
:100FC0002048FFF7E3FFF868FFF78DFF0346012B8A
:100FD00002D1F868FFF7ADFFF868FFF771FF03462D
:100FE000002B24D1F868FFF75BFF20E0BB685A1C98
:100FF000BA601B781946F868FFF7A8FF00BFF868C9
:10100000FFF784FF0346002BF9D000BFF868FFF715
:101010006AFF0346002BF9D07C68631C7B60F8688C
:10102000FFF787FF03462370FB7D013BFB75FB7DCC
:10103000002BDBD104210348FFF79AFF00BF1C37C8
:10104000BD4690BD000C024080B584B000AF0346A1
:10105000FB71FB7963F07F03DBB23B7300237B738F
:1010600007F1080207F10C0102230448FFF79EFF75
:101070007B7A18461037BD4680BD00BF003C00405B
:1010800080B584B000AF03460A46FB711346BB71BE
:10109000FB7903F07F03DBB23B73BB797B7307F112
:1010A000080207F10C0102230348FFF77FFF00BF8E
:1010B0001037BD4680BD00BF003C004080B582B007
:1010C00000AF2648FFF7ECFE7520FFF7BDFF034693
:1010D000FB71FB791946224805F030FAFB79982B11
:1010E00013D07520FFF7B0FF0346FB710AE01D48DF
:1010F00005F0AAFA7520FFF7A7FF0346FB716420ED
:1011000000F0BCF8FB79982BF1D1FB791946144813
:1011100005F014FA144805F097FA00216B20FFF748
:10112000AFFF0A2000F0AAF800211A20FFF7A8FF5D
:101130000A2000F0A3F818211B20FFF7A1FF0A20C6
:1011400000F09CF818211C20FFF79AFF0A2000F0FD
:1011500095F800BF0837BD4680BD00BF003C004089
:10116000E0880008F48800080089000890B583B082
:1011700000AF4720FFF768FF03461B021CB2482060
:10118000FFF762FF03461BB22343FB80B7F906302B
:1011900007EE903AB8EEE77ADFED066AC7EE267AF8
:1011A000C7ED007A3B6807EE903AB0EE670A0C375D
:1011B000BD4690BD3333834190B583B000AF3B2033
:1011C000FFF742FF03461B021CB23C20FFF73CFF27
:1011D00003461BB22343FB80B7F9063007EE903A73
:1011E000B8EEE77ADFED066AC7EE267AC7ED007A39
:1011F0003B6807EE903AB0EE670A0C37BD4690BDEB
:101200000000004580B483B000AF78607B681B6845
:1012100043F001027B681A6000BF0C37BD465DF8E1
:10122000047B704780B483B000AF78607B681B6834
:1012300023F001027B681A6000BF0C37BD465DF8E1
:10124000047B704780B483B000AF78607B68DB6854
:1012500043F001027B68DA6000BF0C37BD465DF8E1
:10126000047B704780B500AF0348FFF7EBFF0248EF
:10127000FFF7C8FF00BF80BD000C004080B582B002
:1012800000AF0346FB80FB88184604F085FC00BFD6
:101290000837BD4680BD000080B584B000AF03466E
:1012A000FB80FB88B3F57A7F02D340F2E733FB8003
:1012B0000D4B5B6A9AB2FB8813449BB2FB810A48D0
:1012C000FFF7A0FF00BF084B5B6AFA8992B2934216
:1012D000F9D30548FFF7A6FF034B00225A6200BF6F
:1012E0001037BD4680BD00BF0010004080B483B001
:1012F00000AF78607B681B6843F001027B681A606E
:1013000000BF0C37BD465DF8047B704780B483B0E6
:1013100000AF786039607B683A685A6200BF0C376A
:10132000BD465DF8047B704780B483B000AF786041
:1013300039607B683A68DA6200BF0C37BD465DF8F9
:10134000047B704780B483B000AF786039607B68FD
:101350001A6A3B681A437B681A6200BF0C37BD46A5
:101360005DF8047B704780B483B000AF786039606B
:101370007B683A681A6400BF0C37BD465DF8047B91
:10138000704780B483B000AF78607B685B6C43F4D7
:1013900000427B685A6400BF0C37BD465DF8047B91
:1013A0007047000080B500AF4FF480510548FFF74B
:1013B000C9FF0448FFF79AFF0248FFF7E2FF00BFAA
:1013C00080BD00BF0004014080B500AF002102488D
:1013D000FFF7C9FF00BF80BD0004014080B582B0A7
:1013E00000AF03460A46FB801346BB80FB880E4ACB
:1013F00092FBF3F319460D48FFF796FFFB880C4A62
:1014000092FBF3F319460948FFF7ADFF00210748A7
:10141000FFF77CFFBB881846FFF730FFFFF7D4FFCC
:1014200000BF0837BD4680BDA08601000004014012
:101430001873010080B483B000AF78607B681B68CC
:1014400043F001027B681A6000BF0C37BD465DF8AF
:10145000047B704780B500AF0348FFF7EBFF0348FC
:10146000FFF7E8FF00BF80BD000400400008004017
:1014700080B485B000AF78600023FB817B685B6A35
:10148000BB817B6800225A62B7F90C30002B02DA6C
:10149000BB89FB8101E0BB89FB81B7F90E3018469F
:1014A0001437BD465DF8047B7047000080B483B0FC
:1014B00000AF0346FB71FB79012B03D1064B2022C1
:1014C0009A6103E0044B4FF400129A6100BF0C379D
:1014D000BD465DF8047B70470004024080B483B0D1
:1014E00000AF78607B681B6843F001027B681A607C
:1014F00000BF0C37BD465DF8047B704780B483B0F5
:1015000000AF786039607B683A685A6200BF0C3778
:10151000BD465DF8047B704780B483B000AF78604F
:1015200039607B681A6A3B681A437B681A6200BF9D
:101530000C37BD465DF8047B704780B483B000AFC4
:10154000786039607B683A685A6300BF0C37BD46E3
:101550005DF8047B704780B483B000AF7860396079
:101560007B683A689A6300BF0C37BD465DF8047B20
:10157000704780B483B000AF78607B685B6C43F4E5
:1015800000427B685A6400BF0C37BD465DF8047B9F
:10159000704780B483B000AF786039607B683A6888
:1015A0009A6100BF0C37BD465DF8047B704780B47C
:1015B00083B000AF786039603B681A047B689A6139
:1015C00000BF0C37BD465DF8047B704780B582B024
:1015D00000AF0346FB71FB79012B05D1202109489F
:1015E000FFF7D7FF012309E0FB79002B05D120216C
:1015F0000448FFF7DCFF002300E0FF23184608370C
:10160000BD4680BD0008024080B582B000AF012019
:10161000FFF7DCFF0346FB71FB79012B32D101217F
:101620001A48FFF7C4FF02211848FFF7B2FF4FF432
:1016300080411748FFF7BBFF4FF400411448FFF704
:10164000A8FF10214FF08040FFF766FF4FF0804069
:10165000FFF744FF01210F48FFF75EFF0D48FFF73A
:101660003DFF01214FF08040FFF775FF0121094840
:10167000FFF763FF4FF08040FFF77BFF0548FFF760
:1016800078FF00E000BF0837BD4680BD000402407F
:10169000000002400000014080B483B000AF87ED3D
:1016A000010AC7ED000AD7ED007AF5EEC07AF1EE37
:1016B00010FA07DD164B4FF480329A61144B022268
:1016C0009A6106E0124B01229A61114B4FF40032ED
:1016D0009A61D7ED017AF5EEC07AF1EE10FA08DDE5
:1016E0000C4B4FF080429A610A4B4FF400429A61D2
:1016F00007E0084B4FF480429A61064B4FF00042DE
:101700009A6100BF0C37BD465DF8047B704700BF8F
:10171000000402400000024080B485B000AF87EDB5
:10172000030AC7ED020A87ED011AD7ED017AF5EE3B
:10173000C07AF1EE10FA05D5D7ED017AF1EE677AAD
:10174000C7ED017A97ED017AD7ED037AB4EEE77A27
:10175000F1EE10FA01DDFB680BE097ED017AD7EDB1
:10176000027AB4EEE77AF1EE10FA01D5BB6800E038
:101770007B6807EE903AB0EE670A1437BD465DF815
:10178000047B704780B582B000AF87ED010AC7EDDA
:10179000000AD7ED000A97ED010AFFF77DFF97EDEC
:1017A000011ADFED1D0A9FED1D0AFFF7B5FF87ED5A
:1017B000010A97ED001ADFED180A9FED180AFFF7EE
:1017C000ABFF87ED000AD7ED007A9FED157A67EE43
:1017D000877AFCEEE77A17EE901A1248FFF7ADFE13
:1017E000D7ED017A9FED0E7A67EE877AFCEEE77A05
:1017F00017EE901A4FF08040FFF7ADFE0021094828
:10180000FFF77CFE00214FF08040FFF777FE00BF1E
:101810000837BD4680BD00BF00000000CDCC4C3E67
:101820000000C6420000014080B485B000AF78607F
:1018300039600023FB603B68002B03D17B684C338D
:10184000FB6001E0044BFB60FB6818461437BD46A3
:101850005DF8047B704700BF0823014080B483B06B
:1018600000AF78607B689B6843F001027B689A60F8
:1018700000BF0C37BD465DF8047B704780B483B071
:1018800000AF78607B689B6843F080427B689A6019
:1018900000BF0C37BD465DF8047B704780B483B051
:1018A00000AF78607B686FF002021A6000BF0C37EF
:1018B000BD465DF8047B704780B483B000AF7860AC
:1018C00039600C4A3B6813441B781A467B68134402
:1018D0001B6808493A680A44127811467A680A4433
:1018E00043F00103136000BF0C37BD465DF8047B75
:1018F000704700BF2089000880B483B000AF7860D3
:1019000039600C4A3B6813441B781A467B681344C1
:101910001B6808493A680A44127811467A680A44F2
:1019200023F00103136000BF0C37BD465DF8047B54
:10193000704700BF2089000880B485B000AFF86010
:10194000B9607A600D4ABB6813441B781A46FB687D
:1019500013445B681B0C1B040849BA680A441278DC
:101960001146FA680A4411467A6813434B6000BF77
:101970001437BD465DF8047B704700BF208900081E
:1019800080B485B000AFF860B9607A603B60BB6935
:10199000402B14D1174ABB6813441B781A46FB68C6
:1019A00013441A467B68D360124ABB6813441B7801
:1019B0001A46FB6813441A463B68936013E00D4ACD
:1019C000BB6813441B781A46FB6813441A467B68AD
:1019D0009360084ABB6813441B781A46FB6813449B
:1019E0001A463B68D36000BF1437BD465DF8047BE0
:1019F000704700BF2089000880B483B000AF7860D2
:101A000039600C4A3B6813441B781A467B681344C0
:101A10001B6808493A680A44127811467A680A44F1
:101A200043F01003136000BF0C37BD465DF8047B24
:101A3000704700BF2089000880B582B002AF002146
:101A40000F48FFF759FF00210E48FFF7EDFE024651
:101A50000D49002300930B4600210948FFF790FF32
:101A6000052200210648FFF767FF00210448FFF721
:101A700023FF0448FFF702FF00BFBD4680BD00BF43
:101A800000640240002001400002002080B500AF49
:101A900000210548FFF7B0FF0448FFF7DFFEFFF71E
:101AA000CBFF00BF80BD00BF0064024000200140AA
:101AB00080B500AF0348FFF7F1FEFFF7BDFF00BFA1
:101AC00080BD00BF0021014080B483B000AF034659
:101AD000FB71FB79044A32F8133018460C37BD46C7
:101AE0005DF8047B704700BF0002002080B483B023
:101AF00000AF0346FB71FB79012B03D1064B082293
:101B00009A6103E0044B4FF400229A6100BF0C3746
:101B1000BD465DF8047B70470000024080B483B08E
:101B200000AF0346FB71FB79012B03D1064B042266
:101B30009A6103E0044B4FF480229A6100BF0C3796
:101B4000BD465DF8047B70470008024080B483B056
:101B500000AF0346FB71FB79012B03D1064B8022BA
:101B60009A6103E0044B4FF400029A6100BF0C3706
:101B7000BD465DF8047B70470000024080B483B02E
:101B800000AF0346FB71FB79012B03D1064B082202
:101B90009A6103E0044B4FF400229A6100BF0C37B6
:101BA000BD465DF8047B70470008024080B483B0F6
:101BB00000AF0346FB71FB79012B03D1064B40229A
:101BC0009A6103E0044B4FF480029A6100BF0C3726
:101BD000BD465DF8047B70470000024080B500AF51
:101BE00000F006FA00F00CFD0D4B1B8801339AB291
:101BF0000B4B1A800A4B1B8840F6B832934203D92C
:101C0000084B00221A8002E0064B01221A80054B85
:101C10001B88DBB21846FFF749FC00BF80BD00BF40
:101C20000A020020F001002080B500AF64214FF4CB
:101C3000C460FFF7D3FB642140F62D00FFF7CEFB15
:101C4000642140F62D10FFF7C9FB642140F64D20BA
:101C5000FFF7C4FB642140F62D10FFF7BFFB3220D5
:101C6000FFF70CFB322140F62D00FFF7B7FB3220C7
:101C7000FFF704FBC82140F62D00FFF7AFFB00BFC4
:101C800080BD000080B483B000AF0346FB80B7F98D
:101C9000063007EE903AF8EEE77A9FED057A67EEA8
:101CA000877AB0EE670A0C37BD465DF8047B704753
:101CB0007E926A3B80B400AF274BDB6807EE903A18
:101CC000F8EEE77A9FED257A67EE877AB1EE007A33
:101CD00027EE877AF3EE056AC7EE267A77EEA77AC3
:101CE0009FED1F7A27EE877ADFED1E6AC7EE267A10
:101CF000194BC3ED057A184B9B6807EE903AF8EE46
:101D0000E77A9FED167A67EE877AB1EE007A27EED2
:101D1000877AF3EE056AC7EE267A77EEA77A9FED0B
:101D2000107A27EE877ADFED0F6AC7EE267A0A4B24
:101D3000C3ED047A084B93ED057A074BD3ED047A93
:101D400077EE277AB6EE007A67EE877AB0EE670A0A
:101D5000BD465DF8047B70470C0200200000444142
:101D6000DA0F49400000804580B483B000AF87EDB2
:101D7000010A094BD3ED067A9FED087A27EE877AA0
:101D8000D7ED017A77EE277AB0EE670A0C37BD46B9
:101D90005DF8047B704700BF0C0200206F12833A8D
:101DA00080B483B000AF0C4B93ED007A0A4BD3EDB7
:101DB000017A77EE277AB6EE007A67EE877AC7ED7A
:101DC000017A7B6807EE903AB0EE670A0C37BD46A1
:101DD0005DF8047B704700BF0C02002080B400AFA8
:101DE000044B9B6907EE903AB0EE670ABD465DF87A
:101DF000047B70470C02002080B500AF0020FFF785
:101E000075FE0020FFF7D2FE0020FFF79FFE0020A6
:101E1000FFF7B4FE0020FFF781FE2820FFF73CFA11
:101E20000020FFF751FE03461A46104B5A87022046
:101E3000FFF74AFE03461A460C4BDA860320FFF7EB
:101E400043FE03461A46094B9A860420FFF73CFEE0
:101E500003461A46054B5A860120FFF735FE034616
:101E60001A46024B1A8700BF80BD00BF0C0200203B
:101E700080B500AF0120FFF751FE0120FFF736FECD
:101E80000120FFF793FE2820FFF706FA0020FFF756
:101E90001BFE03461A461C4B1A860220FFF714FE4F
:101EA00003461A46184B9A850320FFF70DFE03469A
:101EB0001A46154B5A850020FFF730FE0020FFF729
:101EC00015FE0020FFF772FE0120FFF73FFE012004
:101ED000FFF754FE2820FFF7DFF90420FFF7F4FD99
:101EE00003461A46084B1A850120FFF7EDFD03460D
:101EF0001A46054BDA850020FFF728FE0020FFF781
:101F00003DFE00BF80BD00BF0C02002080B584B044
:101F100000AF0346FB800023FB814FF00003BB6052
:101F20000023FB810FE0FFF721F9B0EE407AD7EDF7
:101F3000027A77EE877AC7ED027A0120FFF79EF9E1
:101F4000FB890133FB81FA89FB889A42EBD3FB883A
:101F500007EE903AB8EEE77AD7ED026AC6EE877AD6
:101F6000C7ED027ABB6807EE903AB0EE670A103709
:101F7000BD4680BD80B584B000AF0346FB80002322
:101F8000FB814FF00003BB600023FB810FE0FFF7F4
:101F900013F9B0EE407AD7ED027A77EE877AC7ED83
:101FA000027A0120FFF76AF9FB890133FB81FA8984
:101FB000FB889A42EBD3FB8807EE903AB8EEE77ABB
:101FC000D7ED026AC6EE877AC7ED027ABB6807EEE4
:101FD000903AB0EE670A1037BD4680BD80B500AFBD
:101FE000FFF76CF8FFF736FAFFF750FD00BF80BD32
:101FF00080B582B000AFFFF7B9F8B0EE407A244B5D
:10200000D3ED087A77EE677A214BC3ED067AFFF7B6
:10201000D3F8B0EE407A1E4BD3ED097A77EE677AAB
:102020001B4BC3ED077A1B48FFF722FA03469BB20E
:102030005B429BB2FB801848FFF71AFA0346BB804D
:10204000134BDA68B7F906301344114AD360104BCA
:102050009A68B7F9043013440D4A9360B7F9063013
:102060001846FFF70FFEF0EE407A094BC3ED017AF8
:10207000B7F904301846FFF705FEF0EE407A044B3E
:10208000C3ED007AFFF7F4FE00BF0837BD4680BD00
:102090000C020020000400400008004080B500AFA2
:1020A0006420FFF767FFF0EE407A074BC3ED097A33
:1020B0006420FFF72BFFF0EE407A034BC3ED087A64
:1020C000FFF79AFE00BF80BD0C02002080B483B0F1
:1020D00000AF78607B6893ED067A7B68D3ED036A86
:1020E0007B68D3ED007A66EEA77A77EE277A7B6875
:1020F000C3ED067A7B6893ED067A7B68D3ED077AA9
:10210000B4EEE77AF1EE10FA04DD7B68DA697B68F9
:102110009A6114E07B6893ED067A7B68D3ED077AC9
:10212000F1EE677AB4EEE77AF1EE10FA07D57B6844
:10213000D3ED077AF1EE677A7B68C3ED067A7B68A8
:1021400093ED027A7B68D3ED007A27EE277A7B68DD
:10215000D3ED046A7B6893ED006A7B68D3ED017A66
:1021600076EE677A66EEA77A37EE277A7B68D3ED4C
:10217000067A77EE277A7B68C3ED057A7B6893ED64
:10218000057A7B68D3ED087AB4EEE77AF1EE10FABF
:1021900004DD7B681A6A7B685A6114E07B6893ED02
:1021A000057A7B68D3ED087AF1EE677AB4EEE77AC8
:1021B000F1EE10FA07D57B68D3ED087AF1EE677A75
:1021C0007B68C3ED057A7B681A687B685A607B6818
:1021D0005B6907EE903AB0EE670A0C37BD465DF8D2
:1021E000047B704780B483B000AF274B1B697B60D2
:1021F000264B1B7803F01003DBB2002B09D0224BD7
:10220000D3ED057A97ED017A77EE277AC7ED017A5B
:102210000FE01E4B1B7803F02003DBB2002B08D02D
:10222000194BD3ED057A97ED017A77EE677AC7ED12
:10223000017A174BD3ED047A97ED017AB4EEE77A81
:10224000F1EE10FA03DD124B1B697B6012E0104BBC
:10225000D3ED047AF1EE677A97ED017AB4EEE77A7E
:10226000F1EE10FA06D50A4BD3ED047AF1EE677A57
:10227000C7ED017A7B6807EE903AB0EE670A0C373B
:10228000BD465DF8047B7047400300203C030020FE
:10229000BC02002080B483B000AF274B5B687B603A
:1022A000264B1B7803F04003DBB2002B09D0224BF6
:1022B000D3ED027A97ED017A77EE277AC7ED017AAE
:1022C0000FE01E4B1B7823F07F03DBB2002B08D0FE
:1022D000194BD3ED027A97ED017A77EE677AC7ED65
:1022E000017A174BD3ED017A97ED017AB4EEE77AD4
:1022F000F1EE10FA03DD124B5B687B6012E0104BCD
:10230000D3ED017AF1EE677A97ED017AB4EEE77AD0
:10231000F1EE10FA06D50A4BD3ED017AF1EE677AA9
:10232000C7ED017A7B6807EE903AB0EE670A0C378A
:10233000BD465DF8047B7047400300203C0300204D
:10234000BC020020B0B491B000AFF86187ED060A7E
:10235000C7ED050A87ED041AC7ED031A87ED022AB7
:10236000C7ED012A084611461A460346FB700B4684
:10237000BB7013467B70BB697B627B69BB623B6948
:10238000FB62FB683B63BB687B637B68BB63FB787A
:1023900087F83C30BB7887F83D307B7887F83E3053
:1023A000FB691D4607F124040FCC0FC594E8070014
:1023B00085E80700F8694437BD46B0BC7047B0B443
:1023C00091B000AF786187ED040AC7ED030A87ED8D
:1023D000021AC7ED011A87ED002A3B697B62FB6890
:1023E000BB62BB68FB627B68BB633B68FB637B696A
:1023F0001D4607F11C040FCC0FC50FCC0FC5236879
:102400002B6078694437BD46B0BC7047B0B592B018
:1024100000AF684C07F12800002300220021DFED07
:10242000662A9FED652ADFED641A9FED631ADFEDE2
:10243000620A9FED610AFFF785FF254607F1280430
:102440000FCC0FC594E8070085E807005B4C07F147
:102450002800002300220021DFED572A9FED562A95
:10246000DFED551A9FED541ADFED530A9FED520A26
:10247000FFF768FF254607F128040FCC0FC594E845
:10248000070085E807004E4C07F1280000230722CB
:102490000721DFED4C2AB6EE002ADFED471A9FED4B
:1024A000461ADFED450A9FED440AFFF74BFF25462C
:1024B00007F128040FCC0FC594E8070085E8070052
:1024C000414B00221A80414C3B469FED412ADFEDF3
:1024D000411A9FED391ADFED400AB0EE0C0A18469A
:1024E000FFF76DFF25463C460FCC0FC50FCC0FC53F
:1024F00023682B60394C3B469FED352ADFED351ABA
:102500009FED2D1ADFED340AB0EE0C0A1846FFF7E6
:1025100056FF25463C460FCC0FC50FCC0FC5236890
:102520002B602F4C3B469FED2F2ADFED231A9FEDAA
:10253000221ADFED210A9FED2C0A1846FFF73FFF14
:1025400025463C460FCC0FC50FCC0FC523682B602A
:10255000264C3B469FED232ADFED1E1A9FED161AEF
:10256000DFED230A9FED230A1846FFF728FF2546D3
:102570003C460FCC0FC50FCC0FC523682B601E4CFB
:102580003B469FED182ADFED131A9FED1C1ADFED75
:102590000A0A9FED100A1846FFF711FF25463C4630
:1025A0000FCC0FC50FCC0FC523682B6000BF483779
:1025B000BD46B0BD20030020000000004003002005
:1025C000BC020020CDCCCC3E3C0300207402002095
:1025D0009A99193FCDCCCC3D0AD7233C98020020D4
:1025E000FC020020CDCC4C3E9A99993ED8020020A6
:1025F0006F12033B8FC2753D500200200AD7A33CE7
:1026000080B584B000AF4FF00003FB604FF00003D3
:10261000BB604FF000037B60744BD3ED007AB0EEEB
:10262000670AFFF7A1FBF0EE407A704BC3ED007A2A
:10263000FFF7D4FBF0EE407A6C4BC3ED017AFFF765
:1026400039FBF0EE407A694BC3ED037AFFF7A8FB44
:10265000F0EE407A654BC3ED047AFFF7C3FDF0EE70
:10266000407A634BC3ED047AFFF714FEF0EE407A34
:102670005F4BC3ED017A5E4B93ED007A5B4BD3ED7C
:10268000007A77EE677A5B4BC3ED007A584B93ED97
:10269000047A564BD3ED047A77EE677A564BC3ED46
:1026A000007A534B93ED047A504BD3ED047A77EED6
:1026B000677A524BC3ED007A4D4B93ED017A4B4B49
:1026C000D3ED017A77EE677A4D4BC3ED007A4D4B2F
:1026D000DB8D1A464B4B1B8FD21A4A4B5B8D19462A
:1026E000484B9B8ECB1AD31A07EE903AF8EEE77A56
:1026F000454BC3ED007A454B5B7803F00803DBB232
:10270000002B14D03B48FFF7E1FC87ED010A97ED61
:10271000037AD7ED017A77EE677AC7ED037A97ED02
:10272000027AD7ED017A77EE277AC7ED027A374B36
:102730005B7803F00203DBB2002B14D03048FFF7C4
:10274000C5FC87ED010A97ED037AD7ED017A77EEA4
:10275000677AC7ED037A97ED027AD7ED017A77EEC3
:10276000277AC7ED027A294B1B7803F00803DBB206
:10277000002B15D02448FFF7A9FCB0EE407AD7ED26
:10278000037A77EEC77AC7ED037A1F48FFF79EFCFE
:10279000B0EE407AD7ED027A77EE877AC7ED027A0B
:1027A0001648FFF793FCB0EE407AD7ED037A77EE48
:1027B000877AC7ED037A1048FFF788FCB0EE407ABD
:1027C000D7ED027A77EE877AC7ED027AD7ED030A62
:1027D00097ED020AFEF7D6FF0D4ABB6813600D4A5B
:1027E000FB68136000BF1037BD4680BD200300208A
:1027F00040030020500200207402002098020020B4
:10280000D80200200C020020FC0200203C03002023
:10281000480200204C02002080B489B000AFF8606C
:10282000B9607A60FB682C331946BB6803F44073C7
:102830004FF44072BA61BA6992FAA2F27A617A6987
:10284000B2FA82F2D2B2D3409B000B44FB61FB6927
:102850001A68BB6803F01F031F2101FA03F3DB436F
:102860001A407B6803F01F01BB6803F01F0301FAE5
:1028700003F31A43FB691A6000BF2437BD465DF8B5
:10288000047B704780B483B000AF786039607B68A8
:102890009B6823F480623B681A437B689A6000BFA0
:1028A0000C37BD465DF8047B704780B48DB000AF37
:1028B000F860B9607A60FB680C331946BB6803F0B6
:1028C00000734FF00072BA61BA6992FAA2F27A61AB
:1028D0007A69B2FA82F2D2B2D3409B000B44FB6217
:1028E000FB6A1A68BB6803F0F8734FF0F87139623D
:1028F000396A91FAA1F1F961F969B1FA81F1C9B2C4
:10290000CB40072101FA03F3DB431A40BB6803F015
:10291000F8734FF0F871B962B96A91FAA1F179626E
:10292000796AB1FA81F1C9B2CB40796801FA03F34F
:102930001A43FB6A1A6000BF3437BD465DF8047B5A
:102940007047000080B485B000AFF860B9607A606D
:102950000D4ABB6813441B781A46FB6813441B6876
:1029600023F0C0020849BB680B441B781946FB687A
:102970000B4419467B6813430B6000BF1437BD46F8
:102980005DF8047B704700BF2889000880B485B0DB
:1029900000AFF860B9607A600D4ABB6813441B78D9
:1029A0001A46FB6813441B6823F490720849BB68FD
:1029B0000B441B781946FB680B4419467B6813438C
:1029C0000B6000BF1437BD465DF8047B704700BF45
:1029D0002889000880B485B000AFF860B9607A60DB
:1029E0000D4ABB6813441B781A46FB6813441B68E6
:1029F00023F400720849BB680B441B781946FB6836
:102A00000B4419467B6813430B6000BF1437BD4667
:102A10005DF8047B704700BF2889000880B485B04A
:102A200000AFF860B9607A600D4ABB6813441B7848
:102A30001A46FB6813441B6823F480620849BB688C
:102A40000B441B781946FB680B4419467B681343FB
:102A50000B6000BF1437BD465DF8047B704700BFB4
:102A60002889000880B485B000AFF860B9607A604A
:102A70000D4ABB6813441B781A46FB6813441B6855
:102A800023F4C0520849BB680B441B781946FB6805
:102A90000B4419467B6813430B6000BF1437BD46D7
:102AA0005DF8047B704700BF2889000880B485B0BA
:102AB00000AFF860B9607A600D4ABB6813441B78B8
:102AC0001A46FB6813441B6823F4C0420849BB68DC
:102AD0000B441B781946FB680B4419467B6813436B
:102AE0000B6000BF1437BD465DF8047B704700BF24
:102AF0002889000880B485B000AFF860B9607A60BA
:102B00000D4ABB6813441B781A46FB6813441B68C4
:102B100023F440320849BB680B441B781946FB6814
:102B20000B4419467B6813430B6000BF1437BD4646
:102B30005DF8047B704700BF2889000880B485B029
:102B400000AFF860B9607A600D4ABB6813441B7827
:102B50001A46FB6813441B6823F060620849BB688F
:102B60000B441B781946FB680B4419467B681343DA
:102B70000B6000BF1437BD465DF8047B704700BF93
:102B80002889000880B483B000AF786039600C4AAF
:102B90003B6813441B781A467B6813445B690849F9
:102BA0003A680A44127811467A680A4423F004030A
:102BB000536100BF0C37BD465DF8047B704700BF12
:102BC0002889000880B485B000AF7860084B1A6B84
:102BD00007497B6813430B63054B1A6B7B681340F3
:102BE000FB60FB6800BF1437BD465DF8047B70478F
:102BF0000038024080B485B000AF7860084B5A6C52
:102C000007497B6813434B64054B5A6C7B68134040
:102C1000FB60FB6800BF1437BD465DF8047B70475E
:102C20000038024080B592B000AF07F13C030022AB
:102C30001A605A609A6007F1280300221A605A60ED
:102C40009A60DA601A6107F1180300221A605A606C
:102C50009A60DA603B4600221A605A609A60DA6035
:102C60001A615A614FF48070FFF7C4FF0120FFF72B
:102C7000A9FF37233B6003237B6000233B613B4676
:102C800019464F4801F0B9FF002200214D48FFF7D7
:102C900055FF002200214B48FFF754FE002200217F
:102CA0004848FFF727FF002200214648FFF76EFE45
:102CB000002200214348FFF78DFE4FF4806200217F
:102CC0004048FFF7ABFE4FF4006200213D48FFF79C
:102CD000C9FE4FF4005200213A48FFF7E7FE0021F9
:102CE0003848FFF74FFF4FF08073FB6300233B64CE
:102CF0004FF480737B6407F13C031946324801F0BE
:102D000009FE0023BB624FF48003FB6200233B6398
:102D100000237B634FF44073BB6307F1280319461C
:102D2000294801F023FE4FF480612748FFF7AAFDF0
:102D30000023BB610023FB6107F1180319462348F8
:102D400001F0A0FD4FF000724FF400711E48FFF734
:102D500063FD01224FF000711B48FFF7A6FD1C4ADE
:102D600040F205211848FFF757FD0122184916487F
:102D7000FFF79BFD174A40F20A211348FFF74CFD6D
:102D8000012214491048FFF790FD134A40F20F2129
:102D90000D48FFF741FD01220F490B48FFF785FD64
:102DA0000E4A4FF405710848FFF736FD01220B4922
:102DB0000548FFF77AFD00BF4837BD4680BD00BF1C
:102DC0000000024000640240002001400023014056
:102DD00001003002020060020400C0020500F0029F
:102DE00080B400AF044BDB681B0A03F007031846EE
:102DF000BD465DF8047B704700ED00E080B483B011
:102E000000AF0346FB7197F90730002B0BDBFB7912
:102E100003F01F02074997F907305B09012000FA08
:102E200002F241F8232000BF0C37BD465DF8047B59
:102E3000704700BF00E100E080B483B000AF0346FC
:102E40003960FB7197F90730002B0ADB3B68DAB277
:102E50000C4997F907301201D2B20B4483F80023D2
:102E60000AE03B68DAB20849FB7903F00F03043B40
:102E70001201D2B20B441A7600BF0C37BD465DF882
:102E8000047B704700E100E000ED00E080B489B011
:102E900000AFF860B9607A60FB6803F00703FB617C
:102EA000FB69C3F10703042B28BF0423BB61FB6943
:102EB0000433062B02D9FB69033B00E000237B614E
:102EC0004FF0FF32BB6902FA03F3DA43BB681A40E2
:102ED0007B699A404FF0FF317B6901FA03F3D943D4
:102EE0007B680B40134318462437BD465DF8047BCE
:102EF0007047000080B485B000AF7860084B1A6B53
:102F000007497B6813430B63054B1A6B7B681340BF
:102F1000FB60FB6800BF1437BD465DF8047B70475B
:102F20000038024080B500AF4FF48000FFF7E2FFA9
:102F3000FFF756FF0346002200211846FFF7A6FFC1
:102F4000034619463820FFF777FF3820FFF756FF72
:102F500000BF80BD80B485B000AF7860084B1A6BAD
:102F600007497B6813430B63054B1A6B7B6813405F
:102F7000FB60FB6800BF1437BD465DF8047B7047FB
:102F80000038024080B483B000AF786039603B689D
:102F90001A047B689A6100BF0C37BD465DF8047B5C
:102FA0007047000080B586B000AF3B4600221A6033
:102FB0005A609A60DA601A615A610420FFF7CAFF0A
:102FC0000120FFF7C7FF0220FFF7C4FF0820FFF72B
:102FD000C1FF4FF496713048FFF7D4FF4CF2C8019F
:102FE0002E48FFF7CFFF4CF233012D48FFF7CAFF01
:102FF00004212C48FFF7C6FF4FF496733B60012372
:103000007B600023BB600023FB6000233B613B46E9
:103010001946214801F0F1FD4CF2C8033B60012341
:103020007B600023BB600023FB6000233B613B46C9
:1030300019461A4801F0E1FD4CF233033B600123CD
:103040007B600023BB600023FB6000233B613B46A9
:103050001946134801F0D1FD04233B6001237B6036
:103060000023BB600023FB6000233B613B46194605
:103070000C4801F0C2FD4FF480733B6000237B607D
:1030800000233B613B461946054801F0B6FD00BFF1
:103090001837BD4680BD00BF000802400000024056
:1030A00000040240000C024080B485B000AF78609C
:1030B0007B6803F00703FB600C4BDB68BB60BA68FE
:1030C0004FF6FF031340BB60FB681A02BB68134353
:1030D00043F0BF6343F40033BB60044ABB68D36072
:1030E00000BF1437BD465DF8047B704700ED00E07B
:1030F00080B400AF054B1B68044A43F00103136022
:1031000000BFBD465DF8047B704700BF0038024039
:1031100080B400AF064B1B6803F00203022B0CBF08
:1031200001230023DBB21846BD465DF8047B7047DF
:103130000038024080B483B000AF7860074B1B6852
:1031400023F0F8027B68DB00044913430B6000BFE7
:103150000C37BD465DF8047B704700BF0038024065
:1031600080B483B000AF7860064B9B6823F0030205
:1031700004497B6813438B6000BF0C37BD465DF884
:10318000047B70470038024080B400AF044B9B685A
:1031900003F00C031846BD465DF8047B704700BF82
:1031A0000038024080B483B000AF7860064B9B6863
:1031B00023F0F00204497B6813438B6000BF0C3797
:1031C000BD465DF8047B70470038024080B483B090
:1031D00000AF7860064B9B6823F4E05204497B689B
:1031E00013438B6000BF0C37BD465DF8047B70470E
:1031F0000038024080B483B000AF7860064B9B6813
:1032000023F4604204497B6813438B6000BF0C3792
:10321000BD465DF8047B70470038024080B400AFC3
:10322000054B1B68044A43F08073136000BFBD4622
:103230005DF8047B704700BF0038024080B400AFE7
:10324000074B1B6803F00073B3F1007F0CBF012331
:103250000023DBB21846BD465DF8047B704700BF13
:103260000038024080B485B000AFF860B9607A6081
:103270003B600D4B5A680D4B1340F968BA68114317
:103280007A6892010A43084913434B60064B5B6816
:1032900023F4403204493B6813434B6000BF1437AA
:1032A000BD465DF8047B7047003802400080BFFFD8
:1032B00080B485B000AF7860084B1A6C07497B6812
:1032C00013430B64054B1A6C7B681340FB60FB686F
:1032D00000BF1437BD465DF8047B704700380240DC
:1032E00080B485B000AF7860084B5A6C07497B68A2
:1032F00013434B64054B5A6C7B681340FB60FB68BF
:1033000000BF1437BD465DF8047B704700380240AB
:1033100080B483B000AF7860064B1B6823F00702CF
:1033200004497B6813430B6000BF0C37BD465DF852
:10333000047B7047003C024080B400AF044B1B6824
:1033400003F007031846BD465DF8047B704700BFD5
:10335000003C024080B483B000AF7860064B1B682D
:1033600023F4804204497B6813430B6000BF0C3791
:10337000BD465DF8047B70470070004080B483B0A8
:1033800000AF78607B681B6803F08003802B0CBF64
:1033900001230023DBB218460C37BD465DF8047BE1
:1033A000704780B483B000AF78600B46FB70FA784A
:1033B0007B685A6000BF0C37BD465DF8047B7047E0
:1033C00080B584B000AF78607B680A2B0DD10D23E7
:1033D000FB73FB7B19460E48FFF7E3FF00BF0C4869
:1033E000FFF7CCFF0346002BF9D07B68DBB2194610
:1033F0000748FFF7D6FF00BF0548FFF7BFFF0346AA
:10340000002BF9D0002318461037BD4680BD00BF01
:10341000001001402DE9B04F86B006AF4FF4804058
:10342000FFF75EFF4FF08050FFF742FF0320FFF7EA
:103430003BFE3E4B1B689B680021184603F00CF9CD
:1034400000F080F8FFF7AEFDFFF76CFDFFF7EAFB39
:1034500000F0B8FD00F04EFE00F0C0FE00F038FFB6
:1034600001F01AF801F06EF900F0F6F801F0AEF88C
:1034700000F0A8FF00F0E6FFFDF794FF0120FDF744
:10348000FDFEFEF7D1FBFEF7A9FDFEF7BFFF4FF4EF
:103490007A7002F081FBFEF701FEFDF7E3FE244A9D
:1034A000537843F008035370214A13786FF386135F
:1034B00013701F4A13786FF3C71313701C4A1378E5
:1034C0006FF3041313701A4A13786FF345131370D4
:1034D000FEF79AF8174B5B681846FDF735F88246F9
:1034E0008B46144B1B681846FDF72EF804460D4614
:1034F000114B1B681846FDF727F8804689460F4B8D
:103500001B681846FDF720F802460B46CDE9042358
:10351000CDE90289CDE9004552465B46084803F0F3
:103520000DF84FF4FA7002F037FBD3E704000020E7
:103530003C03002020030020480200204C02002011
:103540000889000880B500AF0520FFF7E1FE00BF45
:10355000FFF7F2FE0346052BFAD14FF48040FFF748
:10356000F9FE1020FFF7E6FDFFF7C2FD00BFFFF7F1
:10357000CFFD0346012BFAD10023A0220821002011
:10358000FFF770FEFFF74AFE00BFFFF757FE034646
:10359000012BFAD10020FFF705FE4FF4A050FFF7F2
:1035A00015FE4FF42040FFF725FE0220FFF7D8FD5F
:1035B00000BFFFF7E9FD0346082BFAD1034802F0EC
:1035C000DDFA024802F00EFB00BF80BD00688909E9
:1035D00080B485B000AF7860084B1A6B07497B68F0
:1035E00013430B63054B1A6B7B681340FB60FB684E
:1035F00000BF1437BD465DF8047B704700380240B9
:1036000080B485B000AF7860084B1A6C07497B68BE
:1036100013430B64054B1A6C7B681340FB60FB681B
:1036200000BF1437BD465DF8047B70470038024088
:1036300080B483B000AF786039607B685B6823F04A
:1036400010023B681A437B685A6000BF0C37BD46C6
:103650005DF8047B7047000080B590B000AF07F1C3
:10366000180328220021184602F0F6FA3B460022F1
:103670001A605A609A60DA601A615A614FF4004029
:10368000FFF7BEFF0420FFF7A3FF4FF4E0533B60BA
:1036900002237B600323BB600023FB6000233B61AC
:1036A00006237B613B461946134801F0A6FA002326
:1036B000BB614FF48273FB6100233B6202237B6298
:1036C0000123BB624FF40073FB6200233B630023C2
:1036D0007B630023BB630A23FB6307F118031946CE
:1036E000064801F05AFC00210448FFF7A1FF00BF83
:1036F0004037BD4680BD00BF00080240003C00408E
:1037000080B483B000AF78607B681B6803F020034F
:10371000202B0CBF01230023DBB218460C37BD461B
:103720005DF8047B704780B483B000AF78607B683D
:1037300020229A6000BF0C37BD465DF8047B7047BD
:1037400080B483B000AF78607B686FF001021A61CB
:1037500000BF0C37BD465DF8047B704780B483B072
:1037600000AF78607B681B6903F00103012B01D176
:10377000012300E0002318460C37BD465DF8047BAA
:10378000704780B400AFFEE780B400AFFEE780B4BE
:1037900000AFFEE780B400AFFEE780B400AFFEE705
:1037A00080B400AF00BFBD465DF8047B704780B4B5
:1037B00000AF00BFBD465DF8047B704780B400AF2A
:1037C00000BFBD465DF8047B704780B400AF00BF0A
:1037D000BD465DF8047B704780B500AFFEF7FEF98B
:1037E0000548FFF7BBFF0346012B02D10248FFF754
:1037F000A7FF00BF80BD00BF000C004080B500AF38
:103800000648FFF77DFF0346012B04D10348FFF76D
:103810008AFFFEF74DF900BF80BD00BF0064024083
:1038200080B400AF01231846BD465DF8047B7047A5
:1038300080B582B000AF7860396002F0E3F90346EA
:1038400016221A604FF0FF3318460837BD4680BD78
:1038500080B582B000AF78604FF0FF317868FFF735
:10386000E7FFFEE780B586B000AFF860B9607A6028
:1038700000237B610AE0AFF300800146BB685A1C5D
:10388000BA60CAB21A707B6901337B617A697B685E
:103890009A42F0DB7B6818461837BD4680BD80B57C
:1038A00086B000AFF860B9607A6000237B6109E000
:1038B000BB685A1CBA601B781846FFF781FD7B690C
:1038C00001337B617A697B689A42F1DB7B68184639
:1038D0001837BD4680BD80B483B000AF78604FF02C
:1038E000FF3318460C37BD465DF8047B704780B443
:1038F00083B000AF786039603B684FF400525A6083
:10390000002318460C37BD465DF8047B704780B431
:1039100083B000AF7860012318460C37BD465DF8D0
:10392000047B704780B485B000AFF860B9607A60FE
:10393000002318461437BD465DF8047B704700002D
:1039400080B586B000AF7860144A154BD31A7B61FE
:103950007B693B61134B1B68002B02D1114B124A50
:103960001A60104B1A687B6813443A699A4207D26E
:1039700002F048F903460C221A604FF0FF3309E0C9
:10398000084B1B68FB60074B1A687B681344054AA9
:103990001360FB6818461837BD4680BD0000022042
:1039A00000040000F40100207003002080B400AF88
:1039B000084BD3F88830074A43F47003C2F88830C4
:1039C000044B4FF000629A6000BFBD465DF8047B77
:1039D000704700BF00ED00E080B400AF044BDB682F
:1039E0001B0A03F007031846BD465DF8047B7047C9
:1039F00000ED00E080B483B000AF0346FB7197F99F
:103A00000730002B0BDBFB7903F01F02074997F906
:103A100007305B09012000FA02F241F8232000BFC1
:103A20000C37BD465DF8047B704700BF00E100E045
:103A300080B483B000AF03463960FB7197F907305B
:103A4000002B0ADB3B68DAB20C4997F90730120108
:103A5000D2B20B4483F800230AE03B68DAB208498B
:103A6000FB7903F00F03043B1201D2B20B441A7628
:103A700000BF0C37BD465DF8047B704700E100E0F5
:103A800000ED00E080B489B000AFF860B9607A6002
:103A9000FB6803F00703FB61FB69C3F10703042B19
:103AA00028BF0423BB61FB690433062B02D9FB69E1
:103AB000033B00E000237B614FF0FF32BB6902FA59
:103AC00003F3DA43BB681A407B699A404FF0FF3139
:103AD0007B6901FA03F3D9437B680B401343184613
:103AE0002437BD465DF8047B7047000080B485B084
:103AF00000AF7860084B1A6B07497B6813430B6370
:103B0000054B1A6B7B681340FB60FB6800BF1437E2
:103B1000BD465DF8047B70470038024080B485B034
:103B200000AF7860084B1A6C07497B6813430B643D
:103B3000054B1A6C7B681340FB60FB6800BF1437B1
:103B4000BD465DF8047B70470038024080B485B004
:103B500000AF7860084B5A6C07497B6813434B648D
:103B6000054B5A6C7B681340FB60FB6800BF143741
:103B7000BD465DF8047B70470038024080B483B0D6
:103B800000AF78607B681B6843F080027B681A6036
:103B900000BF0C37BD465DF8047B704780B483B02E
:103BA00000AF78607B681B6823F080027B681A6036
:103BB00000BF0C37BD465DF8047B704780B485B00C
:103BC00000AF786039603B68012B1CD03B68042B48
:103BD00017D03B68102B12D03B68402B0DD03B68B0
:103BE000B3F5807F07D03B68B3F5806F01D1052323
:103BF0000AE0062308E0042306E0032304E002238E
:103C000002E0012300E00023FB737B6818331946B0
:103C1000FB7B0B4AD35C0B44BB60BB681A68FB7B25
:103C20000849CB5C194604238B40DB431A40BB6830
:103C30001A6000BF1437BD465DF8047B704700BFB3
:103C4000488900085089000880B485B000AF7860CA
:103C500039603B68012B1CD03B68042B17D03B68B4
:103C6000102B12D03B68402B0DD03B68B3F5807F02
:103C700007D03B68B3F5806F01D105230AE0062326
:103C800008E0042306E0032304E0022302E001230A
:103C900000E00023FB737B6818331946FB7B0A4A5C
:103CA000D35C0B44BB60BB681A68FB7B0749CB5CE9
:103CB000194608238B401A43BB681A6000BF1437AB
:103CC000BD465DF8047B70474889000850890008AC
:103CD00080B487B000AFF860B9607A60BB68012B30
:103CE0001CD0BB68042B17D0BB68102B12D0BB684C
:103CF000402B0DD0BB68B3F5807F07D0BB68B3F510
:103D0000806F01D105230AE0062308E0042306E0C2
:103D1000032304E0022302E0012300E00023FB75FB
:103D2000FB6818331946FB7D0E4AD35C0B443B619C
:103D30003B691A68FB7D0C49CB5C194603238B4019
:103D4000DB431A407B681B0CF97D0748415C8B40C4
:103D50001A433B691A6000BF1C37BD465DF8047BFF
:103D6000704700BF488900085889000880B487B0B0
:103D700000AFF860B9607A60BB68012B1CD0BB68EB
:103D8000042B17D0BB68102B12D0BB68402B0DD072
:103D9000BB68B3F5807F07D0BB68B3F5806F01D1F6
:103DA00005230AE0062308E0042306E0032304E0D9
:103DB000022302E0012300E00023FB75FB681833B7
:103DC0001946FB7D0E4AD35C0B443B613B691A6884
:103DD000FB7D0C49CB5C19460C238B40DB431A401E
:103DE0007B681B0CF97D0748415C8B401A433B699B
:103DF0001A6000BF1C37BD465DF8047B704700BFEA
:103E0000488900085889000880B487B000AFF8607E
:103E1000B9607A60BB68012B1CD0BB68042B17D03B
:103E2000BB68102B12D0BB68402B0DD0BB68B3F51C
:103E3000807F07D0BB68B3F5806F01D105230AE00E
:103E4000062308E0042306E0032304E0022302E043
:103E5000012300E00023FB75FB6818331946FB7D46
:103E60000E4AD35C0B443B613B691A68FB7D0C49ED
:103E7000CB5C1946F0238B40DB431A407B681B0C5C
:103E8000F97D0748415C8B401A433B691A6000BFCB
:103E90001C37BD465DF8047B704700BF48890008A9
:103EA0005889000880B487B000AFF860B9607A60C4
:103EB000BB68012B1CD0BB68042B17D0BB68102B30
:103EC00012D0BB68402B0DD0BB68B3F5807F07D004
:103ED000BB68B3F5806F01D105230AE0062308E033
:103EE000042306E0032304E0022302E0012300E0B0
:103EF0000023FB75FB681A6AFB7D0B49CB5C1946F6
:103F00000A238B40DB431A40FB7D0749CB5C1946F3
:103F10007B688B401A43FB681A6200BF1C37BD46A2
:103F20005DF8047B704700BF6089000880B483B0EF
:103F300000AF786039607B689B6823F4804323F08E
:103F400007033A681A437B689A6000BF0C37BD4686
:103F50005DF8047B704780B483B000AF786039604F
:103F60007B689B6823F007023B681A437B689A6072
:103F700000BF0C37BD465DF8047B704780B483B04A
:103F800000AF786039607B685B6823F070023B6843
:103F90001A437B685A6000BF0C37BD465DF8047B4E
:103FA000704780B483B000AF78607B689B6823F073
:103FB00080027B689A6000BF0C37BD465DF8047BC9
:103FC0007047000080B59AB000AF07F1540300229B
:103FD0001A605A609A60DA601A6107F1340320228D
:103FE0000021184601F038FE07F11C0300221A6078
:103FF0005A609A60DA601A615A613B1D00221A60A9
:104000005A609A60DA601A615A610120FFF79EFDDA
:104010000723A7F854300023BB656323FB65002307
:104020003B6600237B6607F1540319462F4801F0D5
:1040300079F82E48FFF7A2FD00212C48FFF776FF04
:1040400001212A48FFF700FE60237B630023BB6346
:104050000023FB6332233B6400237B640023BB64A7
:104060000023FB6400233B6507F134031A4601215A
:104070001E4801F0F1F801211C48FFF79FFD0021C7
:104080001A48FFF77BFF1948FFF78BFF0023FB61FE
:1040900000233B6200237B62002387F82830002343
:1040A0007B854FF40053FB6200233B6307F11C0345
:1040B00019460E4801F011F90120FFF717FD4FF4E2
:1040C00080737B600223BB600023FB6000233B61A5
:1040D00000237B610123BB613B1D1946044800F0AE
:1040E0008CFD00BF6837BD4680BD00BF00000140A9
:1040F0000000024080B594B000AF07F13C030022FD
:104100001A605A609A60DA601A6107F11C03202273
:104110000021184601F0A0FD3B1D00221A605A60E4
:104120009A60DA601A615A610120FFF7F7FC0723F1
:10413000BB8700233B6463237B640023BB6407F1DC
:104140003C0319464FF0804000F0ECFF4FF08040F8
:10415000FFF714FD00214FF08040FFF7E7FE10212C
:104160004FF08040FFF770FD6023FB6100233B624E
:1041700000237B623223BB620023FB6207F11C0336
:104180001A4610214FF0804001F066F810214FF0E0
:104190008040FFF713FD00214FF08040FFF7EEFE57
:1041A0004FF08040FFF7FDFE0220FFF79FFC082341
:1041B0007B600223BB600023FB6000233B61002384
:1041C0007B610123BB613B1D1946034800F015FDCF
:1041D00000BF5037BD4680BD0004024080B58CB0A2
:1041E00000AF07F11C0300221A605A609A60DA607F
:1041F0001A613B1D00221A605A609A60DA601A61E7
:104200005A610220FFF78AFC0420FFF76FFCC023ED
:104210007B600223BB600023FB6000233B61002323
:104220007B610223BB613B1D1946274800F0E5FC7A
:1042300003212648FFF78FFE4FF4803201212348E7
:10424000FFF746FD002201212048FFF78FFD0022E5
:1042500001211E48FFF7D8FD002201211B48FFF76E
:1042600021FE4FF4803210211848FFF731FD002263
:1042700010211648FFF77AFD002210211348FFF79E
:10428000C3FD002210211148FFF70CFE0023BB8361
:1042900000233B624FF6FF737B620023BB6207F192
:1042A0001C031946094800F03DFF0848FFF776FC5B
:1042B00000210648FFF762FE0448FFF772FE00BFC8
:1042C0003037BD4680BD00BF0008024000040040FA
:1042D00080B58CB000AF07F11C0300221A605A6051
:1042E0009A60DA601A613B1D00221A605A609A6077
:1042F000DA601A615A610420FFF710FC0220FFF710
:10430000F5FBC0237B600223BB600023FB6000231E
:104310003B6100237B610223BB613B1D194627489B
:1043200000F06BFC03212648FFF715FE4FF48032A6
:1043300001212348FFF7CCFC002201212048FFF790
:1043400015FD002201211E48FFF75EFD002201211C
:104350001B48FFF7A7FD4FF4803210211848FFF7E4
:10436000B7FC002210211648FFF700FD00221021A3
:104370001348FFF749FD002210211148FFF792FD75
:104380000023BB8300233B624FF6FF737B62002355
:10439000BB6207F11C031946094800F0C3FE084838
:1043A000FFF7FCFB00210648FFF7E8FD0448FFF794
:1043B000F8FD00BF3037BD4680BD00BF000402409D
:1043C0000008004080B586B000AF3B1D00221A6097
:1043D0005A609A60DA601A610820FFF79FFBFFF7C6
:1043E000FBFA0346002201211846FFF74BFB034668
:1043F00019463220FFF71CFB3220FFF7FBFA4F2350
:10440000BB800023BB6040F2E733FB6000233B61CD
:104410003B1D19460A4800F085FE0948FFF7BEFB20
:1044200000210748FFF782FD00210548FFF7A6FDA0
:104430000348FFF7B6FD00BF1837BD4680BD00BF7B
:10444000000C004080B586B000AF3B1D00221A6012
:104450005A609A60DA601A611020FFF75FFB4F2301
:10446000BB800023BB604FF6FF73FB603B1D19460A
:10447000084800F057FE0748FFF790FB0021054869
:10448000FFF77CFD0348FFF78CFD00BF1837BD46E2
:1044900080BD00BF0010004080B59AB000AF07F1AA
:1044A000540300221A605A609A60DA601A6107F1B8
:1044B000340320220021184601F0CEFB07F11C0333
:1044C00000221A605A609A60DA601A615A613B1DD4
:1044D00000221A605A609A60DA601A615A610220FA
:1044E000FFF734FB4FF44873A7F854300023BB6543
:1044F0004FF47A73FB6500233B6600237B6607F16C
:10450000540319462F4800F00DFE2E48FFF746FBD6
:1045100000212C48FFF70AFD4FF480512948FFF78E
:1045200093FB60237B630023BB630023FB63642353
:104530003B6400237B640023FB6400233B6507F19D
:1045400034031A464FF480511E4800F085FE4FF4A4
:1045500080511C48FFF732FB00211A48FFF70EFD7F
:104560001848FFF71EFD0023FB6100233B62002378
:104570007B62002387F8283000237B854FF40053AB
:10458000FB6200233B6307F11C0319460D4800F052
:10459000A4FE0420FFF7AAFA4FF400737B60022305
:1045A000BB600023FB6000233B6100237B6103238E
:1045B000BB613B1D1946044800F01FFB00BF683774
:1045C000BD4680BD000401400008024080B594B0A3
:1045D00000AF07F13C0300221A605A609A60DA606B
:1045E0001A6107F11C0320220021184601F034FB58
:1045F0003B1D00221A605A609A60DA601A615A61A3
:104600004FF48020FFF7A2FA0023BB8700233B640E
:104610004FF6FF737B640023BB6407F13C0319462C
:104620001B4800F07FFD1A48FFF7B8FA012118482F
:10463000FFF70AFB6023FB6100233B6200237B62E0
:104640000023BB620023FB6207F11C031A46012111
:104650000F4800F001FE01210D48FFF7AFFA0220DC
:10466000FFF744FA4FF400737B600223BB60002322
:10467000FB6000233B6100237B610323BB613B1D87
:104680001946044800F0B9FA00BF5037BD4680BD56
:10469000004801400004024080B485B000AF78605B
:1046A000084B1A6B07497B6813430B63054B1A6B66
:1046B0007B681340FB60FB6800BF1437BD465DF8A4
:1046C000047B70470038024080B485B000AF78604A
:1046D000084B5A6C07497B6813434B64054B5A6C73
:1046E0007B681340FB60FB6800BF1437BD465DF874
:1046F000047B70470038024080B483B000AF78601C
:104700007B68DB6843F400527B68DA6000BF0C37DB
:10471000BD465DF8047B704780B483B000AF78601D
:104720007B681B6923F490427B681A617B685B6934
:1047300023F02A027B685A6100BF0C37BD465DF842
:10474000047B704780B58EB000AF07F11C030022D8
:104750001A605A609A60DA601A615A619A613B1D68
:1047600000221A605A609A60DA601A615A61102059
:10477000FFF7AAFF0120FFF78FFF4FF4C0637B60B4
:104780000223BB600323FB6000233B6100237B61AA
:104790000723BB613B1D1946104800F02EFA4FF469
:1047A0001653FB6100233B6200237B620023BB6244
:1047B0000C23FB6200233B6300237B6307F11C0394
:1047C0001946074801F040F90548FFF7A5FF0448DE
:1047D000FFF792FF00BF3837BD4680BD00000240A2
:1047E00000100140DFF834D0002103E00C4B5B588F
:1047F000435004310B480C4B42189A42F6D30B4AF3
:1048000002E0002342F8043B094B9A42F9D3FFF738
:10481000CDF801F0FDF9FEF7FDFD70470000022024
:104820005C8D000800000020D4010020D40100208D
:104830006C030020FEE780B483B000AF786039607D
:104840007B68DB6A23F470023B681A437B68DA6298
:1048500000BF0C37BD465DF8047B704780B483B061
:1048600000AF78607B689B6803F00103012B0CBFED
:1048700001230023DBB218460C37BD465DF8047BEC
:104880007047000090B585B000AF786039600023B4
:10489000FB731C48FFF7E2FF04461B48FFF7DEFFEF
:1048A00003461C431948FFF7D9FF03462343002B57
:1048B00020D13B685B68002B12D07B685A68144B90
:1048C00013403A6811683A68526811433A6892682E
:1048D00011433A68D2680A431A437B685A600BE076
:1048E0007B685A680A4B13403A6812681A437B681F
:1048F0005A6001E00123FB73FB7B18461437BD4669
:1049000090BD00BF00200140002101400022014075
:10491000E010FCFF80B584B000AF78603960002300
:10492000FB737868FFF79AFF0346002B17D17B686B
:104930005B6823F0407323F480733A6811683A6827
:1049400092680A431A437B685A607B689B6823F429
:1049500000623B685B681A437B689A6001E0012350
:10496000FB73FB7B18461037BD4680BD80B584B015
:1049700000AF786039600023FB737868FFF76EFF43
:104980000346002B2BD13B685B68002B09D07B686A
:104990005B6823F468423B689B681A437B685A60F3
:1049A00005E07B685B6823F468427B685A607B683B
:1049B0009A680E4B13403A68126802F070613A68C8
:1049C000D26811433A6812690A431A437B689A60B5
:1049D0003B685B6819467868FFF72DFF01E001230B
:1049E000FB73FB7B18461037BD4680BDFDFCFFC046
:1049F00080B489B000AFF860B9607A60FB681A686B
:104A0000BB687B617B6993FAA3F33B613B69B3FAB3
:104A100083F3DBB25B00032101FA03F3DB431A40AB
:104A2000BB68FB61FB6993FAA3F3BB61BB69B3FA93
:104A300083F3DBB25B00796801FA03F31A43FB6886
:104A40001A6000BF2437BD465DF8047B704780B410
:104A500085B000AFF860B9607A60FB685A68BB68DF
:104A6000DB431A40BB68796801FB03F31A43FB6818
:104A70005A6000BF1437BD465DF8047B704780B4B0
:104A800089B000AFF860B9607A60FB689A68BB686B
:104A90007B617B6993FAA3F33B613B69B3FA83F3D0
:104AA000DBB25B00032101FA03F3DB431A40BB686E
:104AB000FB61FB6993FAA3F3BB61BB69B3FA83F3B0
:104AC000DBB25B00796801FA03F31A43FB689A6072
:104AD00000BF2437BD465DF8047B704780B489B0C1
:104AE00000AFF860B9607A60FB68DA68BB687B6128
:104AF0007B6993FAA3F33B613B69B3FA83F3DBB2BF
:104B00005B00032101FA03F3DB431A40BB68FB613E
:104B1000FB6993FAA3F3BB61BB69B3FA83F3DBB21E
:104B20005B00796801FA03F31A43FB68DA6000BF9F
:104B30002437BD465DF8047B704780B489B000AF70
:104B4000F860B9607A60FB681A6ABB687B617B6950
:104B500093FAA3F33B613B69B3FA83F3DBB29B00A7
:104B60000F2101FA03F3DB431A40BB68FB61FB69C9
:104B700093FAA3F3BB61BB69B3FA83F3DBB29B0087
:104B8000796801FA03F31A43FB681A6200BF2437FD
:104B9000BD465DF8047B704780B489B000AFF86013
:104BA000B9607A60FB685A6ABB681B0A7B617B69E3
:104BB00093FAA3F33B613B69B3FA83F3DBB29B0047
:104BC0000F2101FA03F3DB431A40BB681B0AFB61A8
:104BD000FB6993FAA3F3BB61BB69B3FA83F3DBB25E
:104BE0009B00796801FA03F31A43FB685A6200BF1D
:104BF0002437BD465DF8047B704780B588B000AFB0
:104C0000786039600023FB610023BB613B681B684F
:104C10007B617B6993FAA3F33B613B69B3FA83F34E
:104C2000DBB2FB6150E03B681A680121FB6901FAC5
:104C300003F31340BB61BB69002B42D03B685B6848
:104C4000012B03D03B685B68022B0DD13B689B684E
:104C50001A46B9697868FFF712FF3B68DB681A46A5
:104C6000B9697868FFF7F3FE3B681B691A46B969B2
:104C70007868FFF733FF3B685B68022B1AD1BB698A
:104C8000FB60FB6893FAA3F3BB60BB68B3FA83F3E2
:104C9000DBB2072B07D83B685B691A46B9697868AD
:104CA000FFF74BFF06E03B685B691A46B969786815
:104CB000FFF772FF3B685B681A46B9697868FFF7CF
:104CC00097FEFB690133FB613B681A68FB6922FAB6
:104CD00003F3002BA7D1002318462037BD4680BD23
:104CE00080B400AF044B9B6803F00C031846BD462C
:104CF0005DF8047B704700BF0038024080B400AF0D
:104D0000044B9B6803F0F0031846BD465DF8047B36
:104D1000704700BF0038024080B400AF044B9B686E
:104D200003F4E0531846BD465DF8047B704700BFAE
:104D30000038024080B400AF044B9B6803F460432A
:104D40001846BD465DF8047B704700BF003802403E
:104D500080B400AF044B5B6803F480031846BD4683
:104D60005DF8047B704700BF0038024080B400AF9C
:104D7000044B5B689B09C3F308031846BD465DF806
:104D8000047B70470038024080B400AF044B5B687E
:104D900003F440331846BD465DF8047B704700BFFE
:104DA0000038024080B400AF044B5B6803F03F035F
:104DB0001846BD465DF8047B704700BF00380240CE
:104DC00080B582B000AF786000F020F802467B68C2
:104DD0001A607B681B68184600F040F802467B6842
:104DE0005A607B685B68184600F04EF802467B68A4
:104DF0009A607B685B68184600F05AF802467B6848
:104E0000DA6000BF0837BD4680BD000080B582B0C3
:104E100000AF00237B60FFF763FF0346082B0CD035
:104E2000082B0FD8002B02D0042B03D00AE0094B2B
:104E30007B600AE0084B7B6007E0082000F04CF83C
:104E4000786002E0034B7B6000BF7B681846083740
:104E5000BD4680BD0024F40040787D0180B582B05D
:104E600000AF7860FFF74AFF03461B0903F00F030A
:104E7000044AD35C1A467B68D34018460837BD46BF
:104E800080BD00BF3089000880B582B000AF786077
:104E9000FFF742FF03469B0A044AD35C1A467B682D
:104EA000D34018460837BD4680BD00BF4089000882
:104EB00080B582B000AF7860FFF73CFF03465B0B24
:104EC000044AD35C1A467B68D34018460837BD466F
:104ED00080BD00BF4089000890B587B000AF786002
:104EE00000237B610023FB6000233B61FFF730FF61
:104EF000F860FB68002B04D0FB68B3F5800F03D08B
:104F000005E0124B7B6105E0114B7B6102E00F4B2A
:104F10007B6100BF7B68082B13D1FFF743FF02467C
:104F20007B69B3FBF2F4FFF721FF034603FB04F4B4
:104F3000FFF72AFF03461B0C01335B00B4FBF3F3BE
:104F40003B613B6918461C37BD4690BD0024F40008
:104F500040787D0180B483B000AF78607B681B68C7
:104F600003F04003402B01D1012300E00023184649
:104F70000C37BD465DF8047B704780B483B000AF4A
:104F8000786039603B689BB21A467B681A6100BF43
:104F90000C37BD465DF8047B704780B584B000AF28
:104FA000786039600123FB737868FFF7D3FF03460D
:104FB000002B39D17B681B6823F47F4323F0BF03A8
:104FC0003A6811683A68526811433A689268114326
:104FD0003A68D26811433A68126911433A685269D3
:104FE00011433A68926911433A68D26911433A68A9
:104FF000126A0A431A437B681A607B685B6823F075
:1050000004023B685B691B0C1A437B685A603B686F
:105010001B6AB3F5005F05D13B685B6A1946786887
:10502000FFF7ABFF0023FB737B68DB6923F40062AF
:105030007B68DA61FB7B18461037BD4680BD80B4C3
:1050400083B000AF786039607B683A689A6200BFCD
:105050000C37BD465DF8047B704780B483B000AF69
:10506000786039607B683A68DA6200BF0C37BD4609
:105070005DF8047B704780B483B000AF786039601E
:105080007B683A681A6300BF0C37BD465DF8047B45
:10509000704780B483B000AF786039607B683A684D
:1050A0005A6300BF0C37BD465DF8047B704780B47F
:1050B00083B000AF786039607B683A689A6300BF5C
:1050C0000C37BD465DF8047B704780B483B000AFF9
:1050D000786039607B683A68DA6300BF0C37BD4698
:1050E0005DF8047B704780B483B000AF78603960AE
:1050F0007B683A681A6400BF0C37BD465DF8047BD4
:10510000704780B483B000AF78607B685B6943F020
:1051100001027B685A6100BF0C37BD465DF8047B15
:105120007047000080B584B000AF786039607B685C
:105130001B68FB607B683D4A934213D07B68B3F1E8
:10514000804F0FD07B683A4A93420BD07B68394A34
:10515000934207D07B68384A934203D07B68374A32
:10516000934206D1FB6823F070023B685B681343EF
:10517000FB607B682D4A93422BD07B68B3F1804F54
:1051800027D07B682A4A934223D07B68294A9342DE
:105190001FD07B68284A93421BD07B68274A9342E2
:1051A00017D07B68264A934213D07B68254A9342E6
:1051B0000FD07B68244A93420BD07B68234A9342EA
:1051C00007D07B68224A934203D07B68214A9342EE
:1051D00006D1FB6823F440723B68DB681343FB6035
:1051E0007B68FA681A603B689B6819467868FFF725
:1051F00034FF3B681B8819467868FFF720FF7B68FF
:105200000A4A934203D07B680C4A934205D13B681B
:105210001B6919467868FFF72EFF7868FFF771FF62
:10522000002318461037BD4680BD00BF0000014076
:105230000004004000080040000C00400004014051
:105240000040014000440140004801400018004077
:10525000001C00400020004080B586B000AFF86020
:10526000B9607A600123FB75BB68B3F5805F27D016
:10527000BB68B3F5805F2AD8BB68B3F5807F18D0D0
:10528000BB68B3F5807F22D8BB68012B03D0BB6815
:10529000102B07D01BE07968F86800F067F8034628
:1052A000FB7515E07968F86800F0CCF80346FB75EB
:1052B0000EE07968F86800F035F90346FB7507E001
:1052C0007968F86800F09EF90346FB7500E000BFBE
:1052D000FB7D18461837BD4680BD80B485B000AF51
:1052E000786039600023FB60FB6823F0FF033A68B5
:1052F000127B1343FB60FB6823F440723B689B689E
:105300001343FB60FB6823F480623B685B681343D4
:10531000FB60FB6823F400623B681B681343FB607F
:10532000FB6823F480533A68D2891343FB60FB681F
:1053300023F400523B681B691343FB60FB6823F4B2
:1053400080423B685B691343FB60FB6823F40042C7
:105350003B685B691343FB607B68FA685A6400230F
:1053600018461437BD465DF8047B704780B586B09B
:1053700000AF786039607B681B6A23F001027B68AC
:105380001A627B681B6A7B617B685B683B617B6838
:105390009B69FB60FB6823F00303FB60FB6823F061
:1053A00070023B681B681343FB607B6923F00202B9
:1053B0003B681B6913437B617B6923F001023B68F7
:1053C0005B6813437B617B681C4A934203D07B6814
:1053D0001B4A93421ED17B6923F008023B685B693C
:1053E0009B0013437B617B6923F004023B689B684D
:1053F0009B0013437B613B6923F480723B689B698C
:1054000013433B613B6923F400723B68DB695B003B
:1054100013433B617B683A695A607B68FA689A611A
:105420003B68DB6819467868FFF733FE7B687A696A
:105430001A62002318461837BD4680BD000001409F
:105440000004014080B586B000AF786039607B68A9
:105450001B6A23F010027B681A627B681B6A7B61FF
:105460007B685B683B617B689B69FB60FB6823F43E
:105470004073FB60FB6823F4E0423B681B681B023F
:105480001343FB607B6923F020023B681B691B010F
:1054900013437B617B6923F010023B685B681B014F
:1054A00013437B617B681D4A934203D07B681C4A8F
:1054B00093421FD17B6923F080023B685B699B01AB
:1054C00013437B617B6923F040023B689B689B012F
:1054D00013437B613B6923F480623B689B699B00BB
:1054E00013433B613B6923F400623B68DB69DB00EB
:1054F00013433B617B683A695A607B68FA689A613A
:105500003B68DB6819467868FFF7D1FD7B687A69EC
:105510001A62002318461837BD4680BD00000140BE
:105520000004014080B586B000AF786039607B68C8
:105530001B6A23F480727B681A627B681B6A7B613A
:105540007B685B683B617B68DB69FB60FB6823F021
:105550000303FB60FB6823F070023B681B68134386
:10556000FB607B6923F400723B681B691B021343D9
:105570007B617B6923F480723B685B681B02134389
:105580007B617B681D4A934203D07B681C4A93422F
:105590001FD17B6923F400623B685B699B02134364
:1055A0007B617B6923F480623B689B689B021343A9
:1055B0007B613B6923F480523B689B691B01134369
:1055C0003B613B6923F400523B68DB695B01134399
:1055D0003B617B683A695A607B68FA68DA613B68CC
:1055E000DB6819467868FFF770FD7B687A691A6294
:1055F000002318461837BD4680BD00BF000001409B
:105600000004014080B586B000AF786039607B68E7
:105610001B6A23F480527B681A627B681B6A3B61B9
:105620007B685B687B617B68DB69FB60FB6823F4FC
:105630004073FB60FB6823F4E0423B681B681B027D
:105640001343FB603B6923F400523B681B691B0357
:1056500013433B613B6923F480523B685B681B0347
:1056600013433B617B68114A934203D07B68104A25
:10567000934207D17B6923F480423B689B699B017D
:1056800013437B617B687A695A607B68FA68DA61E8
:105690003B68DB6819467868FFF725FD7B683A6947
:1056A0001A62002318461837BD4680BD000001402D
:1056B0000004014080B483B000AF78607B68DB6891
:1056C00003F40053B3F5005F0CBF01230023DBB2EA
:1056D00018460C37BD465DF8047B704780B483B034
:1056E00000AF786039607B681B6923F440523B68E7
:1056F0001A437B681A6100BF0C37BD465DF8047B16
:10570000704780B483B000AF786039607B685B69B4
:1057100023F440723B681A437B685A6100BF0C3720
:10572000BD465DF8047B70472DE9F04F9FB000AF98
:1057300078673967FA66BB66FB6EB3F5004F40F0D9
:10574000BC803B6F1C464FF0000522462B4612EBF7
:10575000020A43EB030B52465B46121945EB030367
:105760004FF000004FF00001D90041EA5271D00023
:1057700002460B46111939666B417B66BB6E1A46B1
:105780004FF00003911839635B417B63D7E90C2329
:10579000D7E91801FBF708FA02460B46A94BA3FB11
:1057A00002235B099BB21B019EB23B6F1C464FF06C
:1057B000000522462B469118B9625B41FB62D7E98E
:1057C0000A23121945EB03034FF000004FF00001CC
:1057D000D90041EA5271D00002460B461119B96551
:1057E0006B41FB65BB6E1A464FF00003911839629E
:1057F0005B417B62D7E90823D7E91601FBF7D4F9AF
:1058000002460B468F4BA3FB02135B09642101FB8D
:1058100003F3D31ADB0032338A4AA2FB03235B096A
:105820009BB25B009BB203F4F8739BB233449EB20D
:105830003B6F18464FF0000102460B469418BC61BE
:105840005B41FB61D7E90623121841EB03034FF0DC
:1058500000044FF00005DD0045EA5275D4002246F1
:105860002B4614183C654B417B65BB6E1A464FF0C6
:105870000003911839615B417B61D7E90423D7E9C3
:105880001401FBF791F902460B466E4BA3FB021382
:105890005B09642101FB03F3D31ADB003233694A4D
:1058A000A2FB03235B099BB203F007039BB23344C3
:1058B0009BB21A467B6F9A60BEE03B6F1C464FF06E
:1058C000000522462B4612EB020843EB0309424631
:1058D0004B46121945EB03034FF000004FF0000157
:1058E000D90041EA5271D00002460B461119B96441
:1058F0006B41FB64BB6E18464FF000014FF0000295
:105900004FF000038B0043EA90738200D7E9120145
:10591000FBF74AF902460B464A4BA3FB02235B09FD
:105920009BB21B019EB23B6F18464FF0000102462E
:105930000B469418BC605B41FB60D7E90223121848
:1059400041EB03034FF000044FF00005DD0045EA92
:105950005275D40022462B4614183C644B417B649C
:10596000BB6E18464FF000014FF000024FF00003ED
:105970008B0043EA90738200D7E91001FBF714F91A
:1059800002460B462F4BA3FB02135B09642101FB6C
:1059900003F3D31A1B0132332A4AA2FB03235B0908
:1059A0009BB203F0F0039BB233449EB23B6F1846A8
:1059B0004FF0000102460B4694183C605B417B604F
:1059C000D7E90023121841EB03034FF000044FF016
:1059D0000005DD0045EA5275D40022462B46141816
:1059E000BC634B41FB63BB6E18464FF000014FF0A8
:1059F00000024FF000038B0043EA90738200D7E966
:105A00000E01FBF7D1F802460B460E4BA3FB021327
:105A10005B09642101FB03F3D31A1B013233094AEA
:105A2000A2FB03235B099BB203F00F039BB2334439
:105A30009BB21A467B6F9A6000BF7C37BD46BDE8BB
:105A4000F08F00BF1F85EB5180B588B000AF786044
:105A500039600123FB770023BB617868FFF72AFEDA
:105A60000346002B5ED17B68DB6823F4164323F0EA
:105A70000C033A6851683A68D26811433A6812696F
:105A800011433A6892690A431A437B68DA603B68BB
:105A90009B6819467868FFF721FE3B685B691946E9
:105AA0007868FFF72EFE07F108031846FFF788F91C
:105AB0007B681F4A934202D17B69BB6121E07B680E
:105AC0001C4A934202D13B69BB611AE07B681A4AC7
:105AD000934202D13B69BB6113E07B68174A934252
