:020000040800F2
:10000000000002208D9400082B8400083184000831
:10001000378400083D840008438400080000000085
:1000200000000000000000000000000049840008FB
:1000300057840008000000006584000873840008ED
:10004000DD940008DD940008DD940008DD940008CC
:10005000DD940008DD940008DD940008DD940008BC
:10006000DD940008DD940008DD940008DD940008AC
:10007000DD940008DD940008DD940008DD9400089C
:10008000DD940008DD940008DD940008DD9400088C
:10009000DD940008DD940008DD940008DD9400087C
:1000A000DD940008DD940008DD940008DD9400086C
:1000B000DD940008DD940008DD940008DD9400085C
:1000C000DD940008DD940008DD940008DD9400084C
:1000D000DD940008DD940008DD940008DD9400083C
:1000E000DD940008DD940008DD940008DD9400082C
:1000F000DD940008DD940008DD940008DD9400081C
:10010000DD940008DD94000881840008DD94000877
:10011000DD940008DD940008DD940008DD940008FB
:10012000A5840008DD940008DD940008DD94000833
:10013000DD9400080000000000000000DD940008CD
:10014000DD940008DD940008DD940008DD940008CB
:10015000DD940008DD940008DD940008DD940008BB
:10016000DD940008DD940008DD940008DD940008AB
:10017000DD940008DD94000800000000000000008D
:08018000DD940008DD94000885
:1001900010B5054C237833B9044B13B10448AFF3C1
:1001A00000800123237010BDDC010020000000004E
:1001B00024D6000808B5034B1BB103490348AFF32D
:1001C000008008BD00000000E001002024D60008E7
:1001D000034613F8012B002AFBD1181A0138704787
:1001E00001F0FF01102A2BDB10F0070F08D010F8E8
:1001F000013B013A8B422DD010F0070F42B3F6D1EC
:10020000F0B441EA012141EA014122F007047FF004
:1002100000070023F0E80256083C85EA010586EA5B
:10022000010685FA47F5A3FA87F586FA47F6A5FA97
:1002300087F68EB9EED1F0BC01F0FF0102F00702A3
:1002400032B110F8013B013A83EA010313B1F8D14E
:100250000020704701387047002D06BF354603382F
:10026000073815F0010F07D1013015F4807F02BF68
:10027000013015F4C03F0130F0BC0138704700BFB9
:1002800081F0004102E000BF83F0004330B54FEA47
:1002900041044FEA430594EA050F08BF90EA020FB4
:1002A0001FBF54EA000C55EA020C7FEA645C7FEA47
:1002B000655C00F0E2804FEA5454D4EB5555B8BF6A
:1002C0006D420CDD2C4480EA020281EA030382EADB
:1002D000000083EA010180EA020281EA0303362D6D
:1002E00088BF30BD11F0004F4FEA01314FF4801C40
:1002F0004CEA113102D0404261EB410113F0004F52
:100300004FEA03334CEA133302D0524263EB430308
:1003100094EA050F00F0A780A4F10104D5F1200EA6
:100320000DDB02FA0EFC22FA05F2801841F1000101
:1003300003FA0EF2801843FA05F359410EE0A5F1D5
:1003400020050EF1200E012A03FA0EFC28BF4CF006
:10035000020C43FA05F3C01851EBE37101F00045BC
:1003600007D54FF0000EDCF1000C7EEB00006EEBC9
:100370000101B1F5801F1BD3B1F5001F0CD3490853
:100380005FEA30004FEA3C0C04F101044FEA4452AA
:1003900012F5800F80F09A80BCF1004F08BF5FEA31
:1003A000500C50F1000041EB045141EA050130BD11
:1003B0005FEA4C0C404141EB0101013C28BFB1F523
:1003C000801FE9D291F0000F04BF01460020B1FA6E
:1003D00081F308BF2033A3F10B03B3F120020CDA41
:1003E0000C3208DD02F1140CC2F10C0201FA0CF01F
:1003F00021FA02F10CE002F11402D8BFC2F1200C84
:1004000001FA02F120FA0CFCDCBF41EA0C01904039
:10041000E41AA2BF01EB0451294330BD6FEA040482
:100420001F3C1CDA0C340EDC04F11404C4F120026D
:1004300020FA04F001FA02F340EA030021FA04F37F
:1004400045EA030130BDC4F10C04C4F1200220FAD6
:1004500002F001FA04F340EA0300294630BD21FA14
:1004600004F0294630BD94F0000F83F4801306BFDA
:1004700081F480110134013D4EE77FEA645C18BFCE
:100480007FEA655C29D094EA050F08BF90EA020F65
:1004900005D054EA000C04BF1946104630BD91EA5D
:1004A000030F1EBF0021002030BD5FEA545C05D160
:1004B0004000494128BF41F0004130BD14F580049F
:1004C0003CBF01F5801130BD01F0004545F0FE4113
:1004D00041F470014FF0000030BD7FEA645C1ABF48
:1004E000194610467FEA655C1CBF0B46024650EA7F
:1004F000013406BF52EA033591EA030F41F40021AB
:1005000030BD00BF90F0000F04BF0021704730B530
:100510004FF4806404F132044FF000054FF0000105
:1005200050E700BF90F0000F04BF0021704730B5C6
:100530004FF4806404F1320410F0004548BF40429B
:100540004FF000013EE700BF42004FEAE2014FEAF0
:1005500031014FEA02701FBF12F07F4393F07F4FCB
:1005600081F06051704732F07F4208BF704793F0CE
:100570007F4F04BF41F40021704730B54FF46074E1
:1005800001F0004521F000411CE700BF50EA0102E4
:1005900008BF704730B54FF000050AE050EA01028D
:1005A00008BF704730B511F0004502D5404261EBFD
:1005B00041014FF4806404F132045FEA915C3FF43E
:1005C000D8AE4FF003025FEADC0C18BF03325FEADB
:1005D000DC0C18BF033202EBDC02C2F1200300FA8C
:1005E00003FC20FA02F001FA03FE40EA0E0021FAB1
:1005F00002F11444BDE600BF70B54FF0FF0C4CF49F
:10060000E06C1CEA11541DBF1CEA135594EA0C0F50
:1006100095EA0C0F00F0DEF82C4481EA030621EA8B
:100620004C5123EA4C5350EA013518BF52EA0335C6
:1006300041F4801143F4801338D0A0FB02CE4FF078
:100640000005E1FB02E506F00042E0FB03E54FF0A8
:100650000006E1FB03569CF0000F18BF4EF0010EA0
:10066000A4F1FF04B6F5007F64F5407404D25FEA9C
:100670004E0E6D4146EB060642EAC62141EA55514F
:100680004FEAC52040EA5E504FEACE2EB4F1FD0C91
:1006900088BFBCF5E06F1ED8BEF1004F08BF5FEA0F
:1006A000500E50F1000041EB045170BD06F00046C1
:1006B00046EA010140EA020081EA0301B4EB5C046E
:1006C000C2BFD4EB0C0541EA045170BD41F4801166
:1006D0004FF0000E013C00F3AB8014F1360FDEBF8B
:1006E000002001F0004170BDC4F10004203C35DA67
:1006F0000C341BDC04F11404C4F1200500FA05F3EA
:1007000020FA04F001FA05F240EA020001F000428A
:1007100021F0004110EBD37021FA04F642EB060100
:100720005EEA430E08BF20EAD37070BDC4F10C042A
:10073000C4F1200500FA04F320FA05F001FA04F2EE
:1007400040EA020001F0004110EBD37041F10001DA
:100750005EEA430E08BF20EAD37070BDC4F12005E5
:1007600000FA05F24EEA020E20FA04F301FA05F24D
:1007700043EA020321FA04F001F0004121FA04F2F5
:1007800020EA020000EBD3705EEA430E08BF20EAC5
:10079000D37070BD94F0000F0FD101F000464000FF
:1007A00041EB010111F4801F08BF013CF7D041EA81
:1007B000060195F0000F18BF704703F00046520085
:1007C00043EB030313F4801F08BF013DF7D043EA56
:1007D0000603704794EA0C0F0CEA135518BF95EA0C
:1007E0000C0F0CD050EA410618BF52EA4306D1D193
:1007F00081EA030101F000414FF0000070BD50EAB2
:10080000410606BF1046194652EA430619D094EA3B
:100810000C0F02D150EA013613D195EA0C0F05D125
:1008200052EA03361CBF104619460AD181EA030179
:1008300001F0004141F0FE4141F470014FF0000031
:1008400070BD41F0FE4141F4780170BD70B54FF0CC
:10085000FF0C4CF4E06C1CEA11541DBF1CEA13554C
:1008600094EA0C0F95EA0C0F00F0A7F8A4EB05042E
:1008700081EA030E52EA03354FEA013100F0888025
:100880004FEA03334FF0805545EA131343EA1263EE
:100890004FEA022245EA111545EA10654FEA0026A3
:1008A0000EF000419D4208BF964244F1FD0404F55C
:1008B000407402D25B084FEA3202B61A65EB0305B8
:1008C0005B084FEA32024FF480104FF4002CB6EB75
:1008D000020E75EB030E22BFB61A754640EA0C00F5
:1008E0005B084FEA3202B6EB020E75EB030E22BF35
:1008F000B61A754640EA5C005B084FEA3202B6EB76
:10090000020E75EB030E22BFB61A754640EA9C0034
:100910005B084FEA3202B6EB020E75EB030E22BF04
:10092000B61A754640EADC0055EA060E18D04FEAC2
:10093000051545EA16754FEA06164FEAC30343EA62
:1009400052734FEAC2025FEA1C1CC0D111F4801F2F
:100950000BD141EA00014FF000004FF0004CB6E728
:1009600011F4801F04BF01430020B4F1FD0C88BFC7
:10097000BCF5E06F3FF6AFAEB5EB030C04BFB6EBD2
:10098000020C5FEA500C50F1000041EB045170BDC5
:100990000EF0004E4EEA113114EB5C04C2BFD4EBF2
:1009A0000C0541EA045170BD41F480114FF0000E76
:1009B000013C90E645EA060E8DE60CEA135594EAF2
:1009C0000C0F08BF95EA0C0F3FF43BAF94EA0C0FF5
:1009D0000AD150EA01347FF434AF95EA0C0F7FF46A
:1009E00025AF104619462CE795EA0C0F06D152EABE
:1009F00003353FF4FDAE1046194622E750EA4106A2
:100A000018BF52EA43067FF4C5AE50EA41047FF4B2
:100A10000DAF52EA43057FF4EBAE12E74FF0FF3C17
:100A200006E000BF4FF0010C02E000BF4FF0010CE8
:100A30004DF804CD4FEA410C7FEA6C5C4FEA430C61
:100A400018BF7FEA6C5C1BD001B050EA410C0CBFB0
:100A500052EA430C91EA030F02BF90EA020F002012
:100A6000704710F1000F91EA030F58BF994208BF79
:100A700090422CBFD8176FEAE37040F00100704736
:100A80004FEA410C7FEA6C5C02D150EA013C07D18D
:100A90004FEA430C7FEA6C5CD6D152EA033CD3D0D8
:100AA0005DF8040B704700BF8446104662468C46D2
:100AB0001946634600E000BF01B5FFF7B7FF002805
:100AC00048BF10F1000F01BD4DF808EDFFF7F4FF2E
:100AD0000CBF012000205DF808FB00BF4DF808EDB9
:100AE000FFF7EAFF34BF012000205DF808FB00BFDC
:100AF0004DF808EDFFF7E0FF94BF012000205DF8FE
:100B000008FB00BF4DF808EDFFF7CEFF94BF0120B2
:100B100000205DF808FB00BF4DF808EDFFF7C4FFAB
:100B200034BF012000205DF808FB00BF4FEA410CF4
:100B30007FEA6C5C02D150EA013C0AD14FEA430CD7
:100B40007FEA6C5C02D152EA033C02D14FF0000014
:100B500070474FF0010070474FEA410212F5001252
:100B600015D211D56FF47873B3EB625212D94FEAF4
:100B7000C12343F0004343EA505311F0004F23FADE
:100B800002F018BF404270474FF00000704750EA33
:100B9000013005D111F0004008BF6FF000407047F0
:100BA0004FF00000704700BF4FEA4102B2F1E0434E
:100BB00024BFB3F5001CDCF1FE5C0DD901F0004C44
:100BC0004FEAC0024CEA5070B2F1004F40EB830094
:100BD00008BF20F00100704711F0804F21D113F1C0
:100BE0003872BCBF01F00040704741F480114FEAF9
:100BF0005252C2F11802C2F1200C10FA0CF320FA82
:100C000002F018BF40F001004FEAC1234FEAD3239E
:100C100003FA0CFC40EA0C0023FA02F34FEA430308
:100C2000CCE77FEA625307D150EA01331EBF4FF091
:100C3000FE4040F44000704701F0004040F0FE40AC
:100C400040F40000704700BF53B94AB9002908BFFB
:100C500000281CBF4FF0FF314FF0FF3000F06EB99D
:100C6000ADF1080C6DE904CE00F006F8DDF804E003
:100C7000DDE9022304B070472DE9F047089D0446E2
:100C80008C46002B40F083808A42174647D9B2FA3F
:100C900082F242B1C2F1200024FA00F09140974064
:100CA00040EA010C94404FEA1748230CBCFBF8F6CD
:100CB0001FFA87FE08FB16C143EA014306FB0EF14B
:100CC000994209D9FB1806F1FF3080F01981994249
:100CD00040F21681023E3B445B1AA4B2B3FBF8F02B
:100CE00008FB103344EA034400FB0EFEA64509D975
:100CF0003C1900F1FF3380F00581A64540F20281E6
:100D000002383C4440EA0640A4EB0E0400261DB124
:100D1000D4400023C5E900433146BDE8F08702B95D
:100D2000FFDEB2FA82F2002A50D1CB1B4FEA174EF7
:100D30001FFA87F80126B3FBFEFC210C0EFB1C33C7
:100D400041EA034108FB0CF38B4207D979180CF1F7
:100D5000FF3002D28B4200F2E9808446C91AA3B266
:100D6000B1FBFEF00EFB101143EA014408FB00F852
:100D7000A04507D93C1900F1FF3302D2A04500F28B
:100D8000D9801846A4EB080440EA0C40BFE78B4228
:100D900009D9002D00F0B1800026C5E900013046D8
:100DA0003146BDE8F087B3FA83F6002E4AD18B4274
:100DB00002D3824200F2B880841A61EB0301012061
:100DC0008C46002DA8D0C5E9004CA5E7C2F1200350
:100DD00020FA03F6974001FA02F04FEA174ED94085
:100DE0003043030CB1FBFEF61FFA87F80EFB161119
:100DF00043EA014306FB08F1994204FA02F409D9D7
:100E0000FB1806F1FF3C80F08D80994240F28A8009
:100E1000023E3B445B1A81B2B3FBFEF00EFB103383
:100E200041EA034100FB08F38B4207D9791800F12E
:100E3000FF3C73D28B4271D902383944CB1A40EA55
:100E4000064678E7C6F1200C03FA06F422FA0CF302
:100E50001C4320FA0CF701FA06F34FEA144E21FA6C
:100E60000CF11F433B0CB1FBFEF91FFA84F80EFB9B
:100E7000191143EA014109FB08FA8A4502FA06F210
:100E800000FA06F308D9611809F1FF3048D28A4503
:100E900046D9A9F102092144A1EB0A01BFB2B1FB75
:100EA000FEF00EFB101147EA014700FB08F8B845B9
:100EB00007D9E71900F1FF312ED2B8452CD90238F5
:100EC000274440EA0940A7EB0807A0FB02894F45E9
:100ED000C64649461AD317D05DB1B3EB0E0267EB95
:100EE000010707FA0CFCF2404CEA0202F740C5E9A0
:100EF000002700263146BDE8F0872E4628460BE73E
:100F00000646E9E61846FDE64345E5D2B8EB020E93
:100F100069EB04010138DFE70846D2E760468DE758
:100F20008146B9E7664675E730464AE7ACF1020C00
:100F3000394413E702383C4424E700BF704700BF40
:100F400080B500AF174B5B7803F04003DBB2002B9A
:100F500025D005F0F5FF01F045FB124B5B7803F05F
:100F60000403DBB2002B01D000F094F90E4B1B7888
:100F7000012B11D10D4B93F82030012B0CD10C4BD0
:100F80001B88184603F096F803461A46084B1A8049
:100F9000054B00221A7002E0034B01221A7000BFB9
:100FA00080BD00BFDC0600200000002040060020BD
:100FB000A002002080B582B000AF0346FB71FB7930
:100FC00019463E480AF00EF9FB790E2B5CD801A2B7
:100FD00052F823F011100008191000082110000821
:100FE00029100008311000083910000841100008CD
:100FF000491000085110000859100008611000083D
:1010000069100008711000087910000881100008AC
:101010002B480AF0E7F837E02A480AF0E3F833E013
:1010200029480AF0DFF82FE028480AF0DBF82BE027
:1010300027480AF0D7F827E026480AF0D3F823E03B
:1010400025480AF0CFF81FE024480AF0CBF81BE04F
:1010500023480AF0C7F817E020480AF0C3F813E065
:101060001E480AF0BFF80FE01E480AF0BBF80BE07C
:101070001D480AF0B7F807E01C480AF0B3F803E08F
:101080001B480AF0AFF800BF0A200AF0C3F8FB794A
:10109000184602F075FBFB799BB21A461201D31A6F
:1010A0009B009BB203F216439BB26421184602F0E8
:1010B000A1F900BF0837BD4680BD00BF40D600087B
:1010C0004CD6000858D6000868D6000878D6000824
:1010D0008CD6000898D60008A8D60008B4D6000818
:1010E000C8D60008E0D60008F4D6000800D70008EB
:1010F00010D7000880B586B000AF0023FB753E4ACC
:1011000053786FF3861353703C4B00225A623C4B6A
:1011100000225A6202F0BAF93A480AF0FFF8384B56
:101120005B6A07EE903AF8EE677AC7ED047A334BC4
:101130005B6A07EE903AF8EE677AC7ED037A97EDAF
:10114000047ADFED316AC7EE267AB3EE007A67EEF5
:10115000877AFCEEE77AC7ED017A3B79DAB22B4B5E
:101160001A7097ED037ADFED286AC7EE267AB0EEA3
:10117000087A67EE877AFCEEE77AC7ED017A3B7969
:10118000FB75224B1A78224B1B78D31ADAB2214B0B
:101190001A70204B1B78002B04D01C4B1B78184670
:1011A000FFF708FF194B1A78194B1A70FB7D022BB9
:1011B000B5D1642140F64D2002F01CF9642140F6BF
:1011C000EA2002F017F964214FF4446002F012F9AA
:1011D00002F070F9094B00225A62094B00225A6250
:1011E0000A4B1B7819460C4809F0FCFF074B1B788B
:1011F00018461837BD4680BDDC06002000040040BC
:101200000008004024D7000800008047F8010020B3
:1012100001000020F90100203CD7000880B500AF94
:1012200002F0A2FC02F00AF8164A537843F0400399
:10123000537015480AF072F8144B1B8E502BFBD9D3
:101240004FF4967140F2265002F0D4F84FF49671A4
:1012500040F2755002F0CEF84FF496714FF4C4602E
:1012600002F0C8F84FF47A7002F000F800BF054AA7
:1012700053786FF386135370054B4FF000021A60DA
:1012800000BF80BDDC06002050D70008F8660120B2
:101290004006002080B584B000AF294B93ED007A62
:1012A000284BD3ED007A77EE677AC7ED027A244BAC
:1012B00093ED057A244BD3ED007A77EE677AC7ED8C
:1012C000017A1F4B93ED057A1F4BD3ED017A77EE30
:1012D000677AC7ED007A0023FB73D7ED027AF0EE50
:1012E000E77AB3EE0E7AF4EEC77AF1EE10FA01DD8A
:1012F0000223FB73D7ED007AF0EEE77AB0EE007AC6
:10130000F4EEC77AF1EE10FA01DD0323FB73D7ED9B
:10131000017AF0EEE77AB0EE007AF4EEC77AF1EEF9
:1013200010FA01DD0423FB73FB7B002B03D0FB7B56
:10133000184600F00BF800BF1037BD4680BD00BF57
:10134000AC06002040060020F86601202DE9F0439D
:1013500087B004AF0346FB7102F006FC01F07AFF90
:10136000002002F00DFA0023009300230022002148
:10137000002002F0C5FD4FF4FA7001F077FF04F091
:10138000E9FEFE79114B1B681846FFF7DDF8804631
:1013900089460F4B1B681846FFF7D6F804460D46E2
:1013A0000A4B5B691846FFF7CFF802460B46CDE9BA
:1013B0000223CDE9004542464B463146054809F037
:1013C00011FF4FF47A7001F051FFDAE7AC0600200C
:1013D000400600205CD7000880B500AF0A4A537869
:1013E0006FF38203537004F0ADFB084B4FF0000223
:1013F0001A60074B4FF000021A60034A537843F01B
:101400000403537000BF80BDDC06002040060020AE
:10141000AC06002080B400AF134B1B7803F004032C
:10142000DBB2002B1AD0104A13786FF3C30313708A
:101430000E4B4FF000021A610B4A53786FF3820390
:1014400053700B4B4FF000021A60084B4FF0000234
:101450001A60054A537843F00403537000BFBD4639
:101460005DF8047B704700BFDC06002040060020CA
:10147000AC06002080B584B000AF0346FB710023AA
:101480007B730023BB7303F083FDFFF7C3FF6F4A39
:10149000537843F0400353706D4B012283F82020B2
:1014A000002005F0C5FD0346002B04D0FFF794FF94
:1014B000022003F027FD674B1B78022B0ED1654BF2
:1014C0005B78002B0AD1644BD3ED057A0021012013
:1014D000F0EE670A9FED610A03F0F2FD01210120A1
:1014E00004F0B4FA0346FB7303F0D6FC5C4B5B8854
:1014F00001339AB25A4B5A80FA7BFB79114618464F
:1015000003F09AFC564B5B881A46564B9B5C882B23
:101510000AD0882B54DC442B0ED0442B50DC112BEA
:1015200043D0222B13D04BE0012004F0CDFA034628
:10153000FB7300237B7343E004F012FB0346FB7351
:1015400001237B737B7B184603F0DCFC38E0012031
:1015500004F0A4FA012005F06BFD0346002B03D034
:101560000123BB7304F0CEFAFFF736FFBB7B012BE0
:101570000ED19FED3D0A04F08FFB374BD3ED057A7A
:1015800000210120F0EE670A9FED370A03F098FD75
:1015900002237B737B7B184603F0B4FC01210120FE
:1015A00004F054FA0346FB730AE004F027FB0346F9
:1015B000FB73FF237B737B7B184603F0A3FC00BF08
:1015C000274B5B8801339AB2254B5A8003F064FCA9
:1015D000FA7BFB791146184603F02EFC234B1B784F
:1015E000224A5178FA79184600F042F80346002B57
:1015F00088D105F0E5FB0346FB73FB7B184602F040
:1016000073FF012004F04AFA104A53786FF38613EF
:1016100053700F4B002283F8202002F0A5FAC82057
:1016200001F024FE094B1B7803F00203DBB2002B10
:1016300001D103F0E7FC054A13786FF382031370BE
:1016400004F028FD00BF1037BD4680BDDC06002039
:1016500040060020CC600120BC040020000078423D
:10166000C4600120F461012000007042C8600120C4
:1016700080B485B000AF0346FB710B46BB711346C7
:101680007B710123FB730123BB7300237B73002356
:101690003B730023FB720023BB7200237B72002389
:1016A0007B732EE0284B1A787B7B1344BB72264B4E
:1016B0005A787B7B13447B72FA79BB7A9A4207D1C2
:1016C0003B7B002B04D10023FB7301233B7304E01D
:1016D0003B7B002B01D10123FB73BA797B7A9A42C1
:1016E00007D1FB7A002B04D10023BB730123FB72CB
:1016F00004E0FB7A002B01D10123BB737B7B013318
:101700007B737A7B7B799A42CCD3FB7B002B13D102
:10171000BB7B002B10D10D4A13786FF3820313703B
:101720000B4AFB7913700A4ABB795370094B9A78BC
:10173000074B9A70002300E0012318461437BD467A
:101740005DF8047B704700BFCC600120DC06002000
:10175000A4020020C860012080B487B000AF904B85
:101760005B8E07EE903AB8EEE77A8E4BD3ED007AB7
:1017700077EE677AC7ED037A894BDB8D07EE903AF7
:10178000B8EEE77A884BD3ED007A77EE677AC7ED4B
:10179000027AD7ED037AF0EEE77AB1EE087AF4EE4A
:1017A000C77AF1EE10FA02DD0A23FB8201E0002382
:1017B000FB82D7ED027AF0EEE77AB1EE087AF4EE2A
:1017C000C77AF1EE10FA02DD0A23BB8201E00023A2
:1017D000BB82734B5B8E1A46714B9B8FD31A07EEFD
:1017E000903AF8EEE77AC7ED017A6D4BDB8D1A4639
:1017F0006B4B1B8FD31A07EE903AF8EEE77AC7EDE2
:10180000007A674B5B8E1A46FB8A19339A4214DDC5
:10181000634BDB8D1A46BB8A14339A420DDDD7ED3C
:10182000007AB7EE087A27EE877AD7ED017A77EE5D
:10183000677A5E4BC3ED007A33E0594B5B8E1A46F4
:10184000FB8A19339A420BDC554BDB8D1A46BB8A57
:1018500014339A4204DC554B4FF000021A6020E02A
:101860004F4B5B8E1A46FB8A19339A4209DDD7ED3E
:10187000017AB8EE007A67EE877A4C4BC3ED007AB6
:101880000FE0474BDB8D1A46BB8A14339A4208DDC2
:10189000D7ED007AB0EE087A67EE877A434BC3ED56
:1018A000007A3F4B9B8EA3F58C723D4B9B8DA3F52D
:1018B0008273D31A07EE903AF8EEE77A3C4BC3ED09
:1018C000007A374B9B8EA3F58C72354B9B8DA3F51D
:1018D0008273134407EE903AF8EEE77A354BC3ED86
:1018E000007A354B1B78092B1ED82D4B5A8E324B64
:1018F0001B7807EE902AF8EE677A2A4A9B00134479
:10190000C3ED007A264BD88D2B4B1B785A1CD1B2D5
:10191000294A117007EE900AF8EE677A224A9B0076
:101920001344C3ED007A34E0234B1B78092B30D9E4
:1019300000233B6118E03B6901331A4A9B001344C2
:101940001A6818493B699B000B441A603B690133D4
:10195000154A9B0013441A6813493B699B000B44CA
:101960001A603B6901333B613B69082BE3DD0C4B9B
:101970005B8E07EE903AF8EE677A0A4BC3ED097A70
:10198000074BDB8D07EE903AF8EE677A064BC3ED16
:10199000097A00BF1C37BD465DF8047B704700BF65
:1019A000F86601200802002030020020FC0300201D
:1019B000A8020020F40200205802002080B483B066
:1019C00000AF78607B6893ED067A7B68D3ED036A9D
:1019D0007B68D3ED007A66EEA77A77EE277A7B688C
:1019E000C3ED067A7B6893ED067A7B68D3ED077AC0
:1019F000B4EEE77AF1EE10FA04DD7B68DA697B6811
:101A00009A6114E07B6893ED067A7B68D3ED077AE0
:101A1000F1EE677AB4EEE77AF1EE10FA07D57B685B
:101A2000D3ED077AF1EE677A7B68C3ED067A7B68BF
:101A300093ED027A7B68D3ED007A27EE277A7B68F4
:101A4000D3ED046A7B6893ED006A7B68D3ED017A7D
:101A500076EE677A66EEA77A37EE277A7B68D3ED63
:101A6000067A77EE277A7B68C3ED057A7B6893ED7B
:101A7000057A7B68D3ED087AB4EEE77AF1EE10FAD6
:101A800004DD7B681A6A7B685A6114E07B6893ED19
:101A9000057A7B68D3ED087AF1EE677AB4EEE77ADF
:101AA000F1EE10FA07D57B68D3ED087AF1EE677A8C
:101AB0007B68C3ED057A7B681A687B685A607B682F
:101AC0005B6907EE903AB0EE670A0C37BD465DF8E9
:101AD000047B704780B483B000AF284B5B697B60A8
:101AE000274B1B7803F01003DBB2002B0DD0234BE8
:101AF000D3ED067A9FED237A67EE877A97ED017A28
:101B000077EE277AC7ED017A13E01D4B1B7803F0BF
:101B10002003DBB2002B0CD0184BD3ED067A9FEDDF
:101B2000197A67EE877A97ED017A77EE677AC7EDD3
:101B3000017A154BD3ED057A97ED017AB4EEE77A89
:101B4000F1EE10FA03DD104B5B697B600CE00F4B8C
:101B5000D3ED057A97ED017AB4EEE77AF1EE10FA5B
:101B600002D50A4B5B697B607B6807EE903AB0EE6A
:101B7000670A0C37BD465DF8047B7047AC06002051
:101B8000DC0600206F12833ABC040020E40400202D
:101B900080B483B000AF284B5B687B60274B1B7819
:101BA00003F04003DBB2002B0DD0234BD3ED027AC0
:101BB0009FED237A67EE877A97ED017A77EE277AA1
:101BC000C7ED017A13E01D4B1B7823F07F03DBB2D6
:101BD000002B0CD0184BD3ED027A9FED197A67EEEB
:101BE000877A97ED017A77EE677AC7ED017A154B20
:101BF000D3ED017A97ED017AB4EEE77AF1EE10FABF
:101C000003DD104B5B687B600CE00F4BD3ED017A7A
:101C100097ED017AB4EEE77AF1EE10FA02D50A4BAD
:101C20005B687B607B6807EE903AB0EE670A0C3722
:101C3000BD465DF8047B7047AC060020DC06002042
:101C40006F12833ABC040020E404002080B489B001
:101C500000AF87ED010A474BBB6197ED067AD7EDE0
:101C6000017A67EE277AC7ED057A434B93ED007A48
:101C7000D7ED057A37EE277A404BD3ED007A77EE31
:101C8000677AC7ED047AD7ED047A9FED3D7A27EEA7
:101C9000877A3C4BD3ED007AD7ED046A76EEE77A8B
:101CA000DFED396A67EEA67A77EE277AC7ED077A15
:101CB000344A3B691360354BD3ED027A9FED347A99
:101CC00067EE877AC7ED037A324BD3ED007A97ED52
:101CD000077A77EE677AC7ED027A97ED027AD7ED49
:101CE000037AB4EEE77AF1EE10FA09DD294BD3ED71
:101CF000007A97ED037A77EE277AC7ED077A13E03B
:101D0000D7ED037AF1EE677A97ED027AB4EEE77ACF
:101D1000F1EE10FA08D51F4B93ED007AD7ED037A58
:101D200077EE677AC7ED077AD7ED077AB7EE007AD4
:101D3000F4EEC77AF1EE10FA03DD4FF07E53FB614B
:101D40000AE0D7ED077ABFEE007AF4EEC77AF1EE3B
:101D500010FA01D5104BFB610E4AFB691360FB6959
:101D600007EE903AB0EE670A2437BD465DF8047B73
:101D7000704700BF9A99993EAC06002040060020AB
:101D80004DF38E3C5C020020CDCC4C3DBC040020C9
:101D90006F12833A60020020000080BFB0B493B09D
:101DA00000AFF86187ED060AC7ED050A87ED041A52
:101DB000C7ED031A87ED022AC7ED012A0B46FB7017
:101DC000BB697B62D7ED036A97ED057AC6EE877A29
:101DD000C7ED0A7AD7ED026A97ED057AC6EE877AE3
:101DE000C7ED0B7A7B693B633B697B63FB68BB6335
:101DF000BB68FB637B683B64FB7887F84430FB6916
:101E00001D4607F124040FCC0FC50FCC0FC5236866
:101E10002B60F8694C37BD46B0BC7047B0B48FB08A
:101E200000AF786187ED040AC7ED030A87ED021A57
:101E3000C7ED011A87ED002A3B69FB61FB683B6235
:101E4000D7ED046A97ED027AC6EE877AC7ED0A7A73
:101E5000D7ED036A97ED027AC6EE877AC7ED0B7A63
:101E6000BB687B623B69FB61FB683B627B683B63F1
:101E70003B687B637B691D4607F11C040FCC0FC5D3
:101E800094E8070085E8070078693C37BD46B0BC98
:101E90007047B0B491B000AF786187ED040AC7ED28
:101EA000030A87ED021AC7ED011A87ED002A3B6984
:101EB0007B62FB68BB62BB68FB627B68BB633B68A1
:101EC000FB637B691D4607F11C040FCC0FC50FCCCB
:101ED0000FC523682B6078694437BD46B0BC704796
:101EE000B0B58AB000AFCF4C3B460021DFEDCE2A23
:101EF0009FEDCD2ADFEDCC1A9FEDCB1AF7EE000A4D
:101F00009FEDC90A1846FFF749FF25463C460FCC0E
:101F10000FC50FCC0FC523682B60C44C3B46002176
:101F2000DFEDC32AB1EE002ADFEDBF1A9FEDBE1A26
:101F3000DFEDC00A9FEDBC0A1846FFF72FFF2546CC
:101F40003C460FCC0FC50FCC0FC523682B60BA4C95
:101F50003B460021DFEDB62AB1EE002ADFEDB71ACD
:101F60009FEDB11ADFEDB30A9FEDAF0A1846FFF7F8
:101F700015FF25463C460FCC0FC50FCC0FC5236877
:101F80002B60AD4BD3ED057AB1EE677AAA4BD3ED5A
:101F9000067AF1EE676AA84BD3ED077AF1EE677A1D
:101FA000A74C3B460021F0EE672AB0EE662AF0EE21
:101FB000471A9FED9D1ADFED9F0A9FED9B0A184679
:101FC000FFF7ECFE25463C460FCC0FC50FCC0FC5E6
:101FD00023682B609B4C3B460021DFED952AB1EE38
:101FE000002AF7EE001A9FED901ADFED970A9FED99
:101FF0008E0A1846FFF7D2FE25463C460FCC0FC589
:102000000FCC0FC523682B608B4BD3ED077AF1EE15
:10201000677A8C4C3B460021F0EE672AB1EE002A2D
:10202000DFED861A9FED801ADFED870A9FED7E0AAD
:102030001846FFF7B3FE24343D460FCD0FC40FCD35
:102040000FC42B6823607F4C3B46B3EE0E2AF2EEA2
:102050000E1A9FED7D1AF1EE000A9FED780A1846E0
:10206000FFF7DCFE48343D460FCD0FC495E807006E
:1020700084E80700734C3B469FED742ADFED731A2A
:102080009FED731AF1EE000A9FED6C0A1846FFF7F8
:10209000C5FE64343D460FCD0FC495E8070084E8C3
:1020A0000700684C3B469FED6B2ADFED6A1A9FEDF7
:1020B0006A1AF1EE000A9FED610A1846FFF7AEFEBC
:1020C00080343D460FCD0FC495E8070084E8070033
:1020D000624B5C4A1A60624C3B460021DFED542A99
:1020E000B1EE002AF7EE001A9FED4F1ADFED650AF8
:1020F0009FED4D0A1846FFF751FE25463C460FCC92
:102100000FC50FCC0FC523682B604B4BD3ED077A5F
:10211000F1EE677A524C3B460021F0EE672AB1EEB1
:10212000002ADFED501A9FED401ADFED560A9FEDB1
:102130003E0A1846FFF732FE24343D460FCD0FC449
:102140000FCD0FC42B682360454C3B469FED462ABC
:10215000F2EE0A1A9FED4B1AF2EE000A9FED410AC9
:102160001846FFF75BFE48343D460FCD0FC495E897
:10217000070084E807003A4C3B469FED3C2AF1EE0D
:10218000041A9FED3B1AF1EE000A9FED360A18463D
:10219000FFF744FE64343D460FCD0FC495E80700B9
:1021A00084E807002E4C3B469FED2A2ADFED311ACA
:1021B0009FED311AF1EE000A9FED2A0A1846FFF74B
:1021C0002DFE80343D460FCD0FC495E8070084E80E
:1021D00007002A4C3B460021DFED152AB2EE042A07
:1021E000F7EE081A9FED101ADFED260A9FED0E0A92
:1021F0001846FFF7D3FD25463C460FCC0FC50FCC44
:102200000FC523682B600C4BD3ED077AF1EE677A8C
:102210001A4C3B460021F0EE672AB2EE042ADFEDAD
:10222000181A33E04006002000000000AC06002031
:10223000CDCC4C3DAE47613DBC0400206666E63E19
:10224000E404002018030020EC51383D000018423F
:102250008FC2F53D0000AA425839B43DCC0200209F
:10226000080500209A99193F0000444200000C42E2
:102270006DE7FB3D00004842EC51B83DA40500204D
:10228000CDCC4C3F0AD7233D000000001FED021AC1
:102290005FED040A1FED040A1846FFF77FFD2434A2
:1022A0003D460FCD0FC40FCD0FC42B682360AD4C3E
:1022B0003B46B3EE0D2ADFEDAC1A9FEDAC1AF2EE01
:1022C000040A9FEDAB0A1846FFF7A8FD48343D46C7
:1022D0000FCD0FC495E8070084E80700A14BA54A7D
:1022E0005A65A04C3B469FEDA42AF1EE041A9FEDDF
:1022F000A31AF2EE040A9FED9E0A1846FFF78EFD20
:1023000064343D460FCD0FC495E8070084E807000C
:10231000944C3B469FED9A2ADFED9A1A9FED9A1A4C
:10232000F2EE040A9FED920A1846FFF777FD80341B
:102330003D460FCD0FC495E8070084E80700934C95
:102340003B460021DFED922AB2EE042AF0EE001A9D
:102350009FED851ADFED850A9FED830A1846FFF78A
:102360001DFD25463C460FCC0FC50FCC0FC523687D
:102370002B60884BD3ED077AF1EE677A834C3B46AE
:102380000021F0EE672AB2EE042ADFED791A9FED04
:10239000761ADFED760A9FED740A1846FFF7FEFC09
:1023A00024343D460FCD0FC40FCD0FC42B682360DE
:1023B000764C3B469FED782AF2EE0A1A9FED6B1A97
:1023C000F2EE040A9FED6A0A1846FFF727FD48342B
:1023D0003D460FCD0FC495E8070084E807006B4C1D
:1023E0003B469FED6E2AF1EE041A9FED641AF2EE61
:1023F000040A9FED5F0A1846FFF710FD64343D465E
:102400000FCD0FC495E8070084E807005F4C3B46FA
:102410009FED632ADFED5B1A9FED5B1AF2EE040A73
:102420009FED530A1846FFF7F9FC80343D460FCD67
:102430000FC495E8070084E807005A4B00221A8071
:10244000594C3B46B7EE002ADFED581A9FED461A6D
:10245000DFED570AB0EE0C0A1846FFF71AFD2546C5
:102460003C460FCC0FC50FCC0FC523682B60514CD9
:102470003B46B7EE002ADFED4D1A9FED3B1ADFED2C
:102480004C0AB0EE0C0A1846FFF703FD25463C4601
:102490000FCC0FC50FCC0FC523682B60464C3B46B5
:1024A0009FED462ADFED301A9FED451ADFED2E0A2B
:1024B0009FED440A1846FFF7ECFC25463C460FCC3E
:1024C0000FC50FCC0FC523682B603F4C3B46B7EEC2
:1024D000002ADFED361A9FED241ADFED3C0A9FED4E
:1024E0003C0A1846FFF7D5FC25463C460FCC0FC5E5
:1024F0000FCC0FC523682B60364C3B46B7EE002A45
:10250000DFED351A9FED181ADFED210A9FED2B0A3A
:102510001846FFF7BEFC25463C460FCC0FC50FCC36
:102520000FC523682B602D4C3B469FED242ADFED21
:102530001F1A9FED0E1ADFED0C0A9FED1C0A1846BC
:10254000FFF7A7FC25463C460FCC0FC50FCC0FC5A7
:1025500023682B60224B1C4A1A6000BF2837BD46F7
:10256000B0BD00BFA4050020000000000AD7233D35
:10257000CDCC4C3F00007041000004426DE7FB3DB4
:102580000000964200004842EC51B83D2004002073
:10259000CDCC4C3DBC0400200000444200000C4265
:1025A0000000AA42DC060020B4030020CDCCCC3DC4
:1025B0000AD7233CD8030020F4020020CDCC4C3EA7
:1025C0006F12833AA69B443B640600206F12033BC4
:1025D0008FC2753D880600209A99993ED00200204E
:1025E000E004002080B582B000AF4FF000037B60B4
:1025F000B64B4FF000021A60B54B4FF000021A6064
:10260000B44B4FF000021A60B34BD3ED007AB0EE3A
:10261000670A04F037FAF0EE407AAF4BC3ED007A68
:1026200004F06AFAF0EE407A9FEDAC7A67EE877AB2
:10263000A94BC3ED017A04F06DFAF0EE407AA64B97
:10264000C3ED067A04F0C4F9F0EE407AA24BC3ED74
:10265000047A04F033FAF0EE407A9F4BC3ED057A2A
:102660009F4B5B7803F02003DBB2002B40F0EB8044
:10267000FFF772F89A4B1B7803F00803DBB2002BCC
:1026800016D0984BD3ED057A9FED977AF4EEC77A82
:10269000F1EE10FA0CDD954BD3ED007AB0EE670A3F
:1026A000FFF7D4FAF0EE407A884BC3ED007A03E0EE
:1026B000864B4FF000021A608D4B9B69894A9361EB
:1026C000FFF708FAF0EE407A864BC3ED057AFFF784
:1026D0005FFAF0EE407A834BC3ED017A814B93EDC4
:1026E000007A7D4BD3ED007A77EE677A814BC3EDAC
:1026F000007A7C4B93ED057A774BD3ED057A77EE34
:10270000677A7D4BC3ED007A764B93ED057A724B79
:10271000D3ED057A77EE677A784BC3ED007A714B8B
:1027200093ED017A694BD3ED007A37EE277A6A4B45
:10273000D3ED017A724B1B6877EE677AC3ED007AAE
:10274000674B5B7803F00803DBB2002B18D06948B5
:10275000FFF734F987ED010A5E4B93ED007AD7ED70
:10276000017A77EE277A5B4BC3ED007A584B93EDF5
:10277000007AD7ED017A77EE677A554BC3ED007A90
:10278000574B5B7803F00203DBB2002B1AD05C4B93
:102790001B681846FFF712F987ED010A4D4B93EDC0
:1027A000007AD7ED017A77EE277A4A4BC3ED007AAB
:1027B000474B93ED007AD7ED017A77EE677A444B79
:1027C000C3ED007A464B5B7803F00103DBB2002BCC
:1027D00019D04A48FFF7F2F8B0EE407A3D4BD3EDFE
:1027E000007A77EE277A3B4BC3ED007A4248FFF739
:1027F000E5F8B0EE407A364BD3ED007A77EE277AE3
:10280000334BC3ED007A364B5B7803F01003DBB239
:10281000002B18D03B48FFF7D1F887ED010A2D4B6C
:1028200093ED007AD7ED017A77EE677A294BC3ED05
:10283000007A274B93ED007AD7ED017A77EE677A2D
:10284000234BC3ED007A234BD3ED007AF0EEE77A09
:10285000B7EE007AF4EEC77AF1EE10FA0CDD1D4BFC
:10286000D3ED006A1B4BD3ED007AB0EEE77AC6EEEB
:10287000877A184BC3ED007A154BD3ED007AF0EE52
:10288000E77AB7EE007AF4EEC77AF1EE10FA0CDDD3
:102890000F4BD3ED006A0E4BD3ED007AB0EEE77A22
:1028A000C6EE877A0A4BC3ED007A094BD3ED007A66
:1028B000084B93ED007AF0EE470AB0EE670A01F09C
:1028C00001F900BF0837BD4680BD00BF04020020EB
:1028D00000020020FC010020400600204DF38E3C49
:1028E000DC060020AC0600209A9999BEFC0300206B
:1028F000BC040020D0020020B4030020D803002034
:10290000E0040020F402002080B582B000AF03464E
:102910000A46FB711346BB71FEF780FC04F070FBA6
:1029200000F0B4FDFB7903F00103D9B20D4A5378EE
:1029300061F3820353700B4A537843F040035370A2
:10294000BB7903F00103002B02D000F0FDFF04E08F
:10295000BB79002B01D101F007F900BF0837BD4654
:1029600080BD00BFDC06002090B585B002AF00211D
:102970000020FFF7C9FF0023FB71114B9B8E194606
:102980000F4B5B8E18460E4B1B8E1C460C4BDB8D83
:102990001A460B4B9B8D0193009223460246094831
:1029A00008F020FC4FF4FA7000F060FC04F008FA24
:1029B0000346FB71FB79184600F0E2FEDDE700BF3D
:1029C000F866012094D700082DE9B04384B004AF25
:1029D00000210020FFF798FF114B1B691846FDF7F7
:1029E000B3FD804689460F4B9B691846FDF7ACFD49
:1029F00004460D460B4B5B691846FDF7A5FD0246E4
:102A00000B46CDE90223CDE9004542464B46064838
:102A100008F0E8FB4FF4FA7000F028FCDCE700BF98
:102A200040060020F8660120BCD7000880B500AF42
:102A300000210020FFF768FF074B1B681846FDF7D1
:102A400083FD02460B46054808F0CCFB4FF4FA70B4
:102A500000F00CFCF0E700BF40060020E4D70008BF
:102A600080B582B000AFFEF745FB03467B717B79F2
:102A7000184600F085FE01210120FFF745FF7B7914
:102A8000013B092B00F2DB8101A252F823F000BFC9
:102A9000B92A0008372B0008852B0008D52B000821
:102AA000192C00086B2C0008BD2C0008172D0008FD
:102AB000712D0008E52D0008C44B00221A80C44B7C
:102AC000012283F82020C34A53786FF382035370A6
:102AD000C14B1B68D3ED0E7A01210120F0EE670A8D
:102AE0009FEDBE0A02F0ECFAFF2000F049FEBA4B5F
:102AF0001B68D3ED057AB84B1B6893ED0E7AB64B85
:102B00001B68D3ED0F6AF0EE661AB0EE471AF0EECE
:102B1000670A9FEDB30A02F0B1FB002000F030FE1F
:102B2000002002F0BBFFAB4A53786FF3861353705B
:102B300001F01AF884E10121012002F087FFA34B84
:102B400000221A8003F05AF8002002F0BDFF002393
:102B5000FB7107E003F052F8002002F0B5FFFB79AB
:102B60000133FB71FB790F2BF4D9002002F096FFA3
:102B700002F0E8FF974A53786FF38613537000F022
:102B8000F3FF5DE10021002002F060FF8F4B002287
:102B90001A800023BB710DE0FF2000F0F1FD02F070
:102BA000DFFF002000F0ECFD002002F08DFFBB797C
:102BB0000133BB71BB790F2BEED9002002F06EFF01
:102BC00002F0C0FF834A53786FF38613537000F00E
:102BD000CBFF35E17D4B00221A807D4B012283F82B
:102BE00020207D4B1B68D3ED0E7A01210120F0EEF1
:102BF000670A9FED7A0A02F063FA0121012002F0D0
:102C000025FF002002F04AFF724A53786FF38613C3
:102C1000537000F0A9FF13E16C4B00221A806C4B3B
:102C2000012283F820206C4B1B68D3ED0E7A012122
:102C30000120F0EE670A9FED690A02F041FA0121D6
:102C4000012002F003FFFF2000F09AFD02F088FF50
:102C5000002000F095FD002002F020FF00F084FF2E
:102C60004FF4FA6000F002FBEAE0584B00221A80B1
:102C7000574B012283F82020574B1B68D3ED0E7A67
:102C800001210120F0EE670A9FED540A02F018FAC4
:102C90000121012002F0DAFEFF2000F071FD02F0B8
:102CA000ADFF002000F06CFD002002F0F7FE00F008
:102CB0005BFF4FF4FA6000F0D9FAC1E0434B002209
:102CC0001A80434B012283F82020434B1B68D3ED2D
:102CD0000E7A01210120F0EE670A9FED400A02F012
:102CE000EFF90121012002F0B1FE0121012002F0E3
:102CF000ADFEFF2000F044FD03F054F8002000F08A
:102D00003FFD002002F0CAFE00F02EFF4FF4FA60F3
:102D100000F0ACFA94E02D4B00221A802C4B0122DB
:102D200083F820202C4B1B68D3ED0E7A0121012063
:102D3000F0EE670A9FED290A02F0C2F90121012095
:102D400002F084FE0121012002F080FEFF2000F04D
:102D500017FD03F071F8002000F012FD002002F0D2
:102D60009DFE00F001FF4FF4FA6000F07FFA67E08B
:102D7000164B00221A80164B012283F82020164B96
:102D80001B68D3ED0E7A01210120F0EE670A9FED5A
:102D9000130A02F095F90121012002F057FE0121EA
:102DA000012002F053FEFF2000F0EAFC03F08EF851
:102DB000002000F0E5FC002002F070FE00F0D4FEE0
:102DC0004FF4FA6000F052FA3AE000BFA00200208F
:102DD00040060020DC060020CC02002000007842E3
:102DE00000006144184B00221A80184B012283F81E
:102DF0002020174B1B68D3ED0E7A01210120F0EE45
:102E0000670A9FED140A02F05BF90121012002F02C
:102E10001DFE0121012002F019FEFF2000F0B0FC90
:102E200003F09EF8002000F0ABFC002002F036FE1C
:102E300000F09AFE4FF4FA6000F018FA00E000BFCC
:102E400000BF0837BD4680BDA0020020400600201C
:102E5000CC0200200000784280B483B000AF7860DC
:102E60007B681B6843F040027B681A6000BF0C3728
:102E7000BD465DF8047B704780B483B000AF7860D6
:102E80007B681B6803F04003402B01D1012300E065
:102E9000002318460C37BD465DF8047B704780B4AC
:102EA00083B000AF78607B689B6803F00103012B5F
:102EB00001D1012300E0002318460C37BD465DF820
:102EC000047B704780B483B000AF78607B689B68F8
:102ED00003F00203022B01D1012300E00023184676
:102EE0000C37BD465DF8047B704780B483B000AFFB
:102EF00078607B68DB68DBB218460C37BD465DF84E
:102F0000047B704780B485B000AF78600B46FB70DF
:102F10007B680C33FB60FB68FA781A7000BF1437CB
:102F2000BD465DF8047B704780B483B000AF786025
:102F300039607B683A689A6100BF0C37BD465DF81E
:102F4000047B704780B483B000AF786039603B6821
:102F50001A047B689A6100BF0C37BD465DF8047B9C
:102F60007047000090B587B000AFF860B9607A6034
:102F7000FB70FB78FB7504212048FFF7E3FFF8683E
:102F8000FFF78DFF0346012B02D1F868FFF7ADFF75
:102F9000F868FFF771FF0346002B24D1F868FFF7AC
:102FA0005BFF20E0BB685A1CBA601B781946F868C2
:102FB000FFF7A8FF00BFF868FFF784FF0346002B68
:102FC000F9D000BFF868FFF76AFF0346002BF9D07D
:102FD0007C68631C7B60F868FFF787FF03462370FB
:102FE000FB7D013BFB75FB7D002BDBD104210348FE
:102FF000FFF79AFF00BF1C37BD4690BD000C024092
:1030000080B584B000AF0346FB71FB7963F07F03AA
:10301000DBB23B7300237B7307F1080207F10C015D
:1030200002230448FFF79EFF7B7A18461037BD46FF
:1030300080BD00BF003C004080B584B000AF0346B7
:103040000A46FB711346BB71FB7903F07F03DBB2C9
:103050003B73BB797B7307F1080207F10C01022374
:103060000348FFF77FFF00BF1037BD4680BD00BF9C
:10307000003C004080B582B000AF2648FFF7ECFE70
:103080007520FFF7BDFF0346FB71FB791946224807
:1030900008F0A8F8FB79982B13D07520FFF7B0FF44
:1030A0000346FB710AE01D4808F038F97520FFF768
:1030B000A7FF0346FB71642000F0D8F8FB79982B3A
:1030C000F1D1FB791946144808F08CF8144808F03F
:1030D00025F900216B20FFF7AFFF0A2000F0C6F8AA
:1030E00000211A20FFF7A8FF0A2000F0BFF81821DE
:1030F0001B20FFF7A1FF0A2000F0B8F818211C20C0
:10310000FFF79AFF0A2000F0B1F800BF0837BD466C
:1031100080BD00BF003C0040F4D7000808D800087C
:1031200014D8000890B583B000AF4720FFF768FFC0
:1031300003461B021CB24820FFF762FF03461BB286
:103140002343FB80B7F9063007EE903AB8EEE77AF2
:10315000DFED066AC7EE267AC7ED007A3B6807EE18
:10316000903AB0EE670A0C37BD4690BD33338341C9
:1031700090B583B000AF3B20FFF742FF03461B0230
:103180001CB23C20FFF73CFF03461BB22343FB80ED
:10319000B7F9063007EE903AB8EEE77ADFED066A47
:1031A000C7EE267AC7ED007A3B6807EE903AB0EE9C
:1031B000670A0C37BD4690BD0000004580B483B05F
:1031C00000AF78607B681B6843F001027B681A607F
:1031D00000BF0C37BD465DF8047B704780B483B0F8
:1031E00000AF78607B681B6823F001027B681A607F
:1031F00000BF0C37BD465DF8047B704780B483B0D8
:1032000000AF78607B68DB6843F001027B68DA60BE
:1032100000BF0C37BD465DF8047B704780B483B0B7
:1032200000AF78607B68DB6823F001027B68DA60BE
:1032300000BF0C37BD465DF8047B704780B500AF1A
:103240000348FFF7DBFF0248FFF7B8FF00BF80BD70
:10325000000C004080B500AF0348FFF7BFFF0248F5
:10326000FFF7DCFF00BF80BD000C004080B582B0DE
:1032700000AF0346FB80FB88184607F0E1FA00BF69
:103280000837BD4680BD000080B584B000AF03465E
:10329000FB80FB88B3F57A7F02D340F2E733FB80F3
:1032A0000D4B5B6A9AB2FB8813449BB2FB810A48C0
:1032B000FFF784FF00BF084B5B6AFA8992B2934222
:1032C000F9D30548FFF78AFF034B00225A6200BF7B
:1032D0001037BD4680BD00BF0010004080B400AF75
:1032E000074B1B6903F48073B3F5807F0CBF012388
:1032F0000023DBB21846BD465DF8047B704700BF73
:103300000004024080B483B000AF78607B681B6823
:1033100043F001027B681A6000BF0C37BD465DF8C0
:10332000047B704780B483B000AF786039607B68FD
:103330003A685A6200BF0C37BD465DF8047B70479F
:1033400080B483B000AF786039607B683A68DA6235
:1033500000BF0C37BD465DF8047B704780B483B076
:1033600000AF786039607B681A6A3B681A437B68F3
:103370001A6200BF0C37BD465DF8047B704780B40D
:1033800083B000AF786039607B683A681A6400BF28
:103390000C37BD465DF8047B704780B483B000AF46
:1033A00078607B685B6C43F400427B685A6400BFC2
:1033B0000C37BD465DF8047B7047000080B500AF58
:1033C0004FF480510548FFF7C9FF0448FFF79AFF03
:1033D0000248FFF7E2FF00BF80BD00BF00040140CC
:1033E00080B500AF00210248FFF7C9FF00BF80BDD4
:1033F0000004014080B582B000AF03460A46FB805E
:103400001346BB80FB880E4A92FBF3F319460D4826
:10341000FFF796FFFB880C4A92FBF3F31946094825
:10342000FFF7ADFF00210748FFF77CFFBB88184678
:10343000FFF71CFFFFF7D4FF00BF0837BD4680BD74
:10344000A0860100000401401873010080B483B01D
:1034500000AF78607B681B6843F001027B681A60EC
:1034600000BF0C37BD465DF8047B704780B483B065
:1034700000AF78607B681B6823F001027B681A60EC
:1034800000BF0C37BD465DF8047B704780B500AFC8
:10349000064B00225A62064B00225A620348FFF78D
:1034A000D5FF0348FFF7D2FF00BF80BD00040040F6
:1034B0000008004080B500AF0348FFF7D7FF03487E
:1034C000FFF7D4FF00BF80BD0004004000080040AB
:1034D00080B485B000AF0346FB710023FB8100235D
:1034E000BB81FB79F02B06D1104B5B6ABB810F4B84
:1034F00000225A6208E0FB790F2B05D10C4B5B6A66
:10350000BB810B4B00225A62B7F90C30002B02DA58
:10351000BB89FB8101E0BB89FB81B7F90E301846FE
:103520001437BD465DF8047B704700BF00040040BF
:103530000008004080B400AF054B1B69044A43F00B
:103540000043136100BFBD465DF8047B704700BFB8
:10355000003C024080B400AF054B064A5A60044B61
:10356000054A5A6000BFBD465DF8047B704700BF46
:10357000003C024023016745AB89EFCD80B400AF2A
:1035800000BF064BDB6803F48033B3F5803FF8D00F
:1035900000BF00BFBD465DF8047B7047003C0240A1
:1035A00080B582B000AF78600B46FB700F4B1B6993
:1035B0000E4A23F4407313610C4B0C4A1B691361D0
:1035C0000A4B1B69094A43F0010313617B68FA78CF
:1035D0001A70FFF7D3FF054B1B69044A23F0010360
:1035E000136100BF0837BD4680BD00BF003C0240EC
:1035F00080B582B000AF78600B46FB70FFF7AAFF82
:10360000074B1A687B681344FA7811461846FFF78F
:10361000C7FFFFF78FFF00BF0837BD4680BD00BF63
:103620000400002080B483B000AF7860054B1A68B6
:103630007B6813441B7818460C37BD465DF8047B45
:10364000704700BF0400002080B500AFFFF782FF85
:103650000B4B1B690A4A43F002031361084B1B69B9
:10366000074A43F058031361054B1B69044A43F4AE
:1036700080331361FFF782FFFFF75CFF00BF80BD5F
:10368000003C024080B483B000AF0346FB71FB797D
:10369000002B04D0074B4FF480429A6103E0054BA6
:1036A0004FF080429A6100BF0C37BD465DF8047B45
:1036B000704700BF0004024080B483B000AF0346EF
:1036C000FB71FB79002B04D0074B4FF400429A6149
:1036D00003E0054B4FF000429A6100BF0C37BD4636
:1036E0005DF8047B704700BF0004024080B483B0E3
:1036F00000AF0346FB71FB79002B04D0074B4FF45E
:1037000080729A6103E0054B4FF080729A6100BFAE
:103710000C37BD465DF8047B704700BF00080240CF
:1037200080B483B000AF0346FB71FB79002B03D05C
:10373000064B10229A6103E0044B4FF480129A6109
:1037400000BF0C37BD465DF8047B704700040240A3
:1037500080B483B000AF0346FB71FB79002B03D02C
:10376000064B20229A6103E0044B4FF400129A6149
:1037700000BF0C37BD465DF8047B70470004024073
:1037800080B582B000AF0346FB71FB7903F0010303
:10379000DBB21846FFF7DCFFFB7903F00203DBB274
:1037A0001846FFF7BDFFFB7903F00403DBB21846B0
:1037B000FFF79CFFFB7903F00803DBB21846FFF725
:1037C0007BFFFB7903F01003DBB21846FFF75AFFCB
:1037D00000BF0837BD4680BD80B483B000AF7860BD
:1037E0007B681B6843F001027B681A6000BF0C37DE
:1037F000BD465DF8047B704780B483B000AF78604D
:103800007B681B6823F001027B681A6000BF0C37DD
:10381000BD465DF8047B704780B483B000AF78602C
:1038200039607B683A685A6200BF0C37BD465DF864
:10383000047B704780B483B000AF786039607B68E8
:103840001A6A3B681A437B681A6200BF0C37BD4690
:103850005DF8047B704780B483B000AF7860396056
:103860007B681A6A3B68DB431A407B681A6200BFB8
:103870000C37BD465DF8047B704780B483B000AF61
:10388000786039607B683A685A6300BF0C37BD4680
:103890005DF8047B704780B483B000AF7860396016
:1038A0007B683A689A6300BF0C37BD465DF8047BBD
:1038B000704780B483B000AF78607B685B6C43F482
:1038C00000427B685A6400BF0C37BD465DF8047B3C
:1038D000704780B483B000AF786039607B683A6825
:1038E0009A6100BF0C37BD465DF8047B704780B419
:1038F00083B000AF786039603B681A047B689A61D6
:1039000000BF0C37BD465DF8047B704780B582B0C0
:1039100000AF0346FB71FB79012B05D1202109483B
:10392000FFF7D7FF012309E0FB79002B05D1202108
:103930000448FFF7DCFF002300E0FF2318460837A8
:10394000BD4680BD0008024080B582B000AF0120B6
:10395000FFF7DCFF0346FB71FB79012B32D101211C
:103960001A48FFF7C4FF02211848FFF7B2FF4FF4CF
:1039700080411748FFF7BBFF4FF400411448FFF7A1
:10398000A8FF10214FF08040FFF754FF4FF0804018
:10399000FFF722FF01210F48FFF74CFF0D48FFF70B
:1039A0001BFF01214FF08040FFF775FF01210948FF
:1039B000FFF763FF4FF08040FFF77BFF0548FFF7FD
:1039C00078FF00E000BF0837BD4680BD000402401C
:1039D000000002400000014080B483B000AF87EDDA
:1039E000010AC7ED000AD7ED017AF5EEC07AF1EED3
:1039F00010FA07DD164B4FF480329A61144B022205
:103A00009A6106E0124B01229A61114B4FF4003289
:103A10009A61D7ED007AF5EEC07AF1EE10FA08DD82
:103A20000C4B4FF080429A610A4B4FF400429A616E
:103A300007E0084B4FF480429A61064B4FF000427A
:103A40009A6100BF0C37BD465DF8047B704700BF2C
:103A5000000402400000024080B485B000AF87ED52
:103A6000030AC7ED020A87ED011AD7ED017AF5EED8
:103A7000C07AF1EE10FA05D5D7ED017AF1EE677A4A
:103A8000C7ED017A97ED017AD7ED037AB4EEE77AC4
:103A9000F1EE10FA01DDFB680BE097ED017AD7ED4E
:103AA000027AB4EEE77AF1EE10FA01D5BB6800E0D5
:103AB0007B6807EE903AB0EE670A1437BD465DF8B2
:103AC000047B704780B582B000AF87ED010AC7ED77
:103AD000000AD7ED000A97ED010AFFF77DFF97ED89
:103AE000011ADFED1D0A9FED1D0AFFF7B5FF87EDF7
:103AF000010A97ED001ADFED180A9FED180AFFF78B
:103B0000ABFF87ED000AD7ED017A9FED157A67EEDE
:103B1000877AFCEEE77A17EE901A1248FFF7ADFEAF
:103B2000D7ED007A9FED0E7A67EE877AFCEEE77AA2
:103B300017EE901A4FF08040FFF7ADFE00210948C4
:103B4000FFF76AFE00214FF08040FFF765FE00BFDF
:103B50000837BD4680BD00BF00000000CDCC4C3E04
:103B60000000C6420000014080B582B000AF0020D6
:103B7000FFF7CCFE0346FB71FB79002B10D101212E
:103B80000948FFF768FE10214FF08040FFF763FE01
:103B90000548FFF731FE4FF08040FFF72DFE00E0B3
:103BA00000BF0837BD4680BD0000014080B485B02D
:103BB00000AF786039600023FB603B68002B03D1C5
:103BC0007B684C33FB6001E0044BFB60FB681846EC
:103BD0001437BD465DF8047B704700BF08230140E1
:103BE00080B483B000AF78607B689B6843F00102CB
:103BF0007B689A6000BF0C37BD465DF8047B704758
:103C000080B483B000AF78607B689B6843F08042EB
:103C10007B689A6000BF0C37BD465DF8047B704737
:103C200080B483B000AF78607B686FF002021A60E6
:103C300000BF0C37BD465DF8047B704780B483B08D
:103C400000AF786039600C4A3B6813441B781A4611
:103C50007B6813441B6808493A680A441278114685
:103C60007A680A4443F00103136000BF0C37BD4675
:103C70005DF8047B704700BFC0D8000880B483B0F3
:103C800000AF786039600C4A3B6813441B781A46D1
:103C90007B6813441B6808493A680A441278114645
:103CA0007A680A4423F00103136000BF0C37BD4655
:103CB0005DF8047B704700BFC0D8000880B485B0B1
:103CC00000AFF860B9607A600D4ABB6813441B7896
:103CD0001A46FB6813445B681B0C1B040849BA684E
:103CE0000A4412781146FA680A4411467A68134366
:103CF0004B6000BF1437BD465DF8047B704700BFC2
:103D0000C0D8000880B485B000AFF860B9607A60B0
:103D10003B60BB69402B14D1174ABB6813441B7826
:103D20001A46FB6813441A467B68D360124ABB6884
:103D300013441B781A46FB6813441A463B68936089
:103D400013E00D4ABB6813441B781A46FB68134402
:103D50001A467B689360084ABB6813441B781A466E
:103D6000FB6813441A463B68D36000BF1437BD4656
:103D70005DF8047B704700BFC0D8000880B483B0F2
:103D800000AF786039600C4A3B6813441B781A46D0
:103D90007B6813441B6808493A680A441278114644
:103DA0007A680A4443F01003136000BF0C37BD4625
:103DB0005DF8047B704700BFC0D8000880B582B0B2
:103DC00002AF00210F48FFF759FF00210E48FFF70F
:103DD000EDFE02460D49002300930B4600210948E1
:103DE000FFF790FF052200210648FFF767FF00213B
:103DF0000448FFF723FF0448FFF702FF00BFBD465A
:103E000080BD00BF0064024000200140D0060020B9
:103E100080B483B000AF0346FB71FB79012B03D163
:103E2000064B08229A6103E0044B4FF400229A618A
:103E300000BF0C37BD465DF8047B704700000240B0
:103E400080B483B000AF0346FB71FB79012B03D133
:103E5000064B04229A6103E0044B4FF480229A61DE
:103E600000BF0C37BD465DF8047B70470008024078
:103E700080B483B000AF0346FB71FB79012B03D103
:103E8000064B80229A6103E0044B4FF400029A61D2
:103E900000BF0C37BD465DF8047B70470000024050
:103EA00080B483B000AF0346FB71FB79012B03D1D3
:103EB000064B08229A6103E0044B4FF400229A61FA
:103EC00000BF0C37BD465DF8047B70470008024018
:103ED00080B483B000AF0346FB71FB79012B03D1A3
:103EE000064B40229A6103E0044B4FF480029A6132
:103EF00000BF0C37BD465DF8047B704700000240F0
:103F000090B583B000AF0446084611461A462346D2
:103F1000FB710346BB710B467B7113463B71FB790A
:103F200003F00103DBB21846FFF7A2FFBB7903F0F1
:103F30000103DBB21846FFF7CBFF7B7903F00103E7
:103F4000DBB21846FFF764FF3B7903F00103DBB2F5
:103F50001846FFF7A5FF3B7E03F00103DBB21846CE
:103F6000FFF76EFF00BF0C37BD4690BD80B483B035
:103F700000AF0346FB71FB79044A32F81330184650
:103F80000C37BD465DF8047B704700BFD0060020AB
:103F900080B500AF00210548FFF7F0FE0448FFF7A9
:103FA0001FFEFFF70BFF00BF80BD00BF0064024093
:103FB0000020014080B500AF0348FFF731FEFFF756
:103FC000FDFE00BF80BD00BF0021014090B482B063
:103FD00000AF0446084611461A462346FB710346C5
:103FE000BB710B467B7113463B71FB7903F00103F8
:103FF000D9B2124A537861F300035370BB7903F0CE
:104000000103D9B20D4A537861F3410353707B79B0
:1040100003F00103D9B2094A537861F3C303537023
:104020003B7903F00103D9B2044A137861F3C30367
:10403000137000BF0837BD4690BC7047DC060020F7
:1040400090B482B000AF0446084611461A46234693
:10405000FB710346BB710B467B7113463B71FB79C9
:1040600003F00103D9B2124A137861F304131370F9
:10407000BB7903F00103D9B20D4A137861F34513FC
:1040800013707B7903F00103D9B2094A137861F305
:10409000861313703B7903F00103D9B2044A1378F5
:1040A00061F3C713137000BF0837BD4690BC70475B
:1040B000DC06002080B485B000AF0346FB80FB889F
:1040C000B3F5FA6F01D3FB888EE0FB88FB81FB8997
:1040D000484A526948492C2000FB03F30B441A60FC
:1040E000444B93ED017A454BD3ED007AFB8977EE93
:1040F000277A414A2C2101FB03F313440433C3ED17
:10410000007AFB893B4A92693B492C2000FB03F370
:104110000B4408331A60FB89394A526936492C200E
:1041200000FB03F30B440C331A60FB89344A5268DA
:1041300031492C2000FB03F30B4410331A60FB8938
:104140002F4A92692C492C2000FB03F30B441433B3
:104150001A60FB892A4A126927492C2000FB03F3C5
:104160000B4418331A60FB89254A126822492C2017
:1041700000FB03F30B441C331A60224B5A8E214B75
:104180009B8FD31A9AB2FB8910B21B4A2C2101FBD8
:1041900003F31344203302461A801A4BDA8D194B6D
:1041A0001B8FD31A9AB2FB8910B2134A2C2101FB40
:1041B00003F31344223302461A80FB89124A126821
:1041C0000D492C2000FB03F30B4424331A60FB89B8
:1041D0000E4A126808492C2000FB03F30B442833D5
:1041E0001A60FB8901339BB218461437BD465DF84F
:1041F000047B7047AC060020E0060020040200208B
:1042000040060020F866012000020020FC0100208A
:1042100080B483B000AF2A4B4FF6FF721A84294B4B
:104220004FF6FF721A840023BB713EE00023FB713E
:1042300035E0BB79224A32F813301AB2B979FB79EA
:104240002148090101440B441B785B1003F0010174
:10425000FB7901FA03F31BB213431AB2BB7991B293
:10426000174A22F81310FB79164A32F813301AB2A3
:10427000B979FB791448090101440B441B7803F018
:104280000101BB7901FA03F31BB213431AB2FB79A4
:1042900091B20C4A22F81310FB790133FB71FB79C0
:1042A0000F2BC6D9BB790133BB71BB790F2BBDD99D
:1042B00000BF00BF0C37BD465DF8047B704700BFF0
:1042C000D0610120A0600120D060012080B582B0C3
:1042D00000AFFFF79DFF1023BB7156E02B2006F0C7
:1042E00099FF0023FB711DE097F906303F4A32F831
:1042F00013301A4697F9073042FA03F303F001032B
:10430000002B03D03A4806F06DFF02E0394806F072
:1043100069FF2B2006F07EFF97F90730DBB20133EF
:10432000DBB2FB7197F907300F2BDDDD0A2006F0B9
:1043300071FF0023FB711BE097F907302E4A32F81A
:1043400013301A4697F90630013B42FA03F303F0A3
:104350000103002B03D0294806F044FF02E028485F
:1043600006F040FF97F90730DBB20133DBB2FB7197
:1043700097F90730102BDFDD0A2006F04BFF97F985
:104380000630DBB2013BDBB2BB7197F90630002B84
:10439000A4DC2B2006F03EFF0023FB711AE0134B38
:1043A0001B881A4697F9073042FA03F303F001031A
:1043B000002B03D00E4806F015FF02E00D4806F072
:1043C00011FF2B2006F026FF97F90730DBB20133EF
:1043D000DBB2FB7197F907300F2BE0DD0A2006F006
:1043E00019FF00BF0837BD4680BD00BFD061012066
:1043F0001CD8000820D80008A060012024D800089C
:104400002CD8000880B483B000AF0023BB7113E048
:104410000023FB710AE0BA79FB79324912010A44A0
:104420001344F0221A70FB790133FB71FB790F2BD7
:10443000F1D9BB790133BB71BB790F2BE8D90023CC
:10444000BB7120E0BB79274A1B0113441A78BB7962
:1044500062F00E02D1B2234A1B0113440A461A70BD
:10446000BB79204A1B0113440F331A78BB7962F0E1
:104470000B02D1B21B4A1B0113440F330A461A70B8
:10448000BB790133BB71BB790F2BDBD90023FB71E7
:1044900019E0FB79134AD25CFB7962F00D02D1B2CC
:1044A000104AD154FB790F4A134493F8F020FB795A
:1044B00062F00702D1B20B4A13440A4683F8F02097
:1044C000FB790133FB71FB790F2BE2D9054BF72206
:1044D0001A70044BF3225A7000BF0C37BD465DF8CA
:1044E000047B7047D060012090B484B000AF0346D5
:1044F000FB71FB798B4A92781341DBB203F00F0317
:10450000FB73FB7B1B015AB297F90F3013435BB26D
:10451000FB73844B5B781846824B1B781946824AA2
:10452000030113440B44FA7B1A707E4B5B780F2B0C
:1045300039D0FB7B03F08803002B1AD0794B5B78D2
:104540000133784A12781146774A1B0113440B4411
:104550001A78744B5B78013372490978084642F047
:104560002202D1B2704A1B01134403440A461A7056
:1045700019E06C4B5B7801336A4A127811466A4A3B
:104580001B0113440B441A78664B5B780133654971
:104590000978084622F02202D1B2634A1B01134473
:1045A00003440A461A705F4B1B780F2B39D0FB7BF4
:1045B00003F04403002B1AD05A4B5B781A46594B30
:1045C0001B780133584912010A4413441A78554B99
:1045D0005B781C46534B1B78013342F01102D0B27A
:1045E000514922010A44134402461A7019E04D4B06
:1045F0005B781A464B4B1B7801334B4912010A4436
:1046000013441A78474B5B781C46464B1B780133A2
:1046100022F01102D0B2444922010A441344024656
:104620001A70404B5B78002B39D0FB7B03F02203E0
:10463000002B1AD03B4B5B78013B3A4A127811466B
:10464000394A1B0113440B441A78364B5B78013B03
:1046500034490978084662F07702D1B2324A1B0128
:10466000134403440A461A7019E02E4B5B78013B51
:104670002C4A127811462C4A1B0113440B441A7819
:10468000284B5B78013B27490978084602F07702FE
:10469000D1B2254A1B01134403440A461A70214B28
:1046A0001B78002B39D0FB7B03F01103002B1AD0B1
:1046B0001C4B5B781A461B4B1B78013B1A491201B5
:1046C0000A4413441A78174B5B781C46154B1B7829
:1046D000013B42F04402D0B2134922010A44134480
:1046E00002461A7019E00F4B5B781A460D4B1B7887
:1046F000013B0D4912010A4413441A78094B5B78B7
:104700001C46084B1B78013B22F04402D0B20649FC
:1047100022010A44134402461A7000BF1037BD46F6
:1047200090BC7047C8600120D060012080B485B083
:1047300000AF0346FB710023BB7313E00023FB7340
:104740000AE0BA7BFB7B8D4912011344FF2221F85A
:104750001320FB7B0133FB73FB7B0F2BF1D9BB7B5E
:104760000133BB73BB7B0F2BE8D9FB79022B30D114
:10477000834B5B780133824A127811467F4A1B01D2
:104780000B44002122F813107D4B5B781A467C4BBA
:104790001B780133794912011344002221F81320B8
:1047A000774B5B785A1C764B1B78013373491201A7
:1047B0001344002221F81320714B5B781846704B8C
:1047C0001B7819466D4A03010B44002122F813108F
:1047D0000EE0FB79012B0BD1694B5B781846684BD7
:1047E0001B781946654A03010B44002122F8131077
:1047F0000023BB810023FB720023BB73A1E00023D5
:10480000FB7397E0BA7BFB7B5C491201134431F8E0
:104810001330BA899A4240F08A80BA7BFB7B5949AF
:1048200012010A4413441B78FB72574B1B7803F0A8
:104830000203DBB2002B02D0FB7A1B09FB72FB7A6E
:1048400003F00803002B18D1BB7B0F2B15D0BB7BCB
:104850005A1CFB7B49491201134431F81330FF2BDA
:104860000BD1BB7B5A1CFB7BB989013188B2434910
:1048700012011344024621F81320FB7A03F00403CB
:10488000002B18D1FB7B0F2B15D0BA7BFB7B0133A0
:104890003A491201134431F81330FF2B0BD1BA7B84
:1048A000FB7B0133B989013188B2344912011344C9
:1048B000024621F81320FB7A03F00203002B18D1E3
:1048C000BB7B002B15D0BB7B5A1EFB7B2B491201F7
:1048D000134431F81330FF2B0BD1BB7B5A1EFB7BEB
:1048E000B989013188B2254912011344024621F8E1
:1048F0001320FB7A03F00103002B18D1FB7B002B64
:1049000015D0BA7BFB7B013B1C491201134431F8E3
:104910001330FF2B0BD1BA7BFB7B013BB9890131F3
:1049200088B2164912011344024621F81320FB7B7A
:104930000133FB73FB7B0F2B7FF664AFBB7B013333
:10494000BB73BB7B0F2B7FF65AAFBB890133BB8197
:104950000E4B5B7818460D4B1B781946074A03012E
:104960000B4432F81330FF2B3FF446AFBB89184697
:104970001437BD465DF8047B704700BFA05E012080
:10498000CC600120D0600120DC060020C86001203E
:1049900080B582B000AF0023FB718D4B9B78BB705C
:1049A000FB795A1CFA711A468A4BFF219954FB79FC
:1049B000FF2BF5D1864B5B781846854B1B78194643
:1049C000854A03010B4432F813307B71804B1B780E
:1049D0003B717F4B5B78FB700023FB71FA783B796E
:1049E0007E4912010A4413441B78BB717C4B1B782F
:1049F00003F00203DBB2002B02D0BB791B09BB71B1
:104A0000BB7903F00403002B23D1FA783B790133FF
:104A100071491201134431F813207B799BB29A42F9
:104A200017D26B4B9B78C3F10103DAB2FB7902F02A
:104A30000302D1B2674AD154FA783B79013366490F
:104A40001201134431F813307B713B7901333B7110
:104A500078E0BB7903F00203002B23D1FB785A1EC8
:104A60003B795D491201134431F813207B799BB2E5
:104A70009A4217D2564B9B78C3F10203DAB2FB7904
:104A800002F00302D1B2534AD154FB785A1E3B794B
:104A900051491201134431F813307B71FB78013B0B
:104AA000FB704FE0BB7903F00803002B22D1FB78A9
:104AB0005A1C3B7948491201134431F813207B7981
:104AC0009BB29A4216D2424B9B785B42DAB2FB7998
:104AD00002F00302D1B23F4AD154FB785A1C3B7911
:104AE0003D491201134431F813307B71FB780133D7
:104AF000FB7027E0BB7903F00103002B22D1FA7889
:104B00003B79013B34491201134431F813207B797E
:104B10009BB29A4216D22E4B9B78C3F10303DAB2B2
:104B2000FB7902F00302D1B22A4AD154FA783B79D8
:104B3000013B29491201134431F813307B713B7951
:104B4000013B3B71FB79234AD35C032B27D801A29D
:104B500052F823F0654B00086F4B00087F4B0008AC
:104B60008F4B0008FB791B4A8821D1541CE001209F
:104B700000F0C8F9FB79174A4421D15414E002200F
:104B800000F0C0F9FB79134A2221D1540CE0FF2038
:104B900000F0B8F9FB790F4A1121D15404E0FB79F8
:104BA0000C4A0021D15400BFFB790133FB71FA7824
:104BB0003B7909491201134431F81330002B7FF47B
:104BC0000DAF034ABB78937000BF0837BD4680BD68
:104BD000C8600120F4610120A05E0120D0600120A6
:104BE000DC06002080B582B000AF0023FB718D4B46
:104BF0009B78BB70FB795A1CFA711A468A4BFF21CD
:104C00009954FB79FF2BF5D1864B5B781846854B81
:104C10001B781946854A03010B4432F813307B7127
:104C2000804B1B783B717F4B5B78FB700023FB71E3
:104C3000FA783B797E4912010A4413441B78BB7110
:104C40007C4B1B7803F00203DBB2002B02D0BB7954
:104C50001B09BB71BB7903F00803002B22D1FB7841
:104C60005A1C3B7971491201134431F813207B79A6
:104C70009BB29A4216D26B4B9B785B42DAB2FB79BD
:104C800002F00302D1B2684AD154FB785A1C3B7936
:104C900066491201134431F813307B71FB780133FC
:104CA000FB7079E0BB7903F00403002B23D1FA7881
:104CB0003B7901335D491201134431F813207B79AC
:104CC0009BB29A4217D2574B9B78C3F10103DAB2D9
:104CD000FB7902F00302D1B2534AD154FA783B79FE
:104CE000013352491201134431F813307B713B797F
:104CF00001333B7150E0BB7903F00203002B23D159
:104D0000FB785A1E3B7949491201134431F81320AC
:104D10007B799BB29A4217D2424B9B78C3F1020334
:104D2000DAB2FB7902F00302D1B23F4AD154FB78E8
:104D30005A1E3B793D491201134431F813307B71FF
:104D4000FB78013BFB7027E0BB7903F00103002BEC
:104D500022D1FA783B79013B34491201134431F8EE
:104D600013207B799BB29A4216D22E4B9B78C3F1CB
:104D70000303DAB2FB7902F00302D1B22A4AD1541A
:104D8000FA783B79013B29491201134431F8133079
:104D90007B713B79013B3B71FB79234AD35C032B4D
:104DA00027D801A252F823F0B94D0008C34D0008DE
:104DB000D34D0008E34D0008FB791B4A8821D154EC
:104DC0001CE0012000F09EF8FB79174A4421D154E1
:104DD00014E0022000F096F8FB79134A2221D15406
:104DE0000CE0FF2000F08EF8FB790F4A1121D1541E
:104DF00004E0FB790C4A0021D15400BFFB79013358
:104E0000FB71FA783B7909491201134431F81330E8
:104E1000002B7FF40DAF034ABB78937000BF0837B7
:104E2000BD4680BDC8600120F4610120A05E012064
:104E3000D0600120DC06002080B582B000AF0346C0
:104E40000A46FB711346BB71BB791846FFF74CFB52
:104E50000E4B5B881A460E4B9A5CBB791340DBB253
:104E6000002B0FD0FB791846FFF760FC094B1B782D
:104E7000002B02D1FFF7B6FE01E0FFF789FD034BDF
:104E800000225A8000BF0837BD4680BDC4600120A3
:104E9000F4610120A702002080B400AF184B9B787A
:104EA000032B27D801A252F823F000BFBD4E000803
:104EB000CB4E0008D94E0008E74E0008104B5B7837
:104EC0000133DAB20E4B5A7014E00D4B1B780133EC
:104ED000DAB20B4B1A700DE0094B5B78013BDAB28A
:104EE000074B5A7006E0064B1B78013BDAB2044BC5
:104EF0001A7000BF00BFBD465DF8047B704700BF5D
:104F0000C860012080B483B000AF0346FB71FB7919
:104F1000002B0AD0084B9A78FB791344DBB203F0DC
:104F20000303DAB2044B9A7000E000BF0C37BD46B1
:104F30005DF8047B704700BFC860012080B485B075
:104F400000AF0346FB710B46BB7113467B71FB79C7
:104F50003B72BB797B727B79BB7207F10C0307F163
:104F600008021268114619800233120C1A700023CD
:104F70003A7B62F307037A7B62F30F23BA7B62F317
:104F8000174318461437BD465DF8047B7047000090
:104F900080B500AF174B1B7803F00403DBB2002B86
:104FA00010D0FFF72FFA002200210020FFF7C6FFE4
:104FB0000246114B11461970C2F307215970C2F312
:104FC00007429A700D4B00221A800C4B00225A8027
:104FD0000220FFF7ABFB03461A46084B1A80084B2A
:104FE0001B78002B02D0FFF7D3FC01E0FFF7FAFD9E
:104FF00000BF80BDDC060020C8600120C460012025
:10500000A702002080B582B000AFFEF71DFB642030
:10501000FEF72CF90023FB711AE00023BB7111E0AD
:10502000FB791A01BB7913441846FA79BB790C490C
:1050300012010A4413441B781946FEF7D9FABB79CA
:105040000133BB71BB790F2BEAD9FB790133FB71BB
:10505000FB790F2BE1D900BF00BF0837BD4680BDEB
:10506000D0600120B0B582B000AF0023FB711CE01E
:105070000023BB7113E0FB791A01BB791344FD795E
:10508000BC791846FEF7CEFA034619460B4A2B01A7
:10509000134423440A461A70BB790133BB71BB79B0
:1050A0000F2BE8D9FB790133FB71FB790F2BDFD98B
:1050B00000BF00BF0837BD46B0BD00BFD0600120B3
:1050C00080B588B000AF87ED030AC7ED020A03463A
:1050D0000A46FB711346BB71634B1B69BB61FB79CD
:1050E00003F00103DBB2002201210120FEF76EFF75
:1050F0005D4B1B685D4A1360D7ED027A9FED5C7AC9
:10510000F4EEC77AF1EE10FA02DB5A4ABB6853613B
:10511000584B93ED057AD7ED027A77EE677AC7EDB3
:10512000057AD7ED057A67EEA77AB6EE007A67EED4
:10513000876A504B93ED067AC6EE877A9FED4E7ADA
:1051400067EE877AC7ED077A97ED037AD7ED077A8E
:10515000B4EEE77AF1EE10FA07D5D7ED037AB6EEA2
:10516000007A67EE877AC7ED077AD7ED027AF0EE1C
:10517000E77AC7ED027A0023002200210120FEF722
:105180005FFF0CE0BB79002B09D0012001F050FF3C
:105190000346002B03D0FF20FEF7F2FA11E0324B5A
:1051A00093ED047AD7ED066AD7ED037A76EEA76A17
:1051B000D7ED077A76EEE77AB4EEE77AF1EE10FAF9
:1051C000E0D42C4BD3ED057A97ED027AB4EE677AF2
:1051D000F1EE10FA1DD00023002201210020FEF77D
:1051E0002FFF16E0214BD3ED057A97ED027AB4EE4E
:1051F000E77AF1EE10FA08DA012001F019FF034610
:10520000002B06D0BB79002B03D0184ABB68536132
:105210000DE0154B93ED047AD7ED066AD7ED037ACE
:1052200076EEA77AB4EEE77AF1EE10FADAD400233C
:10523000002200210020FEF703FF002300220021AE
:105240000120FEF7C3FE094ABB685361D7ED027A1D
:10525000F5EE407AF1EE10FA02D1C820FEF706F81A
:1052600000BF2037BD4680BD40060020AC060020B0
:10527000CDCCCC3DBC04002000007A4480B58AB07F
:1052800000AF87ED030AC7ED020A87ED011AC7EDEB
:10529000001A7C4B1B69FB6197ED027AD7ED017A0E
:1052A00077EE677AC7ED067A002387F82330764BCE
:1052B0009B697B61744A3B689361D7ED067A67EE20
:1052C000A77AB6EE007A67EE876A6F4B93ED067A9F
:1052D000C6EE877A9FED6D7A67EE877AC7ED097A19
:1052E0006B4B4FF000025A60D7ED097A77EEA77A40
:1052F00097ED037AB4EEE77AF1EE10FA08D4D7ED21
:10530000037A9FED647AF4EEC77AF1EE10FA07D5CE
:105310005D4A7B685361604B4FF000025A6109E0BF
:10532000594ABB6853615C4B4FF000025A6101233C
:1053300087F823300123002201210120FEF746FED9
:105340000023002200210120FEF77AFED7ED037A28
:10535000F5EEC07AF1EE10FAC0F28D8038E04C4BD9
:1053600093ED057A484BD3ED057AB4EE677AF1EE0A
:1053700010FA27D197ED027AD7ED017A77EE677AA6
:10538000C7ED067A97ED027AD7ED017A37EE277AE4
:10539000D7ED067A67EE276A97ED007AC6EE877A30
:1053A000B6EE007A67EE877A9FED387A67EE877AF5
:1053B000C7ED097AD7ED097AB2EE047A77EE877AEB
:1053C000C7ED097A012001F033FE0346002B12D10C
:1053D0002C4B93ED047AD7ED076AD7ED037A76EE7E
:1053E000A76AD7ED097A76EEE77AB4EEE77AF1EEBE
:1053F00010FAB4D400E000BF97F82330012B1ED17F
:10540000254A7B6853610023002201210020FEF71A
:1054100017FE14E0012001F00BFE0346002B1DD106
:1054200097F82330012B0AD1194B93ED057A1A4BCB
:10543000D3ED057AB4EE677AF1EE10FA10D0114B85
:1054400093ED047AD7ED076AD7ED037A76EEA77A63
:10545000B4EEE77AF1EE10FADCD402E000BF00E02F
:1054600000BF0B4A7B685361074A7B6853610A4B54
:105470004FF000025A61044A7B69936100BF2837EC
:10548000BD4680BD40060020BC04002000007A44D8
:10549000AC06002000008743E40400200000000068
:1054A000B0B586B000AF87ED030AC7ED020A87EDFD
:1054B000011A714B1B687B61D7ED027A67EEA77A00
:1054C00017EE900AFBF740F84FF000026B4BFBF72A
:1054D00093F802460B4614461D467868FBF734F8ED
:1054E00002460B4620462946FBF7B0F902460B461A
:1054F000104619465EA3D3E90023FBF77DF8024668
:105500000B4610461946FBF74FFB03463B61002351
:10551000002201210120FEF759FD594B4FF00002F6
:105520005A60574A7B689360564ABB685360D7ED10
:10553000027AF1EE677A544BC3ED017AD7ED037A24
:10554000F5EEC07AF1EE10FA36DD002301220021DB
:105550000120FEF775FD00BF474B93ED007AD7EDB4
:10556000056AD7ED037A76EEA76AD7ED047A76EE70
:10557000E77AB4EEE77AF1EE10FAEDD401230022D7
:1055800000210120FEF75CFD07E03D4BD3ED017AE1
:10559000F5EEC07AF1EE10FA4CD9374B93ED007A64
:1055A000D7ED056AD7ED037A76EEA77AB4EEE77AFF
:1055B000F1EE10FAE9D440E0D7ED037AF5EEC07AC7
:1055C000F1EE10FA39D50123002200210120FEF767
:1055D00037FD00BF284B93ED007AD7ED056AD7ED74
:1055E000037A76EEA76AD7ED047A76EEA77AB4EE60
:1055F000E77AF1EE10FAEDDC002301220021012010
:10560000FEF71EFD07E01E4BD3ED017AF5EEC07AE2
:10561000F1EE10FA10DA184B93ED007AD7ED056A27
:10562000D7ED037A76EEA77AB4EEE77AF1EE10FAC8
:10563000E9DC02E000BF00E000BF002300220021FF
:105640000120FEF7FDFC0E4B93ED007AD7ED037AB7
:1056500077EE277A0A4BC3ED007A094B4FF0000230
:105660005A6000BF1837BD46B0BD00BFAFF3008021
:1056700000000080D9A54C40400600200000E03F1B
:10568000AC060020BC040020E404002080B584B0F7
:1056900000AF87ED010A6A4B1B68BB600023002244
:1056A00001210120FEF792FC664B93ED017A654BD8
:1056B000D3ED017A67EE277AB6EE007A67EE876A55
:1056C000604B93ED027AC6EE877A9FED5F7A67EEC4
:1056D000877AC7ED037AD7ED017AF0EEE77A97ED96
:1056E000037AB4EEE77AF1EE10FA09DDD7ED017A2C
:1056F000F0EEE77AB6EE007A67EE877AC7ED037AC6
:10570000524B4FF000025A61504B4FF000025A606A
:10571000D7ED017AF5EEC07AF1EE10FA3CDD002308
:10572000012200210020FEF78BFC00BF444B93EDCB
:10573000007AD7ED026AD7ED017A76EEA76AD7ED47
:10574000037A76EEE77AB4EEE77AF1EE10FAEDD46A
:105750000123002200210020FEF772FC0DE03B4BEC
:10576000D3ED017AF5EEC07AF1EE10FA00D904E03B
:10577000364B4FF000025A604AE0314B93ED007A0D
:10578000D7ED026AD7ED017A76EEA77AB4EEE77A22
:10579000F1EE10FAE3D43BE00123002200210020C7
:1057A000FEF74EFC00BF264B93ED007AD7ED026A60
:1057B000D7ED017A76EEA76AD7ED037A76EEA77A6F
:1057C000B4EEE77AF1EE10FAEDDC002301220021BD
:1057D0000020FEF735FC0DE01C4BD3ED017AF5EE11
:1057E000C07AF1EE10FA00DA04E0184B4FF0000234
:1057F0005A600DE0124B93ED007AD7ED026AD7EDB7
:10580000017A76EEA77AB4EEE77AF1EE10FAE3DCED
:105810000023002200210020FEF712FC0B4B4FF06A
:1058200000025A60094B93ED007AD7ED017A77EECA
:10583000277A064BC3ED007A00BF1037BD4680BD06
:1058400040060020BC040020CC2E6542AC0600209F
:1058500080B586B000AF87ED030AC7ED020A87ED79
:10586000011A754B1B683B610023002201210120B6
:10587000FEF7ACFBD7ED027A67EEA77AB6EE007AB8
:1058800067EE876A97ED017AC6EE877A9FED6B7AAD
:1058900067EE877AC7ED057AD7ED037AF0EEE77AFF
:1058A00097ED057AB4EEE77AF1EE10FA09DDD7ED5F
:1058B000037AF0EEE77AB6EE007A67EE877AC7ED04
:1058C000057A5F4B4FF000025A60D7ED037AF5EE90
:1058D000C07AF1EE10FA06DD5A4ABB685360584AA6
:1058E0007B68936010E0D7ED037AF5EEC07AF1EEB5
:1058F00010FA09D5D7ED027AF1EE677A524BC3ED73
:10590000017A4F4A7B689360D7ED037AF5EEC07A4F
:10591000F1EE10FA3CDD0023012200210120FEF708
:105920008FFB00BF444B93ED007AD7ED046AD7EDAF
:10593000037A76EEA76AD7ED057A76EEE77AB4EECB
:10594000E77AF1EE10FAEDD40123002200210120C4
:10595000FEF776FB0DE03A4BD3ED017AF5EEC07A17
:10596000F1EE10FA00D904E0354B4FF000025A6016
:105970004AE0314B93ED007AD7ED046AD7ED037A14
:1059800076EEA77AB4EEE77AF1EE10FAE3D43BE0D4
:105990000123002200210120FEF752FB00BF264B0D
:1059A00093ED007AD7ED046AD7ED037A76EEA76A15
:1059B000D7ED057A76EEA77AB4EEE77AF1EE10FA33
:1059C000EDDC0023012200210120FEF739FB0DE070
:1059D0001B4BD3ED017AF5EEC07AF1EE10FA00DA46
:1059E00004E0174B4FF000025A600DE0124B93EDAC
:1059F000007AD7ED046AD7ED037A76EEA77AB4EE93
:105A0000E77AF1EE10FAE3DC002300220021012006
:105A1000FEF716FB0A4B4FF000025A60084B93ED5D
:105A2000007AD7ED037A77EE277A054BC3ED007A3B
:105A300000BF1837BD4680BD40060020CC2E654211
:105A4000AC060020BC040020E404002080B582B035
:105A500000AF03460A46FB711346BB710D4B1B6832
:105A6000D3ED0E7AFB7901211846F0EE670A9FED1F
:105A70000A0AFFF725FBBB7903F00103002B03D0D3
:105A800001F09EF9034600E0002318460837BD46A2
:105A900080BD00BFCC0200200000B44280B582B0BF
:105AA00000AF0346FB71FB7900211846DFED040AC5
:105AB0009FED040AFFF704FB00BF0837BD4680BD19
:105AC000000000000000B44280B584B000AF03467F
:105AD000FB710023FB73FB7903F00103DBB20021B0
