:020000040800F2
:1000000000000220958A0008337A0008397A000837
:100010003F7A0008457A00084B7A0008000000008B
:10002000000000000000000000000000517A0008FD
:100030005F7A0008000000006D7A00087B7A0008F3
:10004000E58A0008E58A0008E58A0008E58A0008D4
:10005000E58A0008E58A0008E58A0008E58A0008C4
:10006000E58A0008E58A0008E58A0008E58A0008B4
:10007000E58A0008E58A0008E58A0008E58A0008A4
:10008000E58A0008E58A0008E58A0008E58A000894
:10009000E58A0008E58A0008E58A0008E58A000884
:1000A000E58A0008E58A0008E58A0008E58A000874
:1000B000E58A0008E58A0008E58A0008E58A000864
:1000C000E58A0008E58A0008E58A0008E58A000854
:1000D000E58A0008E58A0008E58A0008E58A000844
:1000E000E58A0008E58A0008E58A0008E58A000834
:1000F000E58A0008E58A0008E58A0008E58A000824
:10010000E58A0008E58A0008897A0008E58A00087F
:10011000E58A0008E58A0008E58A0008E58A000803
:10012000AD7A0008E58A0008E58A0008E58A00083B
:10013000E58A00080000000000000000E58A0008D1
:10014000E58A0008E58A0008E58A0008E58A0008D3
:10015000E58A0008E58A0008E58A0008E58A0008C3
:10016000E58A0008E58A0008E58A0008E58A0008B3
:10017000E58A0008E58A0008000000000000000091
:08018000E58A0008E58A000889
:1001900010B5054C237833B9044B13B10448AFF3C1
:1001A00000800123237010BDDC010020000000004E
:1001B0002CCC000808B5034B1BB103490348AFF32F
:1001C000008008BD00000000E00100202CCC0008E9
:1001D000034613F8012B002AFBD1181A0138704787
:1001E00001F0FF01102A2BDB10F0070F08D010F8E8
:1001F000013B013A8B422DD010F0070F42B3F6D1EC
:10020000F0B441EA012141EA014122F007047FF004
:1002100000070023F0E80256083C85EA010586EA5B
:10022000010685FA47F5A3FA87F586FA47F6A5FA97
:1002300087F68EB9EED1F0BC01F0FF0102F00702A3
:1002400032B110F8013B013A83EA010313B1F8D14E
:100250000020704701387047002D06BF354603382F
:10026000073815F0010F07D1013015F4807F02BF68
:10027000013015F4C03F0130F0BC0138704700BFB9
:1002800081F0004102E000BF83F0004330B54FEA47
:1002900041044FEA430594EA050F08BF90EA020FB4
:1002A0001FBF54EA000C55EA020C7FEA645C7FEA47
:1002B000655C00F0E2804FEA5454D4EB5555B8BF6A
:1002C0006D420CDD2C4480EA020281EA030382EADB
:1002D000000083EA010180EA020281EA0303362D6D
:1002E00088BF30BD11F0004F4FEA01314FF4801C40
:1002F0004CEA113102D0404261EB410113F0004F52
:100300004FEA03334CEA133302D0524263EB430308
:1003100094EA050F00F0A780A4F10104D5F1200EA6
:100320000DDB02FA0EFC22FA05F2801841F1000101
:1003300003FA0EF2801843FA05F359410EE0A5F1D5
:1003400020050EF1200E012A03FA0EFC28BF4CF006
:10035000020C43FA05F3C01851EBE37101F00045BC
:1003600007D54FF0000EDCF1000C7EEB00006EEBC9
:100370000101B1F5801F1BD3B1F5001F0CD3490853
:100380005FEA30004FEA3C0C04F101044FEA4452AA
:1003900012F5800F80F09A80BCF1004F08BF5FEA31
:1003A000500C50F1000041EB045141EA050130BD11
:1003B0005FEA4C0C404141EB0101013C28BFB1F523
:1003C000801FE9D291F0000F04BF01460020B1FA6E
:1003D00081F308BF2033A3F10B03B3F120020CDA41
:1003E0000C3208DD02F1140CC2F10C0201FA0CF01F
:1003F00021FA02F10CE002F11402D8BFC2F1200C84
:1004000001FA02F120FA0CFCDCBF41EA0C01904039
:10041000E41AA2BF01EB0451294330BD6FEA040482
:100420001F3C1CDA0C340EDC04F11404C4F120026D
:1004300020FA04F001FA02F340EA030021FA04F37F
:1004400045EA030130BDC4F10C04C4F1200220FAD6
:1004500002F001FA04F340EA0300294630BD21FA14
:1004600004F0294630BD94F0000F83F4801306BFDA
:1004700081F480110134013D4EE77FEA645C18BFCE
:100480007FEA655C29D094EA050F08BF90EA020F65
:1004900005D054EA000C04BF1946104630BD91EA5D
:1004A000030F1EBF0021002030BD5FEA545C05D160
:1004B0004000494128BF41F0004130BD14F580049F
:1004C0003CBF01F5801130BD01F0004545F0FE4113
:1004D00041F470014FF0000030BD7FEA645C1ABF48
:1004E000194610467FEA655C1CBF0B46024650EA7F
:1004F000013406BF52EA033591EA030F41F40021AB
:1005000030BD00BF90F0000F04BF0021704730B530
:100510004FF4806404F132044FF000054FF0000105
:1005200050E700BF90F0000F04BF0021704730B5C6
:100530004FF4806404F1320410F0004548BF40429B
:100540004FF000013EE700BF42004FEAE2014FEAF0
:1005500031014FEA02701FBF12F07F4393F07F4FCB
:1005600081F06051704732F07F4208BF704793F0CE
:100570007F4F04BF41F40021704730B54FF46074E1
:1005800001F0004521F000411CE700BF50EA0102E4
:1005900008BF704730B54FF000050AE050EA01028D
:1005A00008BF704730B511F0004502D5404261EBFD
:1005B00041014FF4806404F132045FEA915C3FF43E
:1005C000D8AE4FF003025FEADC0C18BF03325FEADB
:1005D000DC0C18BF033202EBDC02C2F1200300FA8C
:1005E00003FC20FA02F001FA03FE40EA0E0021FAB1
:1005F00002F11444BDE600BF70B54FF0FF0C4CF49F
:10060000E06C1CEA11541DBF1CEA135594EA0C0F50
:1006100095EA0C0F00F0DEF82C4481EA030621EA8B
:100620004C5123EA4C5350EA013518BF52EA0335C6
:1006300041F4801143F4801338D0A0FB02CE4FF078
:100640000005E1FB02E506F00042E0FB03E54FF0A8
:100650000006E1FB03569CF0000F18BF4EF0010EA0
:10066000A4F1FF04B6F5007F64F5407404D25FEA9C
:100670004E0E6D4146EB060642EAC62141EA55514F
:100680004FEAC52040EA5E504FEACE2EB4F1FD0C91
:1006900088BFBCF5E06F1ED8BEF1004F08BF5FEA0F
:1006A000500E50F1000041EB045170BD06F00046C1
:1006B00046EA010140EA020081EA0301B4EB5C046E
:1006C000C2BFD4EB0C0541EA045170BD41F4801166
:1006D0004FF0000E013C00F3AB8014F1360FDEBF8B
:1006E000002001F0004170BDC4F10004203C35DA67
:1006F0000C341BDC04F11404C4F1200500FA05F3EA
:1007000020FA04F001FA05F240EA020001F000428A
:1007100021F0004110EBD37021FA04F642EB060100
:100720005EEA430E08BF20EAD37070BDC4F10C042A
:10073000C4F1200500FA04F320FA05F001FA04F2EE
:1007400040EA020001F0004110EBD37041F10001DA
:100750005EEA430E08BF20EAD37070BDC4F12005E5
:1007600000FA05F24EEA020E20FA04F301FA05F24D
:1007700043EA020321FA04F001F0004121FA04F2F5
:1007800020EA020000EBD3705EEA430E08BF20EAC5
:10079000D37070BD94F0000F0FD101F000464000FF
:1007A00041EB010111F4801F08BF013CF7D041EA81
:1007B000060195F0000F18BF704703F00046520085
:1007C00043EB030313F4801F08BF013DF7D043EA56
:1007D0000603704794EA0C0F0CEA135518BF95EA0C
:1007E0000C0F0CD050EA410618BF52EA4306D1D193
:1007F00081EA030101F000414FF0000070BD50EAB2
:10080000410606BF1046194652EA430619D094EA3B
:100810000C0F02D150EA013613D195EA0C0F05D125
:1008200052EA03361CBF104619460AD181EA030179
:1008300001F0004141F0FE4141F470014FF0000031
:1008400070BD41F0FE4141F4780170BD70B54FF0CC
:10085000FF0C4CF4E06C1CEA11541DBF1CEA13554C
:1008600094EA0C0F95EA0C0F00F0A7F8A4EB05042E
:1008700081EA030E52EA03354FEA013100F0888025
:100880004FEA03334FF0805545EA131343EA1263EE
:100890004FEA022245EA111545EA10654FEA0026A3
:1008A0000EF000419D4208BF964244F1FD0404F55C
:1008B000407402D25B084FEA3202B61A65EB0305B8
:1008C0005B084FEA32024FF480104FF4002CB6EB75
:1008D000020E75EB030E22BFB61A754640EA0C00F5
:1008E0005B084FEA3202B6EB020E75EB030E22BF35
:1008F000B61A754640EA5C005B084FEA3202B6EB76
:10090000020E75EB030E22BFB61A754640EA9C0034
:100910005B084FEA3202B6EB020E75EB030E22BF04
:10092000B61A754640EADC0055EA060E18D04FEAC2
:10093000051545EA16754FEA06164FEAC30343EA62
:1009400052734FEAC2025FEA1C1CC0D111F4801F2F
:100950000BD141EA00014FF000004FF0004CB6E728
:1009600011F4801F04BF01430020B4F1FD0C88BFC7
:10097000BCF5E06F3FF6AFAEB5EB030C04BFB6EBD2
:10098000020C5FEA500C50F1000041EB045170BDC5
:100990000EF0004E4EEA113114EB5C04C2BFD4EBF2
:1009A0000C0541EA045170BD41F480114FF0000E76
:1009B000013C90E645EA060E8DE60CEA135594EAF2
:1009C0000C0F08BF95EA0C0F3FF43BAF94EA0C0FF5
:1009D0000AD150EA01347FF434AF95EA0C0F7FF46A
:1009E00025AF104619462CE795EA0C0F06D152EABE
:1009F00003353FF4FDAE1046194622E750EA4106A2
:100A000018BF52EA43067FF4C5AE50EA41047FF4B2
:100A10000DAF52EA43057FF4EBAE12E74FF0FF3C17
:100A200006E000BF4FF0010C02E000BF4FF0010CE8
:100A30004DF804CD4FEA410C7FEA6C5C4FEA430C61
:100A400018BF7FEA6C5C1BD001B050EA410C0CBFB0
:100A500052EA430C91EA030F02BF90EA020F002012
:100A6000704710F1000F91EA030F58BF994208BF79
:100A700090422CBFD8176FEAE37040F00100704736
:100A80004FEA410C7FEA6C5C02D150EA013C07D18D
:100A90004FEA430C7FEA6C5CD6D152EA033CD3D0D8
:100AA0005DF8040B704700BF8446104662468C46D2
:100AB0001946634600E000BF01B5FFF7B7FF002805
:100AC00048BF10F1000F01BD4DF808EDFFF7F4FF2E
:100AD0000CBF012000205DF808FB00BF4DF808EDB9
:100AE000FFF7EAFF34BF012000205DF808FB00BFDC
:100AF0004DF808EDFFF7E0FF94BF012000205DF8FE
:100B000008FB00BF4DF808EDFFF7CEFF94BF0120B2
:100B100000205DF808FB00BF4DF808EDFFF7C4FFAB
:100B200034BF012000205DF808FB00BF4FEA410CF4
:100B30007FEA6C5C02D150EA013C0AD14FEA430CD7
:100B40007FEA6C5C02D152EA033C02D14FF0000014
:100B500070474FF0010070474FEA410212F5001252
:100B600015D211D56FF47873B3EB625212D94FEAF4
:100B7000C12343F0004343EA505311F0004F23FADE
:100B800002F018BF404270474FF00000704750EA33
:100B9000013005D111F0004008BF6FF000407047F0
:100BA0004FF00000704700BF4FEA4102B2F1E0434E
:100BB00024BFB3F5001CDCF1FE5C0DD901F0004C44
:100BC0004FEAC0024CEA5070B2F1004F40EB830094
:100BD00008BF20F00100704711F0804F21D113F1C0
:100BE0003872BCBF01F00040704741F480114FEAF9
:100BF0005252C2F11802C2F1200C10FA0CF320FA82
:100C000002F018BF40F001004FEAC1234FEAD3239E
:100C100003FA0CFC40EA0C0023FA02F34FEA430308
:100C2000CCE77FEA625307D150EA01331EBF4FF091
:100C3000FE4040F44000704701F0004040F0FE40AC
:100C400040F40000704700BF53B94AB9002908BFFB
:100C500000281CBF4FF0FF314FF0FF3000F06EB99D
:100C6000ADF1080C6DE904CE00F006F8DDF804E003
:100C7000DDE9022304B070472DE9F047089D0446E2
:100C80008C46002B40F083808A42174647D9B2FA3F
:100C900082F242B1C2F1200024FA00F09140974064
:100CA00040EA010C94404FEA1748230CBCFBF8F6CD
:100CB0001FFA87FE08FB16C143EA014306FB0EF14B
:100CC000994209D9FB1806F1FF3080F01981994249
:100CD00040F21681023E3B445B1AA4B2B3FBF8F02B
:100CE00008FB103344EA034400FB0EFEA64509D975
:100CF0003C1900F1FF3380F00581A64540F20281E6
:100D000002383C4440EA0640A4EB0E0400261DB124
:100D1000D4400023C5E900433146BDE8F08702B95D
:100D2000FFDEB2FA82F2002A50D1CB1B4FEA174EF7
:100D30001FFA87F80126B3FBFEFC210C0EFB1C33C7
:100D400041EA034108FB0CF38B4207D979180CF1F7
:100D5000FF3002D28B4200F2E9808446C91AA3B266
:100D6000B1FBFEF00EFB101143EA014408FB00F852
:100D7000A04507D93C1900F1FF3302D2A04500F28B
:100D8000D9801846A4EB080440EA0C40BFE78B4228
:100D900009D9002D00F0B1800026C5E900013046D8
:100DA0003146BDE8F087B3FA83F6002E4AD18B4274
:100DB00002D3824200F2B880841A61EB0301012061
:100DC0008C46002DA8D0C5E9004CA5E7C2F1200350
:100DD00020FA03F6974001FA02F04FEA174ED94085
:100DE0003043030CB1FBFEF61FFA87F80EFB161119
:100DF00043EA014306FB08F1994204FA02F409D9D7
:100E0000FB1806F1FF3C80F08D80994240F28A8009
:100E1000023E3B445B1A81B2B3FBFEF00EFB103383
:100E200041EA034100FB08F38B4207D9791800F12E
:100E3000FF3C73D28B4271D902383944CB1A40EA55
:100E4000064678E7C6F1200C03FA06F422FA0CF302
:100E50001C4320FA0CF701FA06F34FEA144E21FA6C
:100E60000CF11F433B0CB1FBFEF91FFA84F80EFB9B
:100E7000191143EA014109FB08FA8A4502FA06F210
:100E800000FA06F308D9611809F1FF3048D28A4503
:100E900046D9A9F102092144A1EB0A01BFB2B1FB75
:100EA000FEF00EFB101147EA014700FB08F8B845B9
:100EB00007D9E71900F1FF312ED2B8452CD90238F5
:100EC000274440EA0940A7EB0807A0FB02894F45E9
:100ED000C64649461AD317D05DB1B3EB0E0267EB95
:100EE000010707FA0CFCF2404CEA0202F740C5E9A0
:100EF000002700263146BDE8F0872E4628460BE73E
:100F00000646E9E61846FDE64345E5D2B8EB020E93
:100F100069EB04010138DFE70846D2E760468DE758
:100F20008146B9E7664675E730464AE7ACF1020C00
:100F3000394413E702383C4424E700BF704700BF40
:100F400080B500AF174B5B7803F04003DBB2002B9A
:100F500025D005F073FB01F061F9124B5B7803F0CB
:100F60000403DBB2002B01D000F08EF90E4B1B788E
:100F7000012B11D10D4B93F82030012B0CD10C4BD0
:100F80001B88184602F07CFE03461A46084B1A805E
:100F9000054B00221A7002E0034B01221A7000BFB9
:100FA00080BD00BFDC040020000000208804002079
:100FB000A002002080B582B000AF0346FB71FB7930
:100FC00019463E4809F012FCFB790E2B5CD801A2B1
:100FD00052F823F011100008191000082110000821
:100FE00029100008311000083910000841100008CD
:100FF000491000085110000859100008611000083D
:1010000069100008711000087910000881100008AC
:101010002B4809F0EBFB37E02A4809F0E7FB33E007
:10102000294809F0E3FB2FE0284809F0DFFB2BE01B
:10103000274809F0DBFB27E0264809F0D7FB23E02F
:10104000254809F0D3FB1FE0234809F0CFFB1BE044
:10105000214809F0CBFB17E01F4809F0C7FB13E05C
:101060001D4809F0C3FB0FE01B4809F0BFFB0BE074
:101070001A4809F0BBFB07E0194809F0B7FB03E089
:10108000184809F0B3FB00BF0A2009F0C7FBFB7941
:10109000184602F05BF9FB799BB21A461201D31A8B
:1010A0009B009BB203F216439BB26421184601F0E9
:1010B00087FF00BF0837BD4680BD00BF48CC000891
:1010C00054CC000860CC000870CC000880CC00082C
:1010D00094CC0008B0CC0008C0CC0008D4CC0008E8
:1010E000E0CC0008F0CC000880B586B000AF00234B
:1010F000FB753E4A53786FF3861353703C4B0022C6
:101100005A623C4B00225A6201F0A6FF3A4809F0AD
:1011100009FC384B5B6A07EE903AF8EE677AC7ED48
:10112000047A334B5B6A07EE903AF8EE677AC7EDC4
:10113000037A97ED047ADFED316AC7EE267AB3EED3
:10114000007A67EE877AFCEEE77AC7ED017A3B79A1
:10115000DAB22B4B1A7097ED037ADFED286AC7EEEF
:10116000267AB0EE087A67EE877AFCEEE77AC7ED6A
:10117000017A3B79FB75224B1A78224B1B78D31AE4
:10118000DAB2214B1A70204B1B78002B04D01C4B79
:101190001B781846FFF70EFF194B1A78194B1A7077
:1011A000FB7D022BB5D1642140F64D2001F008FFF4
:1011B000642140F6EA2001F003FF64214FF444600B
:1011C00001F0FEFE01F05CFF094B00225A62094B60
:1011D00000225A620A4B1B7819460C4809F006FB9C
:1011E000074B1B7818461837BD4680BDDC0400202D
:1011F000000400400008004004CD000800008047C3
:10120000F801002001000020F90100201CCD000899
:1012100080B500AF02F08EFA01F0F6FD164A537861
:1012200043F040035370154809F07CFB144B1B8EB0
:10123000502BFBD94FF4967140F2265001F0C0FEBE
:101240004FF4967140F2755001F0BAFE4FF496716A
:101250004FF4C46001F0B4FE4FF47A7001F0ECFD7D
:1012600000BF054A53786FF386135370054B4FF058
:1012700000021A6000BF80BDDC04002030CD0008F1
:10128000F86401208804002080B584B000AF294BA9
:1012900093ED007A284BD3ED007A77EE677AC7EDAD
:1012A000027A244B93ED057A244BD3ED007A77EE46
:1012B000677AC7ED017A1F4B93ED057A1F4BD3ED8B
:1012C000017A77EE677AC7ED007A0023FB73D7EDDA
:1012D000027AF0EEE77AB3EE0E7AF4EEC77AF1EE28
:1012E00010FA01DD0223FB73D7ED007AF0EEE77A06
:1012F000B0EE007AF4EEC77AF1EE10FA01DD0323C6
:10130000FB73D7ED017AF0EEE77AB0EE007AF4EEF7
:10131000C77AF1EE10FA01DD0423FB73FB7B002B8F
:1013200003D0FB7B184600F00BF800BF1037BD461A
:1013300080BD00BFAC04002088040020F8640120B8
:10134000F0B585B002AF0346FB7102F0F3F901F08E
:1013500067FD002001F0FAFF002300930023002224
:101360000021002002F0B2FB4FF4FA7001F064FD9E
:1013700004F080FAFE790D4B1B681846FFF7E4F87D
:1013800004460D460A4B1B681846FFF7DDF8024677
:101390000B46CDE9002322462B463146054809F08D
:1013A00025FA4FF47A7001F047FDE3E7AC04002022
:1013B000880400203CCD000880B500AF0A4A53786D
:1013C0006FF38203537003F053FF084B4FF000029A
:1013D0001A60074B4FF000021A60034A537843F03B
:1013E0000403537000BF80BDDC040020880400208B
:1013F000AC04002080B400AF134B1B7803F004034F
:10140000DBB2002B1AD0104A13786FF3C3031370AA
:101410000E4B4FF000021A610B4A53786FF38203B0
:1014200053700B4B4FF000021A60084B4FF0000254
:101430001A60054A537843F00403537000BFBD4659
:101440005DF8047B704700BFDC04002088040020A6
:10145000AC04002080B584B000AF0346FB710023CC
:101460007B730023BB7303F04DF9FFF7C3FF6F4A93
:10147000537843F0400353706D4B012283F82020D2
:101480006C4B9B8DE62B03D86A4B9B8EE62B04D9C5
:10149000FFF792FF022003F0EFF8674B1B78012B58
:1014A0000ED1654B5B78002B0AD1644BD3ED057AE6
:1014B00001210120F0EE670A9FED610A03F0B0F907
:1014C0000121012003F05AFE0346FB7303F09EF84E
:1014D0005C4B5B8801339AB25A4B5A80FA7BFB799A
:1014E0001146184603F06AF8564B5B881A46564B6D
:1014F0009B5C882B0AD0882B56DC442B0ED0442BC7
:1015000052DC112B45D0222B13D04DE0012003F0EB
:1015100071FE0346FB7300237B7345E003F0B6FEC8
:101520000346FB7301237B737B7B184603F0A4F80F
:101530003AE0012003F048FE3E4B9B8DE62B07D995
:101540003C4B9B8DE62B03D90123BB7303F070FE4C
:10155000FFF732FFBB7B012B0ED19FED3C0A03F05E
:1015600031FF364BD3ED057A01210120F0EE670AF9
:101570009FED360A03F054F902237B737B7B1846F8
:1015800003F07AF80121012003F0F8FD0346FB7314
:101590000AE003F0C9FE0346FB73FF237B737B7BEA
:1015A000184603F069F800BF264B5B8801339AB2F6
:1015B000244B5A8003F02AF8FB7B184601F0C6FE44
:1015C000FA7BFB791146184602F0F8FF204B1B7896
:1015D0001F4A5178FA79184600F03CF80346002B70
:1015E00082D1012003F0F0FD104A53786FF3861387
:1015F00053700F4B002283F8202002F09BF8C82084
:1016000001F01AFC094B1B7803F00203DBB2002B3C
:1016100001D103F0A9F8054A13786FF38203137020
:1016200004F0C8F800BF1037BD4680BDDC040020C0
:1016300088040020F8640120CC5E01201C040020F6
:1016400000007842C45E0120F45F012000002042C7
:10165000C85E012080B485B000AF0346FB710B4625
:10166000BB7113467B710123FB730123BB73002302
:101670007B7300233B730023FB720023BB720023A8
:101680007B7200237B732EE0234B1A787B7B134401
:10169000BB72214B5A787B7B13447B72FA79BB7AFD
:1016A0009A4207D13B7B002B04D10023FB7301231B
:1016B0003B7304E03B7B002B01D10123FB73BA7920
:1016C0007B7A9A4207D1FB7A002B04D10023BB73AB
:1016D0000123FB7204E0FB7A002B01D10123BB73D1
:1016E0007B7B01337B737A7B7B799A42CCD3FB7B08
:1016F000002B09D1BB7B002B06D1084A13786FF36E
:1017000082031370002300E0012318461437BD46FE
:101710005DF8047B704700BFCC5E0120DC04002034
:1017200080B487B000AF904B5B8E07EE903AB8EE76
:10173000E77A8E4BD3ED007A77EE677AC7ED037ABE
:10174000894BDB8D07EE903AB8EEE77A884BD3ED04
:10175000007A77EE677AC7ED027AD7ED037AF0EE7A
:10176000E77AB1EE087AF4EEC77AF1EE10FA02DD0C
:101770000A23FB8201E00023FB82D7ED027AF0EE20
:10178000E77AB1EE087AF4EEC77AF1EE10FA02DDEC
:101790000A23BB8201E00023BB82734B5B8E1A4697
:1017A000714B9B8FD31A07EE903AF8EEE77AC7EDAC
:1017B000017A6D4BDB8D1A466B4B1B8FD31A07EEEC
:1017C000903AF8EEE77AC7ED007A674B5B8E1A46DF
:1017D000FB8A1E339A4214DD634BDB8D1A46BB8AAB
:1017E00014339A420DDDD7ED007AB7EE087A27EE72
:1017F000877AD7ED017A77EE677A5E4BC3ED007A90
:1018000033E0594B5B8E1A46FB8A1E339A420BDC3F
:10181000554BDB8D1A46BB8A14339A4204DC554B78
:101820004FF000021A6020E04F4B5B8E1A46FB8A95
:101830001E339A4209DDD7ED017AB8EE007A67EEE1
:10184000877A4C4BC3ED007A0FE0474BDB8D1A468D
:10185000BB8A14339A4208DDD7ED007AB0EE087ADD
:1018600067EE877A434BC3ED007A3F4B9B8EA3F51F
:101870008C723D4B9B8DA3F58273D31A07EE903A81
:10188000F8EEE77A3C4BC3ED007A374B9B8EA3F51D
:101890008C72354B9B8DA3F58273134407EE903AFF
:1018A000F8EEE77A354BC3ED007A354B1B78092B00
:1018B0001ED82D4B5A8E324B1B7807EE902AF8EE2D
:1018C000677A2A4A9B001344C3ED007A264BD88DD1
:1018D0002B4B1B785A1CD1B2294A117007EE900A83
:1018E000F8EE677A224A9B001344C3ED007A34E095
:1018F000234B1B78092B30D900233B6118E03B694F
:1019000001331A4A9B0013441A6818493B699B002B
:101910000B441A603B690133154A9B0013441A6853
:1019200013493B699B000B441A603B6901333B61DF
:101930003B69082BE3DD0C4B5B8E07EE903AF8EE2B
:10194000677A0A4BC3ED097A074BDB8D07EE903AB5
:10195000F8EE677A064BC3ED097A00BF1C37BD4627
:101960005DF8047B704700BFF86401200802002086
:1019700030020020F8030020A4020020F002002022
:101980005802002080B483B000AF78607B6893ED8C
:10199000067A7B68D3ED036A7B68D3ED007A66EE46
:1019A000A77A77EE277A7B68C3ED067A7B6893ED9A
:1019B000067A7B68D3ED077AB4EEE77AF1EE10FA97
:1019C00004DD7B68DA697B689A6114E07B6893EDDB
:1019D000067A7B68D3ED077AF1EE677AB4EEE77AA0
:1019E000F1EE10FA07D57B68D3ED077AF1EE677A4E
:1019F0007B68C3ED067A7B6893ED027A7B68D3ED52
:101A0000007A27EE277A7B68D3ED046A7B6893ED32
:101A1000006A7B68D3ED017A76EE677A66EEA77A84
:101A200037EE277A7B68D3ED067A77EE277A7B68E4
:101A3000C3ED057A7B6893ED057A7B68D3ED087A70
:101A4000B4EEE77AF1EE10FA04DD7B681A6A7B687F
:101A50005A6114E07B6893ED057A7B68D3ED087AD0
:101A6000F1EE677AB4EEE77AF1EE10FA07D57B680B
:101A7000D3ED087AF1EE677A7B68C3ED057A7B686F
:101A80001A687B685A607B685B6907EE903AB0EE33
:101A9000670A0C37BD465DF8047B704780B483B09D
:101AA00000AF284B5B697B60274B1B7803F010036A
:101AB000DBB2002B0DD0254BD3ED067A9FED247AB7
:101AC00067EE877A97ED017A77EE277AC7ED017A8C
:101AD00013E01D4B1B7803F02003DBB2002B0CD06E
:101AE0001A4BD3ED067A9FED1A7A67EE877A97ED57
:101AF000017A77EE677AC7ED017A144BD3ED057A58
:101B000097ED017AB4EEE77AF1EE10FA03DD0F4BB0
:101B10005B697B600CE00F4BD3ED057A97ED017AA2
:101B2000B4EEE77AF1EE10FA02D50A4B5B697B60FE
:101B30007B6807EE903AB0EE670A0C37BD465DF859
:101B4000047B7047AC040020DC0400201C0400204F
:101B50006F12833A6404002080B483B000AF284B36
:101B60005B687B60274B1B7803F04003DBB2002BE4
:101B70000DD0234BD3ED027A9FED237A67EE877A5F
:101B800097ED017A77EE277AC7ED017A13E01D4BC6
:101B90001B7823F07F03DBB2002B0CD0184BD3ED66
:101BA000027A9FED197A67EE877A97ED017A77EEE0
:101BB000677AC7ED017A154BD3ED017A97ED017A7B
:101BC000B4EEE77AF1EE10FA03DD104B5B687B6050
:101BD0000CE00F4BD3ED017A97ED017AB4EEE77A82
:101BE000F1EE10FA02D50A4B5B687B607B6807EE6A
:101BF000903AB0EE670A0C37BD465DF8047B70473B
:101C0000AC040020DC0400206F12833A1C04002086
:101C10006404002080B489B000AF87ED010A494B0D
:101C2000BB6197ED067AD7ED017A67EE277AC7EDAB
:101C3000057A454B93ED007AD7ED057A37EE277A92
:101C4000424BD3ED007A77EE677AC7ED047AD7ED91
:101C5000047AB2EE047A67EE877A9FED3D7A27EE3A
:101C6000877A3C4BD3ED007AD7ED046A76EEE77ABB
:101C7000DFED396A67EEA67A77EE277AC7ED077A45
:101C8000344A3B691360354BD3ED027A9FED347AC9
:101C900067EE877AC7ED037A324BD3ED007A97ED82
:101CA000077A77EE677AC7ED027A97ED027AD7ED79
:101CB000037AB4EEE77AF1EE10FA09DD294BD3EDA1
:101CC000007A97ED037A77EE277AC7ED077A13E06B
:101CD000D7ED037AF1EE677A97ED027AB4EEE77A00
:101CE000F1EE10FA08D51F4B93ED007AD7ED037A89
:101CF00077EE677AC7ED077AD7ED077AB7EE007A05
:101D0000F4EEC77AF1EE10FA03DD4FF07E53FB617B
:101D10000AE0D7ED077ABFEE007AF4EEC77AF1EE6B
:101D200010FA01D5104BFB610E4AFB691360FB6989
:101D300007EE903AB0EE670A2437BD465DF8047BA3
:101D4000704700BF9A99993EAC0400208804002097
:101D50004DF38E3C5C020020CDCC4C3D1C04002099
:101D60006F12833A60020020000080BFB0B493B0CD
:101D700000AFF86187ED060AC7ED050A87ED041A82
:101D8000C7ED031A87ED022AC7ED012A0B46FB7047
:101D9000BB697B62D7ED036A97ED057AC6EE877A59
:101DA000C7ED0A7AD7ED026A97ED057AC6EE877A13
:101DB000C7ED0B7A7B693B633B697B63FB68BB6365
:101DC000BB68FB637B683B64FB7887F84430FB6946
:101DD0001D4607F124040FCC0FC50FCC0FC5236897
:101DE0002B60F8694C37BD46B0BC7047B0B48FB0BB
:101DF00000AF786187ED040AC7ED030A87ED021A88
:101E0000C7ED011A87ED002A3B69FB61FB683B6265
:101E1000D7ED046A97ED027AC6EE877AC7ED0A7AA3
:101E2000D7ED036A97ED027AC6EE877AC7ED0B7A93
:101E3000BB687B623B69FB61FB683B627B683B6321
:101E40003B687B637B691D4607F11C040FCC0FC503
:101E500094E8070085E8070078693C37BD46B0BCC8
:101E60007047B0B491B000AF786187ED040AC7ED58
:101E7000030A87ED021AC7ED011A87ED002A3B69B4
:101E80007B62FB68BB62BB68FB627B68BB633B68D1
:101E9000FB637B691D4607F11C040FCC0FC50FCCFB
:101EA0000FC523682B6078694437BD46B0BC7047C6
:101EB000B0B58AB000AFBB4C3B460021DFEDBA2A7B
:101EC0009FEDB92ADFEDB81A9FEDB71AF7EE000AB9
:101ED0009FEDB50A1846FFF749FF25463C460FCC53
:101EE0000FC50FCC0FC523682B60B04C3B460021BB
:101EF000DFEDAF2AB1EE002ADFEDAB1A9FEDAA1A93
:101F0000DFEDAC0A9FEDA80A1846FFF72FFF254624
:101F10003C460FCC0FC50FCC0FC523682B60A64CD9
:101F20003B460021DFEDA22AB1EE002ADFEDA31A25
:101F30009FED9D1ADFED9F0A9FED9B0A1846FFF764
:101F400015FF25463C460FCC0FC50FCC0FC52368A7
:101F50002B60994BD3ED057AB1EE677A964BD3EDB2
:101F6000067AF1EE676A944BD3ED077AF1EE677A61
:101F7000934C3B460021F0EE672AB0EE662AF0EE65
:101F8000471A9FED891ADFED8B0A9FED870A1846E5
:101F9000FFF7ECFE25463C460FCC0FC50FCC0FC516
:101FA00023682B60874C3B460021DFED812AB1EE90
:101FB000002AF7EE001A9FED7C1ADFED830A9FEDF1
:101FC0007A0A1846FFF7D2FE25463C460FCC0FC5CD
:101FD0000FCC0FC523682B60774BD3ED067AB1EE9B
:101FE000677A754BD3ED077AF1EE677A754C3B460D
:101FF0000021F0EE672AB0EE472ADFED701A9FED60
:102000006A1ADFED710A9FED680A1846FFF7AEFE07
:1020100024343D460FCD0FC40FCD0FC42B68236071
:10202000684C3B46B3EE042AF2EE041A9FED661AA2
:10203000F1EE000A9FED610A1846FFF7D7FE48341B
:102040003D460FCD0FC495E8070084E807005D4CBE
:102050003B469FED5E2ADFED5D1A9FED5D1AF1EEC6
:10206000000A9FED560A1846FFF7C0FE64343D464D
:102070000FCD0FC495E8070084E80700514C3B469C
:102080009FED542ADFED531A9FED531AF1EE000A2B
:102090009FED4A0A1846FFF7A9FE80343D460FCD52
:1020A0000FC495E8070084E807004C4B454A1A60C6
:1020B0004B4B00221A804B4C3B469FED4B2ADFEDE9
:1020C0004B1A9FED391ADFED4A0AB0EE0C0A18469A
:1020D000FFF7C7FE25463C460FCC0FC50FCC0FC5FA
:1020E00023682B60434C3B469FED3F2ADFED3F1AB0
:1020F0009FED2D1ADFED3E0AB0EE0C0A1846FFF7F1
:10210000B0FE25463C460FCC0FC50FCC0FC523684B
:102110002B60394C3B469FED392ADFED231A9FEDAA
:10212000221ADFED210A9FED360A1846FFF799FEC5
:1021300025463C460FCC0FC50FCC0FC523682B603E
:10214000304C3B469FED302ADFED281A9FED161AE2
:10215000DFED2E0A9FED2E0A1846FFF782FE254678
:102160003C460FCC0FC50FCC0FC523682B60294C04
:102170003B469FED222ADFED1D1A9FED271ADFED6A
:102180000A0A9FED1A0A1846FFF76BFE25463C46E1
:102190000FCC0FC50FCC0FC523682B6000BF2837AD
:1021A000BD46B0BD8804002000000000AC04002043
:1021B000CDCC4C3DAE47613D1C0400206666E63E3A
:1021C0006404002014030020EC51383D0000184244
:1021D0008FC2F53D0000AA425839B43DC802002024
:1021E000DC040020B00300209A99193FCDCCCC3DEF
:1021F0000AD7233CD4030020F0020020CDCC4C3E73
:10220000A69B443B400400209A99993E6F12033BE1
:102210008FC2753DCC0200200AD7233D80B582B025
:1022200000AF4FF000037B60994B4FF000021A6043
:10223000984B4FF000021A60974B4FF000021A6063
:10224000964BD3ED007AB0EE670A03F099FFF0EEFB
:10225000407A924BC3ED007A03F0CCFFF0EE407A67
:102260009FED8F7A67EE877A8C4BC3ED017A03F08E
:10227000CFFFF0EE407A894BC3ED067A03F026FFDC
:10228000F0EE407A854BC3ED047A03F095FFF0EE53
:10229000407A824BC3ED057A824B5B7803F02003D2
:1022A000DBB2002B40F0E480FFF73AFA7D4B1B785D
:1022B00003F00803DBB2002B16D07B4BD3ED057A7D
:1022C0009FED7A7AF4EEC77AF1EE10FA0CDD784BD6
:1022D000D3ED007AB0EE670AFFF79CFCF0EE407A8F
:1022E0006B4BC3ED007A03E0694B4FF000021A60BC
:1022F000FFF7D4FBF0EE407A6B4BC3ED057AFFF7A6
:102300002BFCF0EE407A684BC3ED017A664B93EDFF
:10231000007A624BD3ED007A77EE677A654BC3EDB6
:10232000007A614B93ED057A5C4BD3ED057A77EE3D
:10233000677A614BC3ED007A5B4B93ED057A574B9F
:10234000D3ED057A77EE677A5C4BC3ED007A564B96
:1023500093ED017A4E4BD3ED007A37EE277A4F4B4F
:10236000D3ED017A77EE677A554BC3ED007A4D4B8A
:102370005B7803F00803DBB2002B18D04D48FFF761
:1023800001FB87ED010A444B93ED007AD7ED017A0A
:1023900077EE277A404BC3ED007A3E4B93ED007AFF
:1023A000D7ED017A77EE677A3A4BC3ED007A3D4B71
:1023B0005B7803F00203DBB2002B18D04048FFF734
:1023C000E1FA87ED010A344B93ED007AD7ED017AFB
:1023D00077EE277A304BC3ED007A2E4B93ED007ADF
:1023E000D7ED017A77EE677A2A4BC3ED007A2D4B51
:1023F0005B7803F00103DBB2002B19D02F48FFF705
:10240000C1FAB0EE407A244BD3ED007A77EE277A0A
:10241000214BC3ED007A2848FFF7B4FAB0EE407ABA
:102420001C4BD3ED007A77EE277A1A4BC3ED007A76
:102430001C4B5B7803F01003DBB2002B18D0214853
:10244000FFF7A0FA87ED010A134B93ED007AD7ED61
:10245000017A77EE677A104BC3ED007A0D4B93ED5E
:10246000007AD7ED017A77EE677A0A4BC3ED007AEE
:10247000084BD3ED007A084B93ED007AF0EE470A53
:10248000B0EE670A01F004F900BF0837BD4680BD11
:102490000402002000020020FC010020880400202B
:1024A0004DF38E3CDC040020AC0400209A9999BEC8
:1024B000F8030020CC020020B0030020D403002049
:1024C00040040020F002002080B582B000AF034637
:1024D0000A46FB711346BB71FEF79AFE04F00EF933
:1024E00000F0BAFDFB7903F00103D9B20D4A53782D
:1024F00061F3820353700B4A537843F040035370E7
:10250000BB7903F00103002B02D001F003F804E0D3
:10251000BB79002B01D101F00DF900BF0837BD4692
:1025200080BD00BFDC04002080B500AFFEF770FE68
:1025300004F0E4F800F090FD084A537843F04003BB
:10254000537000F0E7FF02F073FE044A53786FF314
:102550008613537001F0EEF800BF80BDDC0400204C
:1025600090B585B002AF00210020FFF7ADFF00233A
:10257000FB71114B9B8E19460F4B5B8E18460E4B11
:102580001B8E1C460C4BDB8D1A460B4B9B8D01930F
:10259000009223460246094808F028F94FF4FA70E1
:1025A00000F04AFC03F08AFF0346FB71FB791846F2
:1025B00000F0CCFEDDE700BFF864012064CD000828
:1025C0002DE9B04384B004AF00210020FFF77CFF69
:1025D000114B1B691846FDF7B7FF804689460F4B24
:1025E0009B691846FDF7B0FF04460D460B4B5B692F
:1025F0001846FDF7A9FF02460B46CDE90223CDE9B7
:10260000004542464B46064808F0F0F84FF4FA7091
:1026100000F012FCDCE700BF88040020F864012011
:102620008CCD000880B500AF00210020FFF74CFFE3
:10263000074B1B681846FDF787FF02460B46054807
:1026400008F0D4F84FF4FA7000F0F6FBF0E700BFA2
:1026500088040020B4CD000880B582B000AFFEF73A
:1026600043FD03467B717B79184600F06FFE012124
:102670000120FFF729FF7B79013B092B00F2BF8185
:1026800001A252F823F000BFB1260008232700085A
:1026900071270008C12700080128000851280008F8
:1026A0009F280008F72800084F290008A7290008DC
:1026B000D54B00221A80D54B012283F82020D44B21
:1026C000D3ED057A00210020F0EE670A9FEDD10AD4
:1026D00002F0A6F8FF2000F039FECF4B1B68D3EDC7
:1026E000057ACD4B1B6893ED0E7ACB4B1B68D3ED6F
:1026F000066AF0EE661AB0EE471AF0EE670A9FED32
:10270000C70A02F05BF9002000F020FE002002F072
:102710005BFDC34A53786FF38613537001F00AF8D8
:102720006EE10121012002F029FDB74B00221A8041
:1027300002F0FAFD002002F05DFD0023FB7107E0CE
:1027400002F0F2FD002002F055FDFB790133FB7130
:10275000FB790F2BF4D9002002F036FD02F088FD42
:10276000AF4A53786FF38613537000F0E3FF47E1ED
:102770000021002002F002FDA34B00221A8000235A
:10278000BB710DE0FF2000F0E1FD02F07FFD0020B5
:1027900000F0DCFD002002F02DFDBB790133BB71A0
:1027A000BB790F2BEED9002002F00EFD02F060FD88
:1027B0009B4A53786FF38613537000F0BBFF1FE101
:1027C000914B00221A80914B012283F82020904BDC
:1027D000D3ED057A00210020F0EE670A9FED8D0A07
:1027E00002F01EF80121012002F0C8FC002002F0D6
:1027F000EBFC8B4A53786FF38613537000F09AFF0B
:10280000814B00221A80814B012283F82020804BCB
:10281000D3ED057A01210020F0EE670A9FED7D0AD5
:1028200001F0FEFF0121012002F0A8FCFF2000F0D2
:102830008DFD02F02BFD002000F088FD002002F04D
:10284000C3FC00F077FF4FF4FA6000F0F5FAD7E030
:102850006D4B00221A806D4B012283F820206C4BB7
:10286000D3ED057A01210020F0EE670A9FED690A99
:1028700001F0D6FF0121012002F080FCFF2000F0D2
:1028800065FD02F051FD002000F060FD002002F027
:102890009BFC00F04FFF4FF4FA6000F0CDFA5A4B6A
:1028A00000221A80594B012283F82020584BD3ED87
:1028B000057A01210020F0EE670A9FED560A01F02B
:1028C000AFFF0121012002F059FC0121012002F09B
:1028D00055FCFF2000F03AFD02F0F4FD002000F06E
:1028E00035FD002002F070FC00F024FF4FF4FA6088
:1028F00000F0A2FA84E0444B00221A80434B0122EC
:1029000083F82020424BD3ED057A01210020F0EE20
:10291000670A9FED400A01F083FF0121012002F0C8
:102920002DFC0121012002F029FCFF2000F00EFD0A
:1029300002F012FE002000F009FD002002F044FC2D
:1029400000F0F8FE4FF4FA6000F076FA58E02E4BF3
:1029500000221A802D4B012283F820202C4BD3ED2E
:10296000057A01210020F0EE670A9FED2A0A01F0A6
:1029700057FF0121012002F001FC0121012002F09A
:10298000FDFBFF2000F0E2FC02F030FE002000F032
:10299000DDFC002002F018FC00F0CCFE4FF4FA60E1
:1029A00000F04AFA2CE0184B00221A80174B012243
:1029B00083F82020164BD3ED057A01210020F0EE9C
:1029C000670A9FED140A01F02BFF0121012002F09C
:1029D000D5FB0121012002F0D1FBFF2000F0B6FC65
:1029E00002F04EFE002000F0B1FC002002F0ECFBF3
:1029F00000F0A0FE4FF4FA6000F01EFA00E000BF05
:102A000000BF0837BD4680BDA0020020880400201A
:102A10001C04002000007842C80200200000074487
:102A2000DC04002080B483B000AF78607B681B6852
:102A300043F040027B681A6000BF0C37BD465DF86A
:102A4000047B704780B483B000AF78607B681B68FC
:102A500003F04003402B01D1012300E0002318467E
:102A60000C37BD465DF8047B704780B483B000AF7F
:102A700078607B689B6803F00103012B01D101237F
:102A800000E0002318460C37BD465DF8047B704714
:102A900080B483B000AF78607B689B6803F002036A
:102AA000022B01D1012300E0002318460C37BD465C
:102AB0005DF8047B704780B483B000AF78607B68BA
:102AC000DB68DBB218460C37BD465DF8047B704707
:102AD00080B485B000AF78600B46FB707B680C3328
:102AE000FB60FB68FA781A7000BF1437BD465DF8CA
:102AF000047B704780B483B000AF786039607B6836
:102B00003A689A6100BF0C37BD465DF8047B704798
:102B100080B483B000AF786039603B681A047B688A
:102B20009A6100BF0C37BD465DF8047B704700001A
:102B300090B587B000AFF860B9607A60FB70FB7841
:102B4000FB7504212048FFF7E3FFF868FFF78DFFCE
:102B50000346012B02D1F868FFF7ADFFF868FFF7D5
:102B600071FF0346002B24D1F868FFF75BFF20E0DC
:102B7000BB685A1CBA601B781946F868FFF7A8FFB3
:102B800000BFF868FFF784FF0346002BF9D000BFB1
:102B9000F868FFF76AFF0346002BF9D07C68631CD6
:102BA0007B60F868FFF787FF03462370FB7D013BDE
:102BB000FB75FB7D002BDBD104210348FFF79AFF57
:102BC00000BF1C37BD4690BD000C024080B584B0EC
:102BD00000AF0346FB71FB7963F07F03DBB23B730D
:102BE00000237B7307F1080207F10C01022304485C
:102BF000FFF79EFF7B7A18461037BD4680BD00BFA9
:102C0000003C004080B584B000AF03460A46FB712B
:102C10001346BB71FB7903F07F03DBB23B73BB79D7
:102C20007B7307F1080207F10C0102230348FFF749
:102C30007FFF00BF1037BD4680BD00BF003C004095
:102C400080B582B000AF2648FFF7ECFE7520FFF795
:102C5000BDFF0346FB71FB791946224807F0C6FD0C
:102C6000FB79982B13D07520FFF7B0FF0346FB715B
:102C70000AE01D4807F056FE7520FFF7A7FF034640
:102C8000FB71642000F0D8F8FB79982BF1D1FB7927
:102C90001946144807F0AAFD144807F043FE002126
:102CA0006B20FFF7AFFF0A2000F0C6F800211A20C2
:102CB000FFF7A8FF0A2000F0BFF818211B20FFF73C
:102CC000A1FF0A2000F0B8F818211C20FFF79AFF96
:102CD0000A2000F0B1F800BF0837BD4680BD00BF34
:102CE000003C0040C4CD0008D8CD0008E4CD000869
:102CF00090B583B000AF4720FFF768FF03461B0283
:102D00001CB24820FFF762FF03461BB22343FB803F
:102D1000B7F9063007EE903AB8EEE77ADFED066ACB
:102D2000C7EE267AC7ED007A3B6807EE903AB0EE20
:102D3000670A0C37BD4690BD3333834190B583B0ED
:102D400000AF3B20FFF742FF03461B021CB23C20B2
:102D5000FFF73CFF03461BB22343FB80B7F9063065
:102D600007EE903AB8EEE77ADFED066AC7EE267A0C
:102D7000C7ED007A3B6807EE903AB0EE670A0C3771
:102D8000BD4690BD0000004580B483B000AF7860C0
:102D90007B681B6843F001027B681A6000BF0C3738
:102DA000BD465DF8047B704780B483B000AF7860A7
:102DB0007B681B6823F001027B681A6000BF0C3738
:102DC000BD465DF8047B704780B483B000AF786087
:102DD0007B68DB6843F001027B68DA6000BF0C3778
:102DE000BD465DF8047B704780B483B000AF786067
:102DF0007B68DB6823F001027B68DA6000BF0C3778
:102E0000BD465DF8047B704780B500AF0348FFF70F
:102E1000DBFF0248FFF7B8FF00BF80BD000C004099
:102E200080B500AF0348FFF7BFFF0248FFF7DCFFA4
:102E300000BF80BD000C004080B582B000AF0346EB
:102E4000FB80FB88184606F0FFFF00BF0837BD4631
:102E500080BD000080B584B000AF0346FB80FB88D6
:102E6000B3F57A7F02D340F2E733FB800D4B5B6A08
:102E70009AB2FB8813449BB2FB810A48FFF784FF98
:102E800000BF084B5B6AFA8992B29342F9D30548B6
:102E9000FFF78AFF034B00225A6200BF1037BD467E
:102EA00080BD00BF0010004080B400AF074B1B691D
:102EB00003F48073B3F5807F0CBF01230023DBB2E2
:102EC0001846BD465DF8047B704700BF0004024011
:102ED00080B483B000AF78607B681B6843F0010268
:102EE0007B681A6000BF0C37BD465DF8047B7047F5
:102EF00080B483B000AF786039607B683A685A620A
:102F000000BF0C37BD465DF8047B704780B483B0CA
:102F100000AF786039607B683A68DA6200BF0C37CE
:102F2000BD465DF8047B704780B483B000AF786025
:102F300039607B681A6A3B681A437B681A6200BF73
:102F40000C37BD465DF8047B704780B483B000AF9A
:102F5000786039607B683A681A6400BF0C37BD46F8
:102F60005DF8047B704780B483B000AF78607B6805
:102F70005B6C43F400427B685A6400BF0C37BD466B
:102F80005DF8047B7047000080B500AF4FF48051BE
:102F90000548FFF7C9FF0448FFF79AFF0248FFF70B
:102FA000E2FF00BF80BD00BF0004014080B500AF5C
:102FB00000210248FFF7C9FF00BF80BD00040140A7
:102FC00080B582B000AF03460A46FB801346BB8043
:102FD000FB880E4A92FBF3F319460D48FFF796FF64
:102FE000FB880C4A92FBF3F319460948FFF7ADFF43
:102FF00000210748FFF77CFFBB881846FFF71CFF3E
:10300000FFF7D4FF00BF0837BD4680BDA086010092
:10301000000401401873010080B483B000AF7860F1
:103020007B681B6843F001027B681A6000BF0C37A5
:10303000BD465DF8047B704780B483B000AF786014
:103040007B681B6823F001027B681A6000BF0C37A5
:10305000BD465DF8047B704780B500AF064B00228B
:103060005A62064B00225A620348FFF7D5FF034815
:10307000FFF7D2FF00BF80BD000400400008004001
:1030800080B500AF0348FFF7D7FF0348FFF7D4FF31
:1030900000BF80BD000400400008004080B485B03F
:1030A00000AF0346FB710023FB810023BB81FB794A
:1030B000F02B06D1104B5B6ABB810F4B00225A628A
:1030C00008E0FB790F2B05D10C4B5B6ABB810B4BE6
:1030D00000225A62B7F90C30002B02DABB89FB815F
:1030E00001E0BB89FB81B7F90E3018461437BD46A5
:1030F0005DF8047B704700BF0004004000080040FA
:1031000080B400AF054B1B69044A43F000431361D0
:1031100000BFBD465DF8047B704700BF003C024025
:1031200080B400AF054B064A5A60044B054A5A600A
:1031300000BFBD465DF8047B704700BF003C024005
:1031400023016745AB89EFCD80B400AF00BF064BCC
:10315000DB6803F48033B3F5803FF8D000BF00BFD5
:10316000BD465DF8047B7047003C024080B582B0EC
:1031700000AF78600B46FB700F4B1B690E4A23F4BF
:10318000407313610C4B0C4A1B6913610A4B1B699A
:10319000094A43F0010313617B68FA781A70FFF75C
:1031A000D3FF054B1B69044A23F00103136100BFE1
:1031B0000837BD4680BD00BF003C024080B582B0EC
:1031C00000AF78600B46FB70FFF7AAFF074B1A6849
:1031D0007B681344FA7811461846FFF7C7FFFFF7DC
:1031E0008FFF00BF0837BD4680BD00BF0400002030
:1031F00080B483B000AF7860054B1A687B681344D5
:103200001B7818460C37BD465DF8047B704700BF3D
:103210000400002080B500AFFFF782FF0B4B1B6955
:103220000A4A43F002031361084B1B69074A43F043
:1032300058031361054B1B69044A43F4803313613F
:10324000FFF782FFFFF75CFF00BF80BD003C02403C
:1032500080B483B000AF0346FB71FB79002B04D030
:10326000074B4FF480429A6103E0054B4FF08042D8
:103270009A6100BF0C37BD465DF8047B704700BF04
:103280000004024080B483B000AF0346FB71FB79B9
:10329000002B04D0074B4FF400429A6103E0054B2A
:1032A0004FF000429A6100BF0C37BD465DF8047BC9
:1032B000704700BF0004024080B483B000AF0346F3
:1032C000FB71FB79002B04D0074B4FF480729A619D
:1032D00003E0054B4FF080729A6100BF0C37BD468A
:1032E0005DF8047B704700BF0008024080B483B0E3
:1032F00000AF0346FB71FB79002B03D0064B102275
:103300009A6103E0044B4FF480129A6100BF0C37BE
:10331000BD465DF8047B70470004024080B483B072
:1033200000AF0346FB71FB79002B03D0064B202234
:103330009A6103E0044B4FF400129A6100BF0C370E
:10334000BD465DF8047B70470004024080B582B042
:1033500000AF0346FB71FB7903F00103DBB21846B3
:10336000FFF7DCFFFB7903F00203DBB21846FFF73F
:10337000BDFFFB7903F00403DBB21846FFF79CFFA7
:10338000FB7903F00803DBB21846FFF77BFFFB79FC
:1033900003F01003DBB21846FFF75AFF00BF0837EF
:1033A000BD4680BD80B483B000AF78607B681B6889
:1033B00043F001027B681A6000BF0C37BD465DF820
:1033C000047B704780B483B000AF78607B681B6873
:1033D00023F001027B681A6000BF0C37BD465DF820
:1033E000047B704780B483B000AF786039607B683D
:1033F0003A685A6200BF0C37BD465DF8047B7047DF
:1034000080B483B000AF786039607B681A6A3B682B
:103410001A437B681A6200BF0C37BD465DF8047B17
:10342000704780B483B000AF786039607B681A6AF7
:103430003B68DB431A407B681A6200BF0C37BD460D
:103440005DF8047B704780B483B000AF786039606A
:103450007B683A685A6300BF0C37BD465DF8047B51
:10346000704780B483B000AF786039607B683A6899
:103470009A6300BF0C37BD465DF8047B704780B48B
:1034800083B000AF78607B685B6C43F400427B687C
:103490005A6400BF0C37BD465DF8047B704780B4AA
:1034A00083B000AF786039607B683A689A6100BF8A
:1034B0000C37BD465DF8047B704780B483B000AF25
:1034C000786039603B681A047B689A6100BF0C37EA
:1034D000BD465DF8047B704780B582B000AF0346FF
:1034E000FB71FB79012B05D120210948FFF7D7FF9C
:1034F000012309E0FB79002B05D120210448FFF7C7
:10350000DCFF002300E0FF2318460837BD4680BDDE
:103510000008024080B582B000AF0120FFF7DCFF59
:103520000346FB71FB79012B32D101211A48FFF7C9
:10353000C4FF02211848FFF7B2FF4FF4804117483B
:10354000FFF7BBFF4FF400411448FFF7A8FF10211D
:103550004FF08040FFF754FF4FF08040FFF722FF0D
:1035600001210F48FFF74CFF0D48FFF71BFF01211A
:103570004FF08040FFF775FF01210948FFF763FF17
:103580004FF08040FFF77BFF0548FFF778FF00E032
:1035900000BF0837BD4680BD000402400000024065
:1035A0000000014080B483B000AF87ED010AC7ED91
:1035B000000AD7ED017AF5EEC07AF1EE10FA07DDD8
:1035C000164B4FF480329A61144B02229A6106E046
:1035D000124B01229A61114B4FF400329A61D7EDE0
:1035E000007AF5EEC07AF1EE10FA08DD0C4B4FF0E0
:1035F00080429A610A4B4FF400429A6107E0084BFF
:103600004FF480429A61064B4FF000429A6100BF2E
:103610000C37BD465DF8047B704700BF00040240D4
:103620000000024080B485B000AF87ED030AC7ED0B
:10363000020A87ED011AD7ED017AF5EEC07AF1EEB4
:1036400010FA05D5D7ED017AF1EE677AC7ED017A68
:1036500097ED017AD7ED037AB4EEE77AF1EE10FA3E
:1036600001DDFB680BE097ED017AD7ED027AB4EE4D
:10367000E77AF1EE10FA01D5BB6800E07B6807EE4F
:10368000903AB0EE670A1437BD465DF8047B704788
:1036900080B582B000AF87ED010AC7ED000AD7ED13
:1036A000000A97ED010AFFF77DFF97ED011ADFEDA4
:1036B0001D0A9FED1D0AFFF7B5FF87ED010A97ED83
:1036C000001ADFED180A9FED180AFFF7ABFF87ED30
:1036D000000AD7ED017A9FED157A67EE877AFCEE46
:1036E000E77A17EE901A1248FFF7ADFED7ED007A91
:1036F0009FED0E7A67EE877AFCEEE77A17EE901A66
:103700004FF08040FFF7ADFE00210948FFF76AFE49
:1037100000214FF08040FFF765FE00BF0837BD462F
:1037200080BD00BF00000000CDCC4C3E0000C64272
:103730000000014080B582B000AF0020FFF7CCFE52
:103740000346FB71FB79002B10D101210948FFF7DB
:1037500068FE10214FF08040FFF763FE0548FFF739
:1037600031FE4FF08040FFF72DFE00E000BF08372C
:10377000BD4680BD0000014080B485B000AF7860D8
:1037800039600023FB603B68002B03D17B684C331E
:10379000FB6001E0044BFB60FB6818461437BD4634
:1037A0005DF8047B704700BF0823014080B483B0FC
:1037B00000AF78607B689B6843F001027B689A6089
:1037C00000BF0C37BD465DF8047B704780B483B002
:1037D00000AF78607B689B6843F080427B689A60AA
:1037E00000BF0C37BD465DF8047B704780B483B0E2
:1037F00000AF78607B686FF002021A6000BF0C3780
:10380000BD465DF8047B704780B483B000AF78603C
:1038100039600C4A3B6813441B781A467B68134492
:103820001B6808493A680A44127811467A680A44C3
:1038300043F00103136000BF0C37BD465DF8047B05
:10384000704700BFCCCE000880B483B000AF786072
:1038500039600C4A3B6813441B781A467B68134452
:103860001B6808493A680A44127811467A680A4483
:1038700023F00103136000BF0C37BD465DF8047BE5
:10388000704700BFCCCE000880B485B000AFF860B0
:10389000B9607A600D4ABB6813441B781A46FB680E
:1038A00013445B681B0C1B040849BA680A4412786D
:1038B0001146FA680A4411467A6813434B6000BF08
:1038C0001437BD465DF8047B704700BFCCCE0008BE
:1038D00080B485B000AFF860B9607A603B60BB69C6
:1038E000402B14D1174ABB6813441B781A46FB6857
:1038F00013441A467B68D360124ABB6813441B7892
:103900001A46FB6813441A463B68936013E00D4A5D
:10391000BB6813441B781A46FB6813441A467B683D
:103920009360084ABB6813441B781A46FB6813442B
:103930001A463B68D36000BF1437BD465DF8047B70
:10394000704700BFCCCE000880B483B000AF786071
:1039500039600C4A3B6813441B781A467B68134451
:103960001B6808493A680A44127811467A680A4482
:1039700043F01003136000BF0C37BD465DF8047BB5
:10398000704700BFCCCE000880B582B002AF0021E6
:103990000F48FFF759FF00210E48FFF7EDFE0246E2
:1039A0000D49002300930B4600210948FFF790FFC3
:1039B000052200210648FFF767FF00210448FFF7B2
:1039C00023FF0448FFF702FF00BFBD4680BD00BFD4
:1039D0000064024000200140D004002080B483B085
:1039E00000AF0346FB71FB79012B03D1064B082284
:1039F0009A6103E0044B4FF400229A6100BF0C3738
:103A0000BD465DF8047B70470000024080B483B07F
:103A100000AF0346FB71FB79012B03D1064B042257
:103A20009A6103E0044B4FF480229A6100BF0C3787
:103A3000BD465DF8047B70470008024080B483B047
:103A400000AF0346FB71FB79012B03D1064B8022AB
:103A50009A6103E0044B4FF400029A6100BF0C37F7
:103A6000BD465DF8047B70470000024080B483B01F
:103A700000AF0346FB71FB79012B03D1064B0822F3
:103A80009A6103E0044B4FF400229A6100BF0C37A7
:103A9000BD465DF8047B70470008024080B483B0E7
:103AA00000AF0346FB71FB79012B03D1064B40228B
:103AB0009A6103E0044B4FF480029A6100BF0C3717
:103AC000BD465DF8047B70470000024090B583B0AE
:103AD00000AF0446084611461A462346FB710346CA
:103AE000BB710B467B7113463B71FB7903F00103FD
:103AF000DBB21846FFF7A2FFBB7903F00103DBB28C
:103B00001846FFF7CBFF7B7903F00103DBB21846C1
:103B1000FFF764FF3B7903F00103DBB21846FFF7C0
:103B2000A5FF3B7E03F00103DBB21846FFF76EFFF3
:103B300000BF0C37BD4690BD80B483B000AF0346D4
:103B4000FB71FB79044A32F8133018460C37BD4636
:103B50005DF8047B704700BFD004002080B500AF43
:103B600000210548FFF7F0FE0448FFF71FFEFFF7AE
:103B70000BFF00BF80BD00BF006402400020014079
:103B800080B500AF0348FFF731FEFFF7FDFE00BF31
:103B900080BD00BF0021014090B482B000AF044658
:103BA000084611461A462346FB710346BB710B4675
:103BB0007B7113463B71FB7903F00103D9B2124AC2
:103BC000537861F300035370BB7903F00103D9B25A
:103BD0000D4A537861F3410353707B7903F001037D
:103BE000D9B2094A537861F3C30353703B7903F0A8
:103BF0000103D9B2044A137861F3C303137000BF01
:103C00000837BD4690BC7047DC04002090B482B0F9
:103C100000AF0446084611461A462346FB71034688
:103C2000BB710B467B7113463B71FB7903F00103BB
:103C3000D9B2124A137861F304131370BB7903F0FD
:103C40000103D9B20D4A137861F3451313707B79E0
:103C500003F00103D9B2094A137861F38613137094
:103C60003B7903F00103D9B2044A137861F3C71317
:103C7000137000BF0837BD4690BC7047DC040020BD
:103C800080B485B000AF0346FB80FB88B3F5FA6FC4
:103C900001D3FB888EE0FB88FB81FB89484A52698F
:103CA00048492C2000FB03F30B441A60444B93ED6E
:103CB000017A454BD3ED007AFB8977EE277A414AAA
:103CC0002C2101FB03F313440433C3ED007AFB8979
:103CD0003B4A92693B492C2000FB03F30B44083319
:103CE0001A60FB89394A526936492C2000FB03F3DC
:103CF0000B440C331A60FB89344A526831492C203A
:103D000000FB03F30B4410331A60FB892F4A9269BE
:103D10002C492C2000FB03F30B4414331A60FB895D
:103D20002A4A126927492C2000FB03F30B4418335D
:103D30001A60FB89254A126822492C2000FB03F3F4
:103D40000B441C331A60224B5A8E214B9B8FD31A83
:103D50009AB2FB8910B21B4A2C2101FB03F31344D6
:103D6000203302461A801A4BDA8D194B1B8FD31A57
:103D70009AB2FB8910B2134A2C2101FB03F31344BE
:103D8000223302461A80FB89124A12680D492C2000
:103D900000FB03F30B4424331A60FB890E4A1268BC
:103DA00008492C2000FB03F30B4428331A60FB89DD
:103DB00001339BB218461437BD465DF8047B70474B
:103DC000AC040020E004002004020020880400204D
:103DD000F864012000020020FC01002080B483B0C0
:103DE00000AF0023BB7113E00023FB710AE0BA7936
:103DF000FB79324912010A441344F0221A70FB790C
:103E00000133FB71FB790F2BF1D9BB790133BB7106
:103E1000BB790F2BE8D90023BB7120E0BB79274A7F
:103E20001B0113441A78BB7962F00E02D1B2234A07
:103E30001B0113440A461A70BB79204A1B01134424
:103E40000F331A78BB7962F00B02D1B21B4A1B0107
:103E500013440F330A461A70BB790133BB71BB7927
:103E60000F2BDBD90023FB7119E0FB79134AD25CDD
:103E7000FB7962F00D02D1B2104AD154FB790F4A9E
:103E8000134493F8F020FB7962F00702D1B20B4A99
:103E900013440A4683F8F020FB790133FB71FB7968
:103EA0000F2BE2D9054BF7221A70044BF3225A70FC
:103EB00000BF0C37BD465DF8047B7047D05E012023
:103EC00090B484B000AF0346FB71FB798B4A9278C3
:103ED0001341DBB203F00F03FB73FB7B1B015AB2F0
:103EE00097F90F3013435BB2FB73844B5B78184632
:103EF000824B1B781946824A030113440B44FA7B18
:103F00001A707E4B5B780F2B39D0FB7B03F0880354
:103F1000002B1AD0794B5B780133784A127811461E
:103F2000774A1B0113440B441A78744B5B780133B6
:103F300072490978084642F02202D1B2704A1B0148
:103F4000134403440A461A7019E06C4B5B78013342
:103F50006A4A127811466A4A1B0113440B441A78C4
:103F6000664B5B78013365490978084622F02202E6
:103F7000D1B2634A1B01134403440A461A705F4BD3
:103F80001B780F2B39D0FB7B03F04403002B1AD096
:103F90005A4B5B781A46594B1B780133584912012A
:103FA0000A4413441A78554B5B781C46534B1B78D4
:103FB000013342F01102D0B2514922010A441344A4
:103FC00002461A7019E04D4B5B781A464B4B1B7832
:103FD00001334B4912010A4413441A78474B5B786A
:103FE0001C46464B1B78013322F01102D0B24449E3
:103FF00022010A44134402461A70404B5B78002B9E
:1040000039D0FB7B03F02203002B1AD03B4B5B78AB
:10401000013B3A4A12781146394A1B0113440B44BA
:104020001A78364B5B78013B34490978084662F0D0
:104030007702D1B2324A1B01134403440A461A7074
:1040400019E02E4B5B78013B2C4A127811462C4A22
:104050001B0113440B441A78284B5B78013B27491A
:104060000978084602F07702D1B2254A1B011344B1
:1040700003440A461A70214B1B78002B39D0FB7B76
:1040800003F01103002B1AD01C4B5B781A461B4B14
:104090001B78013B1A4912010A4413441A78174B42
:1040A0005B781C46154B1B78013B42F04402D0B2B2
:1040B000134922010A44134402461A7019E00F4BB7
:1040C0005B781A460D4B1B78013B0D4912010A44DF
:1040D00013441A78094B5B781C46084B1B78013B4C
:1040E00022F04402D0B2064922010A441344024697
:1040F0001A7000BF1037BD4690BC7047C85E0120E3
:10410000D05E012080B485B000AF0346FB71002370
:10411000BB7313E00023FB730AE0BA7BFB7B8D4982
:1041200012011344FF2221F81320FB7B0133FB73A0
:10413000FB7B0F2BF1D9BB7B0133BB73BB7B0F2BFD
:10414000E8D9FB79022B30D1834B5B780133824A6B
:10415000127811467F4A1B010B44002122F81310EC
:104160007D4B5B781A467C4B1B78013379491201F1
:104170001344002221F81320774B5B785A1C764BAE
:104180001B780133734912011344002221F81320D4
:10419000714B5B781846704B1B7819466D4A0301CA
:1041A0000B44002122F813100EE0FB79012B0BD1F8
:1041B000694B5B781846684B1B781946654A0301C2
:1041C0000B44002122F813100023BB810023FB7253
:1041D0000023BB73A1E00023FB7397E0BA7BFB7B5A
:1041E0005C491201134431F81330BA899A4240F005
:1041F0008A80BA7BFB7B594912010A4413441B781D
:10420000FB72574B1B7803F00203DBB2002B02D08A
:10421000FB7A1B09FB72FB7A03F00803002B18D111
:10422000BB7B0F2B15D0BB7B5A1CFB7B4949120172
:10423000134431F81330FF2B0BD1BB7B5A1CFB7B93
:10424000B989013188B2434912011344024621F869
:104250001320FB7A03F00403002B18D1FB7B0F2BF8
:1042600015D0BA7BFB7B01333A491201134431F874
:104270001330FF2B0BD1BA7BFB7B0133B9890131A2
:1042800088B2344912011344024621F81320FB7A04
:1042900003F00203002B18D1BB7B002B15D0BB7B96
:1042A0005A1EFB7B2B491201134431F81330FF2BAC
:1042B0000BD1BB7B5A1EFB7BB989013188B22549E2
:1042C00012011344024621F81320FB7A03F0010384
:1042D000002B18D1FB7B002B15D0BA7BFB7B013B5D
:1042E0001C491201134431F81330FF2B0BD1BA7B58
:1042F000FB7B013BB989013188B216491201134495
:10430000024621F81320FB7B0133FB73FB7B0F2B51
:104310007FF664AFBB7B0133BB73BB7B0F2B7FF698
:104320005AAFBB890133BB810E4B5B7818460D4BEE
:104330001B781946074A03010B4432F81330FF2B50
:104340003FF446AFBB8918461437BD465DF8047B81
:10435000704700BFA05C0120CC5E0120D05E012030
:10436000DC040020C85E012080B582B000AF0023CD
:10437000FB718D4B9B78BB70FB795A1CFA711A4606
:104380008A4BFF219954FB79FF2BF5D1864B5B7843
:104390001846854B1B781946854A03010B4432F8B1
:1043A00013307B71804B1B783B717F4B5B78FB70CC
:1043B0000023FB71FA783B797E4912010A441344C9
:1043C0001B78BB717C4B1B7803F00203DBB2002B24
:1043D00002D0BB791B09BB71BB7903F00403002B2E
:1043E00023D1FA783B79013371491201134431F832
:1043F00013207B799BB29A4217D26B4B9B78C3F107
:104400000103DAB2FB7902F00302D1B2674AD15458
:10441000FA783B79013366491201134431F81330BD
:104420007B713B7901333B7178E0BB7903F0080382
:10443000002B22D1FB785A1C3B795D4912011344B1
:1044400031F813207B799BB29A4216D2564B9B7857
:104450005B42DAB2FB7902F00302D1B2534AD15483
:10446000FB785A1C3B7952491201134431F813303E
:104470007B71FB780133FB7050E0BB7903F00203E2
:10448000002B23D1FB785A1E3B7949491201134472
:1044900031F813207B799BB29A4217D2424B9B781A
:1044A000C3F10203DAB2FB7902F00302D1B23F4A50
:1044B000D154FB785A1E3B793D491201134431F81F
:1044C00013307B71FB78013BFB7027E0BB7903F075
:1044D0000103002B22D1FA783B79013B34491201C8
:1044E000134431F813207B799BB29A4216D22E4B9B
:1044F0009B78C3F10303DAB2FB7902F00302D1B275
:104500002A4AD154FA783B79013B294912011344D4
:1045100031F813307B713B79013B3B71FB79234AC6
:10452000D35C032B27D801A252F823F03D450008A5
:10453000474500085745000867450008FB791B4AB6
:104540008821D1541CE0012000F096F8FB79174A2D
:104550004421D15414E0022000F08EF8FB79134A74
:104560002221D1540CE0FF2000F086F8FB790F4A9D
:104570001121D15404E0FB790C4A0021D15400BF31
:10458000FB790133FB71FA783B7909491201134435
:1045900031F81330002B7FF40DAF034ABB789370D2
:1045A00000BF0837BD4680BDC85E0120F45F012012
:1045B000A05C0120D05E0120DC04002080B582B028
:1045C00000AF03460A46FB711346BB71BB79184620
:1045D000FFF776FC0B4B5B881A460B4B9A5CBB795A
:1045E0001340DBB2002B08D0FB791846FFF78AFD99
:1045F000FFF7BAFE034B00225A8000BF0837BD46C2
:1046000080BD00BFC45E0120F45F012080B400AF14
:10461000184B9B78032B27D801A252F823F000BF38
:10462000314600083F4600084D4600085B4600083A
:10463000104B5B780133DAB20E4B5A7014E00D4B1D
:104640001B780133DAB20B4B1A700DE0094B5B7823
:10465000013BDAB2074B5A7006E0064B1B78013B70
:10466000DAB2044B1A7000BF00BFBD465DF8047B90
:10467000704700BFC85E012080B483B000AF03461E
:10468000FB71FB79002B0AD0084B9A78FB79134415
:10469000DBB203F00303DAB2044B9A7000E000BF10
:1046A0000C37BD465DF8047B704700BFC85E012033
:1046B00080B485B000AF0346FB710B46BB71134657
:1046C0007B71FB793B72BB797B727B79BB7207F1A3
:1046D0000C0307F108021268114619800233120C0C
:1046E0001A7000233A7B62F307037A7B62F30F238D
:1046F000BA7B62F3174318461437BD465DF8047B56
:104700007047000080B500AF144B1B7803F0040322
:10471000DBB2002B10D0FFF761FB0022002100204C
:10472000FFF7C6FF02460E4B11461970C2F3072170
:104730005970C2F307429A700A4B00221A80094B43
:1047400000225A800220FFF7DDFC03461A46054B83
:104750001A80FFF709FE00BF80BD00BFDC04002007
:10476000C85E0120C45E012080B582B000AFFEF7B4
:1047700051FD0023FB711AE00023BB7111E0FB79AE
:104780001A01BB7913441846FA79BB790C49120116
:104790000A4413441B781946FEF710FDBB79013318
:1047A000BB71BB790F2BEAD9FB790133FB71FB7924
:1047B0000F2BE1D900BF00BF0837BD4680BD00BF49
:1047C000D05E0120B0B582B000AF0023FB711CE0C9
:1047D0000023BB7113E0FB791A01BB791344FD7907
:1047E000BC791846FEF704FD034619460B4A2B0117
:1047F000134423440A461A70BB790133BB71BB7959
:104800000F2BE8D9FB790133FB71FB790F2BDFD933
:1048100000BF00BF0837BD46B0BD00BFD05E01205D
:1048200080B588B000AF87ED030AC7ED020A0346E2
:104830000A46FB711346BB715C4B1B69BB61FB797C
:1048400003F00103DBB2002201210120FFF7A4F9EC
:10485000564B1B68564A1360564B93ED057AD7EDBD
:10486000027A77EE677AC7ED057AD7ED057A67EEBB
:10487000A77AB6EE007A67EE876A4E4B93ED067A1A
:10488000C6EE877A9FED4C7A67EE877AC7ED077A96
:1048900097ED037AD7ED077AB4EEE77AF1EE10FAE6
:1048A00007D5D7ED037AB6EE007A67EE877AC7EDC3
:1048B000077AD7ED027AF0EEE77AC7ED027A0023A5
:1048C000002200210120FFF7A1F908E0BB79002BAD
:1048D00005D0012001F02AFF0346002B12D1334BF3
:1048E00093ED047AD7ED066AD7ED037A76EEA76AE0
:1048F000D7ED077A76EEE77AB4EEE77AF1EE10FAC2
:10490000E4D400E000BF2B4BD3ED057A97ED027A9B
:10491000B4EE677AF1EE10FA1DD0002300220121D7
:104920000020FFF773F916E0214BD3ED057A97EDE0
:10493000027AB4EEE77AF1EE10FA08DA012001F01B
:10494000F5FE0346002B06D0BB79002B03D0184A96
:10495000BB6853610DE0154B93ED047AD7ED066A01
:10496000D7ED037A76EEA77AB4EEE77AF1EE10FA95
:10497000DAD40023002200210020FFF747F90023AA
:10498000002200210120FFF707F9094ABB685361A3
:10499000D7ED027AF5EE407AF1EE10FA02D1C82096
:1049A000FEF74AFA00BF2037BD4680BD88040020CC
:1049B000AC0400201C04002000007A4480B588B0BC
:1049C00000AF87ED030AC7ED020A87ED011AC7EDB4
:1049D000001A784B1B697B6197ED027AD7ED017A5B
:1049E00077EE677AC7ED047A0023FB76D7ED047A79
:1049F00067EEA77AB6EE007A67EE876A6E4B93EDA4
:104A0000067AC6EE877A9FED6D7A67EE877AC7EDF4
:104A1000077AD7ED077AB2EE047A77EE877AC7ED98
:104A2000077A674B4FF000025A60D7ED077A77EEAE
:104A3000A77A97ED037AB4EEE77AF1EE10FA08D48C
:104A4000D7ED037A9FED5F7AF4EEC77AF1EE10FAB4
:104A500007D5594A7B6853615B4B4FF000025A619E
:104A600008E0554ABB685361574B4FF000025A614A
:104A70000123FB760123002201210120FFF78CF89E
:104A80000023002200210120FFF7C0F8D7ED037AB0
:104A9000F5EEC07AF1EE10FA39DA86E0484B93ED84
:104AA000057A454BD3ED057AB4EE677AF1EE10FA4C
:104AB00027D197ED027AD7ED017A77EE677AC7EDC5
:104AC000047A97ED027AD7ED017A37EE277AD7ED9F
:104AD000047A67EE276A97ED007AC6EE877AB6EE1B
:104AE000007A67EE877A9FED357A67EE877AC7EDB1
:104AF000077AD7ED077AB2EE047A77EE877AC7EDB8
:104B0000077A012001F012FE0346002B12D1294B37
:104B100093ED047AD7ED056AD7ED037A76EEA76AAE
:104B2000D7ED077A76EEE77AB4EEE77AF1EE10FA8F
:104B3000B4D400E000BFFB7E012B1DD1224A7B686C
:104B400053610023002201210020FFF75FF813E0EA
:104B5000012001F0EBFD0346002B1CD1FB7E012B55
:104B60000AD1174B93ED057A174BD3ED057AB4EEC6
:104B7000677AF1EE10FA10D00E4B93ED047AD7ED70
:104B8000056AD7ED037A76EEA77AB4EEE77AF1EE0E
:104B900010FADDD402E000BF00E000BF064A7B68E7
:104BA0005361094B4FF000025A6100BF2037BD46E8
:104BB00080BD00BF880400201C04002000007A444F
:104BC000AC040020000087436404002000000000C3
:104BD000B0B586B000AF87ED030AC7ED020A87EDD6
:104BE000011A714B1B687B61D7ED027A67EEA77AD9
:104BF00017EE900AFBF7A8FC4FF000026B4BFBF797
:104C0000FBFC02460B4614461D467868FBF79CFCED
:104C100002460B4620462946FBF718FE02460B4685
:104C2000104619465EA3D3E90023FBF7E5FC0246D4
:104C30000B4610461946FBF7B7FF03463B610023BE
:104C4000002201210120FEF7A7FF594B4FF000027F
:104C50005A60574A7B689360564ABB685360D7EDE9
:104C6000027AF1EE677A544BC3ED017AD7ED037AFD
:104C7000F5EEC07AF1EE10FA36DD002301220021B4
:104C80000120FEF7C3FF00BF474B93ED007AD7ED3D
:104C9000056AD7ED037A76EEA76AD7ED047A76EE49
:104CA000E77AB4EEE77AF1EE10FAEDD401230022B0
:104CB00000210120FEF7AAFF07E03D4BD3ED017A6A
:104CC000F5EEC07AF1EE10FA4CD9374B93ED007A3D
:104CD000D7ED056AD7ED037A76EEA77AB4EEE77AD8
:104CE000F1EE10FAE9D440E0D7ED037AF5EEC07AA0
:104CF000F1EE10FA39D50123002200210120FEF740
:104D000085FF00BF284B93ED007AD7ED056AD7EDFC
:104D1000037A76EEA76AD7ED047A76EEA77AB4EE38
:104D2000E77AF1EE10FAEDDC0023012200210120E8
:104D3000FEF76CFF07E01E4BD3ED017AF5EEC07A6B
:104D4000F1EE10FA10DA184B93ED007AD7ED056A00
:104D5000D7ED037A76EEA77AB4EEE77AF1EE10FAA1
:104D6000E9DC02E000BF00E000BF002300220021D8
:104D70000120FEF74BFF0E4B93ED007AD7ED037A3F
:104D800077EE277A0A4BC3ED007A094B4FF0000209
:104D90005A6000BF1837BD46B0BD00BFAFF30080FA
:104DA00000000080D9A54C40880400200000E03FAE
:104DB000AC0400201C0400206404002080B584B0F2
:104DC00000AF87ED010A6A4B1B68BB60002300221D
:104DD00001210120FEF7E0FE664B93ED017A654B61
:104DE000D3ED017A67EE277AB6EE007A67EE876A2E
:104DF000604B93ED027AC6EE877A9FED5F7A67EE9D
:104E0000877AC7ED037AD7ED017AF0EEE77A97ED6E
:104E1000037AB4EEE77AF1EE10FA09DDD7ED017A04
:104E2000F0EEE77AB6EE007A67EE877AC7ED037A9E
:104E3000524B4FF000025A61504B4FF000025A6043
:104E4000D7ED017AF5EEC07AF1EE10FA3CDD0023E1
:104E5000012200210020FEF7D9FE00BF444B93ED54
:104E6000007AD7ED026AD7ED017A76EEA76AD7ED20
:104E7000037A76EEE77AB4EEE77AF1EE10FAEDD443
:104E80000123002200210020FEF7C0FE0DE03B4B75
:104E9000D3ED017AF5EEC07AF1EE10FA00D904E014
:104EA000364B4FF000025A604AE0314B93ED007AE6
:104EB000D7ED026AD7ED017A76EEA77AB4EEE77AFB
:104EC000F1EE10FAE3D43BE00123002200210020A0
:104ED000FEF79CFE00BF264B93ED007AD7ED026AE9
:104EE000D7ED017A76EEA76AD7ED037A76EEA77A48
:104EF000B4EEE77AF1EE10FAEDDC00230122002196
:104F00000020FEF783FE0DE01C4BD3ED017AF5EE99
:104F1000C07AF1EE10FA00DA04E0184B4FF000020C
:104F20005A600DE0124B93ED007AD7ED026AD7ED8F
:104F3000017A76EEA77AB4EEE77AF1EE10FAE3DCC6
:104F40000023002200210020FEF760FE0B4B4FF0F3
:104F500000025A60094B93ED007AD7ED017A77EEA3
:104F6000277A064BC3ED007A00BF1037BD4680BDDF
:104F7000880400201C040020CC2E6542AC040020D4
:104F800080B586B000AF87ED030AC7ED020A87ED52
:104F9000011A754B1B683B6100230022012101208F
:104FA000FEF7FAFDD7ED027A67EEA77AB6EE007A41
:104FB00067EE876A97ED017AC6EE877A9FED6B7A86
:104FC00067EE877AC7ED057AD7ED037AF0EEE77AD8
:104FD00097ED057AB4EEE77AF1EE10FA09DDD7ED38
:104FE000037AF0EEE77AB6EE007A67EE877AC7EDDD
:104FF000057A5F4B4FF000025A60D7ED037AF5EE69
:10500000C07AF1EE10FA06DD5A4ABB685360584A7E
:105010007B68936010E0D7ED037AF5EEC07AF1EE8D
:1050200010FA09D5D7ED027AF1EE677A524BC3ED4B
:10503000017A4F4A7B689360D7ED037AF5EEC07A28
:10504000F1EE10FA3CDD0023012200210120FEF7E1
:10505000DDFD00BF444B93ED007AD7ED046AD7ED38
:10506000037A76EEA76AD7ED057A76EEE77AB4EEA4
:10507000E77AF1EE10FAEDD401230022002101209D
:10508000FEF7C4FD0DE03A4BD3ED017AF5EEC07AA0
:10509000F1EE10FA00D904E0354B4FF000025A60EF
:1050A0004AE0314B93ED007AD7ED046AD7ED037AED
:1050B00076EEA77AB4EEE77AF1EE10FAE3D43BE0AD
:1050C0000123002200210120FEF7A0FD00BF264B96
:1050D00093ED007AD7ED046AD7ED037A76EEA76AEE
:1050E000D7ED057A76EEA77AB4EEE77AF1EE10FA0C
:1050F000EDDC0023012200210120FEF787FD0DE0F9
:105100001B4BD3ED017AF5EEC07AF1EE10FA00DA1E
:1051100004E0174B4FF000025A600DE0124B93ED84
:10512000007AD7ED046AD7ED037A76EEA77AB4EE6B
:10513000E77AF1EE10FAE3DC0023002200210120DF
:10514000FEF764FD0A4B4FF000025A60084B93EDE6
:10515000007AD7ED037A77EE277A054BC3ED007A14
:1051600000BF1837BD4680BD88040020CC2E6542A4
:10517000AC0400201C0400206404002080B582B030
:1051800000AF03460A46FB711346BB710C4BD3EDCF
:10519000057AFB7901211846F0EE670A9FED090AAE
:1051A000FFF73EFBBB7903F00103002B03D001F0B6
:1051B00085F9034600E0002318460837BD4680BD48
:1051C0001C0400200000B44280B582B000AF03464A
:1051D000FB71FB7900211846DFED040A9FED040AFC
:1051E000FFF71EFB00BF0837BD4680BD0000000072
:1051F0000000B44280B584B000AF0346FB710023C9
:10520000FB73FB7903F00103DBB200211846FFF7C3
:10521000B5FFFB7903F00103DBB201211846FFF76C
:10522000ADFF0346FB73FB7B18461037BD4680BDC0
:1052300080B500AF0D4A537843F01003537000233C
:10524000002200210020FEF7A7FC4FF47A70FDF742
:10525000F3FD064A53786FF30413537000230022C2
:1052600001210120FEF798FC00BF80BDDC04002076
:1052700080B500AF9FED040AFFF7A0FD6420FDF7A5
:10528000DBFD00BF80BD00BF000034C380B582B02D
:1052900000AF0023FB71204A53786FF382035370F1
:1052A0001E4B1B68D3ED177A1D4B93ED057A002139
:1052B0000020F0EE470AB0EE670AFFF7B1FA174B8D
:1052C0001B68D3ED157A154B1B6893ED167AB0EE7B
:1052D000471AF0EE670A9FED130AFFF751FE0E4AD8
:1052E000537843F0040353700C4B1B68D3ED187ACA
:1052F0000B4B93ED057A01210020F0EE470AB0EE4A
:10530000670AFFF78DFA01F0D9F80346FB71FB79C4
:1053100018460837BD4680BDDC040020C8020020C6
:105320001C0400200000B4C280B582B000AF00238E
:10533000FB71204A53786FF3820353701E4B1B6836
:10534000D3ED177A1D4B93ED057A00210020F0EE86
:10535000470AB0EE670AFFF763FA174B1B68D3EDF5
:10536000157A154B1B6893ED167AB0EE471AF0EEDE
:10537000670A9FED130AFFF703FE0E4A537843F0C6
:10538000040353700C4B1B68D3ED187A0B4B93ED51
:10539000057A01210020F0EE470AB0EE670AFFF718
:1053A0003FFA01F08BF80346FB71FB79184608378A
:1053B000BD4680BDDC040020C80200201C04002083
:1053C0000000B44280B586B000AF87ED010A384BCB
:1053D0001B697B61374B5B693B6100230022002125
:1053E0000120FEF7D9FB334B93ED067ADFED326AED
:1053F000C6EE877A9FED317A67EE877AC7ED037A3A
:105400000023002201210020FEF700FC00BF284BF2
:1054100093ED047AD7ED056AD7ED017A76EEE76A67
:10542000D7ED037A76EEA77AB4EEE77AF1EE10FACA
:10543000EDDC0023002200210120FEF7E7FB0DE058
:105440001F4BD3ED057AF5EEC07AF1EE10FA00DAD3
:1054500004E01B4B4FF000025A610DE0144B93ED3A
:10546000047AD7ED056AD7ED017A76EEE77AB4EEE5
:10547000E77AF1EE10FAE3DC00230022002100209D
:10548000FEF7C4FB0023002200210120FEF784FB6D
:105490000B4B4FF000025A61064A3B6953614FF4CF
:1054A000FA70FDF7C9FC00BF1837BD4680BD00BFCC
:1054B000880400201C0400200BD7A33C00007A4481
:1054C000AC04002080B500AF204A537843F00403B9
:1054D00053701F4B1B68D3ED1E7A1D4B1B6893ED59
:1054E0000E7A01210120F0EE470AB0EE670AFFF7BD
:1054F00097F9164A53786FF382035370144B1B6865
:10550000D3ED1C7A124B1B6893ED1D7AB0EE471A4F
:10551000F0EE670A9FED0F0AFFF75AFB0B4A53782C
:1055200043F0040353700A4B1B68D3ED1F7A084BFA
:105530001B6893ED0E7A01210120F0EE470AB0EED0
:10554000670AFFF76DF900BF80BD00BFDC040020D3
:10555000C80200200000B4C280B500AF204A5378D2
:1055600043F0040353701F4B1B68D3ED1E7A1D4B91
:105570001B6893ED0E7A01210120F0EE470AB0EE90
:10558000670AFFF74DF9164A53786FF38203537099
:10559000144B1B68D3ED1C7A124B1B6893ED1D7ADC
:1055A000B0EE471AF0EE670A9FED0F0AFFF710FB07
:1055B0000B4A537843F0040353700A4B1B68D3ED36
:1055C0001F7A084B1B6893ED0E7A01210120F0EE43
:1055D000470AB0EE670AFFF723F900BF80BD00BF9E
:1055E000DC040020C80200200000B44280B500AFF7
:1055F000204A537843F0040353701F4B1B68D3EDCC
:10560000257A1D4B1B6893ED0E7A01210120F0EEE7
:10561000470AB0EE670AFFF703F9164A53786FF3AB
:1056200082035370144B1B68D3ED237A124B1B6813
:1056300093ED1D7AB0EE471AF0EE670A9FED0F0A60
:10564000FFF7C6FA0B4A537843F0040353700A4B32
:105650001B68D3ED267A084B1B6893ED0E7A012167
:105660000120F0EE470AB0EE670AFFF7D9F800BF55
:1056700080BD00BFDC040020C8020020000034C34D
:1056800080B500AF204A537843F0040353701F4B9A
:105690001B68D3ED257A1D4B1B6893ED0E7A012113
:1056A0000120F0EE470AB0EE670AFFF7B9F8164A94
:1056B00053786FF382035370144B1B68D3ED237A36
:1056C000124B1B6893ED1D7AB0EE471AF0EE670A95
:1056D0009FED0F0AFFF77CFA0B4A537843F004035F
:1056E00053700A4B1B68D3ED267A084B1B6893ED69
:1056F0000E7A01210120F0EE470AB0EE670AFFF7AB
:105700008FF800BF80BD00BFDC040020C80200206D
:105710000000344380B500AF64214FF4C460FDF74E
:105720004FFC642140F62D00FDF74AFC642140F651
:105730002D10FDF745FC642140F64D20FDF740FC9F
:10574000642140F62D10FDF73BFC3220FDF774FB81
:10575000322140F62D00FDF733FC3220FDF76CFBC3
:10576000C82140F62D00FDF72BFC00BF80BD80B5A1
:1057700000AF642140F2BA20FDF722FC0A20FDF7B9
:105780005BFB4FF4167140F2BA20FDF719FC4FF4A1
:10579000C87140F21640FDF713FCC82140F2964054
:1057A000FDF70EFC4FF416714FF46970FDF708FC1D
:1057B00000BF80BD80B500AF4FF496714FF4C46058
:1057C000FDF7FEFB4FF4967140F27550FDF7F8FBC4
:1057D0004FF4967140F22650FDF7F2FB00BF80BDFA
:1057E00080B500AF642140F62D10FDF7E9FB642180
:1057F0004FF4DC60FDF7E4FB0A20FDF71DFBC82138
:105800004FF4DC60FDF7DCFB3220FDF715FB642173
:1058100040F62D10FDF7D4FB64214FF4DC60FDF75A
:10582000CFFB0A20FDF708FBC8214FF4DC60FDF731
:10583000C7FB3220FDF700FB642140F62D10FDF779
:10584000BFFB642140F62D00FDF7BAFB642140F652
:105850002D10FDF7B5FB642140F62D00FDF7B0FBE0
:10586000C8214FF4DC60FDF7ABFB3220FDF7E4FA12
:1058700000BF80BD80B500AF642140F62D10FDF75C
:105880009FFB642140F64D20FDF79AFB642140F612
:105890002D10FDF795FB64214FF4DC60FDF790FBC4
:1058A000642140F62D10FDF78BFB4FF4C870FDF717
:1058B000C3FA642140F62D10FDF782FB642140F607
:1058C0004D20FDF77DFB642140F62D10FDF778FBA0
:1058D000642140F22650FDF773FB64214FF44460CD
:1058E000FDF76EFB642140F22650FDF769FB642151
:1058F00040F62D10FDF764FB642140F64D20FDF7C6
:105900005FFB642140F62D10FDF75AFB642140F641
:105910002D00FDF755FB64214FF4DC60FDF750FBD3
:1059200000BF80BD80B500AFC82140F29640FDF7B2
:1059300047FBC82140F27550FDF742FBC8214FF4E8
:10594000C460FDF73DFB642140F27550FDF738FB64
:1059500064214FF4C460FDF733FBC8214FF4DC60D1
:10596000FDF72EFBC82140F21640FDF729FBC821A8
:1059700040F29640FDF724FB00BF80BD80B500AF2C
:10598000642140F22650FDF71BFB0A20FDF754FA74
:10599000C82140F22650FDF713FB642140F27550F8
:1059A000FDF70EFBC82140F22650FDF709FBC82188
:1059B00040F21640FDF704FB4FF4C87140F27550F9
:1059C000FDF7FEFA4FF4C87140F22650FDF7F8FAE1
:1059D0004FF4C87140F29640FDF7F2FA00BF80BD67
:1059E00080B582B000AF0023FB805C4A137843F09F
:1059F00008031370594A537843F040035370584BCF
:105A0000012283F82020574BD3ED057A0121012094
:105A1000F0EE670A9FED540AFEF702FF81E0FB8873
:105A2000524AD356002B29DD00237B717B7918461F
:105A3000FDF78CFC494A137843F008031370FB8888
:105A40004A4AD35607EE903AF8EEE77A9FED487A45
:105A500067EE877A474B93ED057A464BD3ED0E6A96
:105A6000444B93ED066AF0EE461AB0EE661AF0EE7D
:105A7000470AB0EE670AFEF7A1FF4FE0FB883B4AFA
:105A8000D3560633052B45D801A252F823F000BFA8
:105A9000035B0008F15A0008DF5A0008CD5A0008DD
:105AA000BB5A0008A95A000810237B717B7918465D
:105AB000FDF74CFCFFF7EAFB30E001237B717B79BB
:105AC0001846FDF743FCFFF72FFC27E008237B7106
:105AD0007B791846FDF73AFCFFF7F4FC1EE0022341
