:020000040800F2
:100000000000022099790008376900083D6900085E
:1000100043690008496900084F69000800000000B2
:10002000000000000000000000000000556900080A
:100030006369000800000000716900087F6900081A
:10004000E9790008E9790008E9790008E979000808
:10005000E9790008E9790008E9790008E9790008F8
:10006000E9790008E9790008E9790008E9790008E8
:10007000E9790008E9790008E9790008E9790008D8
:10008000E9790008E9790008E9790008E9790008C8
:10009000E9790008E9790008E9790008E9790008B8
:1000A000E9790008E9790008E9790008E9790008A8
:1000B000E9790008E9790008E9790008E979000898
:1000C000E9790008E9790008E9790008E979000888
:1000D000E9790008E9790008E9790008E979000878
:1000E000E9790008E9790008E9790008E979000868
:1000F000E9790008E9790008E9790008E979000858
:10010000E9790008E97900088D690008E9790008B3
:10011000E9790008E9790008E9790008E979000837
:10012000B1690008E9790008E9790008E97900086F
:10013000E97900080000000000000000E9790008EB
:10014000E9790008E9790008E9790008E979000807
:10015000E9790008E9790008E9790008E9790008F7
:10016000E9790008E9790008E9790008E9790008E7
:10017000E9790008E97900080000000000000000AB
:08018000E9790008E9790008A3
:1001900010B5054C237833B9044B13B10448AFF3C1
:1001A00000800123237010BDDC010020000000004E
:1001B00034BB000808B5034B1BB103490348AFF338
:1001C000008008BD00000000E001002034BB0008F2
:1001D000034613F8012B002AFBD1181A0138704787
:1001E00001F0FF01102A2BDB10F0070F08D010F8E8
:1001F000013B013A8B422DD010F0070F42B3F6D1EC
:10020000F0B441EA012141EA014122F007047FF004
:1002100000070023F0E80256083C85EA010586EA5B
:10022000010685FA47F5A3FA87F586FA47F6A5FA97
:1002300087F68EB9EED1F0BC01F0FF0102F00702A3
:1002400032B110F8013B013A83EA010313B1F8D14E
:100250000020704701387047002D06BF354603382F
:10026000073815F0010F07D1013015F4807F02BF68
:10027000013015F4C03F0130F0BC0138704700BFB9
:1002800081F0004102E000BF83F0004330B54FEA47
:1002900041044FEA430594EA050F08BF90EA020FB4
:1002A0001FBF54EA000C55EA020C7FEA645C7FEA47
:1002B000655C00F0E2804FEA5454D4EB5555B8BF6A
:1002C0006D420CDD2C4480EA020281EA030382EADB
:1002D000000083EA010180EA020281EA0303362D6D
:1002E00088BF30BD11F0004F4FEA01314FF4801C40
:1002F0004CEA113102D0404261EB410113F0004F52
:100300004FEA03334CEA133302D0524263EB430308
:1003100094EA050F00F0A780A4F10104D5F1200EA6
:100320000DDB02FA0EFC22FA05F2801841F1000101
:1003300003FA0EF2801843FA05F359410EE0A5F1D5
:1003400020050EF1200E012A03FA0EFC28BF4CF006
:10035000020C43FA05F3C01851EBE37101F00045BC
:1003600007D54FF0000EDCF1000C7EEB00006EEBC9
:100370000101B1F5801F1BD3B1F5001F0CD3490853
:100380005FEA30004FEA3C0C04F101044FEA4452AA
:1003900012F5800F80F09A80BCF1004F08BF5FEA31
:1003A000500C50F1000041EB045141EA050130BD11
:1003B0005FEA4C0C404141EB0101013C28BFB1F523
:1003C000801FE9D291F0000F04BF01460020B1FA6E
:1003D00081F308BF2033A3F10B03B3F120020CDA41
:1003E0000C3208DD02F1140CC2F10C0201FA0CF01F
:1003F00021FA02F10CE002F11402D8BFC2F1200C84
:1004000001FA02F120FA0CFCDCBF41EA0C01904039
:10041000E41AA2BF01EB0451294330BD6FEA040482
:100420001F3C1CDA0C340EDC04F11404C4F120026D
:1004300020FA04F001FA02F340EA030021FA04F37F
:1004400045EA030130BDC4F10C04C4F1200220FAD6
:1004500002F001FA04F340EA0300294630BD21FA14
:1004600004F0294630BD94F0000F83F4801306BFDA
:1004700081F480110134013D4EE77FEA645C18BFCE
:100480007FEA655C29D094EA050F08BF90EA020F65
:1004900005D054EA000C04BF1946104630BD91EA5D
:1004A000030F1EBF0021002030BD5FEA545C05D160
:1004B0004000494128BF41F0004130BD14F580049F
:1004C0003CBF01F5801130BD01F0004545F0FE4113
:1004D00041F470014FF0000030BD7FEA645C1ABF48
:1004E000194610467FEA655C1CBF0B46024650EA7F
:1004F000013406BF52EA033591EA030F41F40021AB
:1005000030BD00BF90F0000F04BF0021704730B530
:100510004FF4806404F132044FF000054FF0000105
:1005200050E700BF90F0000F04BF0021704730B5C6
:100530004FF4806404F1320410F0004548BF40429B
:100540004FF000013EE700BF42004FEAE2014FEAF0
:1005500031014FEA02701FBF12F07F4393F07F4FCB
:1005600081F06051704732F07F4208BF704793F0CE
:100570007F4F04BF41F40021704730B54FF46074E1
:1005800001F0004521F000411CE700BF50EA0102E4
:1005900008BF704730B54FF000050AE050EA01028D
:1005A00008BF704730B511F0004502D5404261EBFD
:1005B00041014FF4806404F132045FEA915C3FF43E
:1005C000D8AE4FF003025FEADC0C18BF03325FEADB
:1005D000DC0C18BF033202EBDC02C2F1200300FA8C
:1005E00003FC20FA02F001FA03FE40EA0E0021FAB1
:1005F00002F11444BDE600BF70B54FF0FF0C4CF49F
:10060000E06C1CEA11541DBF1CEA135594EA0C0F50
:1006100095EA0C0F00F0DEF82C4481EA030621EA8B
:100620004C5123EA4C5350EA013518BF52EA0335C6
:1006300041F4801143F4801338D0A0FB02CE4FF078
:100640000005E1FB02E506F00042E0FB03E54FF0A8
:100650000006E1FB03569CF0000F18BF4EF0010EA0
:10066000A4F1FF04B6F5007F64F5407404D25FEA9C
:100670004E0E6D4146EB060642EAC62141EA55514F
:100680004FEAC52040EA5E504FEACE2EB4F1FD0C91
:1006900088BFBCF5E06F1ED8BEF1004F08BF5FEA0F
:1006A000500E50F1000041EB045170BD06F00046C1
:1006B00046EA010140EA020081EA0301B4EB5C046E
:1006C000C2BFD4EB0C0541EA045170BD41F4801166
:1006D0004FF0000E013C00F3AB8014F1360FDEBF8B
:1006E000002001F0004170BDC4F10004203C35DA67
:1006F0000C341BDC04F11404C4F1200500FA05F3EA
:1007000020FA04F001FA05F240EA020001F000428A
:1007100021F0004110EBD37021FA04F642EB060100
:100720005EEA430E08BF20EAD37070BDC4F10C042A
:10073000C4F1200500FA04F320FA05F001FA04F2EE
:1007400040EA020001F0004110EBD37041F10001DA
:100750005EEA430E08BF20EAD37070BDC4F12005E5
:1007600000FA05F24EEA020E20FA04F301FA05F24D
:1007700043EA020321FA04F001F0004121FA04F2F5
:1007800020EA020000EBD3705EEA430E08BF20EAC5
:10079000D37070BD94F0000F0FD101F000464000FF
:1007A00041EB010111F4801F08BF013CF7D041EA81
:1007B000060195F0000F18BF704703F00046520085
:1007C00043EB030313F4801F08BF013DF7D043EA56
:1007D0000603704794EA0C0F0CEA135518BF95EA0C
:1007E0000C0F0CD050EA410618BF52EA4306D1D193
:1007F00081EA030101F000414FF0000070BD50EAB2
:10080000410606BF1046194652EA430619D094EA3B
:100810000C0F02D150EA013613D195EA0C0F05D125
:1008200052EA03361CBF104619460AD181EA030179
:1008300001F0004141F0FE4141F470014FF0000031
:1008400070BD41F0FE4141F4780170BD70B54FF0CC
:10085000FF0C4CF4E06C1CEA11541DBF1CEA13554C
:1008600094EA0C0F95EA0C0F00F0A7F8A4EB05042E
:1008700081EA030E52EA03354FEA013100F0888025
:100880004FEA03334FF0805545EA131343EA1263EE
:100890004FEA022245EA111545EA10654FEA0026A3
:1008A0000EF000419D4208BF964244F1FD0404F55C
:1008B000407402D25B084FEA3202B61A65EB0305B8
:1008C0005B084FEA32024FF480104FF4002CB6EB75
:1008D000020E75EB030E22BFB61A754640EA0C00F5
:1008E0005B084FEA3202B6EB020E75EB030E22BF35
:1008F000B61A754640EA5C005B084FEA3202B6EB76
:10090000020E75EB030E22BFB61A754640EA9C0034
:100910005B084FEA3202B6EB020E75EB030E22BF04
:10092000B61A754640EADC0055EA060E18D04FEAC2
:10093000051545EA16754FEA06164FEAC30343EA62
:1009400052734FEAC2025FEA1C1CC0D111F4801F2F
:100950000BD141EA00014FF000004FF0004CB6E728
:1009600011F4801F04BF01430020B4F1FD0C88BFC7
:10097000BCF5E06F3FF6AFAEB5EB030C04BFB6EBD2
:10098000020C5FEA500C50F1000041EB045170BDC5
:100990000EF0004E4EEA113114EB5C04C2BFD4EBF2
:1009A0000C0541EA045170BD41F480114FF0000E76
:1009B000013C90E645EA060E8DE60CEA135594EAF2
:1009C0000C0F08BF95EA0C0F3FF43BAF94EA0C0FF5
:1009D0000AD150EA01347FF434AF95EA0C0F7FF46A
:1009E00025AF104619462CE795EA0C0F06D152EABE
:1009F00003353FF4FDAE1046194622E750EA4106A2
:100A000018BF52EA43067FF4C5AE50EA41047FF4B2
:100A10000DAF52EA43057FF4EBAE12E74FF0FF3C17
:100A200006E000BF4FF0010C02E000BF4FF0010CE8
:100A30004DF804CD4FEA410C7FEA6C5C4FEA430C61
:100A400018BF7FEA6C5C1BD001B050EA410C0CBFB0
:100A500052EA430C91EA030F02BF90EA020F002012
:100A6000704710F1000F91EA030F58BF994208BF79
:100A700090422CBFD8176FEAE37040F00100704736
:100A80004FEA410C7FEA6C5C02D150EA013C07D18D
:100A90004FEA430C7FEA6C5CD6D152EA033CD3D0D8
:100AA0005DF8040B704700BF8446104662468C46D2
:100AB0001946634600E000BF01B5FFF7B7FF002805
:100AC00048BF10F1000F01BD4DF808EDFFF7F4FF2E
:100AD0000CBF012000205DF808FB00BF4DF808EDB9
:100AE000FFF7EAFF34BF012000205DF808FB00BFDC
:100AF0004DF808EDFFF7E0FF94BF012000205DF8FE
:100B000008FB00BF4DF808EDFFF7CEFF94BF0120B2
:100B100000205DF808FB00BF4DF808EDFFF7C4FFAB
:100B200034BF012000205DF808FB00BF4FEA410CF4
:100B30007FEA6C5C02D150EA013C0AD14FEA430CD7
:100B40007FEA6C5C02D152EA033C02D14FF0000014
:100B500070474FF0010070474FEA410212F5001252
:100B600015D211D56FF47873B3EB625212D94FEAF4
:100B7000C12343F0004343EA505311F0004F23FADE
:100B800002F018BF404270474FF00000704750EA33
:100B9000013005D111F0004008BF6FF000407047F0
:100BA0004FF00000704700BF4FEA4102B2F1E0434E
:100BB00024BFB3F5001CDCF1FE5C0DD901F0004C44
:100BC0004FEAC0024CEA5070B2F1004F40EB830094
:100BD00008BF20F00100704711F0804F21D113F1C0
:100BE0003872BCBF01F00040704741F480114FEAF9
:100BF0005252C2F11802C2F1200C10FA0CF320FA82
:100C000002F018BF40F001004FEAC1234FEAD3239E
:100C100003FA0CFC40EA0C0023FA02F34FEA430308
:100C2000CCE77FEA625307D150EA01331EBF4FF091
:100C3000FE4040F44000704701F0004040F0FE40AC
:100C400040F40000704700BF53B94AB9002908BFFB
:100C500000281CBF4FF0FF314FF0FF3000F06EB99D
:100C6000ADF1080C6DE904CE00F006F8DDF804E003
:100C7000DDE9022304B070472DE9F047089D0446E2
:100C80008C46002B40F083808A42174647D9B2FA3F
:100C900082F242B1C2F1200024FA00F09140974064
:100CA00040EA010C94404FEA1748230CBCFBF8F6CD
:100CB0001FFA87FE08FB16C143EA014306FB0EF14B
:100CC000994209D9FB1806F1FF3080F01981994249
:100CD00040F21681023E3B445B1AA4B2B3FBF8F02B
:100CE00008FB103344EA034400FB0EFEA64509D975
:100CF0003C1900F1FF3380F00581A64540F20281E6
:100D000002383C4440EA0640A4EB0E0400261DB124
:100D1000D4400023C5E900433146BDE8F08702B95D
:100D2000FFDEB2FA82F2002A50D1CB1B4FEA174EF7
:100D30001FFA87F80126B3FBFEFC210C0EFB1C33C7
:100D400041EA034108FB0CF38B4207D979180CF1F7
:100D5000FF3002D28B4200F2E9808446C91AA3B266
:100D6000B1FBFEF00EFB101143EA014408FB00F852
:100D7000A04507D93C1900F1FF3302D2A04500F28B
:100D8000D9801846A4EB080440EA0C40BFE78B4228
:100D900009D9002D00F0B1800026C5E900013046D8
:100DA0003146BDE8F087B3FA83F6002E4AD18B4274
:100DB00002D3824200F2B880841A61EB0301012061
:100DC0008C46002DA8D0C5E9004CA5E7C2F1200350
:100DD00020FA03F6974001FA02F04FEA174ED94085
:100DE0003043030CB1FBFEF61FFA87F80EFB161119
:100DF00043EA014306FB08F1994204FA02F409D9D7
:100E0000FB1806F1FF3C80F08D80994240F28A8009
:100E1000023E3B445B1A81B2B3FBFEF00EFB103383
:100E200041EA034100FB08F38B4207D9791800F12E
:100E3000FF3C73D28B4271D902383944CB1A40EA55
:100E4000064678E7C6F1200C03FA06F422FA0CF302
:100E50001C4320FA0CF701FA06F34FEA144E21FA6C
:100E60000CF11F433B0CB1FBFEF91FFA84F80EFB9B
:100E7000191143EA014109FB08FA8A4502FA06F210
:100E800000FA06F308D9611809F1FF3048D28A4503
:100E900046D9A9F102092144A1EB0A01BFB2B1FB75
:100EA000FEF00EFB101147EA014700FB08F8B845B9
:100EB00007D9E71900F1FF312ED2B8452CD90238F5
:100EC000274440EA0940A7EB0807A0FB02894F45E9
:100ED000C64649461AD317D05DB1B3EB0E0267EB95
:100EE000010707FA0CFCF2404CEA0202F740C5E9A0
:100EF000002700263146BDE8F0872E4628460BE73E
:100F00000646E9E61846FDE64345E5D2B8EB020E93
:100F100069EB04010138DFE70846D2E760468DE758
:100F20008146B9E7664675E730464AE7ACF1020C00
:100F3000394413E702383C4424E700BF704700BF40
:100F400080B500AF174B5B7803F04003DBB2002B9A
:100F500025D004F05DFB01F079F9124B5B7803F0CA
:100F60000403DBB2002B01D000F08CF90E4B1B7890
:100F7000012B11D10D4B93F82030012B0CD10C4BD0
:100F80001B88184602F06EFD03461A46084B1A806D
:100F9000054B00221A7002E0034B01221A7000BFB9
:100FA00080BD00BFD8040020000000208404002081
:100FB000A002002080B582B000AF0346FB71FB7930
:100FC00019463E4808F094FBFB790E2B5CD801A231
:100FD00052F823F011100008191000082110000821
:100FE00029100008311000083910000841100008CD
:100FF000491000085110000859100008611000083D
:1010000069100008711000087910000881100008AC
:101010002B4808F06DFB37E02A4808F069FB33E005
:10102000294808F065FB2FE0284808F061FB2BE019
:10103000274808F05DFB27E0264808F059FB23E02D
:10104000254808F055FB1FE0234808F051FB1BE042
:10105000214808F04DFB17E01F4808F049FB13E05A
:101060001D4808F045FB0FE01B4808F041FB0BE072
:101070001A4808F03DFB07E0194808F039FB03E087
:10108000184808F035FB00BF0A2008F049FBFB793F
:10109000184602F04DF8FB799BB21A461201D31A9A
:1010A0009B009BB203F216439BB26421184601F0E9
:1010B00079FE00BF0837BD4680BD00BF50BB0008A9
:1010C0005CBB000868BB000878BB000888BB000850
:1010D0009CBB0008B8BB0008C8BB0008DCBB00080C
:1010E000E8BB0008F8BB000880B586B000AF00235D
:1010F000FB753E4A53786FF3861353703C4B0022C6
:101100005A623C4B00225A6201F098FE3A4808F0BD
:101110008BFB384B5B6A07EE903AF8EE677AC7EDC7
:10112000047A334B5B6A07EE903AF8EE677AC7EDC4
:10113000037A97ED047ADFED316AC7EE267AB3EED3
:10114000007A67EE877AFCEEE77AC7ED017A3B79A1
:10115000DAB22B4B1A7097ED037ADFED286AC7EEEF
:10116000267AB0EE087A67EE877AFCEEE77AC7ED6A
:10117000017A3B79FB75224B1A78224B1B78D31AE4
:10118000DAB2214B1A70204B1B78002B04D01C4B79
:101190001B781846FFF70EFF194B1A78194B1A7077
:1011A000FB7D022BB5D1642140F64D2001F0FAFD04
:1011B000642140F6EA2001F0F5FD64214FF444601B
:1011C00001F0F0FD01F04EFE094B00225A62094B7E
:1011D00000225A620A4B1B7819460C4808F088FA1C
:1011E000074B1B7818461837BD4680BDD804002031
:1011F00000040040000800400CBC000800008047CC
:10120000F801002001000020F901002024BC0008A2
:1012100080B500AF02F080F9164A537843F04003DE
:101220005370154808F000FB144B1B8E502BFBD954
:101230004FF4967140F2265001F0B4FD4FF49671D0
:1012400040F2755001F0AEFD4FF496714FF4C4605A
:1012500001F0A8FD4FF47A7001F0E0FC00BF054AF0
:1012600053786FF386135370054B4FF000021A60EA
:1012700000BF80BDD804002038BC0008F060012009
:101280008404002080B584B000AF294B93ED007A30
:10129000284BD3ED007A77EE677AC7ED027A244BBC
:1012A00093ED057A244BD3ED007A77EE677AC7ED9C
:1012B000017A1F4B93ED057A1F4BD3ED017A77EE40
:1012C000677AC7ED007A0023FB73D7ED027AF0EE60
:1012D000E77AB3EE0E7AF4EEC77AF1EE10FA01DD9A
:1012E0000223FB73D7ED007AF0EEE77AB0EE007AD6
:1012F000F4EEC77AF1EE10FA01DD0323FB73D7EDAC
:10130000017AF0EEE77AB0EE007AF4EEC77AF1EE09
:1013100010FA01DD0423FB73FB7B002B03D0FB7B66
:10132000184600F00BF800BF1037BD4680BD00BF67
:10133000A804002084040020F0600120F0B585B0EE
:1013400002AF0346FB7102F0E7F801F05BFC0020FE
:1013500001F0EEFE00230093002300220021002074
:1013600002F0A6FA4FF4FA7001F058FC03F0FCFD0D
:10137000FE790D4B1B681846FFF7E6F804460D464C
:101380000A4B1B681846FFF7DFF802460B46CDE90B
:10139000002322462B463146054808F0A9F94FF4B0
:1013A0007A7001F03BFCE3E7A804002084040020ED
:1013B00044BC000880B500AF0A4A53786FF382033B
:1013C000537003F02FFC084B4FF000021A60074BDC
:1013D0004FF000021A60034A537843F0040353703D
:1013E00000BF80BDD804002084040020A804002091
:1013F00080B400AF134B1B7803F00403DBB2002B67
:101400001AD0104A13786FF3C30313700E4B4FF0CA
:1014100000021A610B4A53786FF3820353700B4B2F
:101420004FF000021A60084B4FF000021A60054AA4
:10143000537843F00403537000BFBD465DF8047B4E
:10144000704700BFD804002084040020A8040020B6
:1014500080B584B000AF0346FB7100237B7300238B
:10146000BB7303F041F8FFF7C3FF6E4A537843F0B4
:10147000400353706C4B012283F820206B4B9B8DF3
:10148000E62B03D8694B9B8DE62B04D9FFF792FF1F
:10149000022002F0E3FF664B1B78042B0DD1644B56
:1014A0005B78042B09D1634BD3ED057A0120F0EE74
:1014B000670AB3EE0E0A03F0A5F80121012003F03C
:1014C00037FB0346FB7302F093FF5B4B5B880133F2
:1014D0009AB2594B5A80FA7BFB791146184602F0B2
:1014E0005FFF554B5B881A46544B9B5C882B0AD098
:1014F000882B55DC442B0ED0442B51DC112B44D0CF
:10150000222B13D04CE0012003F04EFB0346FB736B
:1015100000237B7344E003F093FB0346FB7301233A
:101520007B737B7B184602F099FF39E0012003F0C2
:1015300025FB3E4B9B8DE62B07D93C4B9B8DE62B29
:1015400003D90123BB7303F04DFBFFF733FFBB7BD4
:10155000012B0DD1B3EE0E0A03F0CAFB354BD3EDD0
:10156000057A0120F0EE670AB3EE0E0A03F04AF89E
:1015700002237B737B7B184602F070FF0121012060
:1015800003F0D6FA0346FB730AE003F085FB03463B
:10159000FB73FF237B737B7B184602F05FFF00BF6A
:1015A000254B5B8801339AB2234B5A8002F020FF0F
:1015B000FB7B184601F0BCFDFA7BFB79114618460F
:1015C00002F0EEFE1E4B1B781D4A5178FA79184640
:1015D00000F038F80346002B83D1012003F0CEFA47
:1015E000104A53786FF3861353700F4B002283F821
:1015F000202001F091FFC82001F010FB094B1B785F
:1016000003F00203DBB2002B01D102F09FFF054A79
:1016100013786FF38203137003F046FC00BF10379A
:10162000BD4680BDD804002084040020F060012065
:10163000C85E012018040020C05E0120F05F012078
:10164000C45E012080B485B000AF0346FB710B4639
:10165000BB7113467B710123FB730123BB73002312
:101660007B7300233B730023FB720023BB720023B8
:101670007B7200237B732EE0234B1A787B7B134411
:10168000BB72214B5A787B7B13447B72FA79BB7A0D
:101690009A4207D13B7B002B04D10023FB7301232B
:1016A0003B7304E03B7B002B01D10123FB73BA7930
:1016B0007B7A9A4207D1FB7A002B04D10023BB73BB
:1016C0000123FB7204E0FB7A002B01D10123BB73E1
:1016D0007B7B01337B737A7B7B799A42CCD3FB7B18
:1016E000002B09D1BB7B002B06D1084A13786FF37E
:1016F00082031370002300E0012318461437BD460F
:101700005DF8047B704700BFC85E0120D80400204C
:1017100080B487B000AF904B5B8E07EE903AB8EE86
:10172000E77A8E4BD3ED007A77EE677AC7ED037ACE
:10173000894BDB8D07EE903AB8EEE77A884BD3ED14
:10174000007A77EE677AC7ED027AD7ED037AF0EE8A
:10175000E77AB1EE087AF4EEC77AF1EE10FA02DD1C
:101760000A23FB8201E00023FB82D7ED027AF0EE30
:10177000E77AB1EE087AF4EEC77AF1EE10FA02DDFC
:101780000A23BB8201E00023BB82734B5B8E1A46A7
:10179000714B9B8FD31A07EE903AF8EEE77AC7EDBC
:1017A000017A6D4BDB8D1A466B4B1B8FD31A07EEFC
:1017B000903AF8EEE77AC7ED007A674B5B8E1A46EF
:1017C000FB8A1E339A4214DD634BDB8D1A46BB8ABB
:1017D00014339A420DDDD7ED007AB7EE087A27EE82
:1017E000877AD7ED017A77EE677A5E4BC3ED007AA0
:1017F00033E0594B5B8E1A46FB8A1E339A420BDC50
:10180000554BDB8D1A46BB8A14339A4204DC554B88
:101810004FF000021A6020E04F4B5B8E1A46FB8AA5
:101820001E339A4209DDD7ED017AB8EE007A67EEF1
:10183000877A4C4BC3ED007A0FE0474BDB8D1A469D
:10184000BB8A14339A4208DDD7ED007AB0EE087AED
:1018500067EE877A434BC3ED007A3F4B9B8EA3F52F
:101860008C723D4B9B8DA3F58273D31A07EE903A91
:10187000F8EEE77A3C4BC3ED007A374B9B8EA3F52D
:101880008C72354B9B8DA3F58273134407EE903A0F
:10189000F8EEE77A354BC3ED007A354B1B78092B10
:1018A0001ED82D4B5A8E324B1B7807EE902AF8EE3D
:1018B000677A2A4A9B001344C3ED007A264BD88DE1
:1018C0002B4B1B785A1CD1B2294A117007EE900A93
:1018D000F8EE677A224A9B001344C3ED007A34E0A5
:1018E000234B1B78092B30D900233B6118E03B695F
:1018F00001331A4A9B0013441A6818493B699B003C
:101900000B441A603B690133154A9B0013441A6863
:1019100013493B699B000B441A603B6901333B61EF
:101920003B69082BE3DD0C4B5B8E07EE903AF8EE3B
:10193000677A0A4BC3ED097A074BDB8D07EE903AC5
:10194000F8EE677A064BC3ED097A00BF1C37BD4637
:101950005DF8047B704700BFF060012008020020A2
:1019600030020020F4030020A4020020EC0200203A
:101970005802002080B483B000AF78607B6893ED9C
:10198000067A7B68D3ED036A7B68D3ED007A66EE56
:10199000A77A77EE277A7B68C3ED067A7B6893EDAA
:1019A000067A7B68D3ED077AB4EEE77AF1EE10FAA7
:1019B00004DD7B68DA697B689A6114E07B6893EDEB
:1019C000067A7B68D3ED077AF1EE677AB4EEE77AB0
:1019D000F1EE10FA07D57B68D3ED077AF1EE677A5E
:1019E0007B68C3ED067A7B6893ED027A7B68D3ED62
:1019F000007A27EE277A7B68D3ED046A7B6893ED43
:101A0000006A7B68D3ED017A76EE677A66EEA77A94
:101A100037EE277A7B68D3ED067A77EE277A7B68F4
:101A2000C3ED057A7B6893ED057A7B68D3ED087A80
:101A3000B4EEE77AF1EE10FA04DD7B681A6A7B688F
:101A40005A6114E07B6893ED057A7B68D3ED087AE0
:101A5000F1EE677AB4EEE77AF1EE10FA07D57B681B
:101A6000D3ED087AF1EE677A7B68C3ED057A7B687F
:101A70001A687B685A607B685B6907EE903AB0EE43
:101A8000670A0C37BD465DF8047B704780B483B0AD
:101A900000AF284B5B697B60274B1B7803F010037A
:101AA000DBB2002B0DD0254BD3ED067A9FED247AC7
:101AB00067EE877A97ED017A77EE277AC7ED017A9C
:101AC00013E01D4B1B7803F02003DBB2002B0CD07E
:101AD0001A4BD3ED067A9FED1A7A67EE877A97ED67
:101AE000017A77EE677AC7ED017A144BD3ED057A68
:101AF00097ED017AB4EEE77AF1EE10FA03DD0F4BC1
:101B00005B697B600CE00F4BD3ED057A97ED017AB2
:101B1000B4EEE77AF1EE10FA02D50A4B5B697B600E
:101B20007B6807EE903AB0EE670A0C37BD465DF869
:101B3000047B7047A8040020D8040020180400206B
:101B40006F12833A6004002080B483B000AF284B4A
:101B50005B687B60274B1B7803F04003DBB2002BF4
:101B60000DD0254BD3ED027A9FED247A67EE877A6C
:101B700097ED017A77EE277AC7ED017A13E01D4BD6
:101B80001B7823F07F03DBB2002B0CD01A4BD3ED74
:101B9000027A9FED1A7A67EE877A97ED017A77EEEF
:101BA000677AC7ED017A144BD3ED017A97ED017A8C
:101BB000B4EEE77AF1EE10FA03DD0F4B5B687B6061
:101BC0000CE00F4BD3ED017A97ED017AB4EEE77A92
:101BD000F1EE10FA02D50A4B5B687B607B6807EE7A
:101BE000903AB0EE670A0C37BD465DF8047B70474B
:101BF000A8040020D8040020180400206F12833AA3
:101C00006004002000000000B0B588B000AF87ED90
:101C1000010A594BBB6197ED067AD7ED017A67EE61
:101C2000277AC7ED057A554B93ED007AD7ED057A03
:101C300037EE277A524BD3ED007A77EE677AC7ED0D
:101C4000047A3869FEF780FC47A3D3E90023FEF746
:101C5000FDFD02460B461046194645A3D3E9002375
:101C6000FEF7CAFC02460B4614461D46454BD3ED13
:101C7000007A97ED047A77EE677A9FED437A67EE04
:101C8000877A17EE900AFEF75FFC02460B46204665
:101C90002946FEF7FBFA02460B4610461946FEF7A8
:101CA00083FF0346FB61374A3B691360374BD3ED33
:101CB000027A9FED377A67EE877AC7ED037A354B64
:101CC000D3ED007A97ED077A77EE677AC7ED027A5F
:101CD00097ED027AD7ED037AB4EEE77AF1EE10FAD7
:101CE00009DD2C4BD3ED007A97ED037A77EE277A56
:101CF000C7ED077A13E0D7ED037AF1EE677A97ED37
:101D0000027AB4EEE77AF1EE10FA08D5214B93EDA2
:101D1000007AD7ED037A77EE677AC7ED077AD7EDC9
:101D2000077AB7EE007AF4EEC77AF1EE10FA03DD27
:101D30004FF07E53FB610AE0D7ED077ABFEE007AE1
:101D4000F4EEC77AF1EE10FA01D5134BFB61114A9C
:101D5000FB691360FB6907EE903AB0EE670A203723
:101D6000BD46B0BDAFF300809A9999999999B93F52
:101D7000000000A069DE913F9A99993EA8040020D6
:101D8000840400205C020020CDCCCC3D180400204F
:101D90006F12833A60020020000080BFB0B493B09D
:101DA00000AFF86187ED060AC7ED050A87ED041A52
:101DB000C7ED031A87ED022AC7ED012A0B46FB7017
:101DC000BB697B62D7ED036A97ED057AC6EE877A29
:101DD000C7ED0A7AD7ED026A97ED057AC6EE877AE3
:101DE000C7ED0B7A7B693B633B697B63FB68BB6335
:101DF000BB68FB637B683B64FB7887F84430FB6916
:101E00001D4607F124040FCC0FC50FCC0FC5236866
:101E10002B60F8694C37BD46B0BC7047B0B48FB08A
:101E200000AF786187ED040AC7ED030A87ED021A57
:101E3000C7ED011A87ED002A3B69FB61FB683B6235
:101E4000D7ED046A97ED027AC6EE877AC7ED0A7A73
:101E5000D7ED036A97ED027AC6EE877AC7ED0B7A63
:101E6000BB687B623B69FB61FB683B627B683B63F1
:101E70003B687B637B691D4607F11C040FCC0FC5D3
:101E800094E8070085E8070078693C37BD46B0BC98
:101E90007047B0B491B000AF786187ED040AC7ED28
:101EA000030A87ED021AC7ED011A87ED002A3B6984
:101EB0007B62FB68BB62BB68FB627B68BB633B68A1
:101EC000FB637B691D4607F11C040FCC0FC50FCCCB
:101ED0000FC523682B6078694437BD46B0BC704796
:101EE000B0B58AB000AFC24C3B460021DFEDC12A3D
:101EF0009FEDC02ADFEDBF1A9FEDBE1AF7EE000A74
:101F00009FEDBC0A1846FFF749FF25463C460FCC1B
:101F10000FC50FCC0FC523682B60B74C3B46002183
:101F2000DFEDB42A9FEDB32ADFEDB21A9FEDB11AAF
:101F3000F7EE000A9FEDAF0A1846FFF72FFF254680
:101F40003C460FCC0FC50FCC0FC523682B60AB4CA4
:101F50003B460021DFEDAA2AB1EE002AF6EE001A78
:101F60009FEDA41ADFEDA70A9FEDA20A1846FFF71E
:101F700015FF25463C460FCC0FC50FCC0FC5236877
:101F80002B609E4BD3ED057AB1EE677A9B4BD3ED78
:101F9000067AF1EE676A994BD3ED077AF1EE677A2C
:101FA000994C3B460021F0EE672AB0EE662AF0EE2F
:101FB000471A9FED901ADFED930A9FED8E0A18469F
:101FC000FFF7ECFE25463C460FCC0FC50FCC0FC5E6
:101FD00023682B608D4C3B460021DFED892AB1EE52
:101FE000002AF6EE001A9FED831ADFED860A9FEDB8
:101FF000810A1846FFF7D2FE25463C460FCC0FC596
:102000000FCC0FC523682B607C4BD3ED057AB1EE66
:10201000677A7A4BD3ED067AF1EE676A774BD3EDA8
:10202000077AF1EE677A784C3B460021F0EE672A9A
:10203000B0EE662AF0EE471A9FED6E1ADFED710AD8
:102040009FED6C0A1846FFF7A9FE25463C460FCCCB
:102050000FC50FCC0FC523682B606C4B6A4A03F188
:10206000240415460FCD0FC40FCD0FC42B68236079
:10207000664C3B46B3EE042AF3EE041A9FED611A58
:10208000F1EE000AB6EE000A1846FFF7C7FE483424
:102090003D460FCD0FC495E8070084E807005B4C70
:1020A0003B46B3EE042AF3EE041A9FED561AF1EE06
:1020B000000AB6EE000A1846FFF7B0FE64343D464B
:1020C0000FCD0FC495E8070084E807004F4C3B464E
:1020D000B3EE042AF3EE041A9FED4A1AF1EE000A59
:1020E000B6EE000A1846FFF799FE80343D460FCD44
:1020F0000FC495E8070084E80700454B00221A80CA
:10210000444C3B469FED442ADFED441A9FED391ABB
:10211000DFED430AB0EE0C0A1846FFF7BAFE25467B
:102120003C460FCC0FC50FCC0FC523682B603D4C30
:102130003B469FED392ADFED391A9FED2E1ADFED70
:10214000380AB0EE0C0A1846FFF7A3FE25463C46B7
:102150000FCC0FC50FCC0FC523682B60324C3B460C
:102160009FED322ADFED231A9FED221ADFED210ABF
:102170009FED2F0A1846FFF78CFE25463C460FCCF4
:102180000FC50FCC0FC523682B602A4C3B469FED33
:102190002A2ADFED221A9FED171ADFED280A9FED9C
:1021A000280A1846FFF775FE25463C460FCC0FC59A
:1021B0000FCC0FC523682B60224C3B469FED1B2A9A
:1021C000DFED161A9FED201ADFED0A0A9FED130AC4
:1021D0001846FFF75EFE25463C460FCC0FC50FCCD8
:1021E0000FC523682B6000BF2837BD46B0BD00BFB8
:1021F0008404002000000000A8040020180400202F
:10220000CDCC4C3DAE47613D600400201003002062
:10221000D8040020AC0300209A99193FCDCCCC3DC6
:102220000AD7233CD0030020EC020020CDCC4C3E4A
:102230000AD7A33B3C0400209A99993E6F12033BB6
:102240008FC2753DC80200200AD7233D80B582B0F9
:1022500000AF4FF000037B60984B4FF000021A6014
:10226000974B4FF000021A60964B4FF000021A6035
:10227000954BD3ED007AB0EE670A02F06BFFF0EEFB
:10228000407A914BC3ED007A02F09EFFF0EE407A67
:102290009FED8E7A67EE877A8B4BC3ED017A02F061
:1022A000A1FFF0EE407A884BC3ED067A02F0F8FE0B
:1022B000F0EE407A844BC3ED047A02F067FFF0EE53
:1022C000407A814BC3ED057A814B5B7803F02003A4
:1022D000DBB2002B40F0E280FFF71AFA7C4B1B7850
:1022E00003F00803DBB2002B14D07A4BD3ED057A50
:1022F000F5EEC07AF1EE10FA0CDD774BD3ED007AF3
:10230000B0EE670AFFF780FCF0EE407A6B4BC3ED4E
:10231000007A03E0694B4FF000021A60FFF7B6FB4A
:10232000F0EE407A6B4BC3ED057AFFF70DFCF0EE53
:10233000407A684BC3ED017A664B93ED007A624BAD
:10234000D3ED007A77EE677A644BC3ED007A614B88
:1023500093ED057A5C4BD3ED057A77EE677A604BA7
:10236000C3ED007A5B4B93ED057A574BD3ED057ABD
:1023700077EE677A5B4BC3ED007A564B93ED017AAB
:102380004E4BD3ED007A37EE277A4F4BD3ED017ADF
:1023900077EE677A544BC3ED007A4D4B5B7803F0D0
:1023A0000803DBB2002B18D04C48FFF7E3FA87EDA7
:1023B000010A444B93ED007AD7ED017A77EE277A44
:1023C000404BC3ED007A3E4B93ED007AD7ED017A96
:1023D00077EE677A3A4BC3ED007A3D4B5B7803F0BA
:1023E0000203DBB2002B18D03F48FFF7C3FA87ED9A
:1023F000010A344B93ED007AD7ED017A77EE277A14
:10240000304BC3ED007A2E4B93ED007AD7ED017A75
:1024100077EE677A2A4BC3ED007A2D4B5B7803F099
:102420000103DBB2002B19D02E48FFF7A3FAB0EE60
:10243000407A244BD3ED007A77EE277A214BC3ED17
:10244000007A2748FFF796FAB0EE407A1C4BD3ED9E
:10245000007A77EE277A1A4BC3ED007A1C4B5B7833
:1024600003F01003DBB2002B18D02048FFF782FAEC
:1024700087ED010A134B93ED007AD7ED017A77EEE1
:10248000677A104BC3ED007A0D4B93ED007AD7EDD0
:10249000017A77EE677A0A4BC3ED007A084BD3EDE9
:1024A000007A084B93ED007AF0EE470AB0EE670A27
:1024B00000F0E0FF00BF0837BD4680BD04020020E9
:1024C00000020020FC010020840400204DF38E3C1B
:1024D000D8040020A8040020F4030020C802002033
:1024E000AC030020D00300203C040020EC020020BC
:1024F00080B582B000AF03460A46FB711346BB713C
:10250000FEF786FE03F0E4F800F098FCFB7903F098
:102510000103D9B20D4A537861F3820353700B4A19
:10252000537843F040035370BB7903F00103002B51
:1025300002D000F0E1FE04E0BB79002B01D100F0F5
:10254000EBFF00BF0837BD4680BD00BFD8040020A8
:1025500090B585B002AF00210020FFF7C9FF00232E
:10256000FB71114B9B8E19460F4B5B8E18460E4B21
:102570001B8E1C460C4BDB8D1A460B4B9B8D01931F
:10258000009223460246094807F0B2F84FF4FA7069
:1025900000F044FB02F07CFF0346FB71FB79184618
:1025A00000F0C6FDDDE700BFF06001206CBC000854
:1025B0002DE9B04384B004AF00210020FFF798FF5D
:1025C000114B1B691846FDF7BFFF804689460F4B2C
:1025D0009B691846FDF7B8FF04460D460B4B5B6937
:1025E0001846FDF7B1FF02460B46CDE90223CDE9BF
:1025F000004542464B46064807F07AF84FF4FA7019
:1026000000F00CFBDCE700BF84040020F060012038
:1026100094BC000880B500AF00210020FFF768FFE0
:10262000074B1B681846FDF78FFF02460B4605480F
:1026300007F05EF84FF4FA7000F0F0FAF0E700BF30
:1026400084040020BCBC0008B0B584B002AFFEF723
:102650004BFD03467B717B79184600F069FD012133
:102660000120FFF745FF7B79013B032B00F2BD8082
:1026700001A252F823F000BF892600080B270008AA
:1026800059270008A92700085A4BD3ED057A0020E6
:10269000F0EE670AB3EE0E0A01F0B4FF012101204B
:1026A00002F046FA012002F07FFA012002F07CFAE3
:1026B000012002F079FA012002F076FA012002F0FE
:1026C00073FA002002F05AFA4B4A53786FF38613DC
:1026D000537000F021FF494B1B691846FDF734FF8A
:1026E00004460D46454B1B681846FDF72DFF024674
:1026F0000B46CDE9002322462B46414806F0F8FF61
:102700004FF47A7000F08AFAE5E70021002002F029
:102710000FFA3C4B00221A8002F0BEFA002002F0B1
:1027200043FA0023FB7107E002F0B6FA002002F042
:102730003BFAFB790133FB71FB790F2BF4D90020B5
:1027400002F01CFA02F06EFA2B4A53786FF38613EC
:10275000537000F0E1FE49E00021002002F0E8F9AA
:10276000284B00221A800023BB710DE0FF2000F0EF
:10277000DFFC02F065FA002000F0DAFC002002F035
:1027800013FABB790133BB71BB790F2BEED9002053
:1027900002F0F4F902F046FA174A53786FF3861301
:1027A000537000F0B9FE21E0164B00221A80114B45
:1027B000D3ED057A0020F0EE670AB3EE0E0A01F0C1
:1027C00021FF0121012002F0B3F9002002F0D6F927
:1027D000094A53786FF38613537000F09DFE064A42
:1027E000537843F02003537000E000BF00BF083768
:1027F000BD46B0BD18040020D80400208404002089
:10280000CCBC0008A002002080B483B000AF786088
:102810007B681B6843F040027B681A6000BF0C377E
:10282000BD465DF8047B704780B483B000AF78602C
:102830007B681B6803F04003402B01D1012300E0BB
:10284000002318460C37BD465DF8047B704780B402
:1028500083B000AF78607B689B6803F00103012BB5
:1028600001D1012300E0002318460C37BD465DF876
:10287000047B704780B483B000AF78607B689B684E
:1028800003F00203022B01D1012300E000231846CC
:102890000C37BD465DF8047B704780B483B000AF51
:1028A00078607B68DB68DBB218460C37BD465DF8A4
:1028B000047B704780B485B000AF78600B46FB7036
:1028C0007B680C33FB60FB68FA781A7000BF143722
:1028D000BD465DF8047B704780B483B000AF78607C
:1028E00039607B683A689A6100BF0C37BD465DF875
:1028F000047B704780B483B000AF786039603B6878
:102900001A047B689A6100BF0C37BD465DF8047BF2
:102910007047000090B587B000AFF860B9607A608A
:10292000FB70FB78FB7504212048FFF7E3FFF86894
:10293000FFF78DFF0346012B02D1F868FFF7ADFFCB
:10294000F868FFF771FF0346002B24D1F868FFF702
:102950005BFF20E0BB685A1CBA601B781946F86818
:10296000FFF7A8FF00BFF868FFF784FF0346002BBE
:10297000F9D000BFF868FFF76AFF0346002BF9D0D3
:102980007C68631C7B60F868FFF787FF0346237051
:10299000FB7D013BFB75FB7D002BDBD10421034854
:1029A000FFF79AFF00BF1C37BD4690BD000C0240E8
:1029B00080B584B000AF0346FB71FB7963F07F0301
:1029C000DBB23B7300237B7307F1080207F10C01B4
:1029D00002230448FFF79EFF7B7A18461037BD4656
:1029E00080BD00BF003C004080B584B000AF03460E
:1029F0000A46FB711346BB71FB7903F07F03DBB220
:102A00003B73BB797B7307F1080207F10C010223CA
:102A10000348FFF77FFF00BF1037BD4680BD00BFF2
:102A2000003C004080B582B000AF2648FFF7ECFEC6
:102A30007520FFF7BDFF0346FB71FB79194622485D
:102A400006F056FEFB79982B13D07520FFF7B0FFE8
:102A50000346FB710AE01D4806F0E6FE7520FFF70D
:102A6000A7FF0346FB71642000F0D8F8FB79982B90
:102A7000F1D1FB791946144806F03AFE144806F0E5
:102A8000D3FE00216B20FFF7AFFF0A2000F0C6F84D
:102A900000211A20FFF7A8FF0A2000F0BFF8182134
:102AA0001B20FFF7A1FF0A2000F0B8F818211C2016
:102AB000FFF79AFF0A2000F0B1F800BF0837BD46C3
:102AC00080BD00BF003C0040E8BC0008FCBC000822
:102AD00008BD000890B583B000AF4720FFF768FF3E
:102AE00003461B021CB24820FFF762FF03461BB2DD
:102AF0002343FB80B7F9063007EE903AB8EEE77A49
:102B0000DFED066AC7EE267AC7ED007A3B6807EE6E
:102B1000903AB0EE670A0C37BD4690BD333383411F
:102B200090B583B000AF3B20FFF742FF03461B0286
:102B30001CB23C20FFF73CFF03461BB22343FB8043
:102B4000B7F9063007EE903AB8EEE77ADFED066A9D
:102B5000C7EE267AC7ED007A3B6807EE903AB0EEF2
:102B6000670A0C37BD4690BD0000004580B483B0B5
:102B700000AF78607B681B6843F001027B681A60D5
:102B800000BF0C37BD465DF8047B704780B483B04E
:102B900000AF78607B681B6823F001027B681A60D5
:102BA00000BF0C37BD465DF8047B704780B483B02E
:102BB00000AF78607B68DB6843F001027B68DA6015
:102BC00000BF0C37BD465DF8047B704780B483B00E
:102BD00000AF78607B68DB6823F001027B68DA6015
:102BE00000BF0C37BD465DF8047B704780B500AF71
:102BF0000348FFF7DBFF0248FFF7B8FF00BF80BDC7
:102C0000000C004080B500AF0348FFF7BFFF02484B
:102C1000FFF7DCFF00BF80BD000C004080B582B034
:102C200000AF0346FB80FB88184606F08FF800BF14
:102C30000837BD4680BD000080B584B000AF0346B4
:102C4000FB80FB88B3F57A7F02D340F2E733FB8049
:102C50000D4B5B6A9AB2FB8813449BB2FB810A4816
:102C6000FFF784FF00BF084B5B6AFA8992B2934278
:102C7000F9D30548FFF78AFF034B00225A6200BFD1
:102C80001037BD4680BD00BF0010004080B400AFCB
:102C9000074B1B6903F48073B3F5807F0CBF0123DE
:102CA0000023DBB21846BD465DF8047B704700BFC9
:102CB0000004024080B483B000AF78607B681B687A
:102CC00043F001027B681A6000BF0C37BD465DF817
:102CD000047B704780B483B000AF786039607B6854
:102CE0003A685A6200BF0C37BD465DF8047B7047F6
:102CF00080B483B000AF786039607B683A68DA628C
:102D000000BF0C37BD465DF8047B704780B483B0CC
:102D100000AF786039607B681A6A3B681A437B6849
:102D20001A6200BF0C37BD465DF8047B704780B463
:102D300083B000AF786039607B683A681A6400BF7E
:102D40000C37BD465DF8047B704780B483B000AF9C
:102D500078607B685B6C43F400427B685A6400BF18
:102D60000C37BD465DF8047B7047000080B500AFAE
:102D70004FF480510548FFF7C9FF0448FFF79AFF59
:102D80000248FFF7E2FF00BF80BD00BF0004014022
:102D900080B500AF00210248FFF7C9FF00BF80BD2A
:102DA0000004014080B582B000AF03460A46FB80B4
:102DB0001346BB80FB880E4A92FBF3F319460D487D
:102DC000FFF796FFFB880C4A92FBF3F3194609487C
:102DD000FFF7ADFF00210748FFF77CFFBB881846CF
:102DE000FFF71CFFFFF7D4FF00BF0837BD4680BDCB
:102DF000A0860100000401401873010080B483B074
:102E000000AF78607B681B6843F001027B681A6042
:102E100000BF0C37BD465DF8047B704780B483B0BB
:102E200000AF78607B681B6823F001027B681A6042
:102E300000BF0C37BD465DF8047B704780B500AF1E
:102E4000064B00225A62064B00225A620348FFF7E3
:102E5000D5FF0348FFF7D2FF00BF80BD000400404C
:102E60000008004080B500AF0348FFF7D7FF0348D4
:102E7000FFF7D4FF00BF80BD000400400008004001
:102E800080B485B000AF0346FB710023FB810023B3
:102E9000BB81FB79F02B06D1104B5B6ABB810F4BDA
:102EA00000225A6208E0FB790F2B05D10C4B5B6ABC
:102EB000BB810B4B00225A62B7F90C30002B02DAAF
:102EC000BB89FB8101E0BB89FB81B7F90E30184655
:102ED0001437BD465DF8047B704700BF0004004016
:102EE0000008004080B400AF054B1B69044A43F062
:102EF0000043136100BFBD465DF8047B704700BF0F
:102F0000003C024080B400AF054B064A5A60044BB7
:102F1000054A5A6000BFBD465DF8047B704700BF9C
:102F2000003C024023016745AB89EFCD80B400AF80
:102F300000BF064BDB6803F48033B3F5803FF8D065
:102F400000BF00BFBD465DF8047B7047003C0240F7
:102F500080B582B000AF78600B46FB700F4B1B69E9
:102F60000E4A23F4407313610C4B0C4A1B69136126
:102F70000A4B1B69094A43F0010313617B68FA7825
:102F80001A70FFF7D3FF054B1B69044A23F00103B6
:102F9000136100BF0837BD4680BD00BF003C024042
:102FA00080B582B000AF78600B46FB70FFF7AAFFD8
:102FB000074B1A687B681344FA7811461846FFF7E6
:102FC000C7FFFFF78FFF00BF0837BD4680BD00BFBA
:102FD0000400002080B483B000AF7860054B1A680D
:102FE0007B6813441B7818460C37BD465DF8047B9C
:102FF000704700BF0400002080B500AFFFF782FFDC
:103000000B4B1B690A4A43F002031361084B1B690F
:10301000074A43F058031361054B1B69044A43F404
:1030200080331361FFF782FFFFF75CFF00BF80BDB5
:10303000003C024080B483B000AF0346FB71FB79D3
:10304000002B04D0074B4FF480429A6103E0054BFC
:103050004FF080429A6100BF0C37BD465DF8047B9B
:10306000704700BF0004024080B483B000AF034645
:10307000FB71FB79002B04D0074B4FF400429A619F
:1030800003E0054B4FF000429A6100BF0C37BD468C
:103090005DF8047B704700BF0004024080B483B039
:1030A00000AF0346FB71FB79002B04D0074B4FF4B4
:1030B00080729A6103E0054B4FF080729A6100BF05
:1030C0000C37BD465DF8047B704700BF0008024026
:1030D00080B483B000AF0346FB71FB79002B03D0B3
:1030E000064B10229A6103E0044B4FF480129A6160
:1030F00000BF0C37BD465DF8047B704700040240FA
:1031000080B483B000AF0346FB71FB79002B03D082
:10311000064B20229A6103E0044B4FF400129A619F
:1031200000BF0C37BD465DF8047B704700040240C9
:1031300080B582B000AF0346FB71FB7903F0010359
:10314000DBB21846FFF7DCFFFB7903F00203DBB2CA
:103150001846FFF7BDFFFB7903F00403DBB2184606
:10316000FFF79CFFFB7903F00803DBB21846FFF77B
:103170007BFFFB7903F01003DBB21846FFF75AFF21
:1031800000BF0837BD4680BD80B483B000AF786013
:103190007B681B6843F001027B681A6000BF0C3734
:1031A000BD465DF8047B704780B483B000AF7860A3
:1031B0007B681B6823F001027B681A6000BF0C3734
:1031C000BD465DF8047B704780B483B000AF786083
:1031D00039607B683A685A6200BF0C37BD465DF8BB
:1031E000047B704780B483B000AF786039607B683F
:1031F0001A6A3B681A437B681A6200BF0C37BD46E7
:103200005DF8047B704780B483B000AF78603960AC
:103210007B681A6A3B68DB431A407B681A6200BF0E
:103220000C37BD465DF8047B704780B483B000AFB7
:10323000786039607B683A685A6300BF0C37BD46D6
:103240005DF8047B704780B483B000AF786039606C
:103250007B683A689A6300BF0C37BD465DF8047B13
:10326000704780B483B000AF78607B685B6C43F4D8
:1032700000427B685A6400BF0C37BD465DF8047B92
:10328000704780B483B000AF786039607B683A687B
:103290009A6100BF0C37BD465DF8047B704780B46F
:1032A00083B000AF786039603B681A047B689A612C
:1032B00000BF0C37BD465DF8047B704780B582B017
:1032C00000AF0346FB71FB79012B05D12021094892
:1032D000FFF7D7FF012309E0FB79002B05D120215F
:1032E0000448FFF7DCFF002300E0FF2318460837FF
:1032F000BD4680BD0008024080B582B000AF01200D
:10330000FFF7DCFF0346FB71FB79012B32D1012172
:103310001A48FFF7C4FF02211848FFF7B2FF4FF425
:1033200080411748FFF7BBFF4FF400411448FFF7F7
:10333000A8FF10214FF08040FFF754FF4FF080406E
:10334000FFF722FF01210F48FFF74CFF0D48FFF761
:103350001BFF01214FF08040FFF775FF0121094855
:10336000FFF763FF4FF08040FFF77BFF0548FFF753
:1033700078FF00E000BF0837BD4680BD0004024072
:10338000000002400000014080B483B000AF87ED30
:10339000010AC7ED000AD7ED017AF5EEC07AF1EE29
:1033A00010FA07DD164B4FF480329A61144B02225B
:1033B0009A6106E0124B01229A61114B4FF40032E0
:1033C0009A61D7ED007AF5EEC07AF1EE10FA08DDD9
:1033D0000C4B4FF080429A610A4B4FF400429A61C5
:1033E00007E0084B4FF480429A61064B4FF00042D1
:1033F0009A6100BF0C37BD465DF8047B704700BF83
:10340000000402400000024080B485B000AF87EDA8
:10341000030AC7ED020A87ED011AD7ED017AF5EE2E
:10342000C07AF1EE10FA05D5D7ED017AF1EE677AA0
:10343000C7ED017A97ED017AD7ED037AB4EEE77A1A
:10344000F1EE10FA01DDFB680BE097ED017AD7EDA4
:10345000027AB4EEE77AF1EE10FA01D5BB6800E02B
:103460007B6807EE903AB0EE670A1437BD465DF808
:10347000047B704780B582B000AF87ED010AC7EDCD
:10348000000AD7ED000A97ED010AFFF77DFF97EDDF
:10349000011ADFED1D0A9FED1D0AFFF7B5FF87ED4D
:1034A000010A97ED001ADFED180A9FED180AFFF7E1
:1034B000ABFF87ED000AD7ED017A9FED157A67EE35
:1034C000877AFCEEE77A17EE901A1248FFF7ADFE06
:1034D000D7ED007A9FED0E7A67EE877AFCEEE77AF9
:1034E00017EE901A4FF08040FFF7ADFE002109481B
:1034F000FFF76AFE00214FF08040FFF765FE00BF36
:103500000837BD4680BD00BF00000000CDCC4C3E5A
:103510000000C6420000014080B582B000AF00202C
:10352000FFF7CCFE0346FB71FB79002B10D1012184
:103530000948FFF768FE10214FF08040FFF763FE57
:103540000548FFF731FE4FF08040FFF72DFE00E009
:1035500000BF0837BD4680BD0000014080B485B083
:1035600000AF786039600023FB603B68002B03D11B
:103570007B684C33FB6001E0044BFB60FB68184642
:103580001437BD465DF8047B704700BF0823014037
:1035900080B483B000AF78607B689B6843F0010221
:1035A0007B689A6000BF0C37BD465DF8047B7047AE
:1035B00080B483B000AF78607B689B6843F0804242
:1035C0007B689A6000BF0C37BD465DF8047B70478E
:1035D00080B483B000AF78607B686FF002021A603D
:1035E00000BF0C37BD465DF8047B704780B483B0E4
:1035F00000AF786039600C4A3B6813441B781A4668
:103600007B6813441B6808493A680A4412781146DB
:103610007A680A4443F00103136000BF0C37BD46CB
:103620005DF8047B704700BF4CBD000880B483B0D8
:1036300000AF786039600C4A3B6813441B781A4627
:103640007B6813441B6808493A680A44127811469B
:103650007A680A4423F00103136000BF0C37BD46AB
:103660005DF8047B704700BF4CBD000880B485B096
:1036700000AFF860B9607A600D4ABB6813441B78EC
:103680001A46FB6813445B681B0C1B040849BA68A4
:103690000A4412781146FA680A4411467A681343BC
:1036A0004B6000BF1437BD465DF8047B704700BF18
:1036B0004CBD000880B485B000AFF860B9607A6096
:1036C0003B60BB69402B14D1174ABB6813441B787D
:1036D0001A46FB6813441A467B68D360124ABB68DB
:1036E00013441B781A46FB6813441A463B689360E0
:1036F00013E00D4ABB6813441B781A46FB68134459
:103700001A467B689360084ABB6813441B781A46C4
:10371000FB6813441A463B68D36000BF1437BD46AC
:103720005DF8047B704700BF4CBD000880B483B0D7
:1037300000AF786039600C4A3B6813441B781A4626
:103740007B6813441B6808493A680A44127811469A
:103750007A680A4443F01003136000BF0C37BD467B
:103760005DF8047B704700BF4CBD000880B582B097
:1037700002AF00210F48FFF759FF00210E48FFF765
:10378000EDFE02460D49002300930B460021094837
:10379000FFF790FF052200210648FFF767FF002191
:1037A0000448FFF723FF0448FFF702FF00BFBD46B0
:1037B00080BD00BF0064024000200140CC04002016
:1037C00080B483B000AF0346FB71FB79012B03D1BA
:1037D000064B08229A6103E0044B4FF400229A61E1
:1037E00000BF0C37BD465DF8047B70470000024007
:1037F00080B483B000AF0346FB71FB79012B03D18A
:10380000064B04229A6103E0044B4FF480229A6134
:1038100000BF0C37BD465DF8047B704700080240CE
:1038200080B483B000AF0346FB71FB79012B03D159
:10383000064B80229A6103E0044B4FF400029A6128
:1038400000BF0C37BD465DF8047B704700000240A6
:1038500080B483B000AF0346FB71FB79012B03D129
:10386000064B08229A6103E0044B4FF400229A6150
:1038700000BF0C37BD465DF8047B7047000802406E
:1038800080B483B000AF0346FB71FB79012B03D1F9
:10389000064B40229A6103E0044B4FF480029A6188
:1038A00000BF0C37BD465DF8047B70470000024046
:1038B00090B583B000AF0446084611461A46234629
:1038C000FB710346BB710B467B7113463B71FB7961
:1038D00003F00103DBB21846FFF7A2FFBB7903F048
:1038E0000103DBB21846FFF7CBFF7B7903F001033E
:1038F000DBB21846FFF764FF3B7903F00103DBB24C
:103900001846FFF7A5FF3B7E03F00103DBB2184624
:10391000FFF76EFF00BF0C37BD4690BD80B483B08B
:1039200000AF0346FB71FB79044A32F813301846A6
:103930000C37BD465DF8047B704700BFCC04002007
:1039400080B500AF00210548FFF7F0FE0448FFF7FF
:103950001FFEFFF70BFF00BF80BD00BF00640240E9
:103960000020014080B500AF0348FFF731FEFFF7AC
:10397000FDFE00BF80BD00BF0021014090B482B0B9
:1039800000AF0446084611461A462346FB7103461B
:10399000BB710B467B7113463B71FB7903F001034E
:1039A000D9B2124A537861F300035370BB7903F024
:1039B0000103D9B20D4A537861F3410353707B7907
:1039C00003F00103D9B2094A537861F3C30353707A
:1039D0003B7903F00103D9B2044A137861F3C303BE
:1039E000137000BF0837BD4690BC7047D804002054
:1039F00090B482B000AF0446084611461A462346EA
:103A0000FB710346BB710B467B7113463B71FB791F
:103A100003F00103D9B2124A137861F3041313704F
:103A2000BB7903F00103D9B20D4A137861F3451352
:103A300013707B7903F00103D9B2094A137861F35B
:103A4000861313703B7903F00103D9B2044A13784B
:103A500061F3C713137000BF0837BD4690BC7047B1
:103A6000D804002080B485B000AF0346FB80FB88FB
:103A7000B3F5FA6F01D3FB888EE0FB88FB81FB89ED
:103A8000484A526948492C2000FB03F30B441A6052
:103A9000444B93ED017A454BD3ED007AFB8977EEE9
:103AA000277A414A2C2101FB03F313440433C3ED6D
:103AB000007AFB893B4A92693B492C2000FB03F3C7
:103AC0000B4408331A60FB89394A526936492C2065
:103AD00000FB03F30B440C331A60FB89344A526831
:103AE00031492C2000FB03F30B4410331A60FB898F
:103AF0002F4A92692C492C2000FB03F30B4414330A
:103B00001A60FB892A4A126927492C2000FB03F31B
:103B10000B4418331A60FB89254A126822492C206D
:103B200000FB03F30B441C331A60224B5A8E214BCB
:103B30009B8FD31A9AB2FB8910B21B4A2C2101FB2E
:103B400003F31344203302461A801A4BDA8D194BC3
:103B50001B8FD31A9AB2FB8910B2134A2C2101FB96
:103B600003F31344223302461A80FB89124A126877
:103B70000D492C2000FB03F30B4424331A60FB890E
:103B80000E4A126808492C2000FB03F30B4428332B
:103B90001A60FB8901339BB218461437BD465DF8A5
:103BA000047B7047A8040020DC04002004020020ED
:103BB00084040020F060012000020020FC010020AD
:103BC00080B483B000AF0023BB7113E00023FB710E
:103BD0000AE0BA79FB79324912010A441344F0220F
:103BE0001A70FB790133FB71FB790F2BF1D9BB798B
:103BF0000133BB71BB790F2BE8D90023BB7120E0E7
:103C0000BB79274A1B0113441A78BB7962F00E0274
:103C1000D1B2234A1B0113440A461A70BB79204AC9
:103C20001B0113440F331A78BB7962F00B02D1B237
:103C30001B4A1B0113440F330A461A70BB79013328
:103C4000BB71BB790F2BDBD90023FB7119E0FB792A
:103C5000134AD25CFB7962F00D02D1B2104AD15402
:103C6000FB790F4A134493F8F020FB7962F00702C6
:103C7000D1B20B4A13440A4683F8F020FB79013392
:103C8000FB71FB790F2BE2D9054BF7221A70044B1D
:103C9000F3225A7000BF0C37BD465DF8047B7047B5
:103CA000CC5E012090B484B000AF0346FB71FB7979
:103CB0008B4A92781341DBB203F00F03FB73FB7B5B
:103CC0001B015AB297F90F3013435BB2FB73844B5D
:103CD0005B781846824B1B781946824A03011344CD
:103CE0000B44FA7B1A707E4B5B780F2B39D0FB7B31
:103CF00003F08803002B1AD0794B5B780133784AA4
:103D000012781146774A1B0113440B441A78744BFE
:103D10005B78013372490978084642F02202D1B239
:103D2000704A1B01134403440A461A7019E06C4B95
:103D30005B7801336A4A127811466A4A1B011344C0
:103D40000B441A78664B5B7801336549097808465D
:103D500022F02202D1B2634A1B01134403440A46F3
:103D60001A705F4B1B780F2B39D0FB7B03F0440399
:103D7000002B1AD05A4B5B781A46594B1B780133EB
:103D8000584912010A4413441A78554B5B781C4673
:103D9000534B1B78013342F01102D0B2514922013A
:103DA0000A44134402461A7019E04D4B5B781A46D8
:103DB0004B4B1B7801334B4912010A4413441A78C8
:103DC000474B5B781C46464B1B78013322F01102AF
:103DD000D0B2444922010A44134402461A70404BAF
:103DE0005B78002B39D0FB7B03F02203002B1AD029
:103DF0003B4B5B78013B3A4A12781146394A1B012A
:103E000013440B441A78364B5B78013B34490978EC
:103E1000084662F07702D1B2324A1B0113440344D0
:103E20000A461A7019E02E4B5B78013B2C4A127837
:103E300011462C4A1B0113440B441A78284B5B781B
:103E4000013B27490978084602F07702D1B2254A9A
:103E50001B01134403440A461A70214B1B78002BA4
:103E600039D0FB7B03F01103002B1AD01C4B5B787D
:103E70001A461B4B1B78013B1A4912010A44134492
:103E80001A78174B5B781C46154B1B78013B42F0A8
:103E90004402D0B2134922010A44134402461A7064
:103EA00019E00F4B5B781A460D4B1B78013B0D490F
:103EB00012010A4413441A78094B5B781C46084BDC
:103EC0001B78013B22F04402D0B2064922010A4489
:103ED000134402461A7000BF1037BD4690BC7047AD
:103EE000C45E0120CC5E012080B485B000AF0346E3
:103EF000FB710023BB7313E00023FB730AE0BA7B62
:103F0000FB7B8D4912011344FF2221F81320FB7B18
:103F10000133FB73FB7B0F2BF1D9BB7B0133BB73ED
:103F2000BB7B0F2BE8D9FB79022B30D1834B5B781D
:103F30000133824A127811467F4A1B010B4400214B
:103F400022F813107D4B5B781A467C4B1B780133AB
:103F5000794912011344002221F81320774B5B7832
:103F60005A1C764B1B78013373491201134400220B
:103F700021F81320714B5B781846704B1B7819465B
:103F80006D4A03010B44002122F813100EE0FB7967
:103F9000012B0BD1694B5B781846684B1B7819468F
:103FA000654A03010B44002122F813100023BB8152
:103FB0000023FB720023BB73A1E00023FB7397E097
:103FC000BA7BFB7B5C491201134431F81330BA8988
:103FD0009A4240F08A80BA7BFB7B594912010A441D
:103FE00013441B78FB72574B1B7803F00203DBB2C0
:103FF000002B02D0FB7A1B09FB72FB7A03F008034B
:10400000002B18D1BB7B0F2B15D0BB7B5A1CFB7B25
:1040100049491201134431F81330FF2B0BD1BB7BFC
:104020005A1CFB7BB989013188B243491201134400
:10403000024621F81320FB7A03F00403002B18D169
:10404000FB7B0F2B15D0BA7BFB7B01333A49120166
:10405000134431F81330FF2B0BD1BA7BFB7B0133B8
:10406000B989013188B2344912011344024621F85A
:104070001320FB7A03F00203002B18D1BB7B002B2B
:1040800015D0BB7B5A1EFB7B2B491201134431F820
:104090001330FF2B0BD1BB7B5A1EFB7BB98901313F
:1040A00088B2254912011344024621F81320FB7AF5
:1040B00003F00103002B18D1FB7B002B15D0BA7B3A
:1040C000FB7B013B1C491201134431F81330FF2BD9
:1040D0000BD1BA7BFB7B013BB989013188B2164910
:1040E00012011344024621F81320FB7B0133FB73BA
:1040F000FB7B0F2B7FF664AFBB7B0133BB73BB7BBA
:104100000F2B7FF65AAFBB890133BB810E4B5B7817
:1041100018460D4B1B781946074A03010B4432F829
:104120001330FF2B3FF446AFBB8918461437BD460A
:104130005DF8047B704700BF9C5C0120C85E0120D5
:10414000CC5E0120D8040020C45E012080B582B07E
:1041500000AF0023FB718D4B9B78BB70FB795A1C21
:10416000FA711A468A4BFF219954FB79FF2BF5D13E
:10417000864B5B781846854B1B781946854A0301A8
:104180000B4432F813307B71804B1B783B717F4BB3
:104190005B78FB700023FB71FA783B797E49120152
:1041A0000A4413441B78BB717C4B1B7803F0020359
:1041B000DBB2002B02D0BB791B09BB71BB7903F0CA
:1041C0000403002B23D1FA783B79013371491201A2
:1041D000134431F813207B799BB29A4217D26B4B70
:1041E0009B78C3F10103DAB2FB7902F00302D1B28A
:1041F000674AD154FA783B79013366491201134476
:1042000031F813307B713B7901333B7178E0BB7936
:1042100003F00803002B22D1FB785A1C3B795D493F
:104220001201134431F813207B799BB29A4216D2C3
:10423000564B9B785B42DAB2FB7902F00302D1B2B3
:10424000534AD154FB785A1C3B795249120113440A
:1042500031F813307B71FB780133FB7050E0BB7990
:1042600003F00203002B23D1FB785A1E3B79494906
:104270001201134431F813207B799BB29A4217D272
:10428000424B9B78C3F10203DAB2FB7902F00302DE
:10429000D1B23F4AD154FB785A1E3B793D491201B5
:1042A000134431F813307B71FB78013BFB7027E03E
:1042B000BB7903F00103002B22D1FA783B79013B53
:1042C00034491201134431F813207B799BB29A428E
:1042D00016D22E4B9B78C3F10303DAB2FB7902F0BE
:1042E0000302D1B22A4AD154FA783B79013B2949D9
:1042F0001201134431F813307B713B79013B3B7160
:10430000FB79234AD35C032B27D801A252F823F070
:10431000214300082B4300083B4300084B4300089F
:10432000FB791B4A8821D1541CE0012000F096F84B
:10433000FB79174A4421D15414E0022000F08EF892
:10434000FB79134A2221D1540CE0FF2000F086F8BB
:10435000FB790F4A1121D15404E0FB790C4A00216A
:10436000D15400BFFB790133FB71FA783B790949DD
:104370001201134431F81330002B7FF40DAF034AC0
:10438000BB78937000BF0837BD4680BDC45E012076
:10439000F05F01209C5C0120CC5E0120D80400204D
:1043A00080B582B000AF03460A46FB711346BB716D
:1043B000BB791846FFF776FC0B4B5B881A460B4B14
:1043C0009A5CBB791340DBB2002B08D0FB7918460E
:1043D000FFF78AFDFFF7BAFE034B00225A8000BFA9
:1043E0000837BD4680BD00BFC05E0120F05F0120E0
:1043F00080B400AF184B9B78032B27D801A252F84A
:1044000023F000BF1544000823440008314400088D
:104410003F440008104B5B780133DAB20E4B5A7000
:1044200014E00D4B1B780133DAB20B4B1A700DE020
:10443000094B5B78013BDAB2074B5A7006E0064B3A
:104440001B78013BDAB2044B1A7000BF00BFBD46B7
:104450005DF8047B704700BFC45E012080B483B068
:1044600000AF0346FB71FB79002B0AD0084B9A780A
:10447000FB791344DBB203F00303DAB2044B9A7006
:1044800000E000BF0C37BD465DF8047B704700BFFD
:10449000C45E012080B485B000AF0346FB710B46BB
:1044A000BB7113467B71FB793B72BB797B727B7965
:1044B000BB7207F10C0307F108021268114619805C
:1044C0000233120C1A7000233A7B62F307037A7BE3
:1044D00062F30F23BA7B62F3174318461437BD46C5
:1044E0005DF8047B7047000080B500AF144B1B786B
:1044F00003F00403DBB2002B10D0FFF761FB0022B6
:1045000000210020FFF7C6FF02460E4B114619702E
:10451000C2F307215970C2F307429A700A4B002276
:104520001A80094B00225A800120FFF7DDFC034668
:104530001A46054B1A80FFF709FE00BF80BD00BF79
:10454000D8040020C45E0120C05E012080B582B086
:1045500000AFFEF751FD0023FB711AE00023BB7191
:1045600011E0FB791A01BB7913441846FA79BB793B
:104570000C4912010A4413441B781946FEF710FD3A
:10458000BB790133BB71BB790F2BEAD9FB790133BE
:10459000FB71FB790F2BE1D900BF00BF0837BD4687
:1045A00080BD00BFCC5E0120B0B582B000AF00235B
:1045B000FB711CE00023BB7113E0FB791A01BB798E
:1045C0001344FD79BC791846FEF704FD03461946ED
:1045D0000B4A2B01134423440A461A70BB7901335A
:1045E000BB71BB790F2BE8D9FB790133FB71FB79E8
:1045F0000F2BDFD900BF00BF0837BD46B0BD00BFDD
:10460000CC5E012080B588B000AF87ED030AC7ED0E
:10461000020A0346FB71624B1B69BB61FB7903F025
:104620000103DBB2002201210120FFF7A7F95C4B57
:104630001B685C4A13605C4B93ED057AD7ED027AF8
:1046400077EE677AC7ED057AD7ED057A67EEA77A38
:10465000B6EE007A67EE876A534B93ED067AC6EEA4
:10466000877A9FED527A67EE877AC7ED077A97EDE2
:10467000037AD7ED077AB4EEE77AF1EE10FA07D5B0
:10468000D7ED037AB6EE007A67EE877AC7ED077A40
:10469000D7ED027AF0EEE77AC7ED027A0023002226
:1046A00000210120FFF7A4F900BF3D4B93ED047AF0
:1046B000D7ED066AD7ED037A76EEA76AD7ED077ACB
:1046C00076EEE77AB4EEE77AF1EE10FAEDD4364BF7
:1046D000D3ED057A97ED027AB4EE677AF1EE10FA2F
:1046E00033D00023002201210020FFF781F90EE0E2
:1046F0002C4BD3ED057A97ED027AB4EEE77AF1EE22
:1047000010FA00DA03E0274ABB6853612BE0244B20
:1047100093ED047AD7ED066AD7ED037A76EEA77AA1
:10472000B4EEE77AF1EE10FAE2D41CE01D4BD3EDC3
:10473000057A97ED027AB4EEE77AF1EE10FA00DA34
:1047400003E0184ABB6853610DE0154B93ED047A02
:10475000D7ED066AD7ED037A76EEA77AB4EEE77A5C
:10476000F1EE10FAE2D40023002200210020FFF72E
:104770003FF90023002200210120FFF7FFF8094A3A
:10478000BB685361D7ED027AF5EE407AF1EE10FA8C
:1047900002D1C820FEF742FA00BF2037BD4680BDD7
:1047A00084040020A80400201804002000007A449B
:1047B00080B584B000AF87ED010A6A4B1B68BB600F
:1047C0000023002201210120FFF7D8F8664B93ED6A
:1047D000017A654BD3ED017A67EE277AB6EE007A5F
:1047E00067EE876A604B93ED027AC6EE877A9FED9B
:1047F0005F7A67EE877AC7ED037AD7ED017AF0EE3C
:10480000E77A97ED037AB4EEE77AF1EE10FA09DD74
:10481000D7ED017AF0EEE77AB6EE007A67EE877AA6
:10482000C7ED037A524B4FF000025A61504B4FF0E4
:1048300000025A60D7ED017AF5EEC07AF1EE10FA77
:104840003CDD0023012200210020FFF7D1F800BF4A
:10485000444B93ED007AD7ED026AD7ED017A76EEFC
:10486000A76AD7ED037A76EEE77AB4EEE77AF1EE4F
:1048700010FAEDD40123002200210020FFF7B8F840
:104880000DE03B4BD3ED017AF5EEC07AF1EE10FA74
:1048900000D904E0364B4FF000025A604AE0314B39
:1048A00093ED007AD7ED026AD7ED017A76EEA77A1A
:1048B000B4EEE77AF1EE10FAE3D43BE001230022F4
:1048C00000210020FFF794F800BF264B93ED007AFB
:1048D000D7ED026AD7ED017A76EEA76AD7ED037AB3
:1048E00076EEA77AB4EEE77AF1EE10FAEDDC00236B
:1048F000012200210020FFF77BF80DE01C4BD3EDD7
:10490000017AF5EEC07AF1EE10FA00DA04E0184B05
:104910004FF000025A600DE0124B93ED007AD7ED94
:10492000026AD7ED017A76EEA77AB4EEE77AF1EE75
:1049300010FAE3DC0023002200210020FFF758F8E2
:104940000B4B4FF000025A60094B93ED007AD7ED04
:10495000017A77EE277A064BC3ED007A00BF103755
:10496000BD4680BD8404002018040020CC2E654282
:10497000A804002080B584B000AF87ED010A684B21
:104980001B68BB600023002201210120FEF7F6FF17
:10499000644B93ED017A634BD3ED017A67EE277A8E
:1049A000B6EE007A67EE876A5E4B93ED027AC6EE4A
:1049B000877A9FED5D7A67EE877AC7ED037AD7ED48
:1049C000017AF0EEE77A97ED037AB4EEE77AF1EE4A
:1049D00010FA09DDD7ED017AF0EEE77AB6EE007A4B
:1049E00067EE877AC7ED037A504B4FF000025A60AA
:1049F000D7ED017AF5EEC07AF1EE10FA3CDD002336
:104A0000012200210120FEF7F3FF00BF444B93ED8C
:104A1000007AD7ED026AD7ED017A76EEA76AD7ED74
:104A2000037A76EEE77AB4EEE77AF1EE10FAEDD497
:104A30000123002200210120FEF7DAFF0DE03B4BAD
:104A4000D3ED017AF5EEC07AF1EE10FA00D904E068
:104A5000364B4FF000025A604AE0314B93ED007A3A
:104A6000D7ED026AD7ED017A76EEA77AB4EEE77A4F
:104A7000F1EE10FAE3D43BE00123002200210120F3
:104A8000FEF7B6FF00BF264B93ED007AD7ED026A22
:104A9000D7ED017A76EEA76AD7ED037A76EEA77A9C
:104AA000B4EEE77AF1EE10FAEDDC002301220021EA
:104AB0000120FEF79DFF0DE01C4BD3ED017AF5EED2
:104AC000C07AF1EE10FA00DA04E0184B4FF0000261
:104AD0005A600DE0124B93ED007AD7ED026AD7EDE4
:104AE000017A76EEA77AB4EEE77AF1EE10FAE3DC1B
:104AF0000023002200210120FEF77AFF0B4B4FF02C
:104B000000025A60094B93ED007AD7ED017A77EEF7
:104B1000277A064BC3ED007A00BF1037BD4680BD33
:104B20008404002018040020CC2E6542A804002034
:104B300080B582B000AF03460A46FB711346BB71D5
:104B40000C4BD3ED057AFB791846F0EE670A9FED22
:104B50000A0AFFF757FDBB7903F00103002B03D0CE
:104B600000F096FC034600E0002318460837BD46D7
:104B700080BD00BF180400200000B44280B582B0A0
:104B800000AF0346FB71FB791846DFED050A9FED88
:104B9000050AFFF737FD00BF0837BD4680BD00BFDF
:104BA000000000000000B44280B584B000AF0346AE
:104BB000FB710023FB73FB7903F00103DBB20021DF
:104BC0001846FFF7B5FFFB7903F00103DBB20121C3
:104BD0001846FFF7ADFF0346FB73FB7B1846103703
:104BE000BD4680BD80B500AF0D4A537843F0100339
:104BF00053700023002200210020FEF7BFFE4FF477
:104C00007A70FEF70BF8064A53786FF3041353706B
:104C10000023002201210120FEF7B0FE00BF80BD6D
:104C2000D804002080B500AF9FED040AFFF7C0FD57
:104C30006420FDF7F3FF00BF80BD00BF000034C358
:104C400080B582B000AF0023FB71104A53786FF338
:104C5000820353709FED0E0AFFF78CFE0B4A5378C8
:104C600043F0040353700B4BD3ED057A0120F0EEB3
:104C7000670AB3EE040AFFF7C5FC00F009FC03461F
:104C8000FB71FB7918460837BD4680BDD80400206B
:104C90000000B4C21804002080B582B000AF002329
:104CA000FB71104A53786FF3820353709FED0E0A25
:104CB000FFF760FE0B4A537843F0040353700B4B2D
:104CC000D3ED057A0120F0EE670AB3EE020AFFF792
:104CD00099FC00F0DDFB0346FB71FB7918460837B1
:104CE000BD4680BDD80400200000B4421804002056
:104CF00080B586B000AF87ED010A3E4B1B697B6132
:104D00003D4B5B693B610023002200210120FEF73F
:104D100035FE394B394A5A61374B93ED057A364B9C
:104D2000D3ED057A67EE277AB6EE007A67EE876AEA
:104D3000314B93ED067AC6EE877A9FED317A67EEB6
:104D4000877AC7ED037A0023002201210020FEF7B5
:104D50004FFE00BF274B93ED047AD7ED056AD7EDE0
:104D6000017A76EEE76AD7ED037A76EEA77AB4EEAB
:104D7000E77AF1EE10FAEDDC002300220021012099
:104D8000FEF736FE0DE01F4BD3ED057AF5EEC07A47
:104D9000F1EE10FA00DA04E01A4B4FF000025A610B
:104DA0000DE0144B93ED047AD7ED056AD7ED017A47
:104DB00076EEE77AB4EEE77AF1EE10FAE3DC002360
:104DC000002200210020FEF713FE00230022002114
:104DD0000120FEF7D3FD0B4B4FF000025A61064A4B
:104DE0003B695361C820FDF719FF00BF1837BD4666
:104DF00080BD00BF8404002018040020CDCC4C3EB0
:104E000000007A44A804002080B500AF64214FF46C
:104E1000C460FDF7C7FF642140F62D00FDF7C2FF17
:104E2000642140F62D10FDF7BDFF642140F64D20B2
:104E3000FDF7B8FF642140F62D10FDF7B3FF3220D7
:104E4000FDF7ECFE322140F62D00FDF7ABFF3220DE
:104E5000FDF7E4FEC82140F62D00FDF7A3FF00BFDB
:104E600080BD80B500AF642140F2BA20FDF79AFF03
:104E70000A20FDF7D3FE4FF4167140F2BA20FDF779
:104E800091FF4FF4C87140F21640FDF78BFFC82127
:104E900040F29640FDF786FF4FF416714FF46970AB
:104EA000FDF780FF00BF80BD80B500AF4FF4967165
:104EB0004FF4C460FDF776FF4FF4967140F27550E1
:104EC000FDF770FF4FF4967140F22650FDF76AFF30
:104ED00000BF80BD80B500AF642140F62D10FDF706
:104EE00061FF64214FF4DC60FDF75CFF0A20FDF7F1
:104EF00095FEC8214FF4DC60FDF754FF3220FDF72A
:104F00008DFE642140F62D10FDF74CFF64214FF417
:104F1000DC60FDF747FF0A20FDF780FEC8214FF453
:104F2000DC60FDF73FFF3220FDF778FE642140F69C
:104F30002D10FDF737FF642140F62D00FDF732FFFD
:104F4000642140F62D10FDF72DFF642140F62D0061
:104F5000FDF728FFC8214FF4DC60FDF723FF322066
:104F6000FDF75CFE00BF80BD80B500AF642140F658
:104F70002D10FDF717FF642140F64D20FDF712FFBD
:104F8000642140F62D10FDF70DFF64214FF4DC6025
:104F9000FDF708FF642140F62D10FDF703FF4FF4E5
:104FA000C870FDF73BFE642140F62D10FDF7FAFEB8
:104FB000642140F64D20FDF7F5FE642140F62D10EA
:104FC000FDF7F0FE642140F22650FDF7EBFE642170
:104FD0004FF44460FDF7E6FE642140F22650FDF7F1
:104FE000E1FE642140F62D10FDF7DCFE642140F661
:104FF0004D20FDF7D7FE642140F62D10FDF7D2FEBF
:10500000642140F62D00FDF7CDFE64214FF4DC60F5
:10501000FDF7C8FE00BF80BD80B500AFC82140F2DB
:105020009640FDF7BFFEC82140F27550FDF7BAFE6D
:10503000C8214FF4C460FDF7B5FE642140F27550FD
:10504000FDF7B0FE64214FF4C460FDF7ABFEC8214C
:105050004FF4DC60FDF7A6FEC82140F21640FDF7D4
:10506000A1FEC82140F29640FDF79CFE00BF80BD26
:1050700080B483B000AF0346FB80B7F9063007EE7B
:10508000903AF8EEE77A9FED057A67EE877AB0EE10
:10509000670A0C37BD465DF8047B704772926A3B25
:1050A00080B400AF274BDB6807EE903AF8EEE77A62
:1050B0009FED257A67EE877AB1EE007A27EE877A40
:1050C000F3EE056AC7EE267A77EEA77A9FED1F7A90
:1050D00027EE877ADFED1E6AC7EE267A194BC3EDFD
:1050E000067A184B9B6807EE903AF8EEE77A9FED48
:1050F000167A67EE877AB1EE007A27EE877AF3EEBA
:10510000056AC7EE267A77EEA77A9FED107A27EE2A
:10511000877ADFED0F6AC7EE267A0A4BC3ED057A70
:10512000084B93ED067A074BD3ED057A77EE277A95
:10513000B6EE007A67EE877AB0EE670ABD465DF894
:10514000047B7047F060012000004441D00F4940CB
:105150000000804580B483B000AF87ED010A094BA1
:10516000D3ED077A9FED087A27EE877AD7ED017A9B
:1051700077EE277AB0EE670A0C37BD465DF8047B00
:10518000704700BFF06001206F12833A80B483B093
:1051900000AF0C4B93ED007A0A4BD3ED017A77EE1A
:1051A000277AB6EE007A67EE877AC7ED017A7B68D8
:1051B00007EE903AB0EE670A0C37BD465DF8047B07
:1051C000704700BFF060012080B400AF044BDB6982
:1051D00007EE903AB0EE670ABD465DF8047B704773
:1051E000F060012080B483B000AF4FF000037B601B
:1051F0002C4B1B78022B14D82A4B1B7818462A4BB1
:105200001A6A2A4983000B441A60264B1B78013323
:10521000DAB2244B1A70244BD3ED087AF1EE677A98
:1052200039E0204B1B78032B31D11E4B1B781846DD
:105230001D4B1A6A1D4983000B441A600023FB7042
:105240000EE0FB78194A9B001344D3ED007A97EDEA
:10525000017A77EE277AC7ED017AFB780133FB708C
:10526000FB78032BEDD997ED017AF1EE006AC7EEDA
:10527000267AC7ED017A0D4B5B680C4A13600B4B25
:105280009B680A4A5360094BDB68084A9360D7ED74
:10529000017AF1EE677AB0EE670A0C37BD465DF829
:1052A000047B704764020020F06001206802002047
:1052B00080B582B002AF01230093012301220121B6
:1052C0000120FEF7F5FA2820FDF7B6FC0020FEF7D6
:1052D00025FB03461A46144BDA860220FEF71EFB16
:1052E00003461A46104B5A870320FEF717FB034666
:1052F0001A460D4B9A870420FEF710FB03461A4608
:10530000094BDA870120FEF709FB03461A46064BD4
:105310001A87002300930023002200210020FEF7BB
:10532000C7FA00BFBD4680BDF060012080B582B0E5
:1053300002AF012300930023012201210020FEF788
:10534000B7FA2820FDF778FC0020FEF7E7FA0346BD
:105350001A461A4B9A850220FEF7E0FA03461A46CF
:10536000164B1A860320FEF7D9FA03461A46134B4A
:105370005A86002300930123002200210120FEF71A
:1053800097FA2820FDF758FC0420FEF7C7FA0346D9
:105390001A460A4B9A860120FEF7C0FA03461A46BF
:1053A000064BDA8500230093002300220021002011
:1053B000FEF77EFA00BFBD4680BD00BFF060012051
:1053C00080B584B000AF0346FB800023FB814FF023
:1053D0000003BB600023FB810FE0FDF77BFBB0EE19
:1053E000407AD7ED027A77EE877AC7ED027A01200C
:1053F000FDF714FCFB890133FB81FA89FB889A4293
:10540000EBD3FB8807EE903AB8EEE77AD7ED026A65
:10541000C6EE877AC7ED027ABB6807EE903AB0EE27
:10542000670A1037BD4680BD80B584B000AF034623
:10543000FB800023FB814FF00003BB600023FB8156
:105440000FE0FDF76DFBB0EE407AD7ED027A77EE14
:10545000877AC7ED027A0120FDF7E0FBFB89013373
:10546000FB81FA89FB889A42EBD3FB8807EE903ADE
:10547000B8EEE77AD7ED026AC6EE877AC7ED027A10
:10548000BB6807EE903AB0EE670A1037BD4680BDA4
:1054900080B483B000AF0023FB71114B9B8D322B86
:1054A00003D80F4B9B8E322B03D9FB7963F0770324
:1054B000FB710B4BDB8D142B03D9FB7943F04403B9
:1054C000FB71074B5B8E1E2B03D9FB7943F0110355
:1054D000FB71FB7918460C37BD465DF8047B7047BD
:1054E000F060012080B485B000AF3B4B1B78052BEA
:1054F00016D8394B1B781A46384B598E384B23F83F
:105500001210354B1B781A46344BD98D354B23F886
:105510001210314B1B780133DAB22F4B1A7055E061
:105520002E4B5B8EFB812D4BDB8DBB810023BB6043
:1055300010E02B4ABB6832F81320FB891344FB812F
:10554000284ABB6832F81320BB891344BB81BB686F
:105550000133BB60BB68052BEBDDFA89224BA3FB53
:105560000213D21A520813449B089AB21B4B5A8654
:10557000BA891D4BA3FB0213D21A520813449B088D
:105580009AB2164BDA8500237B6014E07B68013306
:10559000134A32F81310124A7B6822F813107B6802
:1055A0000133104A32F813100E4A7B6822F81310A8
:1055B0007B6801337B607B68042BE7DD074B5A8EE9
:1055C000074B5A81054BDA8D064B5A8100BF1437C1
:1055D000BD465DF8047B704778020020F060012032
:1055E0007C020020880200202549922480B500AF6B
:1055F000FDF718FAFDF722FCFEF7A2F9034B002293
:10560000DA60024B00229A6000BF80BDF06001208A
:1056100080B500AFFDF75EFAB0EE407A2A4BD3EDCD
:10562000097A77EE677A284BC3ED077AFDF778FAA7
:10563000B0EE407A244BD3ED0A7A77EE677A9FED8D
:10564000237A67EE877A204BC3ED087AF020FDF7C6
:1056500017FC03469BB25B429BB21AB21A4B5A82AA
:105660000F20FDF70DFC03461A46174B1A82164B06
:10567000DB68154AB2F912201344134AD360124B67
:105680009B68114AB2F9102013440F4A93600E4BE5
:10569000B3F912301846FFF7EBFCF0EE407A0A4BF4
:1056A000C3ED017A084BB3F910301846FFF7E0FC60
:1056B000F0EE407A044BC3ED007AFFF737FEFFF7B8
:1056C00011FF00BF80BD00BFF060012060E51C41FC
:1056D00080B500AF6420FFF7A7FEF0EE407A074BDD
:1056E000C3ED0A7A6420FFF76BFEF0EE407A034BBD
:1056F000C3ED097AFFF7DCFD00BF80BDF06001203B
:1057000080B489B000AFF860B9607A60FB682C3370
:105710001946BB6803F440734FF44072BA61BA692A
:1057200092FAA2F27A617A69B2FA82F2D2B2D340E4
:105730009B000B44FB61FB691A68BB6803F01F0305
:105740001F2101FA03F3DB431A407B6803F01F01BA
:10575000BB6803F01F0301FA03F31A43FB691A60E5
:1057600000BF2437BD465DF8047B704780B483B02A
:1057700000AF786039607B689B6823F480623B6887
:105780001A437B689A6000BF0C37BD465DF8047B06
:10579000704780B48DB000AFF860B9607A60FB6884
:1057A0000C331946BB6803F000734FF00072BA6106
:1057B000BA6992FAA2F27A617A69B2FA82F2D2B244
:1057C000D3409B000B44FB62FB6A1A68BB6803F082
:1057D000F8734FF0F8713962396A91FAA1F1F96101
:1057E000F969B1FA81F1C9B2CB40072101FA03F39B
:1057F000DB431A40BB6803F0F8734FF0F871B962ED
:10580000B96A91FAA1F17962796AB1FA81F1C9B202
:10581000CB40796801FA03F31A43FB6A1A6000BFB0
:105820003437BD465DF8047B7047000080B485B016
:1058300000AFF860B9607A600D4ABB6813441B780A
:105840001A46FB6813441B6823F0C0020849BB6872
:105850000B441B781946FB680B4419467B681343BD
:105860000B6000BF1437BD465DF8047B704700BF76
:1058700054BD000880B485B000AFF860B9607A60AC
:105880000D4ABB6813441B781A46FB6813441B6817
:1058900023F490720849BB680B441B781946FB68D7
:1058A0000B4419467B6813430B6000BF1437BD4699
:1058B0005DF8047B704700BF54BD000880B485B01C
:1058C00000AFF860B9607A600D4ABB6813441B787A
:1058D0001A46FB6813441B6823F400720849BB682E
:1058E0000B441B781946FB680B4419467B6813432D
:1058F0000B6000BF1437BD465DF8047B704700BFE6
:1059000054BD000880B485B000AFF860B9607A601B
:105910000D4ABB6813441B781A46FB6813441B6886
:1059200023F480620849BB680B441B781946FB6866
:105930000B4419467B6813430B6000BF1437BD4608
:105940005DF8047B704700BF54BD000880B485B08B
:1059500000AFF860B9607A600D4ABB6813441B78E9
:105960001A46FB6813441B6823F4C0520849BB68FD
:105970000B441B781946FB680B4419467B6813439C
:105980000B6000BF1437BD465DF8047B704700BF55
:1059900054BD000880B485B000AFF860B9607A608B
:1059A0000D4ABB6813441B781A46FB6813441B68F6
:1059B00023F4C0420849BB680B441B781946FB68B6
:1059C0000B4419467B6813430B6000BF1437BD4678
:1059D0005DF8047B704700BF54BD000880B485B0FB
:1059E00000AFF860B9607A600D4ABB6813441B7859
:1059F0001A46FB6813441B6823F440320849BB680D
:105A00000B441B781946FB680B4419467B6813430B
:105A10000B6000BF1437BD465DF8047B704700BFC4
:105A200054BD000880B485B000AFF860B9607A60FA
:105A30000D4ABB6813441B781A46FB6813441B6865
:105A400023F060620849BB680B441B781946FB6869
:105A50000B4419467B6813430B6000BF1437BD46E7
:105A60005DF8047B704700BF54BD000880B483B06C
:105A700000AF786039600C4A3B6813441B781A46C3
:105A80007B6813445B6908493A680A4412781146F6
:105A90007A680A4423F00403536100BF0C37BD4603
:105AA0005DF8047B704700BF54BD000880B485B02A
:105AB00000AF7860084B1A6B07497B6813430B6390
:105AC000054B1A6B7B681340FB60FB6800BF143703
:105AD000BD465DF8047B70470038024080B485B055
