:020000040800F2
:1000000000000220892B0008B71B0008BD1B000858
:10001000C31B0008C91B0008CF1B0008000000001C
:10002000000000000000000000000000D51B0008D8
:10003000E31B000800000000F11B0008FF1B000884
:10004000D92B0008D92B0008D92B0008D92B000880
:10005000D92B0008D92B0008D92B0008D92B000870
:10006000D92B0008D92B0008D92B0008D92B000860
:10007000D92B0008D92B0008D92B0008D92B000850
:10008000D92B0008D92B0008D92B0008D92B000840
:10009000D92B0008D92B0008D92B0008D92B000830
:1000A000D92B0008D92B0008D92B0008D92B000820
:1000B000D92B0008D92B0008D92B0008D92B000810
:1000C000D92B0008D92B0008D92B0008D92B000800
:1000D000D92B0008D92B0008D92B0008D92B0008F0
:1000E000D92B0008D92B0008D92B0008D92B0008E0
:1000F000D92B0008D92B0008D92B0008D92B0008D0
:10010000D92B0008D92B00080D1C0008D92B00089A
:10011000D92B0008D92B0008D92B0008D92B0008AF
:10012000D92B0008D92B0008D92B0008D92B00089F
:10013000D92B00080000000000000000D92B0008A7
:10014000D92B0008D92B0008D92B0008D92B00087F
:10015000D92B0008D92B0008D92B0008D92B00086F
:10016000D92B0008D92B0008D92B0008D92B00085F
:10017000D92B0008D92B0008000000000000000067
:08018000D92B0008D92B00085F
:1001900010B5054C237833B9044B13B10448AFF3C1
:1001A00000800123237010BDD40100200000000056
:1001B0007C6B000808B5034B1BB103490348AFF340
:1001C000008008BD00000000D80100207C6B000802
:1001D000034613F8012B002AFBD1181A0138704787
:1001E00001F0FF01102A2BDB10F0070F08D010F8E8
:1001F000013B013A8B422DD010F0070F42B3F6D1EC
:10020000F0B441EA012141EA014122F007047FF004
:1002100000070023F0E80256083C85EA010586EA5B
:10022000010685FA47F5A3FA87F586FA47F6A5FA97
:1002300087F68EB9EED1F0BC01F0FF0102F00702A3
:1002400032B110F8013B013A83EA010313B1F8D14E
:100250000020704701387047002D06BF354603382F
:10026000073815F0010F07D1013015F4807F02BF68
:10027000013015F4C03F0130F0BC0138704700BFB9
:1002800081F0004102E000BF83F0004330B54FEA47
:1002900041044FEA430594EA050F08BF90EA020FB4
:1002A0001FBF54EA000C55EA020C7FEA645C7FEA47
:1002B000655C00F0E2804FEA5454D4EB5555B8BF6A
:1002C0006D420CDD2C4480EA020281EA030382EADB
:1002D000000083EA010180EA020281EA0303362D6D
:1002E00088BF30BD11F0004F4FEA01314FF4801C40
:1002F0004CEA113102D0404261EB410113F0004F52
:100300004FEA03334CEA133302D0524263EB430308
:1003100094EA050F00F0A780A4F10104D5F1200EA6
:100320000DDB02FA0EFC22FA05F2801841F1000101
:1003300003FA0EF2801843FA05F359410EE0A5F1D5
:1003400020050EF1200E012A03FA0EFC28BF4CF006
:10035000020C43FA05F3C01851EBE37101F00045BC
:1003600007D54FF0000EDCF1000C7EEB00006EEBC9
:100370000101B1F5801F1BD3B1F5001F0CD3490853
:100380005FEA30004FEA3C0C04F101044FEA4452AA
:1003900012F5800F80F09A80BCF1004F08BF5FEA31
:1003A000500C50F1000041EB045141EA050130BD11
:1003B0005FEA4C0C404141EB0101013C28BFB1F523
:1003C000801FE9D291F0000F04BF01460020B1FA6E
:1003D00081F308BF2033A3F10B03B3F120020CDA41
:1003E0000C3208DD02F1140CC2F10C0201FA0CF01F
:1003F00021FA02F10CE002F11402D8BFC2F1200C84
:1004000001FA02F120FA0CFCDCBF41EA0C01904039
:10041000E41AA2BF01EB0451294330BD6FEA040482
:100420001F3C1CDA0C340EDC04F11404C4F120026D
:1004300020FA04F001FA02F340EA030021FA04F37F
:1004400045EA030130BDC4F10C04C4F1200220FAD6
:1004500002F001FA04F340EA0300294630BD21FA14
:1004600004F0294630BD94F0000F83F4801306BFDA
:1004700081F480110134013D4EE77FEA645C18BFCE
:100480007FEA655C29D094EA050F08BF90EA020F65
:1004900005D054EA000C04BF1946104630BD91EA5D
:1004A000030F1EBF0021002030BD5FEA545C05D160
:1004B0004000494128BF41F0004130BD14F580049F
:1004C0003CBF01F5801130BD01F0004545F0FE4113
:1004D00041F470014FF0000030BD7FEA645C1ABF48
:1004E000194610467FEA655C1CBF0B46024650EA7F
:1004F000013406BF52EA033591EA030F41F40021AB
:1005000030BD00BF90F0000F04BF0021704730B530
:100510004FF4806404F132044FF000054FF0000105
:1005200050E700BF90F0000F04BF0021704730B5C6
:100530004FF4806404F1320410F0004548BF40429B
:100540004FF000013EE700BF42004FEAE2014FEAF0
:1005500031014FEA02701FBF12F07F4393F07F4FCB
:1005600081F06051704732F07F4208BF704793F0CE
:100570007F4F04BF41F40021704730B54FF46074E1
:1005800001F0004521F000411CE700BF50EA0102E4
:1005900008BF704730B54FF000050AE050EA01028D
:1005A00008BF704730B511F0004502D5404261EBFD
:1005B00041014FF4806404F132045FEA915C3FF43E
:1005C000D8AE4FF003025FEADC0C18BF03325FEADB
:1005D000DC0C18BF033202EBDC02C2F1200300FA8C
:1005E00003FC20FA02F001FA03FE40EA0E0021FAB1
:1005F00002F11444BDE600BF70B54FF0FF0C4CF49F
:10060000E06C1CEA11541DBF1CEA135594EA0C0F50
:1006100095EA0C0F00F0DEF82C4481EA030621EA8B
:100620004C5123EA4C5350EA013518BF52EA0335C6
:1006300041F4801143F4801338D0A0FB02CE4FF078
:100640000005E1FB02E506F00042E0FB03E54FF0A8
:100650000006E1FB03569CF0000F18BF4EF0010EA0
:10066000A4F1FF04B6F5007F64F5407404D25FEA9C
:100670004E0E6D4146EB060642EAC62141EA55514F
:100680004FEAC52040EA5E504FEACE2EB4F1FD0C91
:1006900088BFBCF5E06F1ED8BEF1004F08BF5FEA0F
:1006A000500E50F1000041EB045170BD06F00046C1
:1006B00046EA010140EA020081EA0301B4EB5C046E
:1006C000C2BFD4EB0C0541EA045170BD41F4801166
:1006D0004FF0000E013C00F3AB8014F1360FDEBF8B
:1006E000002001F0004170BDC4F10004203C35DA67
:1006F0000C341BDC04F11404C4F1200500FA05F3EA
:1007000020FA04F001FA05F240EA020001F000428A
:1007100021F0004110EBD37021FA04F642EB060100
:100720005EEA430E08BF20EAD37070BDC4F10C042A
:10073000C4F1200500FA04F320FA05F001FA04F2EE
:1007400040EA020001F0004110EBD37041F10001DA
:100750005EEA430E08BF20EAD37070BDC4F12005E5
:1007600000FA05F24EEA020E20FA04F301FA05F24D
:1007700043EA020321FA04F001F0004121FA04F2F5
:1007800020EA020000EBD3705EEA430E08BF20EAC5
:10079000D37070BD94F0000F0FD101F000464000FF
:1007A00041EB010111F4801F08BF013CF7D041EA81
:1007B000060195F0000F18BF704703F00046520085
:1007C00043EB030313F4801F08BF013DF7D043EA56
:1007D0000603704794EA0C0F0CEA135518BF95EA0C
:1007E0000C0F0CD050EA410618BF52EA4306D1D193
:1007F00081EA030101F000414FF0000070BD50EAB2
:10080000410606BF1046194652EA430619D094EA3B
:100810000C0F02D150EA013613D195EA0C0F05D125
:1008200052EA03361CBF104619460AD181EA030179
:1008300001F0004141F0FE4141F470014FF0000031
:1008400070BD41F0FE4141F4780170BD70B54FF0CC
:10085000FF0C4CF4E06C1CEA11541DBF1CEA13554C
:1008600094EA0C0F95EA0C0F00F0A7F8A4EB05042E
:1008700081EA030E52EA03354FEA013100F0888025
:100880004FEA03334FF0805545EA131343EA1263EE
:100890004FEA022245EA111545EA10654FEA0026A3
:1008A0000EF000419D4208BF964244F1FD0404F55C
:1008B000407402D25B084FEA3202B61A65EB0305B8
:1008C0005B084FEA32024FF480104FF4002CB6EB75
:1008D000020E75EB030E22BFB61A754640EA0C00F5
:1008E0005B084FEA3202B6EB020E75EB030E22BF35
:1008F000B61A754640EA5C005B084FEA3202B6EB76
:10090000020E75EB030E22BFB61A754640EA9C0034
:100910005B084FEA3202B6EB020E75EB030E22BF04
:10092000B61A754640EADC0055EA060E18D04FEAC2
:10093000051545EA16754FEA06164FEAC30343EA62
:1009400052734FEAC2025FEA1C1CC0D111F4801F2F
:100950000BD141EA00014FF000004FF0004CB6E728
:1009600011F4801F04BF01430020B4F1FD0C88BFC7
:10097000BCF5E06F3FF6AFAEB5EB030C04BFB6EBD2
:10098000020C5FEA500C50F1000041EB045170BDC5
:100990000EF0004E4EEA113114EB5C04C2BFD4EBF2
:1009A0000C0541EA045170BD41F480114FF0000E76
:1009B000013C90E645EA060E8DE60CEA135594EAF2
:1009C0000C0F08BF95EA0C0F3FF43BAF94EA0C0FF5
:1009D0000AD150EA01347FF434AF95EA0C0F7FF46A
:1009E00025AF104619462CE795EA0C0F06D152EABE
:1009F00003353FF4FDAE1046194622E750EA4106A2
:100A000018BF52EA43067FF4C5AE50EA41047FF4B2
:100A10000DAF52EA43057FF4EBAE12E74FF0FF3C17
:100A200006E000BF4FF0010C02E000BF4FF0010CE8
:100A30004DF804CD4FEA410C7FEA6C5C4FEA430C61
:100A400018BF7FEA6C5C1BD001B050EA410C0CBFB0
:100A500052EA430C91EA030F02BF90EA020F002012
:100A6000704710F1000F91EA030F58BF994208BF79
:100A700090422CBFD8176FEAE37040F00100704736
:100A80004FEA410C7FEA6C5C02D150EA013C07D18D
:100A90004FEA430C7FEA6C5CD6D152EA033CD3D0D8
:100AA0005DF8040B704700BF8446104662468C46D2
:100AB0001946634600E000BF01B5FFF7B7FF002805
:100AC00048BF10F1000F01BD4DF808EDFFF7F4FF2E
:100AD0000CBF012000205DF808FB00BF4DF808EDB9
:100AE000FFF7EAFF34BF012000205DF808FB00BFDC
:100AF0004DF808EDFFF7E0FF94BF012000205DF8FE
:100B000008FB00BF4DF808EDFFF7CEFF94BF0120B2
:100B100000205DF808FB00BF4DF808EDFFF7C4FFAB
:100B200034BF012000205DF808FB00BF4FEA410CF4
:100B30007FEA6C5C02D150EA013C0AD14FEA430CD7
:100B40007FEA6C5C02D152EA033C02D14FF0000014
:100B500070474FF0010070474FEA410212F5001252
:100B600015D211D56FF47873B3EB625212D94FEAF4
:100B7000C12343F0004343EA505311F0004F23FADE
:100B800002F018BF404270474FF00000704750EA33
:100B9000013005D111F0004008BF6FF000407047F0
:100BA0004FF00000704700BF53B94AB9002908BF91
:100BB00000281CBF4FF0FF314FF0FF3000F06EB93E
:100BC000ADF1080C6DE904CE00F006F8DDF804E0A4
:100BD000DDE9022304B070472DE9F047089D044683
:100BE0008C46002B40F083808A42174647D9B2FAE0
:100BF00082F242B1C2F1200024FA00F09140974005
:100C000040EA010C94404FEA1748230CBCFBF8F66D
:100C10001FFA87FE08FB16C143EA014306FB0EF1EB
:100C2000994209D9FB1806F1FF3080F019819942E9
:100C300040F21681023E3B445B1AA4B2B3FBF8F0CB
:100C400008FB103344EA034400FB0EFEA64509D915
:100C50003C1900F1FF3380F00581A64540F2028186
:100C600002383C4440EA0640A4EB0E0400261DB1C5
:100C7000D4400023C5E900433146BDE8F08702B9FE
:100C8000FFDEB2FA82F2002A50D1CB1B4FEA174E98
:100C90001FFA87F80126B3FBFEFC210C0EFB1C3368
:100CA00041EA034108FB0CF38B4207D979180CF198
:100CB000FF3002D28B4200F2E9808446C91AA3B207
:100CC000B1FBFEF00EFB101143EA014408FB00F8F3
:100CD000A04507D93C1900F1FF3302D2A04500F22C
:100CE000D9801846A4EB080440EA0C40BFE78B42C9
:100CF00009D9002D00F0B1800026C5E90001304679
:100D00003146BDE8F087B3FA83F6002E4AD18B4214
:100D100002D3824200F2B880841A61EB0301012001
:100D20008C46002DA8D0C5E9004CA5E7C2F12003F0
:100D300020FA03F6974001FA02F04FEA174ED94025
:100D40003043030CB1FBFEF61FFA87F80EFB1611B9
:100D500043EA014306FB08F1994204FA02F409D977
:100D6000FB1806F1FF3C80F08D80994240F28A80AA
:100D7000023E3B445B1A81B2B3FBFEF00EFB103324
:100D800041EA034100FB08F38B4207D9791800F1CF
:100D9000FF3C73D28B4271D902383944CB1A40EAF6
:100DA000064678E7C6F1200C03FA06F422FA0CF3A3
:100DB0001C4320FA0CF701FA06F34FEA144E21FA0D
:100DC0000CF11F433B0CB1FBFEF91FFA84F80EFB3C
:100DD000191143EA014109FB08FA8A4502FA06F2B1
:100DE00000FA06F308D9611809F1FF3048D28A45A4
:100DF00046D9A9F102092144A1EB0A01BFB2B1FB16
:100E0000FEF00EFB101147EA014700FB08F8B84559
:100E100007D9E71900F1FF312ED2B8452CD9023895
:100E2000274440EA0940A7EB0807A0FB02894F4589
:100E3000C64649461AD317D05DB1B3EB0E0267EB35
:100E4000010707FA0CFCF2404CEA0202F740C5E940
:100E5000002700263146BDE8F0872E4628460BE7DE
:100E60000646E9E61846FDE64345E5D2B8EB020E34
:100E700069EB04010138DFE70846D2E760468DE7F9
:100E80008146B9E7664675E730464AE7ACF1020CA1
:100E9000394413E702383C4424E700BF704700BFE1
:100EA00080B582B000AF0346FB80FB88184603F094
:100EB00045F800BF0837BD4680BD80B483B000AFA1
:100EC00078607B681B6843F001027B681A6000BF92
:100ED0000C37BD465DF8047B704780B483B000AF2B
:100EE000786039607B683A685A6200BF0C37BD464B
:100EF0005DF8047B704780B483B000AF78603960E0
:100F00007B683A68DA6200BF0C37BD465DF8047B47
:100F1000704780B483B000AF786039607B681A6A2C
:100F20003B681A437B681A6200BF0C37BD465DF808
:100F3000047B704780B483B000AF786039607B6811
:100F40003A681A6400BF0C37BD465DF8047B7047F1
:100F500080B483B000AF78607B685B6C43F4004280
:100F60007B685A6400BF0C37BD465DF8047B704750
:100F700080B500AF4FF480510548FFF7CAFF044821
:100F8000FFF79BFF0248FFF7E3FF00BF80BD00BFF4
:100F90000004014080B500AF00210248FFF7CAFFFE
:100FA00000BF80BD0004014080B582B000AF0346A1
:100FB0000A46FB801346BB80FB880F4A92FBF3F383
:100FC00019460E48FFF797FFFB884CF2503292FB10
:100FD000F3F319460948FFF7ADFF00210748FFF773
:100FE0007CFFBB881846FFF75BFFFFF7D3FF00BF0E
:100FF0000837BD4680BD00BFA08601000004014047
:1010000080B483B000AF0346FB71FB79002B04D1A1
:10101000074B4FF480429A6103E0054B4FF080424A
:101020009A6100BF0C37BD465DF8047B704700BF76
:101030000004024080B483B000AF0346FB71FB792B
:10104000002B04D1074B4FF400429A6103E0054B9B
:101050004FF000429A6100BF0C37BD465DF8047B3B
:10106000704700BF0004024080B483B000AF034665
:10107000FB71FB79002B04D1074B4FF480729A610E
:1010800003E0054B4FF080729A6100BF0C37BD46FC
:101090005DF8047B704700BF0008024080B483B055
:1010A00000AF0346FB71FB79002B03D1064B1022E6
:1010B0009A6103E0044B4FF480129A6100BF0C3731
:1010C000BD465DF8047B70470004024080B483B0E5
:1010D00000AF0346FB71FB79002B03D1064B2022A6
:1010E0009A6103E0044B4FF400129A6100BF0C3781
:1010F000BD465DF8047B70470004024080B500AF38
:101100000D4B1B8801339AB20B4B1A800A4B1B887C
:1011100040F6B832934203D9084B00221A8002E00D
:10112000064B01221A80054B1B88DBB21846FFF7DD
:10113000CDFF00BF80BD00BF00020020F0010020F5
:1011400080B500AF64214FF4C460FFF72DFF642128
:1011500040F62D00FFF728FF642140F62D10FFF721
:1011600023FF642140F64D20FFF71EFF642140F667
:101170002D10FFF719FF3220FFF792FE322140F6C3
:101180002D00FFF711FF3220FFF78AFEC82140F63D
:101190002D00FFF709FF00BF80BD80B489B000AF0C
:1011A000F860B9607A60FB682C331946BB6803F4B9
:1011B00040734FF44072BA61BA6992FAA2F27A614E
:1011C0007A69B2FA82F2D2B2D3409B000B44FB613F
:1011D000FB691A68BB6803F01F031F2101FA03F3C0
:1011E000DB431A407B6803F01F01BB6803F01F0359
:1011F00001FA03F31A43FB691A6000BF2437BD46A6
:101200005DF8047B704780B483B000AF78603960CC
:101210007B689B6823F480623B681A437B689A6012
:1012200000BF0C37BD465DF8047B704780B48DB0BD
:1012300000AFF860B9607A60FB680C331946BB6890
:1012400003F000734FF00072BA61BA6992FAA2F229
:101250007A617A69B2FA82F2D2B2D3409B000B442F
:10126000FB62FB6A1A68BB6803F0F8734FF0F87111
:101270003962396A91FAA1F1F961F969B1FA81F13A
:10128000C9B2CB40072101FA03F3DB431A40BB6824
:1012900003F0F8734FF0F871B962B96A91FAA1F1ED
:1012A0007962796AB1FA81F1C9B2CB40796801FA01
:1012B00003F31A43FB6A1A6000BF3437BD465DF87A
:1012C000047B704780B485B000AF7860084B1A6B20
:1012D00007497B6813430B63054B1A6B7B6813400C
:1012E000FB60FB6800BF1437BD465DF8047B7047A8
:1012F0000038024080B485B000AF7860084B5A6C6B
:1013000007497B6813434B64054B5A6C7B68134059
:10131000FB60FB6800BF1437BD465DF8047B704777
:101320000038024080B592B000AF07F13C030022C4
:101330001A605A609A6007F1280300221A605A6006
:101340009A60DA601A6107F1180300221A605A6085
:101350009A60DA603B4600221A605A609A60DA604E
:101360001A615A614FF48070FFF7C4FF0120FFF744
:10137000A9FF37233B6003237B6000233B613B468F
:1013800019461F4801F00BFE0023FB6300233B645A
:1013900000237B6407F13C0319461A4801F08CFCDA
:1013A0000023BB620023FB6200233B6300237B63BB
:1013B0000023BB6307F128031946124801F0A8FC7B
:1013C0004FF480610F48FFF71EFF0023BB6100232D
:1013D000FB6107F1180319460B4801F025FC4FF09B
:1013E00000724FF400710748FFF7D7FE00224FF05C
:1013F00000710448FFF71AFF00BF4837BD4680BDA3
:1014000000000240002001400023014080B485B06C
:1014100000AF7860084B1A6B07497B6813430B6376
:10142000054B1A6B7B681340FB60FB6800BF1437E9
:10143000BD465DF8047B70470038024080B483B03D
:1014400000AF786039603B681A047B689A6100BF1E
:101450000C37BD465DF8047B7047000080B586B050
:1014600000AF3B4600221A605A609A60DA601A6147
:101470005A610420FFF7CAFF0120FFF7C7FF0220CF
:10148000FFF7C4FF0820FFF7C1FF4FF49671304803
:10149000FFF7D4FF4CF2C8012E48FFF7CFFF4CF204
:1014A00033012D48FFF7CAFF04212C48FFF7C6FF80
:1014B0004FF496733B6001237B600023BB600023E5
:1014C000FB6000233B613B461946214801F067FD64
:1014D0004CF2C8033B6001237B600023BB60002308
:1014E000FB6000233B613B4619461A4801F057FD5B
:1014F0004CF233033B6001237B600023BB6000237D
:10150000FB6000233B613B461946134801F047FD51
:1015100004233B6001237B600023BB600023FB604E
:1015200000233B613B4619460C4801F038FD4FF45F
:1015300080733B6000237B6000233B613B46194680
:10154000054801F02CFD00BF1837BD4680BD00BF27
:10155000000802400000024000040240000C02406B
:1015600080B485B000AF78607B6803F00703FB6050
:101570000C4BDB68BB60BA684FF6FF031340BB60DF
:10158000FB681A02BB68134343F0BF6343F40033A4
:10159000BB60044ABB68D36000BF1437BD465DF82A
:1015A000047B704700ED00E080B400AF054B1B6882
:1015B000044A43F00103136000BFBD465DF8047B9D
:1015C000704700BF0038024080B400AF064B1B6874
:1015D00003F00203022B0CBF01230023DBB21846E9
:1015E000BD465DF8047B70470038024080B483B08C
:1015F00000AF7860074B1B6823F0F8027B68DB00C4
:10160000044913430B6000BF0C37BD465DF8047BF3
:10161000704700BF0038024080B483B000AF7860EC
:10162000064B9B6823F0030204497B6813438B60DD
:1016300000BF0C37BD465DF8047B704700380240A0
:1016400080B400AF044B9B6803F00C031846BD4602
:101650005DF8047B704700BF0038024080B483B05F
:1016600000AF7860064B9B6823F0F00204497B686A
:1016700013438B6000BF0C37BD465DF8047B704799
:101680000038024080B483B000AF7860064B9B689E
:1016900023F4E05204497B6813438B6000BF0C378E
:1016A000BD465DF8047B70470038024080B483B0CB
:1016B00000AF7860064B9B6823F4604204497B6866
:1016C00013438B6000BF0C37BD465DF8047B704749
:1016D0000038024080B400AF054B1B68044A43F059
:1016E0008073136000BFBD465DF8047B704700BF88
:1016F0000038024080B400AF074B1B6803F0007352
:10170000B3F1007F0CBF01230023DBB21846BD46B6
:101710005DF8047B704700BF0038024080B485B09C
:1017200000AFF860B9607A603B600D4B5A680D4BB2
:101730001340F968BA6811437A6892010A4308496C
:1017400013434B60064B5B6823F4403204493B680B
:1017500013434B6000BF1437BD465DF8047B7047F0
:10176000003802400080BFFF80B485B000AF7860D1
:10177000084B1A6C07497B6813430B64054B1A6CC2
:101780007B681340FB60FB6800BF1437BD465DF803
:10179000047B70470038024080B485B000AF7860A9
:1017A000084B5A6C07497B6813434B64054B5A6CD2
:1017B0007B681340FB60FB6800BF1437BD465DF8D3
:1017C000047B70470038024080B483B000AF78607B
:1017D000064B1B6823F0070204497B6813430B6028
:1017E00000BF0C37BD465DF8047B7047003C0240EB
:1017F00080B400AF044B1B6803F007031846BD46D6
:101800005DF8047B704700BF003C024080B483B0A9
:1018100000AF7860064B1B6823F4804204497B6864
:1018200013430B6000BF0C37BD465DF8047B704767
:101830000070004080B483B000AF78607B681B68A4
:1018400043F001027B681A6000BF0C37BD465DF8AB
:10185000047B704780B483B000AF78607B68DB683E
:1018600043F001027B68DA6000BF0C37BD465DF8CB
:10187000047B704780B483B000AF78607B681B68DE
:1018800003F08003802B0CBF01230023DBB218463A
:101890000C37BD465DF8047B704780B483B000AF61
:1018A00078600B46FB70FA787B685A6000BF0C3793
:1018B000BD465DF8047B704780B582B000AF7860AC
:1018C0007B68DBB219460748FFF7E7FF00BF054812
:1018D000FFF7D0FF0346002BF9D000231846083746
:1018E000BD4680BD0010014080B500AF4FF4804080
:1018F000FFF752FF4FF08050FFF736FF0320FFF74E
:101900002FFE294B1B689B680021184603F000F846
:1019100000F052F8FFF7A2FDFFF704FD00F04AFDCA
:1019200000F0E2FD00F056FE00F0CEFE00F086FF73
:1019300001F0DAF800F0CAF801F01AF800F03EFF02
:10194000FFF716FB0120FFF7ABFAFFF7F9FB17488B
:10195000FFF780FF1548FFF76DFF0120FFF750FBF1
:101960000120FFF767FB0120FFF77EFB0120FFF757
:1019700095FB0F4B1B8819460E4802F0B1FF4FF440
:10198000FA7002F0DBFA0020FFF73AFB0020FFF7C5
:1019900051FB0020FFF768FB0020FFF77FFB4FF4AF
:1019A000FA7002F0CBFAD8E704000020000C0040E7
:1019B00000020020986B000880B500AF0520FFF7FB
:1019C00003FF00BFFFF714FF0346052BFAD14FF4C6
:1019D0008040FFF71BFF1020FFF708FEFFF7E4FD34
:1019E00000BFFFF7F1FD0346012BFAD10023A82227
:1019F00008210020FFF792FEFFF76CFE00BFFFF703
:101A000079FE0346012BFAD10020FFF727FE4FF4A1
:101A1000A050FFF737FE4FF42040FFF747FE0220AB
:101A2000FFF7FAFD00BFFFF70BFE0346082BFAD1C4
:101A3000034802F075FA024802F0A6FA00BF80BD22
:101A4000007A030A80B485B000AF7860084B1A6B47
:101A500007497B6813430B63054B1A6B7B68134084
:101A6000FB60FB6800BF1437BD465DF8047B704720
:101A70000038024080B485B000AF7860084B1A6C23
:101A800007497B6813430B64054B1A6C7B68134052
:101A9000FB60FB6800BF1437BD465DF8047B7047F0
:101AA0000038024080B483B000AF786039607B6852
:101AB0005B6823F010023B681A437B685A6000BFE2
:101AC0000C37BD465DF8047B7047000080B590B0D0
:101AD00000AF07F1180328220021184602F08EFA01
:101AE0003B4600221A605A609A60DA601A615A61B5
:101AF0004FF40040FFF7BEFF0420FFF7A3FF4FF4B1
:101B0000E0533B6002237B600323BB600023FB6048
:101B100000233B6106237B613B461946134801F0D5
:101B20003EFA0023BB614FF48273FB6100233B62EA
:101B300002237B620123BB624FF40073FB6200232C
:101B40003B6300237B630023BB630A23FB6307F132
:101B500018031946064801F0F2FB00210448FFF77C
:101B6000A1FF00BF4037BD4680BD00BF0008024056
:101B7000003C004080B483B000AF78607B686FF0B9
:101B800001021A6100BF0C37BD465DF8047B704747
:101B900080B483B000AF78607B681B6903F00103F9
:101BA000012B01D1012300E0002318460C37BD466C
:101BB0005DF8047B704780B400AFFEE780B400AFEF
:101BC000FEE780B400AFFEE780B400AFFEE780B46C
:101BD00000AFFEE780B400AF00BFBD465DF8047BF8
:101BE000704780B400AF00BFBD465DF8047B70470E
:101BF00080B400AF00BFBD465DF8047B704780B481
:101C000000AF00BFBD465DF8047B704780B500AFF4
:101C1000FFF774FA0548FFF7BBFF0346012B02D11B
:101C20000248FFF7A7FF00BF80BD00BF000C0040C7
:101C300080B400AF01231846BD465DF8047B7047B1
:101C400080B582B000AF7860396002F0ADF903462C
:101C500016221A604FF0FF3318460837BD4680BD84
:101C600080B582B000AF78604FF0FF317868FFF741
:101C7000E7FFFEE780B586B000AFF860B9607A6034
:101C800000237B610AE0AFF300800146BB685A1C69
:101C9000BA60CAB21A707B6901337B617A697B686A
:101CA0009A42F0DB7B6818461837BD4680BD80B588
:101CB00086B000AFF860B9607A6000237B6109E00C
:101CC000BB685A1CBA601B781846FFF7F5FD7B69A4
:101CD00001337B617A697B689A42F1DB7B68184645
:101CE0001837BD4680BD80B483B000AF78604FF038
:101CF000FF3318460C37BD465DF8047B704780B44F
:101D000083B000AF786039603B684FF400525A608E
:101D1000002318460C37BD465DF8047B704780B43D
:101D200083B000AF7860012318460C37BD465DF8DC
:101D3000047B704780B485B000AFF860B9607A600A
:101D4000002318461437BD465DF8047B7047000039
:101D500080B586B000AF7860144A154BD31A7B610A
:101D60007B693B61134B1B68002B02D1114B124A5C
:101D70001A60104B1A687B6813443A699A4207D27A
:101D800002F012F903460C221A604FF0FF3309E00B
:101D9000084B1B68FB60074B1A687B681344054AB5
:101DA0001360FB6818461837BD4680BD000002204E
:101DB00000040000F40100201002002080B400AFF5
:101DC000084BD3F88830074A43F47003C2F88830D0
:101DD000044B4FF000629A6000BFBD465DF8047B83
:101DE000704700BF00ED00E080B400AF044BDB683B
:101DF0001B0A03F007031846BD465DF8047B7047D5
:101E000000ED00E080B483B000AF0346FB7197F9AA
:101E10000730002B0BDBFB7903F01F02074997F912
:101E200007305B09012000FA02F241F8232000BFCD
:101E30000C37BD465DF8047B704700BF00E100E051
:101E400080B483B000AF03463960FB7197F9073067
:101E5000002B0ADB3B68DAB20C4997F90730120114
:101E6000D2B20B4483F800230AE03B68DAB2084997
:101E7000FB7903F00F03043B1201D2B20B441A7634
:101E800000BF0C37BD465DF8047B704700E100E001
:101E900000ED00E080B489B000AFF860B9607A600E
:101EA000FB6803F00703FB61FB69C3F10703042B25
:101EB00028BF0423BB61FB690433062B02D9FB69ED
:101EC000033B00E000237B614FF0FF32BB6902FA65
:101ED00003F3DA43BB681A407B699A404FF0FF3145
:101EE0007B6901FA03F3D9437B680B40134318461F
:101EF0002437BD465DF8047B7047000080B485B090
:101F000000AF7860084B1A6B07497B6813430B637B
:101F1000054B1A6B7B681340FB60FB6800BF1437EE
:101F2000BD465DF8047B70470038024080B485B040
:101F300000AF7860084B1A6C07497B6813430B6449
:101F4000054B1A6C7B681340FB60FB6800BF1437BD
:101F5000BD465DF8047B70470038024080B485B010
:101F600000AF7860084B5A6C07497B6813434B6499
:101F7000054B5A6C7B681340FB60FB6800BF14374D
:101F8000BD465DF8047B70470038024080B483B0E2
:101F900000AF78607B681B6823F080027B681A6062
:101FA00000BF0C37BD465DF8047B704780B485B038
:101FB00000AF786039603B68012B1CD03B68042B74
:101FC00017D03B68102B12D03B68402B0DD03B68DC
:101FD000B3F5807F07D03B68B3F5806F01D105234F
:101FE0000AE0062308E0042306E0032304E00223BA
:101FF00002E0012300E00023FB737B6818331946DD
:10200000FB7B0B4AD35C0B44BB60BB681A68FB7B51
:102010000849CB5C194604238B40DB431A40BB685C
:102020001A6000BF1437BD465DF8047B704700BFDF
:10203000C86B0008D06B000880B485B000AF786032
:1020400039603B68012B1CD03B68042B17D03B68E0
:10205000102B12D03B68402B0DD03B68B3F5807F2E
:1020600007D03B68B3F5806F01D105230AE0062352
:1020700008E0042306E0032304E0022302E0012336
:1020800000E00023FB737B6818331946FB7B0A4A88
:10209000D35C0B44BB60BB681A68FB7B0749CB5C15
:1020A000194608238B401A43BB681A6000BF1437D7
:1020B000BD465DF8047B7047C86B0008D06B000814
:1020C00080B487B000AFF860B9607A60BB68012B5C
:1020D0001CD0BB68042B17D0BB68102B12D0BB6878
:1020E000402B0DD0BB68B3F5807F07D0BB68B3F53C
:1020F000806F01D105230AE0062308E0042306E0EF
:10210000032304E0022302E0012300E00023FB7527
:10211000FB6818331946FB7D0E4AD35C0B443B61C8
:102120003B691A68FB7D0C49CB5C194603238B4045
:10213000DB431A407B681B0CF97D0748415C8B40F0
:102140001A433B691A6000BF1C37BD465DF8047B2B
:10215000704700BFC86B0008D86B000880B487B018
:1021600000AFF860B9607A60BB68012B1CD0BB6817
:10217000042B17D0BB68102B12D0BB68402B0DD09E
:10218000BB68B3F5807F07D0BB68B3F5806F01D122
:1021900005230AE0062308E0042306E0032304E005
:1021A000022302E0012300E00023FB75FB681833E3
:1021B0001946FB7D0E4AD35C0B443B613B691A68B0
:1021C000FB7D0C49CB5C19460C238B40DB431A404A
:1021D0007B681B0CF97D0748415C8B401A433B69C7
:1021E0001A6000BF1C37BD465DF8047B704700BF16
:1021F000C86B0008D86B000880B487B000AFF860E7
:10220000B9607A60BB68012B1CD0BB68042B17D067
:10221000BB68102B12D0BB68402B0DD0BB68B3F548
:10222000807F07D0BB68B3F5806F01D105230AE03A
:10223000062308E0042306E0032304E0022302E06F
:10224000012300E00023FB75FB6818331946FB7D72
:102250000E4AD35C0B443B613B691A68FB7D0C4919
:10226000CB5C1946F0238B40DB431A407B681B0C88
:10227000F97D0748415C8B401A433B691A6000BFF7
:102280001C37BD465DF8047B704700BFC86B000873
:10229000D86B000880B487B000AFF860B9607A608E
:1022A000BB68012B1CD0BB68042B17D0BB68102B5C
:1022B00012D0BB68402B0DD0BB68B3F5807F07D030
:1022C000BB68B3F5806F01D105230AE0062308E05F
:1022D000042306E0032304E0022302E0012300E0DC
:1022E0000023FB75FB681A6AFB7D0B49CB5C194622
:1022F0000A238B40DB431A40FB7D0749CB5C194620
:102300007B688B401A43FB681A6200BF1C37BD46CE
:102310005DF8047B704700BFE06B000880B483B0B9
:1023200000AF786039607B689B6823F4804323F0BA
:1023300007033A681A437B689A6000BF0C37BD46B2
:102340005DF8047B704780B483B000AF786039607B
:102350007B689B6823F007023B681A437B689A609E
:1023600000BF0C37BD465DF8047B704780B483B076
:1023700000AF786039607B685B6823F070023B686F
:102380001A437B685A6000BF0C37BD465DF8047B7A
:10239000704780B483B000AF78607B689B6823F09F
:1023A00080027B689A6000BF0C37BD465DF8047BF5
:1023B0007047000080B59AB000AF07F154030022C7
:1023C0001A605A609A60DA601A6107F134032022B9
:1023D0000021184601F012FE07F11C0300221A60CA
:1023E0005A609A60DA601A615A613B1D00221A60D5
:1023F0005A609A60DA601A615A610120FFF7AEFDF7
:102400000023A7F854300023BB65344BFB65002341
:102410003B6600237B6607F154031946304801F000
:1024200053F82F48FFF7B2FD00212D48FFF776FF44
:1024300001212B48FFF700FE60237B630023BB6371
:102440000023FB6300233B6400237B640023BB6405
:102450000023FB6400233B6507F134031A46012186
:102460001F4801F0CBF801211D48FFF79FFD002117
:102470001B48FFF77BFF1A48FFF78BFF0023FB6128
:1024800000233B6200237B62002387F8283000236F
:102490007B854FF40053FB6200233B6307F11C0371
:1024A00019460F4801F0EBF80120FFF727FD4FF424
:1024B00080737B600223BB600023FB6000233B61D1
:1024C00000237B610123BB613B1D1946054800F0D9
:1024D00066FD00BF6837BD4680BD00BFE803F0FF62
:1024E000000001400000024080B594B000AF07F149
:1024F0003C0300221A605A609A60DA601A6107F1A0
:102500001C0320220021184601F078FD3B1D00220B
:102510001A605A609A60DA601A615A610120FFF706
:1025200005FD0023BB8700233B64284B7B6400230D
:10253000BB6407F13C0319464FF0804000F0C4FF34
:102540004FF08040FFF722FD00214FF08040FFF761
:10255000E5FE10214FF08040FFF76EFD6023FB6128
:1025600000233B6200237B620023BB620023FB62EB
:1025700007F11C031A4610214FF0804001F03EF88D
:1025800010214FF08040FFF711FD00214FF08040F7
:10259000FFF7ECFE4FF08040FFF7FBFE0220FFF755
:1025A000ADFC08237B600223BB600023FB6000239B
:1025B0003B6100237B610123BB613B1D194604483D
:1025C00000F0EDFC00BF5037BD4680BDE803F0FFD2
:1025D0000004024080B58CB000AF07F11C0300225C
:1025E0001A605A609A60DA601A613B1D00221A6014
:1025F0005A609A60DA601A615A610220FFF796FC0D
:102600000420FFF77BFCC0237B600223BB60002318
:10261000FB6000233B6100237B610223BB613B1D08
:102620001946274800F0BBFC01212648FFF78BFE26
:102630004FF4803201212348FFF742FD002201219F
:102640002048FFF78BFD002201211E48FFF7D4FD33
:10265000002201211B48FFF71DFE4FF4803210219C
:102660001848FFF72DFD002210211648FFF776FDD0
:10267000002210211348FFF7BFFD0022102111484E
:10268000FFF708FE0023BB8300233B624FF6FF7376
:102690007B620023BB6207F11C031946094800F066
:1026A00013FF0848FFF772FC00210648FFF75EFEA3
:1026B0000448FFF76EFE00BF3037BD4680BD00BF47
:1026C000000802400004004080B58CB000AF07F164
:1026D0001C0300221A605A609A60DA601A613B1D7E
:1026E00000221A605A609A60DA601A615A61042006
:1026F000FFF71CFC0220FFF701FCC0237B600223D4
:10270000BB600023FB6000233B6100237B6102234D
:10271000BB613B1D1946274800F041FC01212648BA
:10272000FFF711FE4FF4803201212348FFF7C8FC68
:10273000002201212048FFF711FD002201211E483F
:10274000FFF75AFD002201211B48FFF7A3FD4FF4BC
:10275000803210211848FFF7B3FC002210211648E0
:10276000FFF7FCFC002210211348FFF745FD002273
:1027700010211148FFF78EFD0023BB8300233B622D
:102780004FF6FF737B620023BB6207F11C031946FF
:10279000094800F099FE0848FFF7F8FB00210648B9
:1027A000FFF7E4FD0448FFF7F4FD00BF3037BD46F6
:1027B00080BD00BF000402400008004080B586B024
:1027C00000AF3B1D00221A605A609A60DA601A61FD
:1027D0000820FFF7ABFBFFF707FB034600220021B1
:1027E0001846FFF757FB034619463220FFF728FB30
:1027F0003220FFF707FB5323BB800023BB6040F26E
:10280000E733FB6000233B613B1D19460A4800F09B
:102810005BFE0948FFF7BAFB00210748FFF77EFD82
:1028200000210548FFF7A2FD0348FFF7B2FD00BFF6
:102830001837BD4680BD00BF000C004080B59AB07F
:1028400000AF07F1540300221A605A609A60DA6000
:102850001A6107F1340320220021184601F0CEFB53
:1028600007F11C0300221A605A609A60DA601A614C
:102870005A613B1D00221A605A609A60DA601A6140
:102880005A610220FFF76AFB40F24733A7F8543041
:102890000023BB6542F21073FB6500233B660023F7
:1028A0007B6607F1540319462F4800F00DFE2E48B1
:1028B000FFF76CFB00212C48FFF730FD4FF48051EF
:1028C0002948FFF7B9FB60237B630023BB63002328
:1028D000FB6364233B6400237B640023FB640023CD
:1028E0003B6507F134031A464FF480511E4800F04F
:1028F00085FE4FF480511C48FFF758FB00211A4811
:10290000FFF734FD1848FFF744FD0023FB61002367
:102910003B6200237B62002387F8283000237B85FD
:102920004FF40053FB6200233B6307F11C0319467D
:102930000D4800F0A4FE0420FFF7E0FA4FF4007306
:102940007B600223BB600023FB6000233B6100230C
:102950007B610323BB613B1D1946044800F01FFB4C
:1029600000BF6837BD4680BD00040140000802403A
:1029700080B594B000AF07F13C0300221A605A60A2
:102980009A60DA601A6107F11C03202200211846C0
:1029900001F034FB3B1D00221A605A609A60DA6035
:1029A0001A615A614FF48020FFF7D8FA0023BB87E1
:1029B00000233B644FF6FF737B640023BB6407F185
:1029C0003C0319461B4800F07FFD1A48FFF7DEFA6A
:1029D00001211848FFF730FB6023FB6100233B62B5
:1029E00000237B620023BB620023FB6207F11C0310
:1029F0001A4601210F4800F001FE01210D48FFF7A2
:102A0000D5FA0220FFF77AFA4FF400737B600223B5
:102A1000BB600023FB6000233B6100237B61032339
:102A2000BB613B1D1946044800F0B9FA00BF50379E
:102A3000BD4680BD004801400004024080B485B01E
:102A400000AF7860084B1A6B07497B6813430B6330
:102A5000054B1A6B7B681340FB60FB6800BF1437A3
:102A6000BD465DF8047B70470038024080B485B0F5
:102A700000AF7860084B5A6C07497B6813434B647E
:102A8000054B5A6C7B681340FB60FB6800BF143732
:102A9000BD465DF8047B70470038024080B483B0C7
:102AA00000AF78607B68DB6843F400527B68DA60D3
:102AB00000BF0C37BD465DF8047B704780B483B01F
:102AC00000AF78607B681B6923F490427B681A61D1
:102AD0007B685B6923F02A027B685A6100BF0C3770
:102AE000BD465DF8047B704780B58EB000AF07F13E
:102AF0001C0300221A605A609A60DA601A615A61F7
:102B00009A613B1D00221A605A609A60DA601A616D
:102B10005A611020FFF7AAFF0120FFF78FFF4FF443
:102B2000C0637B600223BB600323FB6000233B6127
:102B300000237B610723BB613B1D1946104800F051
:102B40002EFA4FF41653FB6100233B6200237B6295
:102B50000023BB620C23FB6200233B6300237B63E7
:102B600007F11C031946074801F040F90548FFF733
:102B7000A5FF0448FFF792FF00BF3837BD4680BD70
:102B80000000024000100140DFF834D0002103E0D3
:102B90000C4B5B58435004310B480C4B42189A4283
:102BA000F6D30B4A02E0002342F8043B094B9A4259
:102BB000F9D3FFF703F901F0FDF9FEF795FE704731
:102BC00000000220DC6F000800000020D40100207B
:102BD000D401002010020020FEE780B483B000AFD3
:102BE000786039607B68DB6A23F470023B681A43C3
:102BF0007B68DA6200BF0C37BD465DF8047B704726
:102C000080B483B000AF78607B689B6803F00103F9
:102C1000012B0CBF01230023DBB218460C37BD4645
:102C20005DF8047B7047000090B585B000AF786018
:102C300039600023FB731C48FFF7E2FF04461B4882
:102C4000FFF7DEFF03461C431948FFF7D9FF034691
:102C50002343002B20D13B685B68002B12D07B689C
:102C60005A68144B13403A6811683A685268114325
:102C70003A68926811433A68D2680A431A437B68FB
:102C80005A600BE07B685A680A4B13403A68126836
:102C90001A437B685A6001E00123FB73FB7B1846F3
:102CA0001437BD4690BD00BF002001400021014007
:102CB00000220140E010FCFF80B584B000AF7860D6
:102CC00039600023FB737868FFF79AFF0346002BF7
:102CD00017D17B685B6823F0407323F480733A68F4
:102CE00011683A6892680A431A437B685A607B68A5
:102CF0009B6823F400623B685B681A437B689A60B8
:102D000001E00123FB73FB7B18461037BD4680BDF5
:102D100080B584B000AF786039600023FB737868B9
:102D2000FFF76EFF0346002B2BD13B685B68002B3F
:102D300009D07B685B6823F468423B689B681A4350
:102D40007B685A6005E07B685B6823F468427B68B7
:102D50005A607B689A680E4B13403A68126802F01A
:102D600070613A68D26811433A6812690A431A439B
:102D70007B689A603B685B6819467868FFF72DFFAF
:102D800001E00123FB73FB7B18461037BD4680BD75
:102D9000FDFCFFC080B489B000AFF860B9607A6014
:102DA000FB681A68BB687B617B6993FAA3F33B619C
:102DB0003B69B3FA83F3DBB25B00032101FA03F34F
:102DC000DB431A40BB68FB61FB6993FAA3F3BB6169
:102DD000BB69B3FA83F3DBB25B00796801FA03F3F2
:102DE0001A43FB681A6000BF2437BD465DF8047BB8
:102DF000704780B485B000AFF860B9607A60FB6856
:102E00005A68BB68DB431A40BB68796801FB03F36F
:102E10001A43FB685A6000BF1437BD465DF8047B57
:102E2000704780B489B000AFF860B9607A60FB6821
:102E30009A68BB687B617B6993FAA3F33B613B694A
:102E4000B3FA83F3DBB25B00032101FA03F3DB4344
:102E50001A40BB68FB61FB6993FAA3F3BB61BB69D2
:102E6000B3FA83F3DBB25B00796801FA03F31A4328
:102E7000FB689A6000BF2437BD465DF8047B70474D
:102E800080B489B000AFF860B9607A60FB68DA6836
:102E9000BB687B617B6993FAA3F33B613B69B3FA3F
:102EA00083F3DBB25B00032101FA03F3DB431A4037
:102EB000BB68FB61FB6993FAA3F3BB61BB69B3FA1F
:102EC00083F3DBB25B00796801FA03F31A43FB6812
:102ED000DA6000BF2437BD465DF8047B704780B4DC
:102EE00089B000AFF860B9607A60FB681A6ABB68A5
:102EF0007B617B6993FAA3F33B613B69B3FA83F38C
:102F0000DBB29B000F2101FA03F3DB431A40BB68DD
:102F1000FB61FB6993FAA3F3BB61BB69B3FA83F36B
:102F2000DBB29B00796801FA03F31A43FB681A626B
:102F300000BF2437BD465DF8047B704780B489B07C
:102F400000AFF860B9607A60FB685A6ABB681B0A18
:102F50007B617B6993FAA3F33B613B69B3FA83F32B
:102F6000DBB29B000F2101FA03F3DB431A40BB687D
:102F70001B0AFB61FB6993FAA3F3BB61BB69B3FA5C
:102F800083F3DBB29B00796801FA03F31A43FB6811
:102F90005A6200BF2437BD465DF8047B704780B598
:102FA00088B000AF786039600023FB610023BB610B
:102FB0003B681B687B617B6993FAA3F33B613B69C8
:102FC000B3FA83F3DBB2FB6150E03B681A6801217E
:102FD000FB6901FA03F31340BB61BB69002B42D0CC
:102FE0003B685B68012B03D03B685B68022B0DD10B
:102FF0003B689B681A46B9697868FFF712FF3B681F
:10300000DB681A46B9697868FFF7F3FE3B681B690D
:103010001A46B9697868FFF733FF3B685B68022B93
:103020001AD1BB69FB60FB6893FAA3F3BB60BB6872
:10303000B3FA83F3DBB2072B07D83B685B691A4608
:10304000B9697868FFF74BFF06E03B685B691A4691
:10305000B9697868FFF772FF3B685B681A46B9691F
:103060007868FFF797FEFB690133FB613B681A68DC
:10307000FB6922FA03F3002BA7D10023184620375F
:10308000BD4680BD80B400AF044B9B6803F00C03C9
:103090001846BD465DF8047B704700BF003802400B
:1030A00080B400AF044B9B6803F0F0031846BD46A4
:1030B0005DF8047B704700BF0038024080B400AF69
:1030C000044B9B6803F4E0531846BD465DF8047B4F
:1030D000704700BF0038024080B400AF044B9B68CB
:1030E00003F460431846BD465DF8047B704700BF9B
:1030F0000038024080B400AF044B5B6803F48003E7
:103100001846BD465DF8047B704700BF003802409A
:1031100080B400AF044B5B689B09C3F308031846F7
:10312000BD465DF8047B70470038024080B400AFB4
:10313000044B5B6803F440331846BD465DF8047BDE
:10314000704700BF0038024080B400AF044B5B689A
:1031500003F03F031846BD465DF8047B704700BF8F
:103160000038024080B582B000AF786000F020F8EF
:1031700002467B681A607B681B68184600F040F8BE
:1031800002467B685A607B685B68184600F04EF820
:1031900002467B689A607B685B68184600F05AF8C4
:1031A00002467B68DA6000BF0837BD4680BD00007C
:1031B00080B582B000AF00237B60FFF763FF03465A
:1031C000082B0CD0082B0FD8002B02D0042B03D0D7
:1031D0000AE0094B7B600AE0084B7B6007E00820AF
:1031E00000F04CF8786002E0034B7B6000BF7B6826
:1031F00018460837BD4680BD0024F40040787D01A4
:1032000080B582B000AF7860FFF74AFF03461B0924
:1032100003F00F03044AD35C1A467B68D340184678
:103220000837BD4680BD00BFB06B000880B582B0D6
:1032300000AF7860FFF742FF03469B0A044AD35C65
:103240001A467B68D34018460837BD4680BD00BF8C
:10325000C06B000880B582B000AF7860FFF73CFF1C
:1032600003465B0B044AD35C1A467B68D34018467E
:103270000837BD4680BD00BFC06B000890B587B061
:1032800000AF786000237B610023FB6000233B617B
:10329000FFF730FFF860FB68002B04D0FB68B3F544
:1032A000800F03D005E0124B7B6105E0114B7B6181
:1032B00002E00F4B7B6100BF7B68082B13D1FFF747
:1032C00043FF02467B69B3FBF2F4FFF721FF03469D
:1032D00003FB04F4FFF72AFF03461B0C01335B00DA
:1032E000B4FBF3F33B613B6918461C37BD4690BD08
:1032F0000024F40040787D0180B483B000AF786092
:103300007B681B6803F04003402B01D1012300E0E0
:10331000002318460C37BD465DF8047B704780B427
:1033200083B000AF786039603B689BB21A467B6817
:103330001A6100BF0C37BD465DF8047B704780B54D
:1033400084B000AF786039600123FB737868FFF7C1
:10335000D3FF0346002B39D17B681B6823F47F43DE
:1033600023F0BF033A6811683A68526811433A681B
:10337000926811433A68D26811433A68126911435E
:103380003A68526911433A68926911433A68D269BE
:1033900011433A68126A0A431A437B681A607B68D1
:1033A0005B6823F004023B685B691B0C1A437B6873
:1033B0005A603B681B6AB3F5005F05D13B685B6AE6
:1033C00019467868FFF7ABFF0023FB737B68DB6966
:1033D00023F400627B68DA61FB7B18461037BD4638
:1033E00080BD80B483B000AF786039607B683A6894
:1033F0009A6200BF0C37BD465DF8047B704780B40D
:1034000083B000AF786039607B683A68DA6200BFE9
:103410000C37BD465DF8047B704780B483B000AFC5
:10342000786039607B683A681A6300BF0C37BD4624
:103430005DF8047B704780B483B000AF786039607A
:103440007B683A685A6300BF0C37BD465DF8047B61
:10345000704780B483B000AF786039607B683A68A9
:103460009A6300BF0C37BD465DF8047B704780B49B
:1034700083B000AF786039607B683A68DA6300BF78
:103480000C37BD465DF8047B704780B483B000AF55
:10349000786039607B683A681A6400BF0C37BD46B3
:1034A0005DF8047B704780B483B000AF78607B68C0
:1034B0005B6943F001027B685A6100BF0C37BD466F
:1034C0005DF8047B7047000080B584B000AF786081
:1034D00039607B681B68FB607B683D4A934213D070
:1034E0007B68B3F1804F0FD07B683A4A93420BD090
:1034F0007B68394A934207D07B68384A934203D0AD
:103500007B68374A934206D1FB6823F070023B6820
:103510005B681343FB607B682D4A93422BD07B682A
:10352000B3F1804F27D07B682A4A934223D07B682F
:10353000294A93421FD07B68284A93421BD07B685C
:10354000274A934217D07B68264A934213D07B6860
:10355000254A93420FD07B68244A93420BD07B6864
:10356000234A934207D07B68224A934203D07B6868
:10357000214A934206D1FB6823F440723B68DB6822
:103580001343FB607B68FA681A603B689B681946C6
:103590007868FFF734FF3B681B8819467868FFF7A7
:1035A00020FF7B680A4A934203D07B680C4A93420F
:1035B00005D13B681B6919467868FFF72EFF7868CC
:1035C000FFF771FF002318461037BD4680BD00BFCE
:1035D000000001400004004000080040000C0040D2
:1035E0000004014000400140004401400048014007
:1035F00000180040001C00400020004080B586B04C
:1036000000AFF860B9607A600123FB75BB68B3F561
:10361000805F27D0BB68B3F5805F2AD8BB68B3F55D
:10362000807F18D0BB68B3F5807F22D8BB68012BA0
:1036300003D0BB68102B07D01BE07968F86800F056
:1036400067F80346FB7515E07968F86800F0CCF878
:103650000346FB750EE07968F86800F035F903461B
:10366000FB7507E07968F86800F09EF90346FB7582
:1036700000E000BFFB7D18461837BD4680BD80B412
:1036800085B000AF786039600023FB60FB6823F0F1
:10369000FF033A68127B1343FB60FB6823F440721C
:1036A0003B689B681343FB60FB6823F480623B68C4
:1036B0005B681343FB60FB6823F400623B681B6894
:1036C0001343FB60FB6823F480533A68D2891343A9
:1036D000FB60FB6823F400523B681B691343FB60EB
:1036E000FB6823F480423B685B691343FB60FB6823
:1036F00023F400423B685B691343FB607B68FA6814
:103700005A64002318461437BD465DF8047B7047A1
:1037100080B586B000AF786039607B681B6A23F0A3
:1037200001027B681A627B681B6A7B617B685B684D
:103730003B617B689B69FB60FB6823F00303FB60D4
:10374000FB6823F070023B681B681343FB607B69D6
:1037500023F002023B681B6913437B617B6923F002
:1037600001023B685B6813437B617B681C4A9342A0
:1037700003D07B681B4A93421ED17B6923F0080269
:103780003B685B699B0013437B617B6923F0040208
:103790003B689B689B0013437B613B6923F4807209
:1037A0003B689B6913433B613B6923F400723B68B0
:1037B000DB695B0013433B617B683A695A607B6855
:1037C000FA689A613B68DB6819467868FFF733FE50
:1037D0007B687A691A62002318461837BD4680BD97
:1037E000000001400004014080B586B000AF786061
:1037F00039607B681B6A23F010027B681A627B6861
:103800001B6A7B617B685B683B617B689B69FB60D3
:10381000FB6823F44073FB60FB6823F4E0423B68E1
:103820001B681B021343FB607B6923F020023B688B
:103830001B691B0113437B617B6923F010023B680A
:103840005B681B0113437B617B681D4A934203D075
:103850007B681C4A93421FD17B6923F080023B683E
:103860005B699B0113437B617B6923F040023B68EA
:103870009B689B0113437B613B6923F480623B6837
:103880009B699B0013433B613B6923F400623B68E7
:10389000DB69DB0013433B617B683A695A607B68F4
:1038A000FA689A613B68DB6819467868FFF7D1FDD2
:1038B0007B687A691A62002318461837BD4680BDB6
:1038C000000001400004014080B586B000AF786080
:1038D00039607B681B6A23F480727B681A627B689C
:1038E0001B6A7B617B685B683B617B68DB69FB60B3
:1038F000FB6823F00303FB60FB6823F070023B6866
:103900001B681343FB607B6923F400723B681B69EF
:103910001B0213437B617B6923F480723B685B6805
:103920001B0213437B617B681D4A934203D07B6873
:103930001C4A93421FD17B6923F400623B685B6998
:103940009B0213437B617B6923F480623B689B6825
:103950009B0213437B613B6923F480523B689B6964
:103960001B0113433B613B6923F400523B68DB6955
:103970005B0113433B617B683A695A607B68FA6874
:10398000DA613B68DB6819467868FFF770FD7B6891
:103990007A691A62002318461837BD4680BD00BFF9
:1039A000000001400004014080B586B000AF78609F
:1039B00039607B681B6A23F480527B681A627B68DB
:1039C0001B6A3B617B685B687B617B68DB69FB60D2
:1039D000FB6823F44073FB60FB6823F4E0423B6820
:1039E0001B681B021343FB603B6923F400523B68D6
:1039F0001B691B0313433B613B6923F480523B6803
:103A00005B681B0313433B617B68114A934203D0FD
:103A10007B68104A934207D17B6923F480423B685C
:103A20009B699B0113437B617B687A695A607B6861
:103A3000FA68DA613B68DB6819467868FFF725FDAC
:103A40007B683A691A62002318461837BD4680BD64
:103A5000000001400004014080B483B000AF7860F2
:103A60007B68DB6803F40053B3F5005F0CBF0123F0
:103A70000023DBB218460C37BD465DF8047B704767
:103A800080B483B000AF786039607B681B6923F431
:103A900040523B681A437B681A6100BF0C37BD4631
:103AA0005DF8047B704780B483B000AF7860396004
:103AB0007B685B6923F440723B681A437B685A61F8
:103AC00000BF0C37BD465DF8047B70472DE9F04F11
:103AD0009FB000AF78673967FA66BB66FB6EB3F5D7
:103AE000004F40F0BC803B6F1C464FF00005224663
:103AF0002B4612EB020A43EB030B52465B461219AC
:103B000045EB03034FF000004FF00001D90041EAFC
:103B10005271D00002460B46111939666B417B6623
:103B2000BB6E1A464FF00003911839635B417B630B
:103B3000D7E90C23D7E91801FDF736F802460B4602
:103B4000A94BA3FB02235B099BB21B019EB23B6FF7
:103B50001C464FF0000522462B469118B9625B4186
:103B6000FB62D7E90A23121945EB03034FF000006B
:103B70004FF00001D90041EA5271D00002460B46D5
:103B80001119B9656B41FB65BB6E1A464FF0000316
:103B9000911839625B417B62D7E90823D7E91601A6
:103BA000FDF702F802460B468F4BA3FB02135B099D
:103BB000642101FB03F3D31ADB0032338A4AA2FBF0
:103BC00003235B099BB25B009BB203F4F8739BB2C7
:103BD00033449EB23B6F18464FF0000102460B463D
:103BE0009418BC615B41FB61D7E90623121841EBD5
:103BF00003034FF000044FF00005DD0045EA527565
:103C0000D40022462B4614183C654B417B65BB6EA5
:103C10001A464FF00003911839615B417B61D7E987
:103C20000423D7E91401FCF7BFFF02460B466E4B95
:103C3000A3FB02135B09642101FB03F3D31ADB002E
:103C40003233694AA2FB03235B099BB203F00703EB
:103C50009BB233449BB21A467B6F9A60BEE03B6FC7
:103C60001C464FF0000522462B4612EB020843EBA0
:103C7000030942464B46121945EB03034FF000007F
:103C80004FF00001D90041EA5271D00002460B46C4
:103C90001119B9646B41FB64BB6E18464FF000010B
:103CA0004FF000024FF000038B0043EA9073820054
:103CB000D7E91201FCF778FF02460B464A4BA3FBFB
:103CC00002235B099BB21B019EB23B6F18464FF06B
:103CD000000102460B469418BC605B41FB60D7E9CB
:103CE0000223121841EB03034FF000044FF00005CC
:103CF000DD0045EA5275D40022462B4614183C6478
:103D00004B417B64BB6E18464FF000014FF0000240
:103D10004FF000038B0043EA90738200D7E9100153
:103D2000FCF742FF02460B462F4BA3FB02135B0935
:103D3000642101FB03F3D31A1B0132332A4AA2FB8D
:103D400003235B099BB203F0F0039BB233449EB2A2
:103D50003B6F18464FF0000102460B4694183C603A
:103D60005B417B60D7E90023121841EB03034FF05E
:103D700000044FF00005DD0045EA5275D4002246EC
:103D80002B461418BC634B41FB63BB6E18464FF0C7
:103D900000014FF000024FF000038B0043EA9073E4
:103DA0008200D7E90E01FCF7FFFE02460B460E4BE0
:103DB000A3FB02135B09642101FB03F3D31A1B016C
:103DC0003233094AA2FB03235B099BB203F00F03C2
:103DD0009BB233449BB21A467B6F9A6000BF7C371C
:103DE000BD46BDE8F08F00BF1F85EB5180B588B0A0
:103DF00000AF786039600123FB770023BB617868EE
:103E0000FFF72AFE0346002B5ED17B68DB6823F4B4
:103E1000164323F00C033A6851683A68D26811439C
:103E20003A68126911433A6892690A431A437B68F7
:103E3000DA603B689B6819467868FFF721FE3B68AB
:103E40005B6919467868FFF72EFE07F108031846EC
:103E5000FFF788F97B681F4A934202D17B69BB61F7
:103E600021E07B681C4A934202D13B69BB611AE0A6
:103E70007B681A4A934202D13B69BB6113E07B68BD
:103E8000174A934202D17B69BB610CE07B68154AFB
:103E9000934202D13B69BB6105E07B68124A9342C1
:103EA00001D13B69BB61BB69002B0DD03B681B682E
:103EB000002B09D00023FB773B689A693B681B689D
:103EC000B9697868FFF702FEFB7F18462037BD46C8
:103ED00080BD00BF00100140004400400048004089
:103EE00000140140004C00400050004080B483B0FA
:103EF00000AF786039607A683B68B2FBF3F3074A39
:103F0000013B5360054B00229A60044B05221A6066
:103F100000BF0C37BD465DF8047B704710E000E041
:103F200080B582B000AF78604FF47A717868FFF79F
:103F3000DDFF00BF0837BD4680BD000080B485B0FE
:103F400000AF78600F4B1B68FB60FB687B68B3F1C8
:103F5000FF3F0CD07B6801337B6008E0094B1B6896
:103F600003F48033002B02D07B68013B7B607B68CD
:103F7000002BF3D100BF00BF1437BD465DF8047BB2
:103F8000704700BF10E000E080B483B000AF7860FD
:103F9000044A7B68136000BF0C37BD465DF8047BA4
:103FA000704700BF00000020014B1868704700BF39
:103FB0000400002070B50D4D0D4C641BA4100026AC
:103FC000A64209D10B4D0C4C02F0D8FD641BA41085
:103FD0000026A64205D170BD55F8043B984701362E
:103FE000EEE755F8043B98470136F2E7D46F000836
:103FF000D46F0008D46F0008D86F0008024403464D
:10400000934200D1704703F8011BF9E72DE9FF4700
:1040100055EC104B002D0E4619462B46BBBF05F143
:1040200000431D4600232D230B700D9BDDF830A0AF
:10403000914623F02008BCBF22461446B8F1460F33
:1040400005D0B8F1450F00D10136022100E003216F
:1040500003AB019302AB009345EC104B5346324641
:1040600000F0B2FDB8F1470F074602D119F0010F79
:1040700022D0B8F1460F07EB060910D13B78302B60
:104080000AD10022002320462946FCF71DFD18B95D
:10409000C6F10106CAF80060DAF80030994400223F
:1040A000002320462946FCF70FFD08B1CDF80C90FF
:1040B0003022039B4B4507D3039B0E9ADB1B3846EC
:1040C000136004B0BDE8F087591C03911A70F0E743
:1040D000F7B503460029B8BF494203F8022BB4BF25
:1040E0002D222B22092942702ADD0DF10704A44656
:1040F0000A27A6460A4691FBF7F607FB1615303548
:10410000632A04F1FF340EF8015C3146F1DC3031F2
:10411000AEF1020504F8011C441C294661450AD38E
:104120000DF10902A2EB0E02654588BF002213447F
:10413000181A03B0F0BD11F8012B04F8012FEDE7B8
:10414000302330318370C170031DF1E72DE9F04F4A
:104150002DED028B8DB00C46DDF8608016461F46B3
:10416000054601F0D5FCD0F800A05046FCF730F829
:1041700000230A9323680593D8F8003094F818B008
:10418000073323F0070303F10802C8F80020D3E93E
:104190000023C4E91223D4E9128929F000430793CC
:1041A000CDF8188008EE100A9F4BDDE906014FF0AC
:1041B000FF32FCF7BBFC88BBDDE906019A4B4FF0F0
:1041C000FF32FCF795FC48BB0022002340464946DD
:1041D000FCF784FC10B12D2384F84330934B9448B2
:1041E000BBF1470F94BF9846804603232361059B8C
:1041F00023F0040222604FF00009009733460BAA17
:104200002146284600F0D8F9013040F090804FF068
:10421000FF300DB0BDEC028BBDE8F08F42464B463F
:1042200040464946FCF782FC40B14B46002BBCBFE0
:104230002D2384F843307F487F4BD1E763680BF030
:10424000DF0206925A1C3FD106236360059B61681A
:1042500043F48062002303930AABCDE901B309ABB9
:1042600049EC108B009322600DF123032846FFF7E1
:10427000CDFE069B0999472B804608D1C81C02DB5E
:104280006368994241DDABF1020B5FFA8BFBBBF136
:10429000650F20D801395A4604F150000991FFF703
:1042A00017FF0A9A1318012A8146236102DC22684B
:1042B000D20701D5013323619DF82330002B9CD018
:1042C0002D2384F8433098E7069A472ABED1002B65
:1042D000BCD10123B9E7BBF1660F18D1002963688F
:1042E0000BDD216113B92268D00702D501330B44DD
:1042F0002361A1654FF00009DEE713B92268D207F8
:1043000001D50233F4E70123F2E74FF0670B0A9B74
:10431000994205DB23682161D807EAD54B1CE7E702
:104320000029D4BFC1F1020201221344E0E723684F
:104330005A0507D42369424631462846B84701301A
:104340002CD164E7BBF1650F40F2E080D4E91201A3
:1043500000220023FCF7B8FB002834D0374A0123A1
:1043600031462846B84701303FF451AFDDE9092313
:104370009A4202DB2368D80710D518EE103A52464D
:1043800031462846B84701303FF441AF4FF00008AE
:1043900004F11A090A9B013B434509DC23689B078A
:1043A00000F10581E0680B9B9842B8BF184630E7E2
:1043B00001234A4631462846B84701303FF427AF2B
:1043C00008F10108E6E7099B002B39DC1B4A0123B1
:1043D00031462846B84701303FF419AFDDE90923DB
:1043E000134302D12368D907D8D518EE103A5246A4
:1043F00031462846B84701303FF409AF4FF0000975
:1044000004F11A0A099B5B424B4501DC0A9B92E7C7
:104410000123524631462846B84701303FF4F7AEF3
:1044200009F10109EEE700BFFFFFEF7FEC6B000829
:10443000F06B0008F86B0008F46B0008FC6B0008D8
:104440000A9AA36D9A42A8BF1A46002A914637DC01
:104450004FF0000B29EAE97904F11A02A36D0593E4
:10446000A3EB09035B4533DCDDE909239A423BDB1F
:104470002368DA0738D40A9A059B0999D31AA2EB64
:1044800001099945A8BF9946B9F1000F35DC4FF0F5
:10449000000829EAE97904F11A0ADDE909239B1ADF
:1044A000A3EB090343457FF779AF01235246314619
:1044B0002846B84701303FF4AAAE08F10108ECE7FE
:1044C0001346314642462846B8470130C0D19EE6E1
:1044D0000123314628460592B84701303FF497AE94
:1044E000059A0BF1010BB9E718EE103A5246314626
:1044F0002846B8470130BED189E6059A4B4642446A
:1045000031462846B8470130C1D180E60A9A012ACF
:1045100001DCDB0738D50123424631462846B8473F
:1045200001303FF474AE18EE103A52463146284638
:10453000B84701303FF46BAED4E9120100220023EA
:10454000FCF7C2FAD8B90A9B08F10102013B3146D7
:104550002846B84701300ED159E60123524631466C
:104560002846B84701303FF452AE08F101080A9BD3
:10457000013B4345F1DC4B4604F15002DCE64FF0D1
:10458000000804F11A0AF2E701234246DFE701239B
:104590004A4631462846B84701303FF438AE08F164
:1045A0000108E3680B995B1A4345F0DCFAE64FF02B
:1045B000000804F11909F4E72DE9F0471646994679
:1045C0008A680B69DDF820809342B8BF13463360D8
:1045D00091F8432007460C460AB101333360236843
:1045E000990642BF336802333360256815F006052B
:1045F00006D104F1190AE36832689B1AAB4226DC43
:1046000094F84320131E226818BF012392062BD46E
:1046100004F1430249463846C04701301ED02368A2
:10462000E568326803F00603042B08BFAD1AA368DF
:1046300022690CBF25EAE57500259342C4BF9B1A89
:10464000ED1800261A34B5421AD1002008E00123E3
:10465000524649463846C047013003D14FF0FF303B
:10466000BDE8F0870135C6E7E1185A1C302081F813
:104670004300224494F8451082F843100233C7E700
:104680000123224649463846C0470130E6D001366C
:10469000D9E700002DE9FF470C469146277E0C998B
:1046A000782F80469A4604F1430207D8622F0AD831
:1046B000002F00F0D880582F00F0A38004F14206AC
:1046C00084F842703AE0A7F16303152BF6D801A0F5
:1046D00050F823F02D47000841470008BD46000868
:1046E000BD460008BD460008BD4600084147000819
:1046F000BD460008BD460008BD460008BD4600088E
:104700004D480008714700082F480008BD460008C2
:10471000BD4600086F480008BD4600087147000804
:10472000BD460008BD460008374800080B681A1D42
:104730001B680A6004F1420684F842300123A3E0BA
:10474000256808682E0600F104030AD505680B6089
:10475000002D03DA2D236D4284F843305E480A238E
:1047600019E015F0400F05680B6018BF2DB2EFE798
:104770000B682568181D0860280601D51D6802E031
:104780006906FBD51D8854486F2F0CBF08230A23E8
:10479000002184F843106668A660002EA2BF21683D
:1047A00021F0040121600DB9002E4DD01646B5FB55
:1047B000F3F103FB1157C75D06F8017D2F46BB429D
:1047C0000D46F4D9082B0BD12368DF0708D52369E0
:1047D00061689942DEBF302306F8013C06F1FF36DE
:1047E000921B2261CDF800A04B4603AA2146404609
:1047F000FFF7E2FE01304CD14FF0FF3004B0BDE8CE
:10480000F087354884F8457023680E681F0656F80F
:10481000045B0E6014D5D90744BF43F02003236026
:104820001DB9236823F0200323601023B0E7236819
:1048300043F0200323607823284884F84530E3E7D9
:104840005E0648BFADB2E6E71646BBE70B682668D2
:1048500060691D1D0D6035061B6801D5186002E0FA
:104860007106FBD51880002323611646BAE70B6852
:104870001A1D0A601E68626800213046FBF7B0FC12
:1048800008B1801B606063682361002384F84330B3
:10489000A8E72369324649464046D0470130ABD0AD
:1048A00023689B0713D4E068039B9842B8BF18465F
:1048B000A4E70123324649464046D04701309BD009
:1048C0000135E36803995B1AAB42F2DCEBE70025A4
:1048D00004F11906F5E700BFFE6B00080F6C000835
:1048E0000FB40A4B13B51C6824B1A36913B9204651
:1048F00001F070F805AB049AA1680193204601F01D
:10490000EBFD02B0BDE8104004B070470400002089
:1049100000294FF480630CBF0222002200F000B88F
:104920002DE9F7431D465D4B1F6804460E46904631
:1049300027B1BB6913B9384601F04CF8584B9C427B
:1049400067D17C68B8F1020F06D0B8F1010F00F210
:104950009F80002DC0F29C80636EDB0705D4A38985
:10496000980502D4A06D01F0D8F82146384600F031
:104970009DFF616B41B104F14403994202D0384676
:1049800001F0D6FC002363630023A3616360A38965
:10499000190603D52169384601F0CAFCA38923F41E
:1049A0004A6323F00303B8F1020FA3816CD001AB7B
:1049B0006A462146384601F0B2F8A3891843A0811F
:1049C000002D30D1009D284601F00EF90646002842
:1049D00055D1DDF80090A9454AD14FF0FF350022AE
:1049E000A26004F14702226022610122B4F90C3076
:1049F0006261626E43F00203D207A38105D413F40F
:104A0000007F02D1A06D01F089F8284603B0BDE80F
:104A1000F083244B9C4201D1BC6893E7224B9C421B
:104A200008BFFC688EE7002ECDD0BB6913B93846AD
:104A300000F0D0FFB8F1010F08BFA389266004BFC2
:104A400043F00103A381A28912F00803C4E90465BD
:104A50001CD0D30741BF00236D42A360A56158BF9E
:104A6000A560656E15F0010515D112F4007FC8E749
:104A7000484601F0B9F806460028AED04D46A38955
:104A800043F08003A381D0E70025A8E7A360E8E70F
:104A90004FF0FF35B9E70025B7E700BF040000205D
:104AA000D46C0008F46C0008B46C00082DE9F74FD2
:104AB00003690C69A3420746C0F28180013C01F101
:104AC000140800F1140505EB8403019358F8243011
:104AD00055F8242001339A424FEA840B08EB8409ED
:104AE000B2FBF3F631D34FF0000E4046AC46F2462F
:104AF00050F8042B93B206FB03E34FEA134E9BB22C
:104B0000AAEB0303120CDCF800A006FB02E213FA86
:104B10008AF34FEA124E1FFA82FADCF80020CAEB41
:104B2000124202EB23429BB243EA024381454CF816
:104B3000043B4FEA224ADBD255F80B302BB9019BDC
:104B4000043B9D421A462ED33C61384601F0E0FA00
:104B5000002824DB013628464FF0000C58F8042BBF
:104B6000D0F800E093B2ACEB0303120C13FA8EF30F
:104B7000C2EB1E4202EB23429BB243EA0243C14511
:104B800040F8043B4FEA224CE8D255F8242005EBCC
:104B9000840322B9043B9D421A460AD33C61304645
:104BA00003B0BDE8F08F1268043B002ACCD1013C71
:104BB000C7E71268043B002AF0D1013CEBE7002074
:104BC000EEE70000000000002DE9F04F2DED028B14
:104BD00057EC106B95B0456ADDF880800591CDE902
:104BE0000267044609920F9375B9102000F0FCFF8C
:104BF0000246606220B9B24BEA21B24801F0C2FE1F
:104C0000C0E901550560C560636A196851B15A6809
:104C10004A60012393408B60204601F03BF8636AB1
:104C200000221A603B1EB9BF23F000430393002308
:104C3000C8F80030DDF80C90A34BBCBF0122C8F8C7
:104C4000002033EA09031BD10F9A42F20F7313605D
:104C5000C9F31303334300F07A85219B63B99B4B5F
:104C600024E09B4B00930833219A1360009815B001
:104C7000BDEC028BBDE8F08F944B00930333F3E758
:104C80009DED027B002251EC170B00238DED0A7B7A
:104C9000FBF71AFF804658B10F9A01231360219B3E
:104CA000002B00F051858B481860431E0093DDE710
:104CB0009DED0A0B12AA13A9204601F0CDFAC9F303
:104CC0000A558346002D7CD00B9BCDF84080C3F362
:104CD0001303DDE90A6743F07F5747F44017A5F255
:104CE000FF357D4B002230463946FBF7CDFA6EA3E7
:104CF000D3E90023FBF780FC6DA3D3E90023FBF786
:104D0000C5FA064628460F46FBF70CFC6AA3D3E912
:104D10000023FBF771FC02460B4630463946FBF791
:104D2000B5FA06460F46FBF717FF0022824600231E
:104D300030463946FBF7D2FE48B15046FBF7F2FB4E
:104D400032463B46FBF7C0FE08B90AF1FF3ABAF11A
:104D5000160F54D8614B03EBCA03D3E90023DDE9F6
:104D60000A01FBF7BBFE00284BD00AF1FF3A0023F3
:104D70000E93129B5D1B6B1E049343BF0023C5F172
:104D8000010804934FF00008BAF1000F3BDB049BCD
:104D9000CDF834A05344049300230693059B092BBC
:104DA00069D8052BC4BF043B0593059BA3F10203FF
:104DB000CCBF00250125032B69D8DFE803F02C4E7A
:104DC0004C5ADDE912531D4405F23243202BC1BF7A
:104DD000C3F1400305F2124009FA03F326FA00F08A
:104DE000DABFC3F1200306FA03F01843FBF78AFB8E
:104DF00001230646A1F1F877013D109371E70123E5
:104E0000B6E70E90B5E7CAF1000306930023A8EBBE
:104E10000A080D93C2E700230893099B002B39DC95
:104E20004FF00109CDF804904B46CDF82490606A0C
:104E300000224260042202F114069E4241682FD9EA
:104E4000204600F0E7FE009000284BD1244B02469C
:104E50004FF4D571D1E60123DEE700230893099BC7
:104E60000AEB030909F10103012B0193B8BF0123E8
:104E7000DDE70123F2E701250023059308954FF0B4
:104E8000FF390022CDF8049012230992CFE70123C5
:104E90000893F4E7DDF82490CDF804904B46C6E77C
:104EA000013141605200C6E761436F63A787D23F7B
:104EB000B3C8608B288AC63FFB799F501344D33F09
:104EC0002D6C0008446C00080000F07F296C00087D
:104ED000206C0008FD6B00080000F83FA06D000882
:104EE000A36C0008636A009A1A60019B0E2B00F203
:104EF000AD80002D00F0AA80BAF1000F36DDC34A64
:104F00000AF00F0302EBC30393ED007B1AF4807FDA
:104F10004FEA2A17B0EE478AF0EE678A16D0BC4BEC
:104F2000DDE90A01D3E90823FBF790FCCDE9020192
:104F300007F00F070325B64E57B9DDE9020153EC20
:104F4000182BFBF783FCCDE9020129E00225F2E7EB
:104F5000F90708D551EC180BD6E90023FBF74CFBF9
:104F600041EC180B01357F100836E5E700F0A6800C
:104F7000CAF10006A54BA64F06F00F0203EBC203D1
:104F8000D3E90023DDE90A01FBF736FBCDE9020195
:104F9000361100230225002E40F08580002BD2D14F
:104FA0000E9B002B00F08C80DDE90267994B0022FC
:104FB00030463946FBF792FD002800F08180019BC6
:104FC000002B7DD0B9F1000F3CDD0AF1FF330793D0
:104FD0000022914B30463946FBF70EFBCDE902012A
:104FE0000135CDF83090DDE902672846FBF79AFAE3
:104FF00032463B46FBF700FB884B0022FBF746F9A5
:10500000A1F15073CDE9020103930C9B002B5CD1FD
:10501000834B002230463946FBF736F9DDE902239F
:1050200006460F46FBF778FD002840F09682DDE942
:105030000221304601F100433946FBF74FFD0028BD
:1050400040F08882DDE90A23CDE90223139B002B7F
:10505000C0F25881BAF10E0F00F354816B4B03EB91
:10506000CA03D3E90089099B002B80F2E380019BEE
:10507000002B00F3DF8040F06D82694B0022404638
:105080004946FBF7B9FADDE90223FBF73BFD019E38
:105090003746002840F04382009D312305F8013B4C
:1050A0000AF1010A3FE2F20705D5D7E90023FBF731
:1050B000A3FA01350123761008376CE702256FE764
:1050C000019BCDF81CA00C938DE700990C980C9ACD
:1050D0004E4B9DED027B014402910899B0EE478A48
:1050E000F0EE678A03EBC20353E90223002945D09F
:1050F0004C490020FBF7AAFB53EC182BFBF7C4F834
:10510000009D41EC180B39463046FBF725FD0C900D
:10511000FBF708FA02460B4630463946FBF7B4F86F
:105120000C9B303305F8013B53EC182B06460F4619
:10513000FBF7D4FC002865D132463B4635490020B8
:10514000FBF7A2F853EC182BFBF7C8FC002840F043
:10515000B980029B9D423FF475AF2F4B51EC180B69
:105160000022FBF749FA2C4B41EC180B0022304689
:105170003946FBF741FA06460F46C4E751EC170BD8
:10518000FBF73AFA029B009D0C9341EC180B394651
:105190003046FBF7E1FC1190FBF7C4F902460B46E1
:1051A00030463946FBF770F8119B303305F8013B68
:1051B000029B9D4206460F464FF0000234D1194B28
:1051C00051EC180BFBF762F802460B4630463946A5
:1051D000FBF7A2FC002875D153EC182B11490020D5
:1051E000FBF752F802460B4630463946FBF776FC91
:1051F00000283FF427AF0C9D6B1E0C9315F8013C63
:10520000302BF8D0DDF81CA04AE000BFA06D0008EC
:10521000786D00080000F03F0000244000001C40B2
:10522000000014400000E03FAF4BFBF7E5F90646F5
:105230000F46ACE7DDE90267009D42464B4630462B
:105240003946FBF703FBFBF787FC0290FBF76AF993
:1052500042464B46FBF7D0F902460B4630463946EC
:10526000FBF712F8029E019F303605F8016B009E95
:10527000AE1BB74202460B4637D1FBF707F8424652
:105280004B4606460F46FBF747FCC8B942464B461D
:1052900030463946FBF718FC10B1029BD9070FD4F2
:1052A0002046594600F0F6FC00232B700F9B0AF1B4
:1052B00001001860219B002B3FF4D8AC1D60D5E4A1
:1052C000CDF81CA02B461D4613F8012D392A08D114
:1052D000009A9A42F7D1079A009901320792302238
:1052E0000A701A7801321A708CE77F4B0022FBF7A4
:1052F00083F90022002306460F46FBF7E5FB002852
:105300009BD0CDE7089A002A00F0C480059A012AB4
:1053100000F3A880109A002A00F0A08003F2334323
:10532000069E4546049A01211A4420469844049258
:1053300000F06CFD0746002D0BDD049B002B08DD03
:10534000AB42049AA8BF2B46A8EB0308ED1AD31A68
:105350000493069BFBB1089B002B00F09F80002E5E
:1053600011DD39463246204600F00CFE5A46014611
:105370000746204600F060FD59460790204600F0A1
:1053800089FC079B9B46069B9A1B04D059462046E6
:1053900000F0F8FD83460121204600F037FD0D9B0B
:1053A000002B06467CDD1A460146204600F0EAFD49
:1053B000059B012B064676DD00230693336906EB39
:1053C0008303186900F0D2FCC0F12000049B18444C
:1053D00010F01F0000F08680C0F12003042B7FDD59
:1053E000C0F11C00049B0344804405440493B8F1BD
:1053F000000F05DD59464246204600F01DFE83465B
:10540000049B002B05DD31461A46204600F014FEB1
:1054100006460E9B002B69D03146584600F078FEB8
:10542000002863DA002359460A22204600F054FC83
:10543000089B0AF1FF3A8346002B00F08F81394622
:1054400000230A22204600F047FCB9F1000F07466E
:1054500000F38E80059B022B50DC89E0129BC3F188
:1054600036035DE7019B5E1E069BB342BFBF069BF2
:105470000696F21A0D9BB6BF9B189E1B0D93019BBF
:10548000B8BF0026002BB5BFA8EB0305019B002386
:10549000454647E7069E089F45464CE7069A75E74E
:1054A000059B012B18DC029BB3B9039BC3F31303C9
:1054B000A3B9039B23F000431B0D1B052BB1049BD9
:1054C0000133049308F10108012306930D9B002B7F
:1054D0007FF474AF012079E70023F6E7029BF4E73D
:1054E00085D018461C307DE700002440019B002B2E
:1054F00038DC059B022B35DDDDF80490B9F1000F97
:105500000DD131464B460522204600F0E5FB014611
:105510000646584600F0FCFD00283FF7BDAD099B4C
:10552000009D6FEA030A4FF000083146204600F064
:10553000B1FB002F3FF4B4AEB8F1000F05D0B84571
:1055400003D04146204600F0A5FB3946204600F036
:10555000A1FBA5E600263746E1E70C9EDDF81CA07E
:10556000374699E5089BDDF80490002B00F0FD809C
:10557000002D05DD39462A46204600F05DFD074630
:10558000069B002B5CD07968204600F043FB054663
:1055900028B9804B024640F2EA21FFF72EBB3A6958
:1055A0000232920007F10C010C3000F025FB0122C1
:1055B0002946204600F040FD009B01330193009BEB
:1055C0004B440793029B03F00103B846069307463A
:1055D000019B3146013B58460293FFF767FA0346A9
:1055E0003033049041465846089300F091FD3A4606
:1055F00081463146204600F0A7FDC268089B05465B
:1056000002BB0146584600F083FD089B024629462E
:105610002046CDE9083200F03DFB059B099A019D2B
:1056200043EA0201069B0B43089B0DD1392B29D07D
:10563000B9F1000F01DD049B3133029A137074E756
:105640003846B9E70122E2E7B9F1000F06DB059918
:1056500041EA0909069959EA010120D1002AECDD45
:10566000594601222046019300F0E6FC314683466C
:1056700000F04EFD0028019B02DCDED1DA07DCD50C
:10568000392BD8D1029A392313702B461D46013B82
:1056900015F8012C392A50D001321A7045E7002A3A
:1056A00003DD392BEED00133C7E7019A079902F8E1
:1056B000013C8A422AD0594600230A22204600F0A3
:1056C0000BFBB84583464FF000034FF00A024146FA
:1056D000204607D100F000FB80460746019B0133BE
:1056E000019375E700F0F8FA3946804600230A2254
:1056F000204600F0F1FA0746F0E7B9F1000F009AF2
:10570000CCBF4D46012515444FF0000859460122F3
:105710002046019300F090FC3146834600F0F8FCEF
:105720000028B2DC02D1019BDB07AED42B461D461C
:1057300013F8012D302AFAD0F7E6009A9A42A5D143
:105740000AF1010A312379E7134BFFF7AFBA219B26
:10575000002B7FF486AA114BFFF7A8BAB9F1000F0E
:1057600003DC059B022B3FF7C9AE009D314658462E
:10577000FFF79CF900F1300305F8013B009AAA1AE3
:105780009145BADD594600230A22204600F0A4FACA
:105790008346EBE7A36C0008FC6B0008206C000854
:1057A0008A892DE9F041054610070C4658D44B680C
:1057B000002B05DC0B6C002B02DC0020BDE8F08127
:1057C000E66A002EF9D0002312F480522F682B6075
:1057D00032D0606DA3895A0705D56368C01A636B20
:1057E0000BB1236CC01A00230246E66A216A2846E0
:1057F000B047431CA38906D129681D292CD82A4A01
:10580000CA40D60728D500226260D90422692260E6
:1058100004D5421C01D12B6803B96065616B2F6010
:105820000029CAD004F14403994202D0284600F06E
:105830007FFD00206063C1E7216A01232846B0474D
:10584000411CC7D12B68002BC4D01D2B01D0162BB7
:1058500001D12F60B1E7A38943F04003A381ADE7F5
:105860000F69002FA9D093070E6808BF4B690F601E
:1058700018BF0023A6EB07088B60B8F1000F9CDD72
:10588000216AA66A43463A462846B047002806DC05
:10589000A38943F04003A3814FF0FF308EE7074414
:1058A000A8EB0008E9E700BF0100402038B50B690C
:1058B00005460C4613B90025284638BD18B1836942
:1058C0000BB900F087F8144B9C421BD16C68B4F9FB
:1058D0000C30002BEFD0626ED00704D4990502D4AF
:1058E000A06D00F01AF928462146FFF759FF636EB4
:1058F000DA070546E0D4A3899B05DDD4A06D00F04E
:105900000DF9D9E7054B9C4201D1AC68DFE7044BA8
:105910009C4208BFEC68DAE7D46C0008F46C00081D
:10592000B46C0008002310B50446C0E90033C0E998
:105930000433836081814366C281836119460822F2
:105940005C30FEF75BFB054B6362054BA362054BC6
:10595000E362054B2462236310BD00BF5967000852
:105960007B670008B3670008D7670008014900F0AB
:10597000AFB800BFAD58000870B54A1E6825554342
:105980000E4605F1740100F023FD044640B10021EC
:10599000C0E900160C30A06005F16802FEF72EFB8E
:1059A000204670BD014800F0B8B800BF0A020020D0
:1059B000014800F0B3B800BF0A020020014800F01F
:1059C000ACB800BF05020020014800F0A7B800BF36
:1059D0000502002010B50446FFF7F0FFA3691BB1D4
:1059E000BDE81040FFF7F0BFC4E912332365134B45
:1059F000134A1B68A262A34204BF0123A36120468D
:105A000000F020F86060204600F01CF8A0602046FE
:105A100000F018F80022E06004216068FFF782FFC0
:105A2000A06801220921FFF77DFFE0680222122110
:105A3000FFF778FF0123A361D2E700BFE86B0008FE
:105A40006D590008F8B50746FFF7ACFF1E4B1E68FE
:105A5000B36913B93046FFF7BDFF4836D6E90134C4
:105A6000013B03D533680BB33668F7E7B4F90C5044
:105A7000D5B9164BE36004F15800656600F04CF8A8
:105A8000FFF796FFC4E90155C4E904552560A561F7
:105A90000822294604F15C00FEF7B0FAC4E90D556E
:105AA000C4E912552046F8BD6834D9E704213846C8
:105AB000FFF762FF044630600028D5D1FFF778FF7A
:105AC0000C233B60EEE700BFE86B00080100FFFF1E
:105AD0002DE9F8430646884600F148040027D4E93A
