:020000040800F2
:1000000000000220D16C00086F5C0008755C0008DD
:100010007B5C0008815C0008875C00080000000031
:100020000000000000000000000000008D5C0008DF
:100030009B5C000800000000A95C0008B75C000899
:10004000216D0008216D0008216D0008216D000858
:10005000216D0008216D0008216D0008216D000848
:10006000216D0008216D0008216D0008216D000838
:10007000216D0008216D0008216D0008216D000828
:10008000216D0008216D0008216D0008216D000818
:10009000216D0008216D0008216D0008216D000808
:1000A000216D0008216D0008216D0008216D0008F8
:1000B000216D0008216D0008216D0008216D0008E8
:1000C000216D0008216D0008216D0008216D0008D8
:1000D000216D0008216D0008216D0008216D0008C8
:1000E000216D0008216D0008216D0008216D0008B8
:1000F000216D0008216D0008216D0008216D0008A8
:10010000216D0008216D0008C55C0008216D000804
:10011000216D0008216D0008216D0008216D000887
:10012000E95C0008216D0008216D0008216D0008C0
:10013000216D00080000000000000000216D000893
:10014000216D0008216D0008216D0008216D000857
:10015000216D0008216D0008216D0008216D000847
:10016000216D0008216D0008216D0008216D000837
:10017000216D0008216D0008000000000000000053
:08018000216D0008216D00084B
:1001900010B5054C237833B9044B13B10448AFF3C1
:1001A00000800123237010BDDC010020000000004E
:1001B000ACAD000808B5034B1BB103490348AFF3CE
:1001C000008008BD00000000E0010020ACAD000888
:1001D000034613F8012B002AFBD1181A0138704787
:1001E00001F0FF01102A2BDB10F0070F08D010F8E8
:1001F000013B013A8B422DD010F0070F42B3F6D1EC
:10020000F0B441EA012141EA014122F007047FF004
:1002100000070023F0E80256083C85EA010586EA5B
:10022000010685FA47F5A3FA87F586FA47F6A5FA97
:1002300087F68EB9EED1F0BC01F0FF0102F00702A3
:1002400032B110F8013B013A83EA010313B1F8D14E
:100250000020704701387047002D06BF354603382F
:10026000073815F0010F07D1013015F4807F02BF68
:10027000013015F4C03F0130F0BC0138704700BFB9
:1002800081F0004102E000BF83F0004330B54FEA47
:1002900041044FEA430594EA050F08BF90EA020FB4
:1002A0001FBF54EA000C55EA020C7FEA645C7FEA47
:1002B000655C00F0E2804FEA5454D4EB5555B8BF6A
:1002C0006D420CDD2C4480EA020281EA030382EADB
:1002D000000083EA010180EA020281EA0303362D6D
:1002E00088BF30BD11F0004F4FEA01314FF4801C40
:1002F0004CEA113102D0404261EB410113F0004F52
:100300004FEA03334CEA133302D0524263EB430308
:1003100094EA050F00F0A780A4F10104D5F1200EA6
:100320000DDB02FA0EFC22FA05F2801841F1000101
:1003300003FA0EF2801843FA05F359410EE0A5F1D5
:1003400020050EF1200E012A03FA0EFC28BF4CF006
:10035000020C43FA05F3C01851EBE37101F00045BC
:1003600007D54FF0000EDCF1000C7EEB00006EEBC9
:100370000101B1F5801F1BD3B1F5001F0CD3490853
:100380005FEA30004FEA3C0C04F101044FEA4452AA
:1003900012F5800F80F09A80BCF1004F08BF5FEA31
:1003A000500C50F1000041EB045141EA050130BD11
:1003B0005FEA4C0C404141EB0101013C28BFB1F523
:1003C000801FE9D291F0000F04BF01460020B1FA6E
:1003D00081F308BF2033A3F10B03B3F120020CDA41
:1003E0000C3208DD02F1140CC2F10C0201FA0CF01F
:1003F00021FA02F10CE002F11402D8BFC2F1200C84
:1004000001FA02F120FA0CFCDCBF41EA0C01904039
:10041000E41AA2BF01EB0451294330BD6FEA040482
:100420001F3C1CDA0C340EDC04F11404C4F120026D
:1004300020FA04F001FA02F340EA030021FA04F37F
:1004400045EA030130BDC4F10C04C4F1200220FAD6
:1004500002F001FA04F340EA0300294630BD21FA14
:1004600004F0294630BD94F0000F83F4801306BFDA
:1004700081F480110134013D4EE77FEA645C18BFCE
:100480007FEA655C29D094EA050F08BF90EA020F65
:1004900005D054EA000C04BF1946104630BD91EA5D
:1004A000030F1EBF0021002030BD5FEA545C05D160
:1004B0004000494128BF41F0004130BD14F580049F
:1004C0003CBF01F5801130BD01F0004545F0FE4113
:1004D00041F470014FF0000030BD7FEA645C1ABF48
:1004E000194610467FEA655C1CBF0B46024650EA7F
:1004F000013406BF52EA033591EA030F41F40021AB
:1005000030BD00BF90F0000F04BF0021704730B530
:100510004FF4806404F132044FF000054FF0000105
:1005200050E700BF90F0000F04BF0021704730B5C6
:100530004FF4806404F1320410F0004548BF40429B
:100540004FF000013EE700BF42004FEAE2014FEAF0
:1005500031014FEA02701FBF12F07F4393F07F4FCB
:1005600081F06051704732F07F4208BF704793F0CE
:100570007F4F04BF41F40021704730B54FF46074E1
:1005800001F0004521F000411CE700BF50EA0102E4
:1005900008BF704730B54FF000050AE050EA01028D
:1005A00008BF704730B511F0004502D5404261EBFD
:1005B00041014FF4806404F132045FEA915C3FF43E
:1005C000D8AE4FF003025FEADC0C18BF03325FEADB
:1005D000DC0C18BF033202EBDC02C2F1200300FA8C
:1005E00003FC20FA02F001FA03FE40EA0E0021FAB1
:1005F00002F11444BDE600BF70B54FF0FF0C4CF49F
:10060000E06C1CEA11541DBF1CEA135594EA0C0F50
:1006100095EA0C0F00F0DEF82C4481EA030621EA8B
:100620004C5123EA4C5350EA013518BF52EA0335C6
:1006300041F4801143F4801338D0A0FB02CE4FF078
:100640000005E1FB02E506F00042E0FB03E54FF0A8
:100650000006E1FB03569CF0000F18BF4EF0010EA0
:10066000A4F1FF04B6F5007F64F5407404D25FEA9C
:100670004E0E6D4146EB060642EAC62141EA55514F
:100680004FEAC52040EA5E504FEACE2EB4F1FD0C91
:1006900088BFBCF5E06F1ED8BEF1004F08BF5FEA0F
:1006A000500E50F1000041EB045170BD06F00046C1
:1006B00046EA010140EA020081EA0301B4EB5C046E
:1006C000C2BFD4EB0C0541EA045170BD41F4801166
:1006D0004FF0000E013C00F3AB8014F1360FDEBF8B
:1006E000002001F0004170BDC4F10004203C35DA67
:1006F0000C341BDC04F11404C4F1200500FA05F3EA
:1007000020FA04F001FA05F240EA020001F000428A
:1007100021F0004110EBD37021FA04F642EB060100
:100720005EEA430E08BF20EAD37070BDC4F10C042A
:10073000C4F1200500FA04F320FA05F001FA04F2EE
:1007400040EA020001F0004110EBD37041F10001DA
:100750005EEA430E08BF20EAD37070BDC4F12005E5
:1007600000FA05F24EEA020E20FA04F301FA05F24D
:1007700043EA020321FA04F001F0004121FA04F2F5
:1007800020EA020000EBD3705EEA430E08BF20EAC5
:10079000D37070BD94F0000F0FD101F000464000FF
:1007A00041EB010111F4801F08BF013CF7D041EA81
:1007B000060195F0000F18BF704703F00046520085
:1007C00043EB030313F4801F08BF013DF7D043EA56
:1007D0000603704794EA0C0F0CEA135518BF95EA0C
:1007E0000C0F0CD050EA410618BF52EA4306D1D193
:1007F00081EA030101F000414FF0000070BD50EAB2
:10080000410606BF1046194652EA430619D094EA3B
:100810000C0F02D150EA013613D195EA0C0F05D125
:1008200052EA03361CBF104619460AD181EA030179
:1008300001F0004141F0FE4141F470014FF0000031
:1008400070BD41F0FE4141F4780170BD70B54FF0CC
:10085000FF0C4CF4E06C1CEA11541DBF1CEA13554C
:1008600094EA0C0F95EA0C0F00F0A7F8A4EB05042E
:1008700081EA030E52EA03354FEA013100F0888025
:100880004FEA03334FF0805545EA131343EA1263EE
:100890004FEA022245EA111545EA10654FEA0026A3
:1008A0000EF000419D4208BF964244F1FD0404F55C
:1008B000407402D25B084FEA3202B61A65EB0305B8
:1008C0005B084FEA32024FF480104FF4002CB6EB75
:1008D000020E75EB030E22BFB61A754640EA0C00F5
:1008E0005B084FEA3202B6EB020E75EB030E22BF35
:1008F000B61A754640EA5C005B084FEA3202B6EB76
:10090000020E75EB030E22BFB61A754640EA9C0034
:100910005B084FEA3202B6EB020E75EB030E22BF04
:10092000B61A754640EADC0055EA060E18D04FEAC2
:10093000051545EA16754FEA06164FEAC30343EA62
:1009400052734FEAC2025FEA1C1CC0D111F4801F2F
:100950000BD141EA00014FF000004FF0004CB6E728
:1009600011F4801F04BF01430020B4F1FD0C88BFC7
:10097000BCF5E06F3FF6AFAEB5EB030C04BFB6EBD2
:10098000020C5FEA500C50F1000041EB045170BDC5
:100990000EF0004E4EEA113114EB5C04C2BFD4EBF2
:1009A0000C0541EA045170BD41F480114FF0000E76
:1009B000013C90E645EA060E8DE60CEA135594EAF2
:1009C0000C0F08BF95EA0C0F3FF43BAF94EA0C0FF5
:1009D0000AD150EA01347FF434AF95EA0C0F7FF46A
:1009E00025AF104619462CE795EA0C0F06D152EABE
:1009F00003353FF4FDAE1046194622E750EA4106A2
:100A000018BF52EA43067FF4C5AE50EA41047FF4B2
:100A10000DAF52EA43057FF4EBAE12E74FF0FF3C17
:100A200006E000BF4FF0010C02E000BF4FF0010CE8
:100A30004DF804CD4FEA410C7FEA6C5C4FEA430C61
:100A400018BF7FEA6C5C1BD001B050EA410C0CBFB0
:100A500052EA430C91EA030F02BF90EA020F002012
:100A6000704710F1000F91EA030F58BF994208BF79
:100A700090422CBFD8176FEAE37040F00100704736
:100A80004FEA410C7FEA6C5C02D150EA013C07D18D
:100A90004FEA430C7FEA6C5CD6D152EA033CD3D0D8
:100AA0005DF8040B704700BF8446104662468C46D2
:100AB0001946634600E000BF01B5FFF7B7FF002805
:100AC00048BF10F1000F01BD4DF808EDFFF7F4FF2E
:100AD0000CBF012000205DF808FB00BF4DF808EDB9
:100AE000FFF7EAFF34BF012000205DF808FB00BFDC
:100AF0004DF808EDFFF7E0FF94BF012000205DF8FE
:100B000008FB00BF4DF808EDFFF7CEFF94BF0120B2
:100B100000205DF808FB00BF4DF808EDFFF7C4FFAB
:100B200034BF012000205DF808FB00BF4FEA410CF4
:100B30007FEA6C5C02D150EA013C0AD14FEA430CD7
:100B40007FEA6C5C02D152EA033C02D14FF0000014
:100B500070474FF0010070474FEA410212F5001252
:100B600015D211D56FF47873B3EB625212D94FEAF4
:100B7000C12343F0004343EA505311F0004F23FADE
:100B800002F018BF404270474FF00000704750EA33
:100B9000013005D111F0004008BF6FF000407047F0
:100BA0004FF00000704700BF53B94AB9002908BF91
:100BB00000281CBF4FF0FF314FF0FF3000F06EB93E
:100BC000ADF1080C6DE904CE00F006F8DDF804E0A4
:100BD000DDE9022304B070472DE9F047089D044683
:100BE0008C46002B40F083808A42174647D9B2FAE0
:100BF00082F242B1C2F1200024FA00F09140974005
:100C000040EA010C94404FEA1748230CBCFBF8F66D
:100C10001FFA87FE08FB16C143EA014306FB0EF1EB
:100C2000994209D9FB1806F1FF3080F019819942E9
:100C300040F21681023E3B445B1AA4B2B3FBF8F0CB
:100C400008FB103344EA034400FB0EFEA64509D915
:100C50003C1900F1FF3380F00581A64540F2028186
:100C600002383C4440EA0640A4EB0E0400261DB1C5
:100C7000D4400023C5E900433146BDE8F08702B9FE
:100C8000FFDEB2FA82F2002A50D1CB1B4FEA174E98
:100C90001FFA87F80126B3FBFEFC210C0EFB1C3368
:100CA00041EA034108FB0CF38B4207D979180CF198
:100CB000FF3002D28B4200F2E9808446C91AA3B207
:100CC000B1FBFEF00EFB101143EA014408FB00F8F3
:100CD000A04507D93C1900F1FF3302D2A04500F22C
:100CE000D9801846A4EB080440EA0C40BFE78B42C9
:100CF00009D9002D00F0B1800026C5E90001304679
:100D00003146BDE8F087B3FA83F6002E4AD18B4214
:100D100002D3824200F2B880841A61EB0301012001
:100D20008C46002DA8D0C5E9004CA5E7C2F12003F0
:100D300020FA03F6974001FA02F04FEA174ED94025
:100D40003043030CB1FBFEF61FFA87F80EFB1611B9
:100D500043EA014306FB08F1994204FA02F409D977
:100D6000FB1806F1FF3C80F08D80994240F28A80AA
:100D7000023E3B445B1A81B2B3FBFEF00EFB103324
:100D800041EA034100FB08F38B4207D9791800F1CF
:100D9000FF3C73D28B4271D902383944CB1A40EAF6
:100DA000064678E7C6F1200C03FA06F422FA0CF3A3
:100DB0001C4320FA0CF701FA06F34FEA144E21FA0D
:100DC0000CF11F433B0CB1FBFEF91FFA84F80EFB3C
:100DD000191143EA014109FB08FA8A4502FA06F2B1
:100DE00000FA06F308D9611809F1FF3048D28A45A4
:100DF00046D9A9F102092144A1EB0A01BFB2B1FB16
:100E0000FEF00EFB101147EA014700FB08F8B84559
:100E100007D9E71900F1FF312ED2B8452CD9023895
:100E2000274440EA0940A7EB0807A0FB02894F4589
:100E3000C64649461AD317D05DB1B3EB0E0267EB35
:100E4000010707FA0CFCF2404CEA0202F740C5E940
:100E5000002700263146BDE8F0872E4628460BE7DE
:100E60000646E9E61846FDE64345E5D2B8EB020E34
:100E700069EB04010138DFE70846D2E760468DE7F9
:100E80008146B9E7664675E730464AE7ACF1020CA1
:100E9000394413E702383C4424E700BF704700BFE1
:100EA00080B500AF03F086FD00F0F4FD084B5B78E1
:100EB00003F00403DBB2002B01D000F0DFF8054B98
:100EC0001B8801339AB2034B1A8000BF80BD00BF5C
:100ED000680300200802002080B586B000AF002320
:100EE000FB7501F015FA464B00225A62454B002271
:100EF0005A6201F029FB444807F01CFE414B5B6A33
:100F000007EE903AF8EE677AC7ED047A3C4B5B6ADD
:100F100007EE903AF8EE677AC7ED037A97ED047A18
:100F2000DFED3A6AC7EE267AB3EE007A67EE877A8B
:100F3000FCEEE77AC7ED017A3B79DAB2344B1A70EE
:100F400097ED037ADFED316AC7EE267AB0EE087AC4
:100F500067EE877AFCEEE77AC7ED017A3B79FB759D
:100F60002B4B1A782B4B1B78D31ADAB22A4B1A70F8
:100F7000294B1B78002B19D0254B1B781946274885
:100F800007F052FD224B1B78184601F057FC204B0E
:100F90001B789BB21A461201D31A9B009BB203F234
:100FA00016439BB26421184601F082FA184B1A7856
:100FB000184B1A70FB7D022BA0D1642140F64D2006
:100FC00001F076FA642140F6EA2001F071FA64211A
:100FD0004FF4446001F06CFA01F0CAFA084B0022A9
:100FE0005A62084B00225A62094B1B7819460C487A
:100FF00007F01AFD064B1B7818461837BD4680BD12
:101000000004004000080040C8AD00080000804710
:10101000F801002000000020F9010020E0AD0008E8
:10102000ECAD000880B500AF01F0FCFD01F064F903
:10103000104807F07FFD104B1B8E502BFBD94FF44F
:10104000967140F2265001F033FA4FF4967140F257
:10105000755001F02DFA4FF496714FF4C46001F011
:1010600027FA4FF47A7001F05FF900BF01F050F9F0
:1010700000BF80BD00AE000840C3002080B584B032
:1010800000AF294B93ED007A284BD3ED007A77EE31
:10109000677AC7ED027A244B93ED057A244BD3EDA2
:1010A000007A77EE677AC7ED017A1F4B93ED057AE8
:1010B0001F4BD3ED017A77EE677AC7ED007A0023F4
:1010C000FB73D7ED027AF0EEE77AB3EE047AF4EE32
:1010D000C77AF1EE10FA01DD0223FB73D7ED007A37
:1010E000F0EEE77AB0EE007AF4EEC77AF1EE10FA9D
:1010F00001DD0323FB73D7ED017AF0EEE77AB0EE62
:10110000007AF4EEC77AF1EE10FA01DD0423FB73E6
:10111000FB7B002B03D0FB7B184600F00BF800BFD5
:101120001037BD4680BD00BF4003002024030020CF
:1011300040C30020F0B585B002AF0346FB7101F05B
:1011400071FD01F0E5F8002001F078FB0023009329
:10115000002300220021002001F030FF4FF4FA703C
:1011600001F0E2F803F0BBF9FE790D4B1B6818465D
:10117000FFF7EAF904460D460A4B1B681846FFF7CD
:10118000E3F902460B46CDE9002322462B463146C1
:10119000054807F049FC4FF47A7001F0C5F8E3E721
:1011A00040030020240300200CAE000880B500AFEF
:1011B0000A4A53786FF38203537003F011F8084B17
:1011C0004FF000021A60074B4FF000021A60034A0A
:1011D000537843F00403537000BF80BD68030020C0
:1011E000240300204003002080B400AF134B1B7881
:1011F00003F00403DBB2002B1AD0104A13786FF30C
:10120000C30313700E4B4FF000021A610B4A537860
:101210006FF3820353700B4B4FF000021A60084BC0
:101220004FF000021A60054A537843F004035370EC
:1012300000BFBD465DF8047B704700BF6803002017
:10124000240300204003002080B584B000AF034693
:10125000FB7100237B730023BB7302F01DFCFFF7BF
:10126000C3FF01F049F8664B1B8E782B04D9FFF7BA
:101270009DFF022002F0CAFB624B1B78072B0DD1A9
:10128000604B5B78072B09D15F4BD3ED057A0020CB
:10129000F0EE670A9FED5D0A02F08CFC0121002050
:1012A00002F01AFF0346FB7302F07AFB584B5B888F
:1012B00001339AB2564B5A80FA7BFB791146184695
:1012C00002F046FB524B5B881A46524B9B5C882BC4
:1012D0000AD0882B55DC442B0ED0442B51DC112B2B
:1012E00044D0222B13D04CE0012002F031FF034602
:1012F000FB7300237B7344E002F080FF0346FB7323
:1013000001237B737B7B184602F080FB39E00020D1
:1013100002F008FF3A4B9B8DE62B05D9384B9B8E8C
:10132000E62B01D90123BB73FFF740FFBB7B012BE9
:101330000FD10023BB739FED380A02F0B7FF324B89
:10134000D3ED057A0020F0EE670A9FED300A02F037
:1013500031FC02237B737B7B184602F057FB012193
:10136000002002F0B9FE0346FB730AE002F072FFB0
:101370000346FB73FF237B737B7B184602F046FB1F
:1013800000BF234B5B8801339AB2214B5A8002F095
:1013900007FBFB7B184601F051FAFA7BFB791146FB
:1013A000184602F0D5FA1D4B1B781C4A5178FA7981
:1013B000184600F037F80346002B83D1002002F0D6
:1013C000B1FE00F0A5FF01F02DFC642000F0ACFFA1
:1013D000134B1B7803F00203DBB2002B01D102F0A8
:1013E0008DFB0F4A13786FF382031370642000F0B3
:1013F0009BFF03F014F800BF1037BD4680BD00BF4F
:1014000040C3002018C10020E40200200000784200
:1014100010C1002040C2002033335F4214C10020BD
:101420006803002080B485B000AF0346FB710B4613
:10143000BB7113467B710123FB730123BB73002334
:101440007B7300233B730023FB720023BB720023DA
:101450007B7200237B732EE0234B1A787B7B134433
:10146000BB72214B5A787B7B13447B72FA79BB7A2F
:101470009A4207D13B7B002B04D10023FB7301234D
:101480003B7304E03B7B002B01D10123FB73BA7952
:101490007B7A9A4207D1FB7A002B04D10023BB73DD
:1014A0000123FB7204E0FB7A002B01D10123BB7303
:1014B0007B7B01337B737A7B7B799A42CCD3FB7B3A
:1014C000002B09D1BB7B002B06D1084A13786FF3A0
:1014D00082031370002300E0012318461437BD4631
:1014E0005DF8047B704700BF18C10020680300202E
:1014F00080B483B000AF78607B6893ED067A7B6838
:10150000D3ED036A7B68D3ED007A66EEA77A77EEB7
:10151000277A7B68C3ED067A7B6893ED067A7B6851
:10152000D3ED077AB4EEE77AF1EE10FA04DD7B68CA
:10153000DA697B689A6114E07B6893ED067A7B68D0
:10154000D3ED077AF1EE677AB4EEE77AF1EE10FAAE
:1015500007D57B68D3ED077AF1EE677A7B68C3ED38
:10156000067A7B6893ED027A7B68D3ED007A27EEEA
:10157000277A7B68D3ED046A7B6893ED006A7B6809
:10158000D3ED017A76EE677A66EEA77A37EE277AA0
:101590007B68D3ED067A77EE277A7B68C3ED057A10
:1015A0007B6893ED057A7B68D3ED087AB4EEE77A31
:1015B000F1EE10FA04DD7B681A6A7B685A6114E068
:1015C0007B6893ED057A7B68D3ED087AF1EE677A54
:1015D000B4EEE77AF1EE10FA07D57B68D3ED087A1E
:1015E000F1EE677A7B68C3ED057A7B681A687B68E1
:1015F0005A607B685B6907EE903AB0EE670A0C3779
:10160000BD465DF8047B704780B483B000AF2B4BC0
:101610005B697B602A4B1B7803F01003DBB2002B65
:101620000DD0284BD3ED067A9FED277A67EE877AA7
:1016300097ED017A77EE277AC7ED017A13E0204B18
:101640001B7803F02003DBB2002B0CD01D4BD3ED35
:10165000067A9FED1D7A67EE877A97ED017A77EE2D
:10166000677AC7ED017A174BD3ED057A97ED017ACA
:10167000B4EEE77AF1EE10FA03DD124B5B697B60A2
:1016800012E0104BD3ED057AF1EE677A97ED017A0F
:10169000B4EEE77AF1EE10FA06D50A4BD3ED057AEF
:1016A000F1EE677AC7ED017A7B6807EE903AB0EE0B
:1016B000670A0C37BD465DF8047B70474003002085
:1016C00068030020E40200206F12833A80B483B0E4
:1016D00000AF2B4B5B687B602A4B1B7803F0400309
:1016E000DBB2002B0DD0284BD3ED027A9FED277A89
:1016F00067EE877A97ED017A77EE277AC7ED017A60
:1017000013E0204B1B7823F07F03DBB2002B0CD0BF
:101710001D4BD3ED027A9FED1D7A67EE877A97ED28
:10172000017A77EE677AC7ED017A174BD3ED017A2C
:1017300097ED017AB4EEE77AF1EE10FA03DD124B81
:101740005B687B6012E0104BD3ED017AF1EE677AB3
:1017500097ED017AB4EEE77AF1EE10FA06D50A4B6E
:10176000D3ED017AF1EE677AC7ED017A7B6807EE77
:10177000903AB0EE670A0C37BD465DF8047B7047BF
:101780004003002068030020E40200206F12833A27
:10179000B0B48FB000AF786187ED040AC7ED030ADB
:1017A00087ED021AC7ED011A87ED002A3B69FB613C
:1017B000D7ED016A97ED037AC6EE877AC7ED087A0E
:1017C000D7ED006A97ED037AC6EE877AC7ED097AFE
:1017D000FB68BB62BB68FB627B683B633B687B6307
:1017E0007B691D4607F11C040FCC0FC594E8070068
:1017F00085E8070078693C37BD46B0BC7047B0B497
:1018000091B000AF786187ED040AC7ED030A87ED58
:10181000021AC7ED011A87ED002A3B697B62FB685B
:10182000BB62BB68FB627B68BB633B68FB637B6935
:101830001D4607F11C040FCC0FC50FCC0FC5236844
:101840002B6078694437BD46B0BC7047B0B592B0E4
:1018500000AF794C07F128039FED782ADFED771A66
:101860009FED761AF7EE000A9FED740A1846FFF70F
:101870008FFF254607F128040FCC0FC594E8070019
:1018800085E807006E4C07F128039FED6C2ADFED19
:101890006B1A9FED6A1AF7EE000A9FED680A184668
:1018A000FFF776FF254607F128040FCC0FC594E813
:1018B000070085E80700634C07F12803B1EE002A12
:1018C000F6EE001A9FED5D1ADFED5F0A9FED5B0AF1
:1018D0001846FFF75DFF254607F128040FCC0FC51A
:1018E00094E8070085E80700584B00221A80584CFE
:1018F0003B469FED582ADFED581A9FED501ADFED59
:10190000570AB0EE0C0A1846FFF779FF25463C4609
:101910000FCC0FC50FCC0FC523682B60504C3B4636
:101920009FED4C2ADFED4C1A9FED441ADFED4B0A78
:10193000B0EE0C0A1846FFF762FF25463C460FCC76
:101940000FC50FCC0FC523682B60464C3B469FED5F
:10195000462ADFED3A1A9FED391ADFED380A9FED7E
:10196000430A1846FFF74BFF25463C460FCC0FC5F0
:101970000FCC0FC523682B603D4C3B469FED3A2AA8
:10198000DFED2E1A9FED3B1ADFED2C0A9FED390A91
:101990001846FFF734FF25463C460FCC0FC50FCC49
:1019A0000FC523682B60344C3B469FED2F2ADFED9B
:1019B000231A9FED301ADFED210A9FED300A1846F9
:1019C000FFF71DFF25463C460FCC0FC50FCC0FC5BA
:1019D00023682B602A4C3B469FED2A2ADFED1E1A16
:1019E0009FED161ADFED230A9FED270A1846FFF731
:1019F00006FF25463C460FCC0FC50FCC0FC523680C
:101A00002B60224C3B469FED182ADFED131A9FED09
:101A1000201ADFED0A0A9FED100A1846FFF7EFFEC5
:101A200025463C460FCC0FC50FCC0FC523682B6055
:101A300000BF4837BD46B0BD2403002000000000B1
:101A400040030020E4020020AE47613D680300200F
:101A5000780200209A99193FCDCCCC3D0AD7233C7F
:101A60009C020020C0020020CDCC4C3EA69B443BF3
:101A70000C0200206F12033B540200206F12033A45
:101A8000000300209A99993E8FC2753D30020020D4
:101A90000AD7233D80B586B000AF4FF000037B61CD
:101AA0004FF000033B614FF000037B60B84BD3ED78
:101AB000007AB0EE670A02F009FEF0EE407AB44B0D
:101AC000C3ED007A02F03CFEF0EE407A9FEDB17A71
:101AD00067EE877AAE4BC3ED017A02F09DFDF0EE22
:101AE000407AAB4BC3ED047A02F00CFEF0EE407A84
:101AF000A74BC3ED057AFFF787FDF0EE407AA64BC2
:101B0000C3ED057AFFF7E2FDF0EE407AA24BC3ED9C
:101B1000017AA14B93ED007A9D4BD3ED007A77EEDD
:101B2000677A9E4BC3ED007A9B4B93ED057A984BF9
:101B3000D3ED057A77EE677A994BC3ED007A964B31
:101B400093ED057A924BD3ED057A77EE677A954B54
:101B5000C3ED007A904B93ED017A8D4BD3ED017A72
:101B600077EE677A904BC3ED007A904B5B8E1A4606
:101B70008E4B9B8FD31A07EE903AF8EEE77AC7EDBB
:101B8000037A8A4BDB8D1A46884B1B8FD31A07EEDC
:101B9000903AF8EEE77AC7ED027AD7ED037AF0EEE5
:101BA000E77AB2EE047AF4EEC77AF1EE10FA02DDCB
:101BB0004FF00003FB60D7ED027AF0EEE77AB2EE69
:101BC000047AF4EEC77AF1EE10FA02DD4FF000036A
:101BD000BB6097ED037AD7ED027A77EE677A744BA4
:101BE000C3ED007A714B9B8DA3F58C726F4B9B8E6E
:101BF000A3F58273D31A07EE903AF8EEE77A6D4BAD
:101C0000C3ED007A694B9B8DA3F58C72674B9B8E5D
:101C1000A3F58273134407EE903AF8EEE77A664B29
:101C2000C3ED007A654B5B7803F00803DBB2002B51
:101C300014D05A48FFF75CFC87ED010A97ED057A4E
:101C4000D7ED017A77EE277AC7ED057A97ED047A1A
:101C5000D7ED017A77EE677AC7ED047A574B5B7858
:101C600003F00203DBB2002B14D04F48FFF740FC17
:101C700087ED010A97ED057AD7ED017A77EE277A9D
:101C8000C7ED057A97ED047AD7ED017A77EE677A9A
:101C9000C7ED047A494B1B7803F00803DBB2002B35
:101CA0001ED03D4BD3ED057A9FED457AF4EEC77A11
:101CB000F1EE10FA14DD3E48FFF71AFC87ED010A39
:101CC00097ED057AD7ED017A77EE277AC7ED057A99
:101CD00097ED047AD7ED017A77EE677AC7ED047A4B
:101CE000364B5B7803F00103DBB2002B15D02D4897
:101CF000FFF7FEFBB0EE407AD7ED057A77EE877AF4
:101D0000C7ED057A2648FFF7F3FBB0EE407AD7ED32
:101D1000047A77EE877AC7ED047A284B5B7803F074
:101D20001003DBB2002B29D02248FFF7E1FB87ED3F
:101D3000010A97ED057AD7ED017A77EE277AC7ED9C
:101D4000057A97ED047AD7ED017A77EE677AC7EDD9
:101D5000047A1948FFF7CCFB87ED010A97ED057A65
:101D6000D7ED017A77EE677AC7ED057A97ED047AB9
:101D7000D7ED017A77EE677AC7ED047AD7ED050AD9
:101D800097ED040A00F0FCFE00BF1837BD4680BD89
:101D9000240300204DF38E3C40030020300200203D
:101DA000780200209C0200200003002040C3002095
:101DB000C00200200C020020540200206803002012
:101DC000CDCC4C3E80B582B000AF03460A46FB71D5
:101DD0001346BB71FFF726F902F044FE00F0B4FB96
:101DE000FB7903F00103D9B20B4A537861F3820304
:101DF000537000F081FABB7903F00103002B02D08D
:101E000000F000FE04E0BB79002B01D100F00AFFD6
:101E100000BF0837BD4680BD6803002090B585B07F
:101E200002AF00210020FFF7CDFF0023FB71114B13
:101E30009B8D19460F4BDB8D18460E4B1B8E1C4697
:101E40000C4B5B8E1A460B4B9B8E019300922346E4
:101E50000246094806F0E8FD4FF4FA7000F064FA13
:101E600002F06CFD0346FB71FB79184600F0E6FCBE
:101E7000DDE700BF40C3002034AE00082DE9B043C9
:101E800084B004AF00210020FFF79CFF114B1B69B9
:101E90001846FEF759FB804689460F4B9B6918464A
:101EA000FEF752FB04460D460B4B5B691846FEF7E6
:101EB0004BFB02460B46CDE90223CDE900454246E5
:101EC0004B46064806F0B0FD4FF4FA7000F02CFACD
:101ED000DCE700BF2403002040C300205CAE000804
:101EE00080B500AF00210020FFF76CFF074B1B6897
:101EF0001846FEF729FB02460B46054806F094FDFE
:101F00004FF4FA7000F010FAF0E700BF240300204D
:101F100084AE000880B483B000AF78607B681B6833
:101F200043F040027B681A6000BF0C37BD465DF885
:101F3000047B704780B483B000AF78607B681B6817
:101F400003F04003402B01D1012300E00023184699
:101F50000C37BD465DF8047B704780B483B000AF9A
:101F600078607B689B6803F00103012B01D101239A
:101F700000E0002318460C37BD465DF8047B70472F
:101F800080B483B000AF78607B689B6803F0020385
:101F9000022B01D1012300E0002318460C37BD4677
:101FA0005DF8047B704780B483B000AF78607B68D5
:101FB000DB68DBB218460C37BD465DF8047B704722
:101FC00080B485B000AF78600B46FB707B680C3343
:101FD000FB60FB68FA781A7000BF1437BD465DF8E5
:101FE000047B704780B483B000AF786039607B6851
:101FF0003A689A6100BF0C37BD465DF8047B7047B4
:1020000080B483B000AF786039603B681A047B68A5
:102010009A6100BF0C37BD465DF8047B7047000035
:1020200090B587B000AFF860B9607A60FB70FB785C
:10203000FB7504212048FFF7E3FFF868FFF78DFFE9
:102040000346012B02D1F868FFF7ADFFF868FFF7F0
:1020500071FF0346002B24D1F868FFF75BFF20E0F7
:10206000BB685A1CBA601B781946F868FFF7A8FFCE
:1020700000BFF868FFF784FF0346002BF9D000BFCC
:10208000F868FFF76AFF0346002BF9D07C68631CF1
:102090007B60F868FFF787FF03462370FB7D013BF9
:1020A000FB75FB7D002BDBD104210348FFF79AFF72
:1020B00000BF1C37BD4690BD000C024080B584B007
:1020C00000AF0346FB71FB7963F07F03DBB23B7328
:1020D00000237B7307F1080207F10C010223044877
:1020E000FFF79EFF7B7A18461037BD4680BD00BFC4
:1020F000003C004080B584B000AF03460A46FB7147
:102100001346BB71FB7903F07F03DBB23B73BB79F2
:102110007B7307F1080207F10C0102230348FFF764
:102120007FFF00BF1037BD4680BD00BF003C0040B0
:1021300080B582B000AF2648FFF7ECFE7520FFF7B0
:10214000BDFF0346FB71FB791946224806F06CFC83
:10215000FB79982B13D07520FFF7B0FF0346FB7176
:102160000AE01D4806F0E6FC7520FFF7A7FF0346CE
:10217000FB71642000F0D8F8FB79982BF1D1FB7942
:102180001946144806F050FC144806F0D3FC002110
:102190006B20FFF7AFFF0A2000F0C6F800211A20DD
:1021A000FFF7A8FF0A2000F0BFF818211B20FFF757
:1021B000A1FF0A2000F0B8F818211C20FFF79AFFB1
:1021C0000A2000F0B1F800BF0837BD4680BD00BF4F
:1021D000003C0040B0AE0008C4AE0008D0AE00081D
:1021E00090B583B000AF4720FFF768FF03461B029E
:1021F0001CB24820FFF762FF03461BB22343FB805B
:10220000B7F9063007EE903AB8EEE77ADFED066AE6
:10221000C7EE267AC7ED007A3B6807EE903AB0EE3B
:10222000670A0C37BD4690BD3333834190B583B008
:1022300000AF3B20FFF742FF03461B021CB23C20CD
:10224000FFF73CFF03461BB22343FB80B7F9063080
:1022500007EE903AB8EEE77ADFED066AC7EE267A27
:10226000C7ED007A3B6807EE903AB0EE670A0C378C
:10227000BD4690BD0000004580B483B000AF7860DB
:102280007B681B6843F001027B681A6000BF0C3753
:10229000BD465DF8047B704780B483B000AF7860C2
:1022A0007B681B6823F001027B681A6000BF0C3753
:1022B000BD465DF8047B704780B483B000AF7860A2
:1022C0007B68DB6843F001027B68DA6000BF0C3793
:1022D000BD465DF8047B704780B483B000AF786082
:1022E0007B68DB6823F001027B68DA6000BF0C3793
:1022F000BD465DF8047B704780B500AF0348FFF72B
:10230000DBFF0248FFF7B8FF00BF80BD000C0040B4
:1023100080B500AF0348FFF7BFFF0248FFF7DCFFBF
:1023200000BF80BD000C004080B582B000AF034606
:10233000FB80FB88184605F0A5FE00BF0837BD46A8
:1023400080BD000080B584B000AF0346FB80FB88F1
:10235000B3F57A7F02D340F2E733FB800D4B5B6A23
:102360009AB2FB8813449BB2FB810A48FFF784FFB3
:1023700000BF084B5B6AFA8992B29342F9D30548D1
:10238000FFF78AFF034B00225A6200BF1037BD4699
:1023900080BD00BF0010004080B400AF074B1B6938
:1023A00003F48073B3F5807F0CBF01230023DBB2FD
:1023B0001846BD465DF8047B704700BF000402402C
:1023C00080B483B000AF78607B681B6843F0010283
:1023D0007B681A6000BF0C37BD465DF8047B704710
:1023E00080B483B000AF786039607B683A685A6225
:1023F00000BF0C37BD465DF8047B704780B483B0E6
:1024000000AF786039607B683A68DA6200BF0C37E9
:10241000BD465DF8047B704780B483B000AF786040
:1024200039607B681A6A3B681A437B681A6200BF8E
:102430000C37BD465DF8047B704780B483B000AFB5
:10244000786039607B683A681A6400BF0C37BD4613
:102450005DF8047B704780B483B000AF78607B6820
:102460005B6C43F400427B685A6400BF0C37BD4686
:102470005DF8047B7047000080B500AF4FF48051D9
:102480000548FFF7C9FF0448FFF79AFF0248FFF726
:10249000E2FF00BF80BD00BF0004014080B500AF77
:1024A00000210248FFF7C9FF00BF80BD00040140C2
:1024B00080B582B000AF03460A46FB801346BB805E
:1024C000FB880E4A92FBF3F319460D48FFF796FF7F
:1024D000FB880C4A92FBF3F319460948FFF7ADFF5E
:1024E00000210748FFF77CFFBB881846FFF71CFF59
:1024F000FFF7D4FF00BF0837BD4680BDA0860100AE
:10250000000401401873010080B483B000AF78600C
:102510007B681B6843F001027B681A6000BF0C37C0
:10252000BD465DF8047B704780B483B000AF78602F
:102530007B681B6823F001027B681A6000BF0C37C0
:10254000BD465DF8047B704780B500AF064B0022A6
:102550005A62064B00225A620348FFF7D5FF034830
:10256000FFF7D2FF00BF80BD00040040000800401C
:1025700080B500AF0348FFF7D7FF0348FFF7D4FF4C
:1025800000BF80BD000400400008004080B485B05A
:1025900000AF0346FB710023FB810023BB81FB7965
:1025A000F02B06D1104B5B6ABB810F4B00225A62A5
:1025B00008E0FB790F2B05D10C4B5B6ABB810B4B01
:1025C00000225A62B7F90C30002B02DABB89FB817A
:1025D00001E0BB89FB81B7F90E3018461437BD46C0
:1025E0005DF8047B704700BF000400400008004015
:1025F00080B400AF054B1B69044A43F000431361EC
:1026000000BFBD465DF8047B704700BF003C024040
:1026100080B400AF054B064A5A60044B054A5A6025
:1026200000BFBD465DF8047B704700BF003C024020
:1026300023016745AB89EFCD80B400AF00BF064BE7
:10264000DB6803F48033B3F5803FF8D000BF00BFF0
:10265000BD465DF8047B7047003C024080B582B007
:1026600000AF78600B46FB700F4B1B690E4A23F4DA
:10267000407313610C4B0C4A1B6913610A4B1B69B5
:10268000094A43F0010313617B68FA781A70FFF777
:10269000D3FF054B1B69044A23F00103136100BFFC
:1026A0000837BD4680BD00BF003C024080B582B007
:1026B00000AF78600B46FB70FFF7AAFF074B1A6864
:1026C0007B681344FA7811461846FFF7C7FFFFF7F7
:1026D0008FFF00BF0837BD4680BD00BF040000204B
:1026E00080B483B000AF7860054B1A687B681344F0
:1026F0001B7818460C37BD465DF8047B704700BF59
:102700000400002080B500AFFFF782FF0B4B1B6970
:102710000A4A43F002031361084B1B69074A43F05E
:1027200058031361054B1B69044A43F4803313615A
:10273000FFF782FFFFF75CFF00BF80BD003C024057
:1027400080B483B000AF0346FB71FB79002B04D04B
:10275000074B4FF480429A6103E0054B4FF08042F3
:102760009A6100BF0C37BD465DF8047B704700BF1F
:102770000004024080B483B000AF0346FB71FB79D4
:10278000002B04D0074B4FF400429A6103E0054B45
:102790004FF000429A6100BF0C37BD465DF8047BE4
:1027A000704700BF0004024080B483B000AF03460E
:1027B000FB71FB79002B04D0074B4FF480729A61B8
:1027C00003E0054B4FF080729A6100BF0C37BD46A5
:1027D0005DF8047B704700BF0008024080B483B0FE
:1027E00000AF0346FB71FB79002B03D0064B102290
:1027F0009A6103E0044B4FF480129A6100BF0C37DA
:10280000BD465DF8047B70470004024080B483B08D
:1028100000AF0346FB71FB79002B03D0064B20224F
:102820009A6103E0044B4FF400129A6100BF0C3729
:10283000BD465DF8047B70470004024080B582B05D
:1028400000AF0346FB71FB7903F00103DBB21846CE
:10285000FFF7DCFFFB7903F00203DBB21846FFF75A
:10286000BDFFFB7903F00403DBB21846FFF79CFFC2
:10287000FB7903F00803DBB21846FFF77BFFFB7917
:1028800003F01003DBB21846FFF75AFF00BF08370A
:10289000BD4680BD80B483B000AF78607B681B68A4
:1028A00043F001027B681A6000BF0C37BD465DF83B
:1028B000047B704780B483B000AF78607B681B688E
:1028C00023F001027B681A6000BF0C37BD465DF83B
:1028D000047B704780B483B000AF786039607B6858
:1028E0003A685A6200BF0C37BD465DF8047B7047FA
:1028F00080B483B000AF786039607B681A6A3B6847
:102900001A437B681A6200BF0C37BD465DF8047B32
:10291000704780B483B000AF786039607B681A6A12
:102920003B68DB431A407B681A6200BF0C37BD4628
:102930005DF8047B704780B483B000AF7860396085
:102940007B683A685A6300BF0C37BD465DF8047B6C
:10295000704780B483B000AF786039607B683A68B4
:102960009A6300BF0C37BD465DF8047B704780B4A6
:1029700083B000AF78607B685B6C43F400427B6897
:102980005A6400BF0C37BD465DF8047B704780B4C5
:1029900083B000AF786039607B683A689A6100BFA5
:1029A0000C37BD465DF8047B704780B483B000AF40
:1029B000786039603B681A047B689A6100BF0C3705
:1029C000BD465DF8047B704780B582B000AF03461A
:1029D000FB71FB79012B05D120210948FFF7D7FFB7
:1029E000012309E0FB79002B05D120210448FFF7E2
:1029F000DCFF002300E0FF2318460837BD4680BDFA
:102A00000008024080B582B000AF0120FFF7DCFF74
:102A10000346FB71FB79012B32D101211A48FFF7E4
:102A2000C4FF02211848FFF7B2FF4FF48041174856
:102A3000FFF7BBFF4FF400411448FFF7A8FF102138
:102A40004FF08040FFF754FF4FF08040FFF722FF28
:102A500001210F48FFF74CFF0D48FFF71BFF012135
:102A60004FF08040FFF775FF01210948FFF763FF32
:102A70004FF08040FFF77BFF0548FFF778FF00E04D
:102A800000BF0837BD4680BD000402400000024080
:102A90000000014080B483B000AF87ED010AC7EDAC
:102AA000000AD7ED017AF5EEC07AF1EE10FA07DDF3
:102AB000164B4FF480329A61144B02229A6106E061
:102AC000124B01229A61114B4FF400329A61D7EDFB
:102AD000007AF5EEC07AF1EE10FA08DD0C4B4FF0FB
:102AE00080429A610A4B4FF400429A6107E0084B1A
:102AF0004FF480429A61064B4FF000429A6100BF4A
:102B00000C37BD465DF8047B704700BF00040240EF
:102B10000000024080B485B000AF87ED030AC7ED26
:102B2000020A87ED011AD7ED017AF5EEC07AF1EECF
:102B300010FA05D5D7ED017AF1EE677AC7ED017A83
:102B400097ED017AD7ED037AB4EEE77AF1EE10FA59
:102B500001DDFB680BE097ED017AD7ED027AB4EE68
:102B6000E77AF1EE10FA01D5BB6800E07B6807EE6A
:102B7000903AB0EE670A1437BD465DF8047B7047A3
:102B800080B582B000AF87ED010AC7ED000AD7ED2E
:102B9000000A97ED010AFFF77DFF97ED011ADFEDBF
:102BA0001D0A9FED1D0AFFF7B5FF87ED010A97ED9E
:102BB000001ADFED180A9FED180AFFF7ABFF87ED4B
:102BC000000AD7ED017A9FED157A67EE877AFCEE61
:102BD000E77A17EE901A1248FFF7ADFED7ED007AAC
:102BE0009FED0E7A67EE877AFCEEE77A17EE901A81
:102BF0004FF08040FFF7ADFE00210948FFF76AFE65
:102C000000214FF08040FFF765FE00BF0837BD464A
:102C100080BD00BF00000000CDCC4C3E0000C6428D
:102C20000000014080B582B000AF0020FFF7CCFE6D
:102C30000346FB71FB79002B10D101210948FFF7F6
:102C400068FE10214FF08040FFF763FE0548FFF754
:102C500031FE4FF08040FFF72DFE00E000BF083747
:102C6000BD4680BD0000014080B485B000AF7860F3
:102C700039600023FB603B68002B03D17B684C3339
:102C8000FB6001E0044BFB60FB6818461437BD464F
:102C90005DF8047B704700BF0823014080B483B017
:102CA00000AF78607B689B6843F001027B689A60A4
:102CB00000BF0C37BD465DF8047B704780B483B01D
:102CC00000AF78607B689B6843F080427B689A60C5
:102CD00000BF0C37BD465DF8047B704780B483B0FD
:102CE00000AF78607B686FF002021A6000BF0C379B
:102CF000BD465DF8047B704780B483B000AF786058
:102D000039600C4A3B6813441B781A467B681344AD
:102D10001B6808493A680A44127811467A680A44DE
:102D200043F00103136000BF0C37BD465DF8047B20
:102D3000704700BF64AF000880B483B000AF786014
:102D400039600C4A3B6813441B781A467B6813446D
:102D50001B6808493A680A44127811467A680A449E
:102D600023F00103136000BF0C37BD465DF8047B00
:102D7000704700BF64AF000880B485B000AFF86052
:102D8000B9607A600D4ABB6813441B781A46FB6829
:102D900013445B681B0C1B040849BA680A44127888
:102DA0001146FA680A4411467A6813434B6000BF23
:102DB0001437BD465DF8047B704700BF64AF000860
:102DC00080B485B000AFF860B9607A603B60BB69E1
:102DD000402B14D1174ABB6813441B781A46FB6872
:102DE00013441A467B68D360124ABB6813441B78AD
:102DF0001A46FB6813441A463B68936013E00D4A79
:102E0000BB6813441B781A46FB6813441A467B6858
:102E10009360084ABB6813441B781A46FB68134446
:102E20001A463B68D36000BF1437BD465DF8047B8B
:102E3000704700BF64AF000880B483B000AF786013
:102E400039600C4A3B6813441B781A467B6813446C
:102E50001B6808493A680A44127811467A680A449D
:102E600043F01003136000BF0C37BD465DF8047BD0
:102E7000704700BF64AF000880B582B002AF002188
:102E80000F48FFF759FF00210E48FFF7EDFE0246FD
:102E90000D49002300930B4600210948FFF790FFDE
:102EA000052200210648FFF767FF00210448FFF7CD
:102EB00023FF0448FFF702FF00BFBD4680BD00BFEF
:102EC00000640240002001405C03002080B483B015
:102ED00000AF0346FB71FB79012B03D1064B08229F
:102EE0009A6103E0044B4FF400229A6100BF0C3753
:102EF000BD465DF8047B70470000024080B483B09B
:102F000000AF0346FB71FB79012B03D1064B042272
:102F10009A6103E0044B4FF480229A6100BF0C37A2
:102F2000BD465DF8047B70470008024080B483B062
:102F300000AF0346FB71FB79012B03D1064B8022C6
:102F40009A6103E0044B4FF400029A6100BF0C3712
:102F5000BD465DF8047B70470000024080B483B03A
:102F600000AF0346FB71FB79012B03D1064B08220E
:102F70009A6103E0044B4FF400229A6100BF0C37C2
:102F8000BD465DF8047B70470008024080B483B002
:102F900000AF0346FB71FB79012B03D1064B4022A6
:102FA0009A6103E0044B4FF480029A6100BF0C3732
:102FB000BD465DF8047B70470000024090B583B0C9
:102FC00000AF0446084611461A462346FB710346E5
:102FD000BB710B467B7113463B71FB7903F0010318
:102FE000DBB21846FFF7A2FFBB7903F00103DBB2A7
:102FF0001846FFF7CBFF7B7903F00103DBB21846DD
:10300000FFF764FF3B7903F00103DBB21846FFF7DB
:10301000A5FF3B7E03F00103DBB21846FFF76EFF0E
:1030200000BF0C37BD4690BD80B483B000AF0346EF
:10303000FB71FB79044A32F8133018460C37BD4651
:103040005DF8047B704700BF5C03002080B500AFD3
:1030500000210548FFF7F0FE0448FFF71FFEFFF7C9
:103060000BFF00BF80BD00BF006402400020014094
:1030700080B500AF0348FFF731FEFFF7FDFE00BF4C
:1030800080BD00BF0021014090B482B000AF044673
:10309000084611461A462346FB710346BB710B4690
:1030A0007B7113463B71FB7903F00103D9B2124ADD
:1030B000537861F300035370BB7903F00103D9B275
:1030C0000D4A537861F3410353707B7903F0010398
:1030D000D9B2094A537861F3C30353703B7903F0C3
:1030E0000103D9B2044A137861F3C303137000BF1C
:1030F0000837BD4690BC70476803002090B482B08A
:1031000000AF0446084611461A462346FB710346A3
:10311000BB710B467B7113463B71FB7903F00103D6
:10312000D9B2124A137861F304131370BB7903F018
:103130000103D9B20D4A137861F3451313707B79FB
:1031400003F00103D9B2094A137861F386131370AF
:103150003B7903F00103D9B2044A137861F3C71332
:10316000137000BF0837BD4690BC7047680300204D
:1031700080B483B000AF0023BB7113E00023FB7168
:103180000AE0BA79FB79324912010A441344F02269
:103190001A70FB790133FB71FB790F2BF1D9BB79E5
:1031A0000133BB71BB790F2BE8D90023BB7120E041
:1031B000BB79274A1B0113441A78BB7962F00E02CF
:1031C000D1B2234A1B0113440A461A70BB79204A24
:1031D0001B0113440F331A78BB7962F00B02D1B292
:1031E0001B4A1B0113440F330A461A70BB79013383
:1031F000BB71BB790F2BDBD90023FB7119E0FB7985
:10320000134AD25CFB7962F00D02D1B2104AD1545C
:10321000FB790F4A134493F8F020FB7962F0070220
:10322000D1B20B4A13440A4683F8F020FB790133EC
:10323000FB71FB790F2BE2D9054BF7221A70044B77
:10324000F3225A7000BF0C37BD465DF8047B70470F
:103250001CC1002090B484B000AF0346FB71FB7921
:103260008B4A92781341DBB203F00F03FB73FB7BB5
:103270001B015AB297F90F3013435BB2FB73844BB7
:103280005B781846824B1B781946824A0301134427
:103290000B44FA7B1A707E4B5B780F2B39D0FB7B8B
:1032A00003F08803002B1AD0794B5B780133784AFE
:1032B00012781146774A1B0113440B441A78744B59
:1032C0005B78013372490978084642F02202D1B294
:1032D000704A1B01134403440A461A7019E06C4BF0
:1032E0005B7801336A4A127811466A4A1B0113441B
:1032F0000B441A78664B5B780133654909780846B8
:1033000022F02202D1B2634A1B01134403440A464D
:103310001A705F4B1B780F2B39D0FB7B03F04403F3
:10332000002B1AD05A4B5B781A46594B1B78013345
:10333000584912010A4413441A78554B5B781C46CD
:10334000534B1B78013342F01102D0B25149220194
:103350000A44134402461A7019E04D4B5B781A4632
:103360004B4B1B7801334B4912010A4413441A7822
:10337000474B5B781C46464B1B78013322F0110209
:10338000D0B2444922010A44134402461A70404B09
:103390005B78002B39D0FB7B03F02203002B1AD083
:1033A0003B4B5B78013B3A4A12781146394A1B0184
:1033B00013440B441A78364B5B78013B3449097847
:1033C000084662F07702D1B2324A1B01134403442B
:1033D0000A461A7019E02E4B5B78013B2C4A127892
:1033E00011462C4A1B0113440B441A78284B5B7876
:1033F000013B27490978084602F07702D1B2254AF5
:103400001B01134403440A461A70214B1B78002BFE
:1034100039D0FB7B03F01103002B1AD01C4B5B78D7
:103420001A461B4B1B78013B1A4912010A441344EC
:103430001A78174B5B781C46154B1B78013B42F002
:103440004402D0B2134922010A44134402461A70BE
:1034500019E00F4B5B781A460D4B1B78013B0D4969
:1034600012010A4413441A78094B5B781C46084B36
:103470001B78013B22F04402D0B2064922010A44E3
:10348000134402461A7000BF1037BD4690BC704707
:1034900014C100201CC1002080B485B000AF0346D9
:1034A000FB710023BB7313E00023FB730AE0BA7BBC
:1034B000FB7B8D4912011344FF2221F81320FB7B73
:1034C0000133FB73FB7B0F2BF1D9BB7B0133BB7348
:1034D000BB7B0F2BE8D9FB79022B30D1834B5B7878
:1034E0000133824A127811467F4A1B010B440021A6
:1034F00022F813107D4B5B781A467C4B1B78013306
:10350000794912011344002221F81320774B5B788C
:103510005A1C764B1B780133734912011344002265
:1035200021F81320714B5B781846704B1B781946B5
:103530006D4A03010B44002122F813100EE0FB79C1
:10354000012B0BD1694B5B781846684B1B781946E9
:10355000654A03010B44002122F813100023BB81AC
:103560000023FB720023BB73A1E00023FB7397E0F1
:10357000BA7BFB7B5C491201134431F81330BA89E2
:103580009A4240F08A80BA7BFB7B594912010A4477
:1035900013441B78FB72574B1B7803F00203DBB21A
:1035A000002B02D0FB7A1B09FB72FB7A03F00803A5
:1035B000002B18D1BB7B0F2B15D0BB7B5A1CFB7B80
:1035C00049491201134431F81330FF2B0BD1BB7B57
:1035D0005A1CFB7BB989013188B24349120113445B
:1035E000024621F81320FB7A03F00403002B18D1C4
:1035F000FB7B0F2B15D0BA7BFB7B01333A491201C1
:10360000134431F81330FF2B0BD1BA7BFB7B013312
:10361000B989013188B2344912011344024621F8B4
:103620001320FB7A03F00203002B18D1BB7B002B85
:1036300015D0BB7B5A1EFB7B2B491201134431F87A
:103640001330FF2B0BD1BB7B5A1EFB7BB989013199
:1036500088B2254912011344024621F81320FB7A4F
:1036600003F00103002B18D1FB7B002B15D0BA7B94
:10367000FB7B013B1C491201134431F81330FF2B33
:103680000BD1BA7BFB7B013BB989013188B216496A
:1036900012011344024621F81320FB7B0133FB7314
:1036A000FB7B0F2B7FF664AFBB7B0133BB73BB7B14
:1036B0000F2B7FF65AAFBB890133BB810E4B5B7872
:1036C00018460D4B1B781946074A03010B4432F884
:1036D0001330FF2B3FF446AFBB8918461437BD4665
:1036E0005DF8047B704700BFECBE002018C10020CD
:1036F0001CC100206803002014C1002080B582B0E6
:1037000000AF0023FB718D4B9B78BB70FB795A1C7B
:10371000FA711A468A4BFF219954FB79FF2BF5D198
:10372000864B5B781846854B1B781946854A030102
:103730000B4432F813307B71804B1B783B717F4B0D
:103740005B78FB700023FB71FA783B797E491201AC
:103750000A4413441B78BB717C4B1B7803F00203B3
:10376000DBB2002B02D0BB791B09BB71BB7903F024
:103770000403002B23D1FA783B79013371491201FC
:10378000134431F813207B799BB29A4217D26B4BCA
:103790009B78C3F10103DAB2FB7902F00302D1B2E4
:1037A000674AD154FA783B790133664912011344D0
:1037B00031F813307B713B7901333B7178E0BB7991
:1037C00003F00803002B22D1FB785A1C3B795D499A
:1037D0001201134431F813207B799BB29A4216D21E
:1037E000564B9B785B42DAB2FB7902F00302D1B20E
:1037F000534AD154FB785A1C3B7952491201134465
:1038000031F813307B71FB780133FB7050E0BB79EA
:1038100003F00203002B23D1FB785A1E3B79494960
:103820001201134431F813207B799BB29A4217D2CC
:10383000424B9B78C3F10203DAB2FB7902F0030238
:10384000D1B23F4AD154FB785A1E3B793D4912010F
:10385000134431F813307B71FB78013BFB7027E098
:10386000BB7903F00103002B22D1FA783B79013BAD
:1038700034491201134431F813207B799BB29A42E8
:1038800016D22E4B9B78C3F10303DAB2FB7902F018
:103890000302D1B22A4AD154FA783B79013B294933
:1038A0001201134431F813307B713B79013B3B71BA
:1038B000FB79234AD35C032B27D801A252F823F0CB
:1038C000D1380008DB380008EB380008FB38000866
:1038D000FB791B4A8821D1541CE0012000F096F8A6
:1038E000FB79174A4421D15414E0022000F08EF8ED
:1038F000FB79134A2221D1540CE0FF2000F086F816
:10390000FB790F4A1121D15404E0FB790C4A0021C4
:10391000D15400BFFB790133FB71FA783B79094937
:103920001201134431F81330002B7FF40DAF034A1A
:10393000BB78937000BF0837BD4680BD14C100201E
:1039400040C20020ECBE00201CC100206803002003
:1039500080B582B000AF03460A46FB711346BB71C7
:10396000BB791846FFF776FC0B4B5B881A460B4B6E
:103970009A5CBB791340DBB2002B08D0FB79184668
:10398000FFF78AFDFFF7BAFE034B00225A8000BF03
:103990000837BD4680BD00BF10C1002040C20020D6
:1039A00080B400AF184B9B78032B27D801A252F8A4
:1039B00023F000BFC5390008D3390008E1390008F9
:1039C000EF390008104B5B780133DAB20E4B5A70B6
:1039D00014E00D4B1B780133DAB20B4B1A700DE07B
:1039E000094B5B78013BDAB2074B5A7006E0064B95
:1039F0001B78013BDAB2044B1A7000BF00BFBD4612
:103A00005DF8047B704700BF14C1002080B483B010
:103A100000AF0346FB71FB79002B0AD0084B9A7864
:103A2000FB791344DBB203F00303DAB2044B9A7060
:103A300000E000BF0C37BD465DF8047B704700BF57
:103A400014C1002080B485B000AF0346FB710B4663
:103A5000BB7113467B71FB793B72BB797B727B79BF
:103A6000BB7207F10C0307F10802126811461980B6
:103A70000233120C1A7000233A7B62F307037A7B3D
:103A800062F30F23BA7B62F3174318461437BD461F
:103A90005DF8047B7047000080B500AF144B1B78C5
:103AA00003F00403DBB2002B10D0FFF761FB002210
:103AB00000210020FFF7C6FF02460E4B1146197089
:103AC000C2F307215970C2F307429A700A4B0022D1
:103AD0001A80094B00225A800220FFF7DDFC0346C2
:103AE0001A46054B1A80FFF709FE00BF80BD00BFD4
:103AF0006803002014C1002010C1002080B582B0EE
:103B000000AFFEF7FFFD0023FB711AE00023BB713D
:103B100011E0FB791A01BB7913441846FA79BB7995
:103B20000C4912010A4413441B781946FEF7BEFDE6
:103B3000BB790133BB71BB790F2BEAD9FB79013318
:103B4000FB71FB790F2BE1D900BF00BF0837BD46E1
:103B500080BD00BF1CC10020B0B582B000AF002303
:103B6000FB711CE00023BB7113E0FB791A01BB79E8
:103B70001344FD79BC791846FEF7B2FD0346194699
:103B80000B4A2B01134423440A461A70BB790133B4
:103B9000BB71BB790F2BE8D9FB790133FB71FB7942
:103BA0000F2BDFD900BF00BF0837BD46B0BD00BF37
:103BB0001CC1002080B588B000AF87ED030AC7EDB7
:103BC000020A0346FB71604B1B69BB61FB7903F082
:103BD0000103DBB2002201210120FFF755FA5B4B04
:103BE00093ED057AD7ED027A77EE677AC7ED057A1D
:103BF000D7ED057A67EEA77AB6EE007A67EE876AA8
:103C0000524B93ED067AC6EE877A9FED517A67EEB6
:103C1000877AC7ED077A97ED037AD7ED077AB4EE86
:103C2000E77AF1EE10FA07D5D7ED037AB6EE007A0F
:103C300067EE877AC7ED077AD7ED027AF0EEE77A7A
:103C4000C7ED027A0023002200210120FFF756FA77
:103C500000BF3D4B93ED047AD7ED066AD7ED037AAA
:103C600076EEA76AD7ED077A76EEE77AB4EEE77AD2
:103C7000F1EE10FAEDD4354BD3ED057A97ED027ADB
:103C8000B4EE677AF1EE10FA33D00023002201215E
:103C90000020FFF733FA0EE02E4BD3ED057A97EDB7
:103CA000027AB4EEE77AF1EE10FA00DA03E0294A7C
:103CB000BB6853612BE0244B93ED047AD7ED066A81
:103CC000D7ED037A76EEA77AB4EEE77AF1EE10FA42
:103CD000E2D41CE01F4BD3ED057A97ED027AB4EEE7
:103CE000E77AF1EE10FA00DA03E01A4ABB68536192
:103CF0000DE0154B93ED047AD7ED066AD7ED037A04
:103D000076EEA77AB4EEE77AF1EE10FAE2D4002369
:103D1000002200210020FFF7F1F9002300220021FA
:103D20000120FFF7B1F90B4ABB685361D7ED027A66
:103D3000F5EE407AF1EE10FA02D1C820FEF7F4FA5F
:103D400000BF2037BD4680BD24030020E4020020D0
:103D500000007A444003002080B584B000AF87EDB6
:103D6000010A6A4B1B68BB6000230022012101206D
:103D7000FFF78AF9664B93ED017A654BD3ED017A33
:103D800067EE277AB6EE007A67EE876A604B93EDAE
:103D9000027AC6EE877A9FED5F7A67EE877AC7ED83
:103DA000037AD7ED017AF0EEE77A97ED037AB4EE75
:103DB000E77AF1EE10FA09DDD7ED017AF0EEE77A55
:103DC000B6EE007A67EE877AC7ED037A524B4FF072
:103DD00000025A61504B4FF000025A60D7ED017A51
:103DE000F5EEC07AF1EE10FA3CDD0023012200214D
:103DF0000020FFF783F900BF444B93ED007AD7ED25
:103E0000026AD7ED017A76EEA76AD7ED037A76EEED
:103E1000E77AB4EEE77AF1EE10FAEDD4012300224E
:103E200000210020FFF76AF90DE03B4BD3ED017A4A
:103E3000F5EEC07AF1EE10FA00D904E0364B4FF0FF
:103E400000025A604AE0314B93ED007AD7ED026AE6
:103E5000D7ED017A76EEA77AB4EEE77AF1EE10FAB2
:103E6000E3D43BE00123002200210020FFF746F9C4
:103E700000BF264B93ED007AD7ED026AD7ED017AA9
:103E800076EEA76AD7ED037A76EEA77AB4EEE77AF4
:103E9000F1EE10FAEDDC0023012200210020FFF7F3
:103EA0002DF90DE01C4BD3ED017AF5EEC07AF1EE61
:103EB00010FA00DA04E0184B4FF000025A600DE0EF
:103EC000124B93ED007AD7ED026AD7ED017A76EEC8
:103ED000A77AB4EEE77AF1EE10FAE3DC00230022D1
:103EE00000210020FFF70AF90B4B4FF000025A6047
:103EF000094B93ED007AD7ED017A77EE277A064BDE
:103F0000C3ED007A00BF1037BD4680BD24030020FA
:103F1000E4020020CC2E65424003002080B584B02E
:103F200000AF87ED010A684B1B68BB6000230022CD
:103F300001210120FFF7A8F8644B93ED017A634B50
:103F4000D3ED017A67EE277AB6EE007A67EE876ADC
:103F50005E4B93ED027AC6EE877A9FED5D7A67EE4F
:103F6000877AC7ED037AD7ED017AF0EEE77A97ED1D
:103F7000037AB4EEE77AF1EE10FA09DDD7ED017AB3
:103F8000F0EEE77AB6EE007A67EE877AC7ED037A4D
:103F9000504B4FF000025A60D7ED017AF5EEC07A2F
:103FA000F1EE10FA3CDD0023012200210120FFF791
:103FB000A5F800BF444B93ED007AD7ED026AD7ED28
:103FC000017A76EEA76AD7ED037A76EEE77AB4EE59
:103FD000E77AF1EE10FAEDD401230022002101204E
:103FE000FFF78CF80DE03B4BD3ED017AF5EEC07A8C
:103FF000F1EE10FA00D904E0364B4FF000025A609F
:104000004AE0314B93ED007AD7ED026AD7ED017AA1
:1040100076EEA77AB4EEE77AF1EE10FAE3D43BE05D
:104020000123002200210120FFF768F800BF264B82
:1040300093ED007AD7ED026AD7ED017A76EEA76AA2
:10404000D7ED037A76EEA77AB4EEE77AF1EE10FABE
:10405000EDDC0023012200210120FFF74FF80DE0E5
:104060001C4BD3ED017AF5EEC07AF1EE10FA00DACE
:1040700004E0184B4FF000025A600DE0124B93ED34
:10408000007AD7ED026AD7ED017A76EEA77AB4EE20
:10409000E77AF1EE10FAE3DC002300220021012090
:1040A000FFF72CF80B4B4FF000025A60094B93EDD1
:1040B000007AD7ED017A77EE277A064BC3ED007AC6
:1040C00000BF1037BD4680BD24030020E40200205D
:1040D000CC2E65424003002080B582B000AF03467D
:1040E0000A46FB711346BB710C4BD3ED057AFB7985
:1040F0001846F0EE670A9FED0A0AFFF75BFDBB79F1
:1041000003F00103002B03D000F018FC034600E08D
:10411000002318460837BD4680BD00BFE4020020DA
:104120000000B44280B582B000AF0346FB71FB795A
:104130001846DFED050A9FED050AFFF73BFD00BFBE
:104140000837BD4680BD00BF000000000000B4423B
:1041500080B584B000AF0346FB710023FB73FB798D
:1041600003F00103DBB200211846FFF7B5FFFB792E
:1041700003F00103DBB201211846FFF7ADFF034650
:10418000FB73FB7B18461037BD4680BD80B500AF82
:10419000124A537843F01003537000230022002189
:1041A0000020FEF771FF4FF4FA70FEF7BDF80B4ADE
:1041B00053786FF304135370002300220121012070
:1041C000FEF762FFC820FEF7AFF8002300220021AF
:1041D0000020FEF759FF00BF80BD00BF680300202C
:1041E00080B500AF9FED040AFFF7B6FD6420FEF72F
:1041F0009BF800BF80BD00BF000034C380B582B013
:1042000000AF0023FB71104A53786FF382035370A1
:104210009FED0E0AFFF782FE0B4A537843F004032A
:1042200053700B4BD3ED057A0120F0EE670AB3EE25
:10423000040AFFF7BFFC00F081FB0346FB71FB792A
:1042400018460837BD4680BD680300200000B4C290
:10425000E402002080B582B000AF0023FB71104A59
:1042600053786FF3820353709FED0E0AFFF756FEEB
:104270000B4A537843F0040353700B4BD3ED057A8C
:104280000120F0EE670AB3EE020AFFF793FC00F09C
:1042900055FB0346FB71FB7918460837BD4680BDC8
:1042A000680300200000B442E402002080B586B01C
:1042B00000AF87ED010A3E4B1B697B613D4B5B699B
:1042C0003B610023002201210120FEF7DDFE394B76
:1042D000394A5A61374B93ED057A364BD3ED057A5F
:1042E00067EE277AB6EE007A67EE876A314B93ED78
:1042F000067AC6EE877A9FED317A67EE877AC7ED48
:10430000037A0023002201210020FEF7F7FE00BF00
:10431000274B93ED047AD7ED056AD7ED017A76EE57
:10432000E76AD7ED037A76EEA77AB4EEE77AF1EE94
:1043300010FAEDDC0023002200210120FEF7DEFE52
:104340000DE01F4BD3ED057AF5EEC07AF1EE10FAD1
:1043500000DA04E01A4B4FF000025A610DE0144BF2
:1043600093ED047AD7ED056AD7ED017A76EEE77A18
:10437000B4EEE77AF1EE10FAE3DC0023002200212C
:104380000020FEF7BBFE0023002200210120FEF7E3
:104390007BFE0B4B4FF000025A61064A3B695361AA
:1043A000C820FDF7C1FF00BF1837BD4680BD00BF64
:1043B00024030020E4020020CDCC4C3E00007A44CF
:1043C0004003002080B500AF64214FF4C460FEF7C5
:1043D0006FF8642140F62D00FEF76AF8642140F67C
:1043E0002D10FEF765F8642140F64D20FEF760F8C9
:1043F000642140F62D10FEF75BF83220FDF794FFA4
:10440000322140F62D00FEF753F83220FDF78CFFE5
:10441000C82140F62D00FEF74BF800BF80BD80B5E7
:1044200000AF4FF496714FF4C460FEF741F84FF4BB
:10443000967140F27550FEF73BF84FF4967140F2DA
:104440002650FEF735F800BF80BD80B500AF64216F
:1044500040F62D10FEF72CF864214FF4DC60FEF7D7
:1044600027F80A20FDF760FFC8214FF4DC60FEF753
:104470001FF83220FDF758FF642140F62D10FEF79B
:1044800017F864214FF4DC60FEF712F80A20FDF7FC
:104490004BFFC8214FF4DC60FEF70AF83220FDF72D
:1044A00043FF642140F62D10FEF702F8642140F628
:1044B0002D00FDF7FDFF642140F62D10FDF7F8FFFC
:1044C000642140F62D00FDF7F3FFC8214FF4DC60B6
:1044D000FDF7EEFF3220FDF727FF00BF80BD80B55E
:1044E00000AF642140F62D10FDF7E2FF642140F695
:1044F0004D20FDF7DDFF642140F62D10FDF7D8FFBC
:1045000064214FF4DC60FDF7D3FF642140F62D10E9
:10451000FDF7CEFF4FF4C870FDF706FF642140F6AB
:104520002D10FDF7C5FF642140F64D20FDF7C0FFBB
:10453000642140F62D10FDF7BBFF642140F22650A8
:10454000FDF7B6FF64214FF44460FDF7B1FF64212D
:1045500040F22650FDF7ACFF642140F62D10FDF728
:10456000A7FF642140F64D20FDF7A2FF642140F62D
:104570002D10FDF79DFF642140F62D00FDF798FFFB
:1045800064214FF4DC60FDF793FF00BF80BD80B570
:1045900000AFC82140F29640FDF78AFFC82140F2E3
:1045A0007550FDF785FFC8214FF4C460FDF780FF0B
:1045B000642140F27550FDF77BFF64214FF4C46025
:1045C000FDF776FFC8214FF4DC60FDF771FFC821CD
:1045D00040F21640FDF76CFFC82140F29640FDF70F
:1045E00067FF00BF80BD000080B483B000AF03460A
:1045F000FB80B7F9063007EE903AF8EEE77A9FEDC8
:10460000057A67EE877AB0EE670A0C37BD465DF82B
:10461000047B704772926A3B80B400AF274BDB6823
:1046200007EE903AF8EEE77A9FED257A67EE877A03
:10463000B1EE007A27EE877AF3EE056AC7EE267AA6
:1046400077EEA77A9FED1F7A27EE877ADFED1E6A55
:10465000C7EE267A194BC3ED067A184B9B6807EE16
:10466000903AF8EEE77A9FED167A67EE877AB1EE28
:10467000007A27EE877AF3EE056AC7EE267A77EEA0
:10468000A77A9FED107A27EE877ADFED0F6AC7EEE3
:10469000267A0A4BC3ED057A084B93ED067A074B51
:1046A000D3ED057A77EE277AB6EE007A67EE877A51
:1046B000B0EE670ABD465DF8047B704740C300203A
:1046C00000004441D00F49400000804580B483B0D1
:1046D00000AF87ED010A094BD3ED077A9FED087A09
:1046E00027EE877AD7ED017A77EE277AB0EE670A60
:1046F0000C37BD465DF8047B704700BF40C3002007
:104700006F12833A80B483B000AF0C4B93ED007A04
:104710000A4BD3ED017A77EE277AB6EE007A67EE90
:10472000877AC7ED017A7B6807EE903AB0EE670AA8
:104730000C37BD465DF8047B704700BF40C30020C6
:1047400080B400AF044BDB6907EE903AB0EE670A25
:10475000BD465DF8047B704740C3002080B582B041
:1047600002AF012300930123012201210120FEF762
:1047700025FC2820FDF7E6FD0020FEF755FC03464A
:104780001A46144BDA870220FEF74EFC03461A46FF
:10479000104B5A870320FEF747FC03461A460D4B81
:1047A0001A870420FEF740FC03461A46094BDA86B6
:1047B0000120FEF739FC03461A46064B9A87002370
:1047C00000930023002200210020FEF7F7FB00BF2A
:1047D000BD4680BD40C3002080B582B002AF01233A
:1047E00000930023012201210020FEF7E7FB28208F
:1047F000FDF7A8FD0020FEF717FC03461A461A4BEA
:104800009A860220FEF710FC03461A46164B1A86BB
:104810000320FEF709FC03461A46134BDA850023F2
:1048200000930123002200210120FEF7C7FB28206E
:10483000FDF788FD0420FEF7F7FB03461A460A4BF6
:104840009A850120FEF7F0FB03461A46064B5A866E
:10485000002300930023002200210020FEF7AEFB7E
:1048600000BFBD4680BD00BF40C3002080B584B0FE
:1048700000AF0346FB800023FB814FF00003BB60C9
:104880000023FB810FE0FDF7ABFCB0EE407AD7EDE3
:10489000027A77EE877AC7ED027A0120FDF744FDB0
:1048A000FB890133FB81FA89FB889A42EBD3FB88B1
:1048B00007EE903AB8EEE77AD7ED026AC6EE877A4D
:1048C000C7ED027ABB6807EE903AB0EE670A103780
:1048D000BD4680BD80B584B000AF0346FB80002399
:1048E000FB814FF00003BB600023FB810FE0FDF76D
:1048F0009DFCB0EE407AD7ED027A77EE877AC7ED6D
:10490000027A0120FDF710FDFB890133FB81FA8952
:10491000FB889A42EBD3FB8807EE903AB8EEE77A31
:10492000D7ED026AC6EE877AC7ED027ABB6807EE5A
:10493000903AB0EE670A1037BD4680BD80B483B0B0
:1049400000AF0023FB71114B9B8E322B03D80F4B12
:104950009B8D322B03D9FB7963F07703FB710B4BF3
:104960005B8E142B03D9FB7943F04403FB71074B97
:10497000DB8D282B03D9FB7943F01103FB71FB7905
:1049800018460C37BD465DF8047B704740C30020D5
:1049900080B500AFFDF7CCFBFDF7D6FDFEF756FB6B
:1049A000034B0022DA60024B00229A6000BF80BDF8
:1049B00040C3002080B500AFFDF712FCB0EE407A96
:1049C000274BD3ED097A77EE677A254BC3ED077A4B
:1049D000FDF72CFCB0EE407A214BD3ED0A7A77EE4E
:1049E000677A1F4BC3ED087AF020FDF7CFFD034631
:1049F0009BB25B429BB21AB2194B5A820F20FDF751
:104A0000C5FD03461A46164B1A82154BDB68144A3D
:104A1000B2F912201344124AD360114B9B68104A1A
:104A2000B2F9102013440E4A93600D4BB3F91230C3
:104A30001846FFF7D9FDF0EE407A094BC3ED017A35
:104A4000074BB3F910301846FFF7CEFDF0EE407A71
:104A5000034BC3ED007AFFF7BFFE00BF80BD00BF70
:104A600040C3002080B500AF6420FFF733FFF0EEB5
:104A7000407A074BC3ED0A7A6420FFF7F7FEF0EEA9
:104A8000407A034BC3ED097AFFF768FE00BF80BD93
:104A900040C3002080B489B000AFF860B9607A608C
:104AA000FB682C331946BB6803F440734FF4407223
:104AB000BA61BA6992FAA2F27A617A69B2FA82F2BA
:104AC000D2B2D3409B000B44FB61FB691A68BB6800
:104AD00003F01F031F2101FA03F3DB431A407B6835
:104AE00003F01F01BB6803F01F0301FA03F31A432D
:104AF000FB691A6000BF2437BD465DF8047B704730
:104B000080B483B000AF786039607B689B6823F421
:104B100080623B681A437B689A6000BF0C37BD46D1
:104B20005DF8047B704780B48DB000AFF860B96069
:104B30007A60FB680C331946BB6803F000734FF0D2
:104B40000072BA61BA6992FAA2F27A617A69B2FA2B
:104B500082F2D2B2D3409B000B44FB62FB6A1A681C
:104B6000BB6803F0F8734FF0F8713962396A91FA53
:104B7000A1F1F961F969B1FA81F1C9B2CB4007211C
:104B800001FA03F3DB431A40BB6803F0F8734FF0FC
:104B9000F871B962B96A91FAA1F17962796AB1FAE8
:104BA00081F1C9B2CB40796801FA03F31A43FB6A79
:104BB0001A6000BF3437BD465DF8047B70470000C3
:104BC00080B485B000AFF860B9607A600D4ABB6808
:104BD00013441B781A46FB6813441B6823F0C00279
:104BE0000849BB680B441B781946FB680B441946FF
:104BF0007B6813430B6000BF1437BD465DF8047B30
:104C0000704700BF6CAF000880B485B000AFF8609B
:104C1000B9607A600D4ABB6813441B781A46FB687A
:104C200013441B6823F490720849BB680B441B783B
:104C30001946FB680B4419467B6813430B6000BFA1
:104C40001437BD465DF8047B704700BF6CAF0008A9
:104C500080B485B000AFF860B9607A600D4ABB6877
:104C600013441B781A46FB6813441B6823F4007234
:104C70000849BB680B441B781946FB680B4419466E
:104C80007B6813430B6000BF1437BD465DF8047B9F
:104C9000704700BF6CAF000880B485B000AFF8600B
:104CA000B9607A600D4ABB6813441B781A46FB68EA
:104CB00013441B6823F480620849BB680B441B78CB
:104CC0001946FB680B4419467B6813430B6000BF11
:104CD0001437BD465DF8047B704700BF6CAF000819
:104CE00080B485B000AFF860B9607A600D4ABB68E7
:104CF00013441B781A46FB6813441B6823F4C05204
:104D00000849BB680B441B781946FB680B441946DD
:104D10007B6813430B6000BF1437BD465DF8047B0E
:104D2000704700BF6CAF000880B485B000AFF8607A
:104D3000B9607A600D4ABB6813441B781A46FB6859
:104D400013441B6823F4C0420849BB680B441B781A
:104D50001946FB680B4419467B6813430B6000BF80
:104D60001437BD465DF8047B704700BF6CAF000888
:104D700080B485B000AFF860B9607A600D4ABB6856
:104D800013441B781A46FB6813441B6823F4403213
:104D90000849BB680B441B781946FB680B4419464D
:104DA0007B6813430B6000BF1437BD465DF8047B7E
:104DB000704700BF6CAF000880B485B000AFF860EA
:104DC000B9607A600D4ABB6813441B781A46FB68C9
:104DD00013441B6823F060620849BB680B441B78CE
:104DE0001946FB680B4419467B6813430B6000BFF0
:104DF0001437BD465DF8047B704700BF6CAF0008F8
:104E000080B483B000AF786039600C4A3B681344CB
:104E10001B781A467B6813445B6908493A680A4460
:104E2000127811467A680A4423F00403536100BFE4
:104E30000C37BD465DF8047B704700BF6CAF0008BF
:104E400080B485B000AF7860084B1A6B07497B6867
:104E500013430B63054B1A6B7B681340FB60FB68C5
:104E600000BF1437BD465DF8047B70470038024030
:104E700080B485B000AF7860084B5A6C07497B68F6
:104E800013434B64054B5A6C7B681340FB60FB6813
:104E900000BF1437BD465DF8047B70470038024000
:104EA00080B592B000AF07F13C0300221A605A604F
:104EB0009A6007F1280300221A605A609A60DA604B
:104EC0001A6107F1180300221A605A609A60DA60CA
:104ED0003B4600221A605A609A60DA601A615A6191
:104EE0004FF48070FFF7C4FF0120FFF7A9FF3723BD
:104EF0003B6003237B6000233B613B4619464E48E1
:104F000002F0F1F8002200214C48FFF755FF002283
:104F100000214A48FFF754FE002200214748FFF7CE
:104F200027FF002200214548FFF76EFE00220021E6
:104F30004248FFF78DFE4FF4806200213F48FFF7A3
:104F4000ABFE4FF4006200213C48FFF7C9FE4FF46E
:104F5000005200213948FFF7E7FE00213748FFF7EC
:104F60004FFF4FF08073FB6300233B644FF480736B
:104F70007B6407F13C031946314801F041FF0023EF
:104F8000BB624FF48003FB6200233B6300237B631F
:104F90004FF44073BB6307F128031946284801F01A
:104FA0005BFF00212648FFF7ABFD0023BB61002318
:104FB000FB6107F118031946224801F0D9FE4FF0B2
:104FC00000724FF400711E48FFF764FD01224FF09C
:104FD00000711B48FFF7A7FD1B4A40F20521184846
:104FE000FFF758FD012218491548FFF79CFD174AA5
:104FF00040F20A211248FFF74DFD012213491048E3
:10500000FFF791FD124A40F20F210D48FFF742FDD4
:1050100001220F490A48FFF786FD0E4A4FF4057139
:105020000748FFF737FD01220A490548FFF77BFDD6
:1050300000BF4837BD4680BD00000240006402400A
:105040000020014000230140010030020200600204
:105050000400C0020500F00280B400AF044BDB681E
:105060001B0A03F007031846BD465DF8047B704732
:1050700000ED00E080B483B000AF0346FB7197F908
:105080000730002B0BDBFB7903F01F02074997F970
:1050900007305B09012000FA02F241F8232000BF2B
:1050A0000C37BD465DF8047B704700BF00E100E0AF
:1050B00080B483B000AF03463960FB7197F90730C5
:1050C000002B0ADB3B68DAB20C4997F90730120172
:1050D000D2B20B4483F800230AE03B68DAB20849F5
:1050E000FB7903F00F03043B1201D2B20B441A7692
:1050F00000BF0C37BD465DF8047B704700E100E05F
:1051000000ED00E080B489B000AFF860B9607A606B
:10511000FB6803F00703FB61FB69C3F10703042B82
:1051200028BF0423BB61FB690433062B02D9FB694A
:10513000033B00E000237B614FF0FF32BB6902FAC2
:1051400003F3DA43BB681A407B699A404FF0FF31A2
:105150007B6901FA03F3D9437B680B40134318467C
:105160002437BD465DF8047B7047000080B485B0ED
:1051700000AF7860084B1A6B07497B6813430B63D9
:10518000054B1A6B7B681340FB60FB6800BF14374C
:10519000BD465DF8047B70470038024080B500AF23
:1051A0004FF48000FFF7E2FFFFF756FF03460022AF
:1051B00000211846FFF7A6FF034619463820FFF7DF
:1051C00077FF3820FFF756FF00BF80BD80B485B061
:1051D00000AF7860084B1A6B07497B6813430B6379
:1051E000054B1A6B7B681340FB60FB6800BF1437EC
:1051F000BD465DF8047B70470038024080B483B040
:1052000000AF786039603B681A047B689A6100BF20
:105210000C37BD465DF8047B7047000080B586B052
:1052200000AF3B4600221A605A609A60DA601A6149
:105230005A610420FFF7CAFF0120FFF7C7FF0220D1
:10524000FFF7C4FF0820FFF7C1FF4FF49671304805
:10525000FFF7D4FF4CF2C8012E48FFF7CFFF4CF206
:1052600033012D48FFF7CAFF04212C48FFF7C6FF82
:105270004FF496733B6001237B600023BB600023E7
:10528000FB6000233B613B461946214801F02BFFA0
:105290004CF2C8033B6001237B600023BB6000230A
:1052A000FB6000233B613B4619461A4801F01BFF97
:1052B0004CF233033B6001237B600023BB6000237F
:1052C000FB6000233B613B461946134801F00BFF8E
:1052D00004233B6001237B600023BB600023FB6051
:1052E00000233B613B4619460C4801F0FCFE4FF49D
:1052F00080733B6000237B6001233B613B46194682
:10530000054801F0F0FE00BF1837BD4680BD00BF64
:10531000000802400000024000040240000C02406D
:1053200080B485B000AF78607B6803F00703FB6052
:105330000C4BDB68BB60BA684FF6FF031340BB60E1
:10534000FB681A02BB68134343F0BF6343F40033A6
:10535000BB60044ABB68D36000BF1437BD465DF82C
:10536000047B704700ED00E080B400AF054B1B6884
:10537000044A43F00103136000BFBD465DF8047B9F
:10538000704700BF0038024080B400AF064B1B6876
:1053900003F00203022B0CBF01230023DBB21846EB
:1053A000BD465DF8047B70470038024080B483B08E
:1053B00000AF7860074B1B6823F0F8027B68DB00C6
:1053C000044913430B6000BF0C37BD465DF8047BF6
:1053D000704700BF0038024080B483B000AF7860EF
:1053E000064B9B6823F0030204497B6813438B60E0
:1053F00000BF0C37BD465DF8047B704700380240A3
:1054000080B400AF044B9B6803F00C031846BD4604
:105410005DF8047B704700BF0038024080B483B061
:1054200000AF7860064B9B6823F0F00204497B686C
:1054300013438B6000BF0C37BD465DF8047B70479B
:105440000038024080B483B000AF7860064B9B68A0
:1054500023F4E05204497B6813438B6000BF0C3790
:10546000BD465DF8047B70470038024080B483B0CD
:1054700000AF7860064B9B6823F4604204497B6868
:1054800013438B6000BF0C37BD465DF8047B70474B
:105490000038024080B400AF054B1B68044A43F05B
:1054A0008073136000BFBD465DF8047B704700BF8A
:1054B0000038024080B400AF074B1B6803F0007354
:1054C000B3F1007F0CBF01230023DBB21846BD46B9
:1054D0005DF8047B704700BF0038024080B485B09F
:1054E00000AFF860B9607A603B600D4B5A680D4BB5
:1054F0001340F968BA6811437A6892010A4308496F
:1055000013434B60064B5B6823F4403204493B680D
:1055100013434B6000BF1437BD465DF8047B7047F2
:10552000003802400080BFFF80B485B000AF7860D3
:10553000084B1A6C07497B6813430B64054B1A6CC4
:105540007B681340FB60FB6800BF1437BD465DF805
:10555000047B70470038024080B485B000AF7860AB
:10556000084B5A6C07497B6813434B64054B5A6CD4
:105570007B681340FB60FB6800BF1437BD465DF8D5
:10558000047B70470038024080B483B000AF78607D
:10559000064B1B6823F0070204497B6813430B602A
:1055A00000BF0C37BD465DF8047B7047003C0240ED
:1055B00080B400AF044B1B6803F007031846BD46D8
:1055C0005DF8047B704700BF003C024080B483B0AC
:1055D00000AF7860064B1B6823F4804204497B6867
:1055E00013430B6000BF0C37BD465DF8047B70476A
:1055F0000070004080B483B000AF78607B681B68A7
:1056000003F08003802B0CBF01230023DBB218467C
:105610000C37BD465DF8047B704780B483B000AFA3
:1056200078600B46FB70FA787B685A6000BF0C37D5
:10563000BD465DF8047B704780B584B000AF7860EC
:105640007B680A2B0DD10D23FB73FB7B19460E489B
:10565000FFF7E3FF00BF0C48FFF7CCFF0346002B2A
:10566000F9D07B68DBB219460748FFF7D6FF00BFC9
:105670000548FFF7BFFF0346002BF9D0002318466B
:105680001037BD4680BD00BF001001402DE9B04F6E
:1056900090B00AAF4FF48040FFF75EFF4FF08050AC
:1056A000FFF742FF0320FFF73BFED04B1B689B68D0
:1056B0000021184603F046FA00F0BAF9FFF7AEFDF4
:1056C000FFF76CFDFFF7ECFB00F0F2FE00F088FF47
:1056D00000F0FAFF01F072F801F054F901F0A8FAB5
:1056E00000F030FA01F0E8F901F0E2F801F020F9F9
:1056F000FCF7C2FE0120FCF717FEFEF763FEFFF782
:1057000047F9FCF7A3F8FCF747FE0346002B02D14C
:105710000120FBF70FFDB64A137843F00403137022
:10572000FBF7DAFB0346FB744FF4FA70FCF7FCFD61
:10573000FB7C0E2B00F2768101A252F823F000BF11
:105740007D5700086F580008DB580008F95800081A
:1057500057590008255A0008255A0008255A0008FC
:1057600079590008255A0008255A0008255A0008CA
:10577000DF5900080D5A0008195A00089C4A53784E
:105780006FF382035370FBF74DFC0023FB8269E04B
:10579000FA8A984913465B001344DB000B441B68EC
:1057A0001846FAF7D1FEC7E90201FA8A9149134671
:1057B0005B001344DB000B4404331B681846FAF704
:1057C000C3FE04460D46FA8A8A4913465B00134419
:1057D000DB000B4408331B681846FAF7B5FE804619
:1057E0008946FA8A834913465B001344DB000B4465
:1057F0000C331B681846FAF7A7FE82468B46FA8AD6
:105800007C4913465B001344DB000B4410331B68D8
:105810001846FAF799FEC7E90001FA8A7549134656
:105820005B001344DB000B4414331B681846FAF783
:105830008BFE02460B46CDE9082397ED007B8DEDEC
:10584000067BCDE904ABCDE90289CDE90045D7E976
:105850000223694803F0E8F80120FCF765FDFB8AA4
:105860000133FB82FB8AB3F5FA6F91D3DBE0FEF7DD
:105870008EFEFBF7D7FBFFF7F5F8FCF765FE5F4BF5
:105880004FF000021A60FDF7BDF85D4B07221A7059
:105890005B4B07225A700220FBF7D6FC584B0022C4
:1058A0001A70574B00225A70FDF7ACF80120FBF735
:1058B000CBFC534B07221A70514B07225A70FCF74E
:1058C0001BFDFDF79FF8FBF771FC0220FEF79EF829
:1058D000FCF71EFDFDF7A6F9A5E0FEF7B6FD444A6C
:1058E000137843F002031370414A13786FF3820375
:1058F0001370FEF731F996E0FBF794FBFFF7B2F86F
:10590000FCF722FEFCF7F8FCFDF77CF83D4B00228B
:105910001A8000210020FEF7DFFB00237B750DE0DD
:10592000FF20FCF78BFFFEF769FC0020FCF786FFE9
:105930000020FEF70DFC7B7D01337B757B7D0F2BFB
:10594000EED90020FEF7EEFBFEF74AFCFCF7E0FC88
:10595000FDF768F967E0FBF765FBFFF783F8FCF7F5
:10596000F3FDFCF7C9FCFDF74DF8FEF70FFCFCF763
:10597000CFFCFDF757F956E0FBF754FBFFF772F841
:10598000FCF7E2FDFCF7B8FC194A537843F0040336
:105990005370FDF737F800210020FEF79DFB194BEF
:1059A00000221A80FEF756FC0020FEF7D1FB0023F0
:1059B0003B7507E0FEF74EFC0020FEF7C9FB3B7D80
:1059C00001333B753B7D0F2BF4D90020FEF7AAFB7A
:1059D000FEF706FCFCF79CFCFDF724F923E00A48DF
:1059E00003F0A8F8FCF77CFA1DE000BF0C000020D3
:1059F000680300206C030020D8AE000824030020B8
:105A000018C100200802002004AF0008064803F077
:105A100091F8FCF733FA06E0044803F08BF8FCF742
:105A2000FDF900E000BF7BE620AF000840AF0008B2
:105A300080B500AF0520FFF7A7FD00BFFFF7B8FD59
:105A40000346052BFAD14FF48040FFF7BFFD10202D
:105A5000FFF7ACFCFFF788FC00BFFFF795FC03469F
:105A6000012BFAD10023A02208210020FFF736FDE8
:105A7000FFF710FD00BFFFF71DFD0346012BFAD114
:105A80000020FFF7CBFC4FF4A050FFF7DBFC4FF4F6
:105A90002040FFF7EBFC0220FFF79EFC00BFFFF762
:105AA000AFFC0346082BFAD1034802F0DDFA0248A6
:105AB00002F00EFB00BF80BD0068890980B485B08C
:105AC00000AF7860084B1A6B07497B6813430B6380
:105AD000054B1A6B7B681340FB60FB6800BF1437F3
